{"contracts/MedicalRecords.sol":{"MedicalRecords":{"abi":[{"inputs":[],"stateMutability":"nonpayable","type":"constructor"},{"inputs":[{"internalType":"address","name":"owner","type":"address"}],"name":"OwnableInvalidOwner","type":"error"},{"inputs":[{"internalType":"address","name":"account","type":"address"}],"name":"OwnableUnauthorizedAccount","type":"error"},{"anonymous":false,"inputs":[{"indexed":true,"internalType":"string","name":"recordId","type":"string"},{"indexed":true,"internalType":"address","name":"doctor","type":"address"},{"indexed":false,"internalType":"uint256","name":"expiry","type":"uint256"}],"name":"AccessGranted","type":"event"},{"anonymous":false,"inputs":[{"indexed":true,"internalType":"string","name":"recordId","type":"string"},{"indexed":true,"internalType":"address","name":"doctor","type":"address"},{"indexed":false,"internalType":"uint256","name":"revokedAt","type":"uint256"}],"name":"AccessRevoked","type":"event"},{"anonymous":false,"inputs":[{"indexed":true,"internalType":"address","name":"previousOwner","type":"address"},{"indexed":true,"internalType":"address","name":"newOwner","type":"address"}],"name":"OwnershipTransferred","type":"event"},{"anonymous":false,"inputs":[{"indexed":true,"internalType":"string","name":"recordId","type":"string"},{"indexed":true,"internalType":"address","name":"owner","type":"address"}],"name":"RecordUploaded","type":"event"},{"inputs":[{"internalType":"string","name":"recordId","type":"string"},{"internalType":"address","name":"doctor","type":"address"}],"name":"checkAccessExpiry","outputs":[{"internalType":"uint256","name":"","type":"uint256"}],"stateMutability":"view","type":"function"},{"inputs":[{"internalType":"address","name":"_owner","type":"address"}],"name":"getRecordsByOwner","outputs":[{"internalType":"string[]","name":"ownerRecordIds","type":"string[]"},{"internalType":"string[][]","name":"cidsList","type":"string[][]"},{"internalType":"string[]","name":"names","type":"string[]"},{"internalType":"uint8[]","name":"ages","type":"uint8[]"},{"internalType":"string[]","name":"genders","type":"string[]"},{"internalType":"string[]","name":"bloodPressures","type":"string[]"},{"internalType":"string[]","name":"heartRates","type":"string[]"},{"internalType":"string[]","name":"temperatures","type":"string[]"},{"internalType":"address[]","name":"owners","type":"address[]"}],"stateMutability":"view","type":"function"},{"inputs":[{"internalType":"address","name":"doctor","type":"address"}],"name":"getRecordsSharedWithMe","outputs":[{"internalType":"string[]","name":"sharedRecordIds","type":"string[]"},{"internalType":"string[][]","name":"cidsList","type":"string[][]"},{"internalType":"string[]","name":"names","type":"string[]"},{"internalType":"uint8[]","name":"ages","type":"uint8[]"},{"internalType":"string[]","name":"genders","type":"string[]"},{"internalType":"string[]","name":"bloodPressures","type":"string[]"},{"internalType":"string[]","name":"heartRates","type":"string[]"},{"internalType":"string[]","name":"temperatures","type":"string[]"},{"internalType":"address[]","name":"owners","type":"address[]"}],"stateMutability":"view","type":"function"},{"inputs":[{"internalType":"string","name":"recordId","type":"string"},{"internalType":"address","name":"doctor","type":"address"},{"internalType":"uint256","name":"duration","type":"uint256"}],"name":"grantAccess","outputs":[],"stateMutability":"nonpayable","type":"function"},{"inputs":[],"name":"owner","outputs":[{"internalType":"address","name":"","type":"address"}],"stateMutability":"view","type":"function"},{"inputs":[],"name":"renounceOwnership","outputs":[],"stateMutability":"nonpayable","type":"function"},{"inputs":[{"internalType":"string","name":"recordId","type":"string"},{"internalType":"address","name":"doctor","type":"address"}],"name":"revokeAccess","outputs":[],"stateMutability":"nonpayable","type":"function"},{"inputs":[{"internalType":"address","name":"newOwner","type":"address"}],"name":"transferOwnership","outputs":[],"stateMutability":"nonpayable","type":"function"},{"inputs":[{"internalType":"string","name":"recordId","type":"string"},{"internalType":"string[]","name":"_cids","type":"string[]"},{"internalType":"string","name":"_name","type":"string"},{"internalType":"uint8","name":"_age","type":"uint8"},{"internalType":"string","name":"_gender","type":"string"},{"internalType":"string","name":"_bloodPressure","type":"string"},{"internalType":"string","name":"_heartRate","type":"string"},{"internalType":"string","name":"_temperature","type":"string"}],"name":"uploadRecord","outputs":[],"stateMutability":"nonpayable","type":"function"}],"evm":{"bytecode":{"linkReferences":{},"object":"608080604052346075573315605f5760008054336001600160a01b0319821681178355916001600160a01b03909116907f8be0079c531659141344cd1fd0a4f28419497f9722a3daafe3b4186f6b6457e09080a36115c3908161007b8239f35b631e4fbdf760e01b600052600060045260246000fd5b600080fdfe6080604052600436101561001257600080fd5b60003560e01c80630aad468f14610b01578063552d71051461089b5780636910dd2a14610659578063715018a6146106005780638da5cb5b146105d7578063aec369041461050e578063dfe0b5fe14610349578063e5492e2b1461010d5763f2fde38b1461007f57600080fd5b3461010857602036600319011261010857610098610f09565b6100a0611564565b6001600160a01b031680156100f257600080546001600160a01b03198116831782556001600160a01b0316907f8be0079c531659141344cd1fd0a4f28419497f9722a3daafe3b4186f6b6457e09080a3005b631e4fbdf760e01b600052600060045260246000fd5b600080fd5b34610108576060366003190112610108576004356001600160401b0381116101085761013d903690600401610e9c565b6024356001600160a01b038116919082900361010857604435604051908251916007602085019361016f818487610f1f565b600190830190815282900360200190912001546001600160a01b031633036103045761019c84151561151f565b80156102b457600860405160208186516101b7818389610f1f565b81016001815203019020018460005260205260406000205480159081156102a9575b50156102655742019182421161024f576102456020916008610228847fcd5010f0cf521705dc993ca35e5b2fd59371fb9516f4c5dab9cd77693bbf92b096604051809381928751928391610f1f565b8101600181520301902001866000528352846040600020556112ea565b92604051908152a3005b634e487b7160e01b600052601160045260246000fd5b606460405162461bcd60e51b815260206004820152602060248201527f446f63746f7220616c72656164792068617320616374697665206163636573736044820152fd5b9050421015856101d9565b60405162461bcd60e51b815260206004820152602260248201527f4475726174696f6e206d7573742062652067726561746572207468616e207a65604482015261726f60f01b6064820152608490fd5b60405162461bcd60e51b815260206004820152601b60248201527f4f6e6c79206f776e65722063616e206772616e742061636365737300000000006044820152606490fd5b346101085761035736611107565b6040519082519160076020850193610370818487610f1f565b600190830190815282900360200190912001546001600160a01b031633036104c9576001600160a01b0316916103a783151561151f565b600860405160208184516103bc818389610f1f565b8101600181520301902001836000526020526040600020548015610485574210156104475760086103fd602061041b94604051809381928751928391610f1f565b810160018152030190200183600052602052600060408120556112ea565b7ff7eb47ecbc62e098414c8565b83461841e3ae69f64ad0da8609abefecaec86ad6020604051428152a3005b60405162461bcd60e51b81526020600482015260166024820152751058d8d95cdcc8185b1c9958591e48195e1c1a5c995960521b6044820152606490fd5b606460405162461bcd60e51b815260206004820152602060248201527f4e6f20616363657373206772616e74656420746f207468697320646f63746f726044820152fd5b60405162461bcd60e51b815260206004820152601c60248201527f4f6e6c79206f776e65722063616e207265766f6b6520616363657373000000006044820152606490fd5b346101085761051c36611107565b9060405181519060076020840192610535818486610f1f565b600190830190815282900360200190912001546001600160a01b03161561059a57602061057091600893604051938492839251928391610f1f565b81016001815203019020019060018060a01b03166000526020526020604060002054604051908152f35b60405162461bcd60e51b8152602060048201526015602482015274149958dbdc9908191bd95cc81b9bdd08195e1a5cdd605a1b6044820152606490fd5b34610108576000366003190112610108576000546040516001600160a01b039091168152602090f35b3461010857600036600319011261010857610619611564565b600080546001600160a01b0319811682556001600160a01b03167f8be0079c531659141344cd1fd0a4f28419497f9722a3daafe3b4186f6b6457e08280a3005b3461010857602036600319011261010857610672610f09565b6002546001600160a01b0390911690600090815b8181106108395750610697826113a7565b906106a1836113a7565b926106ab816113a7565b6106b4826113f1565b6106bd836113a7565b6106c6846113a7565b916106d0856113a7565b936106e36106dd876113a7565b966113f1565b9660009a8b5b82811061070a5750505061070697989950604051998a998a610fb3565b0390f35b61071c61071682611172565b5061130a565b6040600084815260088301602052204290541180610822575b610743575b506001016106e9565b8d8b839f8f908f946108028f8f908f8f8f938f886107f59460019f61081b9f83999661079a6108159f8e879a6107c1896107e89b6107b4826003976107aa82809d6107db9f61079461079a91611172565b50611423565b6107a48383611148565b52611148565b5061079a886114c7565b5061079a60018601611423565b506107d48660ff60028501541692611148565b5201611423565b5061079a60048b01611423565b5061079a60058801611423565b5061079a60068501611423565b506007878060a01b039101541692611148565b52611398565b9c9061073a565b5060078101546001600160a01b0316831415610735565b61084561071682611172565b84604060008281526008840160205220429054119182610883575b505061086f575b600101610686565b9161087b600191611398565b929050610867565b600701546001600160a01b0316141590508486610860565b34610108576020366003190112610108576108b4610f09565b600254906000906001600160a01b0316815b838110610abc57506108d7826113a7565b916108e1816113a7565b936108eb826113a7565b6108f4836113f1565b6108fd846113a7565b90610907856113a7565b92610911866113a7565b9461092461091e886113a7565b976113f1565b97600090815b838110610949578c8c6107068d8d8d8d8d8d8d604051998a998a610fb3565b8161095382611172565b506001600160a01b03906007906109699061130a565b0154161461097a575b60010161092a565b9161098483611172565b5061098e9061130a565b8c8261099986611172565b506109a390611423565b6109ad8284611148565b526109b791611148565b508d826109c3836114c7565b6109cd8284611148565b526109d791611148565b506109e460018201611423565b6109ee8388611148565b526109f98287611148565b50600281015460ff16610a0c8389611148565b52610a1960038201611423565b610a23838a611148565b52610a2e8289611148565b50610a3b60048201611423565b610a45838b611148565b52610a50828a611148565b50610a5d60058201611423565b610a67838c611148565b52610a72828b611148565b50610a7f60068201611423565b610a89838d611148565b52610a94828c611148565b50600701546001600160a01b0316610aac828d611148565b52610ab690611398565b91610972565b81610ac682611172565b506001600160a01b0390600790610adc9061130a565b01541614610aed575b6001016108c6565b91610af9600191611398565b929050610ae5565b3461010857610100366003190112610108576004356001600160401b03811161010857610b32903690600401610e9c565b6024356001600160401b0381116101085736602382011215610108578060040135610b5c81610ef2565b91610b6a6040519384610e7b565b8183526024602084019260051b820101903682116101085760248101925b828410610e4c5785856044356001600160401b03811161010857610bb0903690600401610e9c565b906064359260ff8416809403610108576084356001600160401b03811161010857610bdf903690600401610e9c565b60a4356001600160401b03811161010857610bfe903690600401610e9c565b60c4356001600160401b03811161010857610c1d903690600401610e9c565b9060e4356001600160401b03811161010857610c3d903690600401610e9c565b92845115610e195760405185519060076020880192610c5d818486610f1f565b600190830190815282900360200190912001546001600160a01b0316610de3576020610c9491604051809381928a51928391610f1f565b810160018152030190209760078901336bffffffffffffffffffffffff60a01b82541617905560005b8751811015610d3257610cd08189611148565b51908a54600160401b811015610d1c57806001610cf092018d558c61118d565b610d0657600192610d00916111df565b01610cbd565b634e487b7160e01b600052600060045260246000fd5b634e487b7160e01b600052604160045260246000fd5b50610d839493610d74600694610d6b8c95610d7d95610d548e60018a016111df565b600288019060ff19825416179055600387016111df565b600485016111df565b600583016111df565b016111df565b600254600160401b811015610d1c57806001610da49201600255600261118d565b610d065781610db2916111df565b610dbc33916112ea565b7f5613b0ea20e0c0c2c37e5dee1b46009ee8b652c2f475d4d1057ef06a6a5b8c0c600080a3005b60405162461bcd60e51b815260206004820152600e60248201526d416c72656164792065786973747360901b6044820152606490fd5b60405162461bcd60e51b815260206004820152600b60248201526a1251081c995c5d5a5c995960aa1b6044820152606490fd5b83356001600160401b03811161010857602091610e70839260243691870101610e9c565b815201930192610b88565b90601f801991011681019081106001600160401b03821117610d1c57604052565b81601f82011215610108578035906001600160401b038211610d1c5760405192610ed0601f8401601f191660200185610e7b565b8284526020838301011161010857816000926020809301838601378301015290565b6001600160401b038111610d1c5760051b60200190565b600435906001600160a01b038216820361010857565b60005b838110610f325750506000910152565b8181015183820152602001610f22565b9080602083519182815201916020808360051b8301019401926000915b838310610f6e57505050505090565b909192939460208080600193601f198682030187528951610f9a81518092818552858086019101610f1f565b601f01601f191601019701959491909101920190610f5f565b97969594929190610fce906101208a526101208a0190610f42565b9188830360208a0152815180845260208401936020808360051b8301019401946000915b8383106110d8575050505061100f925088820360408a0152610f42565b86810360608801526020808451928381520193019060005b8181106110bf5750505061106b9261104f8361105d93896110799998960360808b0152610f42565b9087820360a0890152610f42565b9085820360c0870152610f42565b9083820360e0850152610f42565b906101008183039101526020808351928381520192019060005b8181106110a05750505090565b82516001600160a01b0316845260209384019390920191600101611093565b825160ff16855260209485019490920191600101611027565b90919293946020806110f6600193601f198682030187528a51610f42565b980193019301919594939290610ff2565b604060031982011261010857600435906001600160401b0382116101085761113191600401610e9c565b906024356001600160a01b03811681036101085790565b805182101561115c5760209160051b010190565b634e487b7160e01b600052603260045260246000fd5b60025481101561115c57600260005260206000200190600090565b805482101561115c5760005260206000200190600090565b90600182811c921680156111d5575b60208310146111bf57565b634e487b7160e01b600052602260045260246000fd5b91607f16916111b4565b91909182516001600160401b038111610d1c576111fc82546111a5565b601f81116112a2575b506020601f82116001146112405781929394600092611235575b50508160011b916000199060031b1c1916179055565b01519050388061121f565b601f1982169083600052806000209160005b81811061128a57509583600195969710611271575b505050811b019055565b015160001960f88460031b161c19169055388080611267565b9192602060018192868b015181550194019201611252565b826000526020600020601f830160051c810191602084106112e0575b601f0160051c01905b8181106112d45750611205565b600081556001016112c7565b90915081906112be565b61130290602060405192828480945193849201610f1f565b810103902090565b6040519081600082549261131d846111a5565b936001811690811561137e5750600114611342575b5060209250600181520301902090565b9150506000528160206000206000905b838210611366575050602091810138611332565b60209192508060019154848701520191018391611352565b60ff19168452506020938015150283019150389050611332565b600019811461024f5760010190565b906113b182610ef2565b6113be6040519182610e7b565b828152602081936113d1601f1991610ef2565b01910160005b8281106113e357505050565b6060828201526020016113d7565b906113fb82610ef2565b6114086040519182610e7b565b8281528092611419601f1991610ef2565b0190602036910137565b9060405191826000825492611437846111a5565b80845293600181169081156114a5575060011461145e575b5061145c92500383610e7b565b565b90506000929192526020600020906000915b81831061148957505090602061145c928201013861144f565b6020919350806001915483858901015201910190918492611470565b90506020925061145c94915060ff191682840152151560051b8201013861144f565b9081546114d381610ef2565b926114e16040519485610e7b565b818452602084019060005260206000206000915b8383106115025750505050565b60016020819261151185611423565b8152019201920191906114f5565b1561152657565b60405162461bcd60e51b8152602060048201526016602482015275496e76616c696420646f63746f72206164647265737360501b6044820152606490fd5b6000546001600160a01b0316330361157857565b63118cdaa760e01b6000523360045260246000fdfea264697066735822122050a30f82c7b63bb499a49a051d800303c44ab05cd36906f3e4b284dbef8d7d3464736f6c634300081c0033","opcodes":"PUSH1 0x80 DUP1 PUSH1 0x40 MSTORE CALLVALUE PUSH1 0x75 JUMPI CALLER ISZERO PUSH1 0x5F JUMPI PUSH1 0x0 DUP1 SLOAD CALLER PUSH1 0x1 PUSH1 0x1 PUSH1 0xA0 SHL SUB NOT DUP3 AND DUP2 OR DUP4 SSTORE SWAP2 PUSH1 0x1 PUSH1 0x1 PUSH1 0xA0 SHL SUB SWAP1 SWAP2 AND SWAP1 PUSH32 0x8BE0079C531659141344CD1FD0A4F28419497F9722A3DAAFE3B4186F6B6457E0 SWAP1 DUP1 LOG3 PUSH2 0x15C3 SWAP1 DUP2 PUSH2 0x7B DUP3 CODECOPY RETURN JUMPDEST PUSH4 0x1E4FBDF7 PUSH1 0xE0 SHL PUSH1 0x0 MSTORE PUSH1 0x0 PUSH1 0x4 MSTORE PUSH1 0x24 PUSH1 0x0 REVERT JUMPDEST PUSH1 0x0 DUP1 REVERT INVALID PUSH1 0x80 PUSH1 0x40 MSTORE PUSH1 0x4 CALLDATASIZE LT ISZERO PUSH2 0x12 JUMPI PUSH1 0x0 DUP1 REVERT JUMPDEST PUSH1 0x0 CALLDATALOAD PUSH1 0xE0 SHR DUP1 PUSH4 0xAAD468F EQ PUSH2 0xB01 JUMPI DUP1 PUSH4 0x552D7105 EQ PUSH2 0x89B JUMPI DUP1 PUSH4 0x6910DD2A EQ PUSH2 0x659 JUMPI DUP1 PUSH4 0x715018A6 EQ PUSH2 0x600 JUMPI DUP1 PUSH4 0x8DA5CB5B EQ PUSH2 0x5D7 JUMPI DUP1 PUSH4 0xAEC36904 EQ PUSH2 0x50E JUMPI DUP1 PUSH4 0xDFE0B5FE EQ PUSH2 0x349 JUMPI DUP1 PUSH4 0xE5492E2B EQ PUSH2 0x10D JUMPI PUSH4 0xF2FDE38B EQ PUSH2 0x7F JUMPI PUSH1 0x0 DUP1 REVERT JUMPDEST CALLVALUE PUSH2 0x108 JUMPI PUSH1 0x20 CALLDATASIZE PUSH1 0x3 NOT ADD SLT PUSH2 0x108 JUMPI PUSH2 0x98 PUSH2 0xF09 JUMP JUMPDEST PUSH2 0xA0 PUSH2 0x1564 JUMP JUMPDEST PUSH1 0x1 PUSH1 0x1 PUSH1 0xA0 SHL SUB AND DUP1 ISZERO PUSH2 0xF2 JUMPI PUSH1 0x0 DUP1 SLOAD PUSH1 0x1 PUSH1 0x1 PUSH1 0xA0 SHL SUB NOT DUP2 AND DUP4 OR DUP3 SSTORE PUSH1 0x1 PUSH1 0x1 PUSH1 0xA0 SHL SUB AND SWAP1 PUSH32 0x8BE0079C531659141344CD1FD0A4F28419497F9722A3DAAFE3B4186F6B6457E0 SWAP1 DUP1 LOG3 STOP JUMPDEST PUSH4 0x1E4FBDF7 PUSH1 0xE0 SHL PUSH1 0x0 MSTORE PUSH1 0x0 PUSH1 0x4 MSTORE PUSH1 0x24 PUSH1 0x0 REVERT JUMPDEST PUSH1 0x0 DUP1 REVERT JUMPDEST CALLVALUE PUSH2 0x108 JUMPI PUSH1 0x60 CALLDATASIZE PUSH1 0x3 NOT ADD SLT PUSH2 0x108 JUMPI PUSH1 0x4 CALLDATALOAD PUSH1 0x1 PUSH1 0x1 PUSH1 0x40 SHL SUB DUP2 GT PUSH2 0x108 JUMPI PUSH2 0x13D SWAP1 CALLDATASIZE SWAP1 PUSH1 0x4 ADD PUSH2 0xE9C JUMP JUMPDEST PUSH1 0x24 CALLDATALOAD PUSH1 0x1 PUSH1 0x1 PUSH1 0xA0 SHL SUB DUP2 AND SWAP2 SWAP1 DUP3 SWAP1 SUB PUSH2 0x108 JUMPI PUSH1 0x44 CALLDATALOAD PUSH1 0x40 MLOAD SWAP1 DUP3 MLOAD SWAP2 PUSH1 0x7 PUSH1 0x20 DUP6 ADD SWAP4 PUSH2 0x16F DUP2 DUP5 DUP8 PUSH2 0xF1F JUMP JUMPDEST PUSH1 0x1 SWAP1 DUP4 ADD SWAP1 DUP2 MSTORE DUP3 SWAP1 SUB PUSH1 0x20 ADD SWAP1 SWAP2 KECCAK256 ADD SLOAD PUSH1 0x1 PUSH1 0x1 PUSH1 0xA0 SHL SUB AND CALLER SUB PUSH2 0x304 JUMPI PUSH2 0x19C DUP5 ISZERO ISZERO PUSH2 0x151F JUMP JUMPDEST DUP1 ISZERO PUSH2 0x2B4 JUMPI PUSH1 0x8 PUSH1 0x40 MLOAD PUSH1 0x20 DUP2 DUP7 MLOAD PUSH2 0x1B7 DUP2 DUP4 DUP10 PUSH2 0xF1F JUMP JUMPDEST DUP2 ADD PUSH1 0x1 DUP2 MSTORE SUB ADD SWAP1 KECCAK256 ADD DUP5 PUSH1 0x0 MSTORE PUSH1 0x20 MSTORE PUSH1 0x40 PUSH1 0x0 KECCAK256 SLOAD DUP1 ISZERO SWAP1 DUP2 ISZERO PUSH2 0x2A9 JUMPI JUMPDEST POP ISZERO PUSH2 0x265 JUMPI TIMESTAMP ADD SWAP2 DUP3 TIMESTAMP GT PUSH2 0x24F JUMPI PUSH2 0x245 PUSH1 0x20 SWAP2 PUSH1 0x8 PUSH2 0x228 DUP5 PUSH32 0xCD5010F0CF521705DC993CA35E5B2FD59371FB9516F4C5DAB9CD77693BBF92B0 SWAP7 PUSH1 0x40 MLOAD DUP1 SWAP4 DUP2 SWAP3 DUP8 MLOAD SWAP3 DUP4 SWAP2 PUSH2 0xF1F JUMP JUMPDEST DUP2 ADD PUSH1 0x1 DUP2 MSTORE SUB ADD SWAP1 KECCAK256 ADD DUP7 PUSH1 0x0 MSTORE DUP4 MSTORE DUP5 PUSH1 0x40 PUSH1 0x0 KECCAK256 SSTORE PUSH2 0x12EA JUMP JUMPDEST SWAP3 PUSH1 0x40 MLOAD SWAP1 DUP2 MSTORE LOG3 STOP JUMPDEST PUSH4 0x4E487B71 PUSH1 0xE0 SHL PUSH1 0x0 MSTORE PUSH1 0x11 PUSH1 0x4 MSTORE PUSH1 0x24 PUSH1 0x0 REVERT JUMPDEST PUSH1 0x64 PUSH1 0x40 MLOAD PUSH3 0x461BCD PUSH1 0xE5 SHL DUP2 MSTORE PUSH1 0x20 PUSH1 0x4 DUP3 ADD MSTORE PUSH1 0x20 PUSH1 0x24 DUP3 ADD MSTORE PUSH32 0x446F63746F7220616C7265616479206861732061637469766520616363657373 PUSH1 0x44 DUP3 ADD MSTORE REVERT JUMPDEST SWAP1 POP TIMESTAMP LT ISZERO DUP6 PUSH2 0x1D9 JUMP JUMPDEST PUSH1 0x40 MLOAD PUSH3 0x461BCD PUSH1 0xE5 SHL DUP2 MSTORE PUSH1 0x20 PUSH1 0x4 DUP3 ADD MSTORE PUSH1 0x22 PUSH1 0x24 DUP3 ADD MSTORE PUSH32 0x4475726174696F6E206D7573742062652067726561746572207468616E207A65 PUSH1 0x44 DUP3 ADD MSTORE PUSH2 0x726F PUSH1 0xF0 SHL PUSH1 0x64 DUP3 ADD MSTORE PUSH1 0x84 SWAP1 REVERT JUMPDEST PUSH1 0x40 MLOAD PUSH3 0x461BCD PUSH1 0xE5 SHL DUP2 MSTORE PUSH1 0x20 PUSH1 0x4 DUP3 ADD MSTORE PUSH1 0x1B PUSH1 0x24 DUP3 ADD MSTORE PUSH32 0x4F6E6C79206F776E65722063616E206772616E74206163636573730000000000 PUSH1 0x44 DUP3 ADD MSTORE PUSH1 0x64 SWAP1 REVERT JUMPDEST CALLVALUE PUSH2 0x108 JUMPI PUSH2 0x357 CALLDATASIZE PUSH2 0x1107 JUMP JUMPDEST PUSH1 0x40 MLOAD SWAP1 DUP3 MLOAD SWAP2 PUSH1 0x7 PUSH1 0x20 DUP6 ADD SWAP4 PUSH2 0x370 DUP2 DUP5 DUP8 PUSH2 0xF1F JUMP JUMPDEST PUSH1 0x1 SWAP1 DUP4 ADD SWAP1 DUP2 MSTORE DUP3 SWAP1 SUB PUSH1 0x20 ADD SWAP1 SWAP2 KECCAK256 ADD SLOAD PUSH1 0x1 PUSH1 0x1 PUSH1 0xA0 SHL SUB AND CALLER SUB PUSH2 0x4C9 JUMPI PUSH1 0x1 PUSH1 0x1 PUSH1 0xA0 SHL SUB AND SWAP2 PUSH2 0x3A7 DUP4 ISZERO ISZERO PUSH2 0x151F JUMP JUMPDEST PUSH1 0x8 PUSH1 0x40 MLOAD PUSH1 0x20 DUP2 DUP5 MLOAD PUSH2 0x3BC DUP2 DUP4 DUP10 PUSH2 0xF1F JUMP JUMPDEST DUP2 ADD PUSH1 0x1 DUP2 MSTORE SUB ADD SWAP1 KECCAK256 ADD DUP4 PUSH1 0x0 MSTORE PUSH1 0x20 MSTORE PUSH1 0x40 PUSH1 0x0 KECCAK256 SLOAD DUP1 ISZERO PUSH2 0x485 JUMPI TIMESTAMP LT ISZERO PUSH2 0x447 JUMPI PUSH1 0x8 PUSH2 0x3FD PUSH1 0x20 PUSH2 0x41B SWAP5 PUSH1 0x40 MLOAD DUP1 SWAP4 DUP2 SWAP3 DUP8 MLOAD SWAP3 DUP4 SWAP2 PUSH2 0xF1F JUMP JUMPDEST DUP2 ADD PUSH1 0x1 DUP2 MSTORE SUB ADD SWAP1 KECCAK256 ADD DUP4 PUSH1 0x0 MSTORE PUSH1 0x20 MSTORE PUSH1 0x0 PUSH1 0x40 DUP2 KECCAK256 SSTORE PUSH2 0x12EA JUMP JUMPDEST PUSH32 0xF7EB47ECBC62E098414C8565B83461841E3AE69F64AD0DA8609ABEFECAEC86AD PUSH1 0x20 PUSH1 0x40 MLOAD TIMESTAMP DUP2 MSTORE LOG3 STOP JUMPDEST PUSH1 0x40 MLOAD PUSH3 0x461BCD PUSH1 0xE5 SHL DUP2 MSTORE PUSH1 0x20 PUSH1 0x4 DUP3 ADD MSTORE PUSH1 0x16 PUSH1 0x24 DUP3 ADD MSTORE PUSH22 0x1058D8D95CDCC8185B1C9958591E48195E1C1A5C9959 PUSH1 0x52 SHL PUSH1 0x44 DUP3 ADD MSTORE PUSH1 0x64 SWAP1 REVERT JUMPDEST PUSH1 0x64 PUSH1 0x40 MLOAD PUSH3 0x461BCD PUSH1 0xE5 SHL DUP2 MSTORE PUSH1 0x20 PUSH1 0x4 DUP3 ADD MSTORE PUSH1 0x20 PUSH1 0x24 DUP3 ADD MSTORE PUSH32 0x4E6F20616363657373206772616E74656420746F207468697320646F63746F72 PUSH1 0x44 DUP3 ADD MSTORE REVERT JUMPDEST PUSH1 0x40 MLOAD PUSH3 0x461BCD PUSH1 0xE5 SHL DUP2 MSTORE PUSH1 0x20 PUSH1 0x4 DUP3 ADD MSTORE PUSH1 0x1C PUSH1 0x24 DUP3 ADD MSTORE PUSH32 0x4F6E6C79206F776E65722063616E207265766F6B652061636365737300000000 PUSH1 0x44 DUP3 ADD MSTORE PUSH1 0x64 SWAP1 REVERT JUMPDEST CALLVALUE PUSH2 0x108 JUMPI PUSH2 0x51C CALLDATASIZE PUSH2 0x1107 JUMP JUMPDEST SWAP1 PUSH1 0x40 MLOAD DUP2 MLOAD SWAP1 PUSH1 0x7 PUSH1 0x20 DUP5 ADD SWAP3 PUSH2 0x535 DUP2 DUP5 DUP7 PUSH2 0xF1F JUMP JUMPDEST PUSH1 0x1 SWAP1 DUP4 ADD SWAP1 DUP2 MSTORE DUP3 SWAP1 SUB PUSH1 0x20 ADD SWAP1 SWAP2 KECCAK256 ADD SLOAD PUSH1 0x1 PUSH1 0x1 PUSH1 0xA0 SHL SUB AND ISZERO PUSH2 0x59A JUMPI PUSH1 0x20 PUSH2 0x570 SWAP2 PUSH1 0x8 SWAP4 PUSH1 0x40 MLOAD SWAP4 DUP5 SWAP3 DUP4 SWAP3 MLOAD SWAP3 DUP4 SWAP2 PUSH2 0xF1F JUMP JUMPDEST DUP2 ADD PUSH1 0x1 DUP2 MSTORE SUB ADD SWAP1 KECCAK256 ADD SWAP1 PUSH1 0x1 DUP1 PUSH1 0xA0 SHL SUB AND PUSH1 0x0 MSTORE PUSH1 0x20 MSTORE PUSH1 0x20 PUSH1 0x40 PUSH1 0x0 KECCAK256 SLOAD PUSH1 0x40 MLOAD SWAP1 DUP2 MSTORE RETURN JUMPDEST PUSH1 0x40 MLOAD PUSH3 0x461BCD PUSH1 0xE5 SHL DUP2 MSTORE PUSH1 0x20 PUSH1 0x4 DUP3 ADD MSTORE PUSH1 0x15 PUSH1 0x24 DUP3 ADD MSTORE PUSH21 0x149958DBDC9908191BD95CC81B9BDD08195E1A5CDD PUSH1 0x5A SHL PUSH1 0x44 DUP3 ADD MSTORE PUSH1 0x64 SWAP1 REVERT JUMPDEST CALLVALUE PUSH2 0x108 JUMPI PUSH1 0x0 CALLDATASIZE PUSH1 0x3 NOT ADD SLT PUSH2 0x108 JUMPI PUSH1 0x0 SLOAD PUSH1 0x40 MLOAD PUSH1 0x1 PUSH1 0x1 PUSH1 0xA0 SHL SUB SWAP1 SWAP2 AND DUP2 MSTORE PUSH1 0x20 SWAP1 RETURN JUMPDEST CALLVALUE PUSH2 0x108 JUMPI PUSH1 0x0 CALLDATASIZE PUSH1 0x3 NOT ADD SLT PUSH2 0x108 JUMPI PUSH2 0x619 PUSH2 0x1564 JUMP JUMPDEST PUSH1 0x0 DUP1 SLOAD PUSH1 0x1 PUSH1 0x1 PUSH1 0xA0 SHL SUB NOT DUP2 AND DUP3 SSTORE PUSH1 0x1 PUSH1 0x1 PUSH1 0xA0 SHL SUB AND PUSH32 0x8BE0079C531659141344CD1FD0A4F28419497F9722A3DAAFE3B4186F6B6457E0 DUP3 DUP1 LOG3 STOP JUMPDEST CALLVALUE PUSH2 0x108 JUMPI PUSH1 0x20 CALLDATASIZE PUSH1 0x3 NOT ADD SLT PUSH2 0x108 JUMPI PUSH2 0x672 PUSH2 0xF09 JUMP JUMPDEST PUSH1 0x2 SLOAD PUSH1 0x1 PUSH1 0x1 PUSH1 0xA0 SHL SUB SWAP1 SWAP2 AND SWAP1 PUSH1 0x0 SWAP1 DUP2 JUMPDEST DUP2 DUP2 LT PUSH2 0x839 JUMPI POP PUSH2 0x697 DUP3 PUSH2 0x13A7 JUMP JUMPDEST SWAP1 PUSH2 0x6A1 DUP4 PUSH2 0x13A7 JUMP JUMPDEST SWAP3 PUSH2 0x6AB DUP2 PUSH2 0x13A7 JUMP JUMPDEST PUSH2 0x6B4 DUP3 PUSH2 0x13F1 JUMP JUMPDEST PUSH2 0x6BD DUP4 PUSH2 0x13A7 JUMP JUMPDEST PUSH2 0x6C6 DUP5 PUSH2 0x13A7 JUMP JUMPDEST SWAP2 PUSH2 0x6D0 DUP6 PUSH2 0x13A7 JUMP JUMPDEST SWAP4 PUSH2 0x6E3 PUSH2 0x6DD DUP8 PUSH2 0x13A7 JUMP JUMPDEST SWAP7 PUSH2 0x13F1 JUMP JUMPDEST SWAP7 PUSH1 0x0 SWAP11 DUP12 JUMPDEST DUP3 DUP2 LT PUSH2 0x70A JUMPI POP POP POP PUSH2 0x706 SWAP8 SWAP9 SWAP10 POP PUSH1 0x40 MLOAD SWAP10 DUP11 SWAP10 DUP11 PUSH2 0xFB3 JUMP JUMPDEST SUB SWAP1 RETURN JUMPDEST PUSH2 0x71C PUSH2 0x716 DUP3 PUSH2 0x1172 JUMP JUMPDEST POP PUSH2 0x130A JUMP JUMPDEST PUSH1 0x40 PUSH1 0x0 DUP5 DUP2 MSTORE PUSH1 0x8 DUP4 ADD PUSH1 0x20 MSTORE KECCAK256 TIMESTAMP SWAP1 SLOAD GT DUP1 PUSH2 0x822 JUMPI JUMPDEST PUSH2 0x743 JUMPI JUMPDEST POP PUSH1 0x1 ADD PUSH2 0x6E9 JUMP JUMPDEST DUP14 DUP12 DUP4 SWAP16 DUP16 SWAP1 DUP16 SWAP5 PUSH2 0x802 DUP16 DUP16 SWAP1 DUP16 DUP16 DUP16 SWAP4 DUP16 DUP9 PUSH2 0x7F5 SWAP5 PUSH1 0x1 SWAP16 PUSH2 0x81B SWAP16 DUP4 SWAP10 SWAP7 PUSH2 0x79A PUSH2 0x815 SWAP16 DUP15 DUP8 SWAP11 PUSH2 0x7C1 DUP10 PUSH2 0x7E8 SWAP12 PUSH2 0x7B4 DUP3 PUSH1 0x3 SWAP8 PUSH2 0x7AA DUP3 DUP1 SWAP14 PUSH2 0x7DB SWAP16 PUSH2 0x794 PUSH2 0x79A SWAP2 PUSH2 0x1172 JUMP JUMPDEST POP PUSH2 0x1423 JUMP JUMPDEST PUSH2 0x7A4 DUP4 DUP4 PUSH2 0x1148 JUMP JUMPDEST MSTORE PUSH2 0x1148 JUMP JUMPDEST POP PUSH2 0x79A DUP9 PUSH2 0x14C7 JUMP JUMPDEST POP PUSH2 0x79A PUSH1 0x1 DUP7 ADD PUSH2 0x1423 JUMP JUMPDEST POP PUSH2 0x7D4 DUP7 PUSH1 0xFF PUSH1 0x2 DUP6 ADD SLOAD AND SWAP3 PUSH2 0x1148 JUMP JUMPDEST MSTORE ADD PUSH2 0x1423 JUMP JUMPDEST POP PUSH2 0x79A PUSH1 0x4 DUP12 ADD PUSH2 0x1423 JUMP JUMPDEST POP PUSH2 0x79A PUSH1 0x5 DUP9 ADD PUSH2 0x1423 JUMP JUMPDEST POP PUSH2 0x79A PUSH1 0x6 DUP6 ADD PUSH2 0x1423 JUMP JUMPDEST POP PUSH1 0x7 DUP8 DUP1 PUSH1 0xA0 SHL SUB SWAP2 ADD SLOAD AND SWAP3 PUSH2 0x1148 JUMP JUMPDEST MSTORE PUSH2 0x1398 JUMP JUMPDEST SWAP13 SWAP1 PUSH2 0x73A JUMP JUMPDEST POP PUSH1 0x7 DUP2 ADD SLOAD PUSH1 0x1 PUSH1 0x1 PUSH1 0xA0 SHL SUB AND DUP4 EQ ISZERO PUSH2 0x735 JUMP JUMPDEST PUSH2 0x845 PUSH2 0x716 DUP3 PUSH2 0x1172 JUMP JUMPDEST DUP5 PUSH1 0x40 PUSH1 0x0 DUP3 DUP2 MSTORE PUSH1 0x8 DUP5 ADD PUSH1 0x20 MSTORE KECCAK256 TIMESTAMP SWAP1 SLOAD GT SWAP2 DUP3 PUSH2 0x883 JUMPI JUMPDEST POP POP PUSH2 0x86F JUMPI JUMPDEST PUSH1 0x1 ADD PUSH2 0x686 JUMP JUMPDEST SWAP2 PUSH2 0x87B PUSH1 0x1 SWAP2 PUSH2 0x1398 JUMP JUMPDEST SWAP3 SWAP1 POP PUSH2 0x867 JUMP JUMPDEST PUSH1 0x7 ADD SLOAD PUSH1 0x1 PUSH1 0x1 PUSH1 0xA0 SHL SUB AND EQ ISZERO SWAP1 POP DUP5 DUP7 PUSH2 0x860 JUMP JUMPDEST CALLVALUE PUSH2 0x108 JUMPI PUSH1 0x20 CALLDATASIZE PUSH1 0x3 NOT ADD SLT PUSH2 0x108 JUMPI PUSH2 0x8B4 PUSH2 0xF09 JUMP JUMPDEST PUSH1 0x2 SLOAD SWAP1 PUSH1 0x0 SWAP1 PUSH1 0x1 PUSH1 0x1 PUSH1 0xA0 SHL SUB AND DUP2 JUMPDEST DUP4 DUP2 LT PUSH2 0xABC JUMPI POP PUSH2 0x8D7 DUP3 PUSH2 0x13A7 JUMP JUMPDEST SWAP2 PUSH2 0x8E1 DUP2 PUSH2 0x13A7 JUMP JUMPDEST SWAP4 PUSH2 0x8EB DUP3 PUSH2 0x13A7 JUMP JUMPDEST PUSH2 0x8F4 DUP4 PUSH2 0x13F1 JUMP JUMPDEST PUSH2 0x8FD DUP5 PUSH2 0x13A7 JUMP JUMPDEST SWAP1 PUSH2 0x907 DUP6 PUSH2 0x13A7 JUMP JUMPDEST SWAP3 PUSH2 0x911 DUP7 PUSH2 0x13A7 JUMP JUMPDEST SWAP5 PUSH2 0x924 PUSH2 0x91E DUP9 PUSH2 0x13A7 JUMP JUMPDEST SWAP8 PUSH2 0x13F1 JUMP JUMPDEST SWAP8 PUSH1 0x0 SWAP1 DUP2 JUMPDEST DUP4 DUP2 LT PUSH2 0x949 JUMPI DUP13 DUP13 PUSH2 0x706 DUP14 DUP14 DUP14 DUP14 DUP14 DUP14 DUP14 PUSH1 0x40 MLOAD SWAP10 DUP11 SWAP10 DUP11 PUSH2 0xFB3 JUMP JUMPDEST DUP2 PUSH2 0x953 DUP3 PUSH2 0x1172 JUMP JUMPDEST POP PUSH1 0x1 PUSH1 0x1 PUSH1 0xA0 SHL SUB SWAP1 PUSH1 0x7 SWAP1 PUSH2 0x969 SWAP1 PUSH2 0x130A JUMP JUMPDEST ADD SLOAD AND EQ PUSH2 0x97A JUMPI JUMPDEST PUSH1 0x1 ADD PUSH2 0x92A JUMP JUMPDEST SWAP2 PUSH2 0x984 DUP4 PUSH2 0x1172 JUMP JUMPDEST POP PUSH2 0x98E SWAP1 PUSH2 0x130A JUMP JUMPDEST DUP13 DUP3 PUSH2 0x999 DUP7 PUSH2 0x1172 JUMP JUMPDEST POP PUSH2 0x9A3 SWAP1 PUSH2 0x1423 JUMP JUMPDEST PUSH2 0x9AD DUP3 DUP5 PUSH2 0x1148 JUMP JUMPDEST MSTORE PUSH2 0x9B7 SWAP2 PUSH2 0x1148 JUMP JUMPDEST POP DUP14 DUP3 PUSH2 0x9C3 DUP4 PUSH2 0x14C7 JUMP JUMPDEST PUSH2 0x9CD DUP3 DUP5 PUSH2 0x1148 JUMP JUMPDEST MSTORE PUSH2 0x9D7 SWAP2 PUSH2 0x1148 JUMP JUMPDEST POP PUSH2 0x9E4 PUSH1 0x1 DUP3 ADD PUSH2 0x1423 JUMP JUMPDEST PUSH2 0x9EE DUP4 DUP9 PUSH2 0x1148 JUMP JUMPDEST MSTORE PUSH2 0x9F9 DUP3 DUP8 PUSH2 0x1148 JUMP JUMPDEST POP PUSH1 0x2 DUP2 ADD SLOAD PUSH1 0xFF AND PUSH2 0xA0C DUP4 DUP10 PUSH2 0x1148 JUMP JUMPDEST MSTORE PUSH2 0xA19 PUSH1 0x3 DUP3 ADD PUSH2 0x1423 JUMP JUMPDEST PUSH2 0xA23 DUP4 DUP11 PUSH2 0x1148 JUMP JUMPDEST MSTORE PUSH2 0xA2E DUP3 DUP10 PUSH2 0x1148 JUMP JUMPDEST POP PUSH2 0xA3B PUSH1 0x4 DUP3 ADD PUSH2 0x1423 JUMP JUMPDEST PUSH2 0xA45 DUP4 DUP12 PUSH2 0x1148 JUMP JUMPDEST MSTORE PUSH2 0xA50 DUP3 DUP11 PUSH2 0x1148 JUMP JUMPDEST POP PUSH2 0xA5D PUSH1 0x5 DUP3 ADD PUSH2 0x1423 JUMP JUMPDEST PUSH2 0xA67 DUP4 DUP13 PUSH2 0x1148 JUMP JUMPDEST MSTORE PUSH2 0xA72 DUP3 DUP12 PUSH2 0x1148 JUMP JUMPDEST POP PUSH2 0xA7F PUSH1 0x6 DUP3 ADD PUSH2 0x1423 JUMP JUMPDEST PUSH2 0xA89 DUP4 DUP14 PUSH2 0x1148 JUMP JUMPDEST MSTORE PUSH2 0xA94 DUP3 DUP13 PUSH2 0x1148 JUMP JUMPDEST POP PUSH1 0x7 ADD SLOAD PUSH1 0x1 PUSH1 0x1 PUSH1 0xA0 SHL SUB AND PUSH2 0xAAC DUP3 DUP14 PUSH2 0x1148 JUMP JUMPDEST MSTORE PUSH2 0xAB6 SWAP1 PUSH2 0x1398 JUMP JUMPDEST SWAP2 PUSH2 0x972 JUMP JUMPDEST DUP2 PUSH2 0xAC6 DUP3 PUSH2 0x1172 JUMP JUMPDEST POP PUSH1 0x1 PUSH1 0x1 PUSH1 0xA0 SHL SUB SWAP1 PUSH1 0x7 SWAP1 PUSH2 0xADC SWAP1 PUSH2 0x130A JUMP JUMPDEST ADD SLOAD AND EQ PUSH2 0xAED JUMPI JUMPDEST PUSH1 0x1 ADD PUSH2 0x8C6 JUMP JUMPDEST SWAP2 PUSH2 0xAF9 PUSH1 0x1 SWAP2 PUSH2 0x1398 JUMP JUMPDEST SWAP3 SWAP1 POP PUSH2 0xAE5 JUMP JUMPDEST CALLVALUE PUSH2 0x108 JUMPI PUSH2 0x100 CALLDATASIZE PUSH1 0x3 NOT ADD SLT PUSH2 0x108 JUMPI PUSH1 0x4 CALLDATALOAD PUSH1 0x1 PUSH1 0x1 PUSH1 0x40 SHL SUB DUP2 GT PUSH2 0x108 JUMPI PUSH2 0xB32 SWAP1 CALLDATASIZE SWAP1 PUSH1 0x4 ADD PUSH2 0xE9C JUMP JUMPDEST PUSH1 0x24 CALLDATALOAD PUSH1 0x1 PUSH1 0x1 PUSH1 0x40 SHL SUB DUP2 GT PUSH2 0x108 JUMPI CALLDATASIZE PUSH1 0x23 DUP3 ADD SLT ISZERO PUSH2 0x108 JUMPI DUP1 PUSH1 0x4 ADD CALLDATALOAD PUSH2 0xB5C DUP2 PUSH2 0xEF2 JUMP JUMPDEST SWAP2 PUSH2 0xB6A PUSH1 0x40 MLOAD SWAP4 DUP5 PUSH2 0xE7B JUMP JUMPDEST DUP2 DUP4 MSTORE PUSH1 0x24 PUSH1 0x20 DUP5 ADD SWAP3 PUSH1 0x5 SHL DUP3 ADD ADD SWAP1 CALLDATASIZE DUP3 GT PUSH2 0x108 JUMPI PUSH1 0x24 DUP2 ADD SWAP3 JUMPDEST DUP3 DUP5 LT PUSH2 0xE4C JUMPI DUP6 DUP6 PUSH1 0x44 CALLDATALOAD PUSH1 0x1 PUSH1 0x1 PUSH1 0x40 SHL SUB DUP2 GT PUSH2 0x108 JUMPI PUSH2 0xBB0 SWAP1 CALLDATASIZE SWAP1 PUSH1 0x4 ADD PUSH2 0xE9C JUMP JUMPDEST SWAP1 PUSH1 0x64 CALLDATALOAD SWAP3 PUSH1 0xFF DUP5 AND DUP1 SWAP5 SUB PUSH2 0x108 JUMPI PUSH1 0x84 CALLDATALOAD PUSH1 0x1 PUSH1 0x1 PUSH1 0x40 SHL SUB DUP2 GT PUSH2 0x108 JUMPI PUSH2 0xBDF SWAP1 CALLDATASIZE SWAP1 PUSH1 0x4 ADD PUSH2 0xE9C JUMP JUMPDEST PUSH1 0xA4 CALLDATALOAD PUSH1 0x1 PUSH1 0x1 PUSH1 0x40 SHL SUB DUP2 GT PUSH2 0x108 JUMPI PUSH2 0xBFE SWAP1 CALLDATASIZE SWAP1 PUSH1 0x4 ADD PUSH2 0xE9C JUMP JUMPDEST PUSH1 0xC4 CALLDATALOAD PUSH1 0x1 PUSH1 0x1 PUSH1 0x40 SHL SUB DUP2 GT PUSH2 0x108 JUMPI PUSH2 0xC1D SWAP1 CALLDATASIZE SWAP1 PUSH1 0x4 ADD PUSH2 0xE9C JUMP JUMPDEST SWAP1 PUSH1 0xE4 CALLDATALOAD PUSH1 0x1 PUSH1 0x1 PUSH1 0x40 SHL SUB DUP2 GT PUSH2 0x108 JUMPI PUSH2 0xC3D SWAP1 CALLDATASIZE SWAP1 PUSH1 0x4 ADD PUSH2 0xE9C JUMP JUMPDEST SWAP3 DUP5 MLOAD ISZERO PUSH2 0xE19 JUMPI PUSH1 0x40 MLOAD DUP6 MLOAD SWAP1 PUSH1 0x7 PUSH1 0x20 DUP9 ADD SWAP3 PUSH2 0xC5D DUP2 DUP5 DUP7 PUSH2 0xF1F JUMP JUMPDEST PUSH1 0x1 SWAP1 DUP4 ADD SWAP1 DUP2 MSTORE DUP3 SWAP1 SUB PUSH1 0x20 ADD SWAP1 SWAP2 KECCAK256 ADD SLOAD PUSH1 0x1 PUSH1 0x1 PUSH1 0xA0 SHL SUB AND PUSH2 0xDE3 JUMPI PUSH1 0x20 PUSH2 0xC94 SWAP2 PUSH1 0x40 MLOAD DUP1 SWAP4 DUP2 SWAP3 DUP11 MLOAD SWAP3 DUP4 SWAP2 PUSH2 0xF1F JUMP JUMPDEST DUP2 ADD PUSH1 0x1 DUP2 MSTORE SUB ADD SWAP1 KECCAK256 SWAP8 PUSH1 0x7 DUP10 ADD CALLER PUSH12 0xFFFFFFFFFFFFFFFFFFFFFFFF PUSH1 0xA0 SHL DUP3 SLOAD AND OR SWAP1 SSTORE PUSH1 0x0 JUMPDEST DUP8 MLOAD DUP2 LT ISZERO PUSH2 0xD32 JUMPI PUSH2 0xCD0 DUP2 DUP10 PUSH2 0x1148 JUMP JUMPDEST MLOAD SWAP1 DUP11 SLOAD PUSH1 0x1 PUSH1 0x40 SHL DUP2 LT ISZERO PUSH2 0xD1C JUMPI DUP1 PUSH1 0x1 PUSH2 0xCF0 SWAP3 ADD DUP14 SSTORE DUP13 PUSH2 0x118D JUMP JUMPDEST PUSH2 0xD06 JUMPI PUSH1 0x1 SWAP3 PUSH2 0xD00 SWAP2 PUSH2 0x11DF JUMP JUMPDEST ADD PUSH2 0xCBD JUMP JUMPDEST PUSH4 0x4E487B71 PUSH1 0xE0 SHL PUSH1 0x0 MSTORE PUSH1 0x0 PUSH1 0x4 MSTORE PUSH1 0x24 PUSH1 0x0 REVERT JUMPDEST PUSH4 0x4E487B71 PUSH1 0xE0 SHL PUSH1 0x0 MSTORE PUSH1 0x41 PUSH1 0x4 MSTORE PUSH1 0x24 PUSH1 0x0 REVERT JUMPDEST POP PUSH2 0xD83 SWAP5 SWAP4 PUSH2 0xD74 PUSH1 0x6 SWAP5 PUSH2 0xD6B DUP13 SWAP6 PUSH2 0xD7D SWAP6 PUSH2 0xD54 DUP15 PUSH1 0x1 DUP11 ADD PUSH2 0x11DF JUMP JUMPDEST PUSH1 0x2 DUP9 ADD SWAP1 PUSH1 0xFF NOT DUP3 SLOAD AND OR SWAP1 SSTORE PUSH1 0x3 DUP8 ADD PUSH2 0x11DF JUMP JUMPDEST PUSH1 0x4 DUP6 ADD PUSH2 0x11DF JUMP JUMPDEST PUSH1 0x5 DUP4 ADD PUSH2 0x11DF JUMP JUMPDEST ADD PUSH2 0x11DF JUMP JUMPDEST PUSH1 0x2 SLOAD PUSH1 0x1 PUSH1 0x40 SHL DUP2 LT ISZERO PUSH2 0xD1C JUMPI DUP1 PUSH1 0x1 PUSH2 0xDA4 SWAP3 ADD PUSH1 0x2 SSTORE PUSH1 0x2 PUSH2 0x118D JUMP JUMPDEST PUSH2 0xD06 JUMPI DUP2 PUSH2 0xDB2 SWAP2 PUSH2 0x11DF JUMP JUMPDEST PUSH2 0xDBC CALLER SWAP2 PUSH2 0x12EA JUMP JUMPDEST PUSH32 0x5613B0EA20E0C0C2C37E5DEE1B46009EE8B652C2F475D4D1057EF06A6A5B8C0C PUSH1 0x0 DUP1 LOG3 STOP JUMPDEST PUSH1 0x40 MLOAD PUSH3 0x461BCD PUSH1 0xE5 SHL DUP2 MSTORE PUSH1 0x20 PUSH1 0x4 DUP3 ADD MSTORE PUSH1 0xE PUSH1 0x24 DUP3 ADD MSTORE PUSH14 0x416C726561647920657869737473 PUSH1 0x90 SHL PUSH1 0x44 DUP3 ADD MSTORE PUSH1 0x64 SWAP1 REVERT JUMPDEST PUSH1 0x40 MLOAD PUSH3 0x461BCD PUSH1 0xE5 SHL DUP2 MSTORE PUSH1 0x20 PUSH1 0x4 DUP3 ADD MSTORE PUSH1 0xB PUSH1 0x24 DUP3 ADD MSTORE PUSH11 0x1251081C995C5D5A5C9959 PUSH1 0xAA SHL PUSH1 0x44 DUP3 ADD MSTORE PUSH1 0x64 SWAP1 REVERT JUMPDEST DUP4 CALLDATALOAD PUSH1 0x1 PUSH1 0x1 PUSH1 0x40 SHL SUB DUP2 GT PUSH2 0x108 JUMPI PUSH1 0x20 SWAP2 PUSH2 0xE70 DUP4 SWAP3 PUSH1 0x24 CALLDATASIZE SWAP2 DUP8 ADD ADD PUSH2 0xE9C JUMP JUMPDEST DUP2 MSTORE ADD SWAP4 ADD SWAP3 PUSH2 0xB88 JUMP JUMPDEST SWAP1 PUSH1 0x1F DUP1 NOT SWAP2 ADD AND DUP2 ADD SWAP1 DUP2 LT PUSH1 0x1 PUSH1 0x1 PUSH1 0x40 SHL SUB DUP3 GT OR PUSH2 0xD1C JUMPI PUSH1 0x40 MSTORE JUMP JUMPDEST DUP2 PUSH1 0x1F DUP3 ADD SLT ISZERO PUSH2 0x108 JUMPI DUP1 CALLDATALOAD SWAP1 PUSH1 0x1 PUSH1 0x1 PUSH1 0x40 SHL SUB DUP3 GT PUSH2 0xD1C JUMPI PUSH1 0x40 MLOAD SWAP3 PUSH2 0xED0 PUSH1 0x1F DUP5 ADD PUSH1 0x1F NOT AND PUSH1 0x20 ADD DUP6 PUSH2 0xE7B JUMP JUMPDEST DUP3 DUP5 MSTORE PUSH1 0x20 DUP4 DUP4 ADD ADD GT PUSH2 0x108 JUMPI DUP2 PUSH1 0x0 SWAP3 PUSH1 0x20 DUP1 SWAP4 ADD DUP4 DUP7 ADD CALLDATACOPY DUP4 ADD ADD MSTORE SWAP1 JUMP JUMPDEST PUSH1 0x1 PUSH1 0x1 PUSH1 0x40 SHL SUB DUP2 GT PUSH2 0xD1C JUMPI PUSH1 0x5 SHL PUSH1 0x20 ADD SWAP1 JUMP JUMPDEST PUSH1 0x4 CALLDATALOAD SWAP1 PUSH1 0x1 PUSH1 0x1 PUSH1 0xA0 SHL SUB DUP3 AND DUP3 SUB PUSH2 0x108 JUMPI JUMP JUMPDEST PUSH1 0x0 JUMPDEST DUP4 DUP2 LT PUSH2 0xF32 JUMPI POP POP PUSH1 0x0 SWAP2 ADD MSTORE JUMP JUMPDEST DUP2 DUP2 ADD MLOAD DUP4 DUP3 ADD MSTORE PUSH1 0x20 ADD PUSH2 0xF22 JUMP JUMPDEST SWAP1 DUP1 PUSH1 0x20 DUP4 MLOAD SWAP2 DUP3 DUP2 MSTORE ADD SWAP2 PUSH1 0x20 DUP1 DUP4 PUSH1 0x5 SHL DUP4 ADD ADD SWAP5 ADD SWAP3 PUSH1 0x0 SWAP2 JUMPDEST DUP4 DUP4 LT PUSH2 0xF6E JUMPI POP POP POP POP POP SWAP1 JUMP JUMPDEST SWAP1 SWAP2 SWAP3 SWAP4 SWAP5 PUSH1 0x20 DUP1 DUP1 PUSH1 0x1 SWAP4 PUSH1 0x1F NOT DUP7 DUP3 SUB ADD DUP8 MSTORE DUP10 MLOAD PUSH2 0xF9A DUP2 MLOAD DUP1 SWAP3 DUP2 DUP6 MSTORE DUP6 DUP1 DUP7 ADD SWAP2 ADD PUSH2 0xF1F JUMP JUMPDEST PUSH1 0x1F ADD PUSH1 0x1F NOT AND ADD ADD SWAP8 ADD SWAP6 SWAP5 SWAP2 SWAP1 SWAP2 ADD SWAP3 ADD SWAP1 PUSH2 0xF5F JUMP JUMPDEST SWAP8 SWAP7 SWAP6 SWAP5 SWAP3 SWAP2 SWAP1 PUSH2 0xFCE SWAP1 PUSH2 0x120 DUP11 MSTORE PUSH2 0x120 DUP11 ADD SWAP1 PUSH2 0xF42 JUMP JUMPDEST SWAP2 DUP9 DUP4 SUB PUSH1 0x20 DUP11 ADD MSTORE DUP2 MLOAD DUP1 DUP5 MSTORE PUSH1 0x20 DUP5 ADD SWAP4 PUSH1 0x20 DUP1 DUP4 PUSH1 0x5 SHL DUP4 ADD ADD SWAP5 ADD SWAP5 PUSH1 0x0 SWAP2 JUMPDEST DUP4 DUP4 LT PUSH2 0x10D8 JUMPI POP POP POP POP PUSH2 0x100F SWAP3 POP DUP9 DUP3 SUB PUSH1 0x40 DUP11 ADD MSTORE PUSH2 0xF42 JUMP JUMPDEST DUP7 DUP2 SUB PUSH1 0x60 DUP9 ADD MSTORE PUSH1 0x20 DUP1 DUP5 MLOAD SWAP3 DUP4 DUP2 MSTORE ADD SWAP4 ADD SWAP1 PUSH1 0x0 JUMPDEST DUP2 DUP2 LT PUSH2 0x10BF JUMPI POP POP POP PUSH2 0x106B SWAP3 PUSH2 0x104F DUP4 PUSH2 0x105D SWAP4 DUP10 PUSH2 0x1079 SWAP10 SWAP9 SWAP7 SUB PUSH1 0x80 DUP12 ADD MSTORE PUSH2 0xF42 JUMP JUMPDEST SWAP1 DUP8 DUP3 SUB PUSH1 0xA0 DUP10 ADD MSTORE PUSH2 0xF42 JUMP JUMPDEST SWAP1 DUP6 DUP3 SUB PUSH1 0xC0 DUP8 ADD MSTORE PUSH2 0xF42 JUMP JUMPDEST SWAP1 DUP4 DUP3 SUB PUSH1 0xE0 DUP6 ADD MSTORE PUSH2 0xF42 JUMP JUMPDEST SWAP1 PUSH2 0x100 DUP2 DUP4 SUB SWAP2 ADD MSTORE PUSH1 0x20 DUP1 DUP4 MLOAD SWAP3 DUP4 DUP2 MSTORE ADD SWAP3 ADD SWAP1 PUSH1 0x0 JUMPDEST DUP2 DUP2 LT PUSH2 0x10A0 JUMPI POP POP POP SWAP1 JUMP JUMPDEST DUP3 MLOAD PUSH1 0x1 PUSH1 0x1 PUSH1 0xA0 SHL SUB AND DUP5 MSTORE PUSH1 0x20 SWAP4 DUP5 ADD SWAP4 SWAP1 SWAP3 ADD SWAP2 PUSH1 0x1 ADD PUSH2 0x1093 JUMP JUMPDEST DUP3 MLOAD PUSH1 0xFF AND DUP6 MSTORE PUSH1 0x20 SWAP5 DUP6 ADD SWAP5 SWAP1 SWAP3 ADD SWAP2 PUSH1 0x1 ADD PUSH2 0x1027 JUMP JUMPDEST SWAP1 SWAP2 SWAP3 SWAP4 SWAP5 PUSH1 0x20 DUP1 PUSH2 0x10F6 PUSH1 0x1 SWAP4 PUSH1 0x1F NOT DUP7 DUP3 SUB ADD DUP8 MSTORE DUP11 MLOAD PUSH2 0xF42 JUMP JUMPDEST SWAP9 ADD SWAP4 ADD SWAP4 ADD SWAP2 SWAP6 SWAP5 SWAP4 SWAP3 SWAP1 PUSH2 0xFF2 JUMP JUMPDEST PUSH1 0x40 PUSH1 0x3 NOT DUP3 ADD SLT PUSH2 0x108 JUMPI PUSH1 0x4 CALLDATALOAD SWAP1 PUSH1 0x1 PUSH1 0x1 PUSH1 0x40 SHL SUB DUP3 GT PUSH2 0x108 JUMPI PUSH2 0x1131 SWAP2 PUSH1 0x4 ADD PUSH2 0xE9C JUMP JUMPDEST SWAP1 PUSH1 0x24 CALLDATALOAD PUSH1 0x1 PUSH1 0x1 PUSH1 0xA0 SHL SUB DUP2 AND DUP2 SUB PUSH2 0x108 JUMPI SWAP1 JUMP JUMPDEST DUP1 MLOAD DUP3 LT ISZERO PUSH2 0x115C JUMPI PUSH1 0x20 SWAP2 PUSH1 0x5 SHL ADD ADD SWAP1 JUMP JUMPDEST PUSH4 0x4E487B71 PUSH1 0xE0 SHL PUSH1 0x0 MSTORE PUSH1 0x32 PUSH1 0x4 MSTORE PUSH1 0x24 PUSH1 0x0 REVERT JUMPDEST PUSH1 0x2 SLOAD DUP2 LT ISZERO PUSH2 0x115C JUMPI PUSH1 0x2 PUSH1 0x0 MSTORE PUSH1 0x20 PUSH1 0x0 KECCAK256 ADD SWAP1 PUSH1 0x0 SWAP1 JUMP JUMPDEST DUP1 SLOAD DUP3 LT ISZERO PUSH2 0x115C JUMPI PUSH1 0x0 MSTORE PUSH1 0x20 PUSH1 0x0 KECCAK256 ADD SWAP1 PUSH1 0x0 SWAP1 JUMP JUMPDEST SWAP1 PUSH1 0x1 DUP3 DUP2 SHR SWAP3 AND DUP1 ISZERO PUSH2 0x11D5 JUMPI JUMPDEST PUSH1 0x20 DUP4 LT EQ PUSH2 0x11BF JUMPI JUMP JUMPDEST PUSH4 0x4E487B71 PUSH1 0xE0 SHL PUSH1 0x0 MSTORE PUSH1 0x22 PUSH1 0x4 MSTORE PUSH1 0x24 PUSH1 0x0 REVERT JUMPDEST SWAP2 PUSH1 0x7F AND SWAP2 PUSH2 0x11B4 JUMP JUMPDEST SWAP2 SWAP1 SWAP2 DUP3 MLOAD PUSH1 0x1 PUSH1 0x1 PUSH1 0x40 SHL SUB DUP2 GT PUSH2 0xD1C JUMPI PUSH2 0x11FC DUP3 SLOAD PUSH2 0x11A5 JUMP JUMPDEST PUSH1 0x1F DUP2 GT PUSH2 0x12A2 JUMPI JUMPDEST POP PUSH1 0x20 PUSH1 0x1F DUP3 GT PUSH1 0x1 EQ PUSH2 0x1240 JUMPI DUP2 SWAP3 SWAP4 SWAP5 PUSH1 0x0 SWAP3 PUSH2 0x1235 JUMPI JUMPDEST POP POP DUP2 PUSH1 0x1 SHL SWAP2 PUSH1 0x0 NOT SWAP1 PUSH1 0x3 SHL SHR NOT AND OR SWAP1 SSTORE JUMP JUMPDEST ADD MLOAD SWAP1 POP CODESIZE DUP1 PUSH2 0x121F JUMP JUMPDEST PUSH1 0x1F NOT DUP3 AND SWAP1 DUP4 PUSH1 0x0 MSTORE DUP1 PUSH1 0x0 KECCAK256 SWAP2 PUSH1 0x0 JUMPDEST DUP2 DUP2 LT PUSH2 0x128A JUMPI POP SWAP6 DUP4 PUSH1 0x1 SWAP6 SWAP7 SWAP8 LT PUSH2 0x1271 JUMPI JUMPDEST POP POP POP DUP2 SHL ADD SWAP1 SSTORE JUMP JUMPDEST ADD MLOAD PUSH1 0x0 NOT PUSH1 0xF8 DUP5 PUSH1 0x3 SHL AND SHR NOT AND SWAP1 SSTORE CODESIZE DUP1 DUP1 PUSH2 0x1267 JUMP JUMPDEST SWAP2 SWAP3 PUSH1 0x20 PUSH1 0x1 DUP2 SWAP3 DUP7 DUP12 ADD MLOAD DUP2 SSTORE ADD SWAP5 ADD SWAP3 ADD PUSH2 0x1252 JUMP JUMPDEST DUP3 PUSH1 0x0 MSTORE PUSH1 0x20 PUSH1 0x0 KECCAK256 PUSH1 0x1F DUP4 ADD PUSH1 0x5 SHR DUP2 ADD SWAP2 PUSH1 0x20 DUP5 LT PUSH2 0x12E0 JUMPI JUMPDEST PUSH1 0x1F ADD PUSH1 0x5 SHR ADD SWAP1 JUMPDEST DUP2 DUP2 LT PUSH2 0x12D4 JUMPI POP PUSH2 0x1205 JUMP JUMPDEST PUSH1 0x0 DUP2 SSTORE PUSH1 0x1 ADD PUSH2 0x12C7 JUMP JUMPDEST SWAP1 SWAP2 POP DUP2 SWAP1 PUSH2 0x12BE JUMP JUMPDEST PUSH2 0x1302 SWAP1 PUSH1 0x20 PUSH1 0x40 MLOAD SWAP3 DUP3 DUP5 DUP1 SWAP5 MLOAD SWAP4 DUP5 SWAP3 ADD PUSH2 0xF1F JUMP JUMPDEST DUP2 ADD SUB SWAP1 KECCAK256 SWAP1 JUMP JUMPDEST PUSH1 0x40 MLOAD SWAP1 DUP2 PUSH1 0x0 DUP3 SLOAD SWAP3 PUSH2 0x131D DUP5 PUSH2 0x11A5 JUMP JUMPDEST SWAP4 PUSH1 0x1 DUP2 AND SWAP1 DUP2 ISZERO PUSH2 0x137E JUMPI POP PUSH1 0x1 EQ PUSH2 0x1342 JUMPI JUMPDEST POP PUSH1 0x20 SWAP3 POP PUSH1 0x1 DUP2 MSTORE SUB ADD SWAP1 KECCAK256 SWAP1 JUMP JUMPDEST SWAP2 POP POP PUSH1 0x0 MSTORE DUP2 PUSH1 0x20 PUSH1 0x0 KECCAK256 PUSH1 0x0 SWAP1 JUMPDEST DUP4 DUP3 LT PUSH2 0x1366 JUMPI POP POP PUSH1 0x20 SWAP2 DUP2 ADD CODESIZE PUSH2 0x1332 JUMP JUMPDEST PUSH1 0x20 SWAP2 SWAP3 POP DUP1 PUSH1 0x1 SWAP2 SLOAD DUP5 DUP8 ADD MSTORE ADD SWAP2 ADD DUP4 SWAP2 PUSH2 0x1352 JUMP JUMPDEST PUSH1 0xFF NOT AND DUP5 MSTORE POP PUSH1 0x20 SWAP4 DUP1 ISZERO ISZERO MUL DUP4 ADD SWAP2 POP CODESIZE SWAP1 POP PUSH2 0x1332 JUMP JUMPDEST PUSH1 0x0 NOT DUP2 EQ PUSH2 0x24F JUMPI PUSH1 0x1 ADD SWAP1 JUMP JUMPDEST SWAP1 PUSH2 0x13B1 DUP3 PUSH2 0xEF2 JUMP JUMPDEST PUSH2 0x13BE PUSH1 0x40 MLOAD SWAP2 DUP3 PUSH2 0xE7B JUMP JUMPDEST DUP3 DUP2 MSTORE PUSH1 0x20 DUP2 SWAP4 PUSH2 0x13D1 PUSH1 0x1F NOT SWAP2 PUSH2 0xEF2 JUMP JUMPDEST ADD SWAP2 ADD PUSH1 0x0 JUMPDEST DUP3 DUP2 LT PUSH2 0x13E3 JUMPI POP POP POP JUMP JUMPDEST PUSH1 0x60 DUP3 DUP3 ADD MSTORE PUSH1 0x20 ADD PUSH2 0x13D7 JUMP JUMPDEST SWAP1 PUSH2 0x13FB DUP3 PUSH2 0xEF2 JUMP JUMPDEST PUSH2 0x1408 PUSH1 0x40 MLOAD SWAP2 DUP3 PUSH2 0xE7B JUMP JUMPDEST DUP3 DUP2 MSTORE DUP1 SWAP3 PUSH2 0x1419 PUSH1 0x1F NOT SWAP2 PUSH2 0xEF2 JUMP JUMPDEST ADD SWAP1 PUSH1 0x20 CALLDATASIZE SWAP2 ADD CALLDATACOPY JUMP JUMPDEST SWAP1 PUSH1 0x40 MLOAD SWAP2 DUP3 PUSH1 0x0 DUP3 SLOAD SWAP3 PUSH2 0x1437 DUP5 PUSH2 0x11A5 JUMP JUMPDEST DUP1 DUP5 MSTORE SWAP4 PUSH1 0x1 DUP2 AND SWAP1 DUP2 ISZERO PUSH2 0x14A5 JUMPI POP PUSH1 0x1 EQ PUSH2 0x145E JUMPI JUMPDEST POP PUSH2 0x145C SWAP3 POP SUB DUP4 PUSH2 0xE7B JUMP JUMPDEST JUMP JUMPDEST SWAP1 POP PUSH1 0x0 SWAP3 SWAP2 SWAP3 MSTORE PUSH1 0x20 PUSH1 0x0 KECCAK256 SWAP1 PUSH1 0x0 SWAP2 JUMPDEST DUP2 DUP4 LT PUSH2 0x1489 JUMPI POP POP SWAP1 PUSH1 0x20 PUSH2 0x145C SWAP3 DUP3 ADD ADD CODESIZE PUSH2 0x144F JUMP JUMPDEST PUSH1 0x20 SWAP2 SWAP4 POP DUP1 PUSH1 0x1 SWAP2 SLOAD DUP4 DUP6 DUP10 ADD ADD MSTORE ADD SWAP2 ADD SWAP1 SWAP2 DUP5 SWAP3 PUSH2 0x1470 JUMP JUMPDEST SWAP1 POP PUSH1 0x20 SWAP3 POP PUSH2 0x145C SWAP5 SWAP2 POP PUSH1 0xFF NOT AND DUP3 DUP5 ADD MSTORE ISZERO ISZERO PUSH1 0x5 SHL DUP3 ADD ADD CODESIZE PUSH2 0x144F JUMP JUMPDEST SWAP1 DUP2 SLOAD PUSH2 0x14D3 DUP2 PUSH2 0xEF2 JUMP JUMPDEST SWAP3 PUSH2 0x14E1 PUSH1 0x40 MLOAD SWAP5 DUP6 PUSH2 0xE7B JUMP JUMPDEST DUP2 DUP5 MSTORE PUSH1 0x20 DUP5 ADD SWAP1 PUSH1 0x0 MSTORE PUSH1 0x20 PUSH1 0x0 KECCAK256 PUSH1 0x0 SWAP2 JUMPDEST DUP4 DUP4 LT PUSH2 0x1502 JUMPI POP POP POP POP JUMP JUMPDEST PUSH1 0x1 PUSH1 0x20 DUP2 SWAP3 PUSH2 0x1511 DUP6 PUSH2 0x1423 JUMP JUMPDEST DUP2 MSTORE ADD SWAP3 ADD SWAP3 ADD SWAP2 SWAP1 PUSH2 0x14F5 JUMP JUMPDEST ISZERO PUSH2 0x1526 JUMPI JUMP JUMPDEST PUSH1 0x40 MLOAD PUSH3 0x461BCD PUSH1 0xE5 SHL DUP2 MSTORE PUSH1 0x20 PUSH1 0x4 DUP3 ADD MSTORE PUSH1 0x16 PUSH1 0x24 DUP3 ADD MSTORE PUSH22 0x496E76616C696420646F63746F722061646472657373 PUSH1 0x50 SHL PUSH1 0x44 DUP3 ADD MSTORE PUSH1 0x64 SWAP1 REVERT JUMPDEST PUSH1 0x0 SLOAD PUSH1 0x1 PUSH1 0x1 PUSH1 0xA0 SHL SUB AND CALLER SUB PUSH2 0x1578 JUMPI JUMP JUMPDEST PUSH4 0x118CDAA7 PUSH1 0xE0 SHL PUSH1 0x0 MSTORE CALLER PUSH1 0x4 MSTORE PUSH1 0x24 PUSH1 0x0 REVERT INVALID LOG2 PUSH5 0x6970667358 0x22 SLT KECCAK256 POP LOG3 0xF DUP3 0xC7 0xB6 EXTCODESIZE 0xB4 SWAP10 LOG4 SWAP11 SDIV SAR DUP1 SUB SUB 0xC4 BLOBBASEFEE 0xB0 TLOAD 0xD3 PUSH10 0x6F3E4B284DBEF8D7D34 PUSH5 0x736F6C6343 STOP ADDMOD SHR STOP CALLER "},"methodIdentifiers":{"checkAccessExpiry(string,address)":"aec36904","getRecordsByOwner(address)":"552d7105","getRecordsSharedWithMe(address)":"6910dd2a","grantAccess(string,address,uint256)":"e5492e2b","owner()":"8da5cb5b","renounceOwnership()":"715018a6","revokeAccess(string,address)":"dfe0b5fe","transferOwnership(address)":"f2fde38b","uploadRecord(string,string[],string,uint8,string,string,string,string)":"0aad468f"}}}}}