{"contracts/MedicalRecords.sol":{"MedicalRecords":{"abi":[{"inputs":[],"stateMutability":"nonpayable","type":"constructor"},{"inputs":[{"internalType":"address","name":"owner","type":"address"}],"name":"OwnableInvalidOwner","type":"error"},{"inputs":[{"internalType":"address","name":"account","type":"address"}],"name":"OwnableUnauthorizedAccount","type":"error"},{"anonymous":false,"inputs":[{"indexed":true,"internalType":"string","name":"recordId","type":"string"},{"indexed":true,"internalType":"address","name":"doctor","type":"address"},{"indexed":false,"internalType":"uint256","name":"expiry","type":"uint256"}],"name":"AccessGranted","type":"event"},{"anonymous":false,"inputs":[{"indexed":true,"internalType":"string","name":"recordId","type":"string"},{"indexed":true,"internalType":"address","name":"doctor","type":"address"},{"indexed":false,"internalType":"uint256","name":"revokedAt","type":"uint256"}],"name":"AccessRevoked","type":"event"},{"anonymous":false,"inputs":[{"indexed":true,"internalType":"address","name":"previousOwner","type":"address"},{"indexed":true,"internalType":"address","name":"newOwner","type":"address"}],"name":"OwnershipTransferred","type":"event"},{"anonymous":false,"inputs":[{"indexed":true,"internalType":"string","name":"recordId","type":"string"},{"indexed":true,"internalType":"address","name":"owner","type":"address"}],"name":"RecordUploaded","type":"event"},{"inputs":[{"internalType":"string","name":"recordId","type":"string"},{"internalType":"address","name":"doctor","type":"address"}],"name":"checkAccessExpiry","outputs":[{"internalType":"uint256","name":"","type":"uint256"}],"stateMutability":"view","type":"function"},{"inputs":[{"internalType":"string","name":"recordId","type":"string"}],"name":"getRecord","outputs":[{"internalType":"string[]","name":"cids","type":"string[]"},{"internalType":"string","name":"name","type":"string"},{"internalType":"uint8","name":"age","type":"uint8"},{"internalType":"string","name":"gender","type":"string"},{"internalType":"string[]","name":"conditions","type":"string[]"},{"internalType":"string[]","name":"allergies","type":"string[]"},{"internalType":"string[]","name":"medications","type":"string[]"},{"internalType":"string","name":"bloodPressure","type":"string"},{"internalType":"string","name":"heartRate","type":"string"},{"internalType":"string","name":"temperature","type":"string"},{"internalType":"string","name":"visitDate","type":"string"},{"internalType":"string","name":"visitReason","type":"string"},{"internalType":"string","name":"visitNotes","type":"string"},{"internalType":"string","name":"labTestName","type":"string"},{"internalType":"string","name":"labResultData","type":"string"},{"internalType":"string","name":"labDate","type":"string"},{"internalType":"string","name":"prescriptionName","type":"string"},{"internalType":"string","name":"prescriptionDosage","type":"string"},{"internalType":"string","name":"prescribedDate","type":"string"},{"internalType":"string","name":"nextAppointmentDate","type":"string"},{"internalType":"string","name":"nextAppointmentDoctor","type":"string"},{"internalType":"address","name":"ownerAddress","type":"address"}],"stateMutability":"view","type":"function"},{"inputs":[{"internalType":"string","name":"recordId","type":"string"},{"internalType":"address","name":"doctor","type":"address"},{"internalType":"uint256","name":"duration","type":"uint256"}],"name":"grantAccess","outputs":[],"stateMutability":"nonpayable","type":"function"},{"inputs":[],"name":"owner","outputs":[{"internalType":"address","name":"","type":"address"}],"stateMutability":"view","type":"function"},{"inputs":[],"name":"renounceOwnership","outputs":[],"stateMutability":"nonpayable","type":"function"},{"inputs":[{"internalType":"string","name":"recordId","type":"string"},{"internalType":"address","name":"doctor","type":"address"}],"name":"revokeAccess","outputs":[],"stateMutability":"nonpayable","type":"function"},{"inputs":[{"internalType":"address","name":"newOwner","type":"address"}],"name":"transferOwnership","outputs":[],"stateMutability":"nonpayable","type":"function"},{"inputs":[{"internalType":"string","name":"recordId","type":"string"},{"internalType":"string[]","name":"_cids","type":"string[]"},{"internalType":"string","name":"_name","type":"string"},{"internalType":"uint8","name":"_age","type":"uint8"},{"internalType":"string","name":"_gender","type":"string"},{"internalType":"string[]","name":"_conditions","type":"string[]"},{"internalType":"string[]","name":"_allergies","type":"string[]"},{"internalType":"string[]","name":"_medications","type":"string[]"},{"internalType":"string","name":"_bloodPressure","type":"string"},{"internalType":"string","name":"_heartRate","type":"string"},{"internalType":"string","name":"_temperature","type":"string"},{"internalType":"string","name":"_visitDate","type":"string"},{"internalType":"string","name":"_visitReason","type":"string"},{"internalType":"string","name":"_visitNotes","type":"string"},{"internalType":"string","name":"_labTestName","type":"string"},{"internalType":"string","name":"_labResultData","type":"string"},{"internalType":"string","name":"_labDate","type":"string"},{"internalType":"string","name":"_prescriptionName","type":"string"},{"internalType":"string","name":"_prescriptionDosage","type":"string"},{"internalType":"string","name":"_prescribedDate","type":"string"},{"internalType":"string","name":"_nextAppointmentDate","type":"string"},{"internalType":"string","name":"_nextAppointmentDoctor","type":"string"}],"name":"uploadRecord","outputs":[],"stateMutability":"nonpayable","type":"function"}],"evm":{"bytecode":{"linkReferences":{},"object":"608080604052346075573315605f5760008054336001600160a01b0319821681178355916001600160a01b03909116907f8be0079c531659141344cd1fd0a4f28419497f9722a3daafe3b4186f6b6457e09080a3611198908161007b8239f35b631e4fbdf760e01b600052600060045260246000fd5b600080fdfe610340604052600436101561001357600080fd5b60003560e01c806311dd884514610878578063715018a61461081f5780637bcfbf03146101945780638da5cb5b1461016b578063aec3690414610150578063dfe0b5fe14610142578063e5492e2b146101075763f2fde38b1461007557600080fd5b34610102576020366003190112610102576004356001600160a01b03811690819003610102576100a3611139565b80156100ec57600080546001600160a01b03198116831782556001600160a01b0316907f8be0079c531659141344cd1fd0a4f28419497f9722a3daafe3b4186f6b6457e09080a3005b631e4fbdf760e01b600052600060045260246000fd5b600080fd5b34610102576060366003190112610102576004356001600160401b03811161010257610137903690600401610cd2565b50610140610e5e565b005b346101025761014036610e74565b346101025761015e36610e74565b5050602060405160008152f35b34610102576000366003190112610102576000546040516001600160a01b039091168152602090f35b34610102576102c0366003190112610102576004356001600160401b038111610102576101c5903690600401610cd2565b610100526024356001600160401b038111610102576101e8903690600401610de0565b6101c0526044356001600160401b0381116101025761020b903690600401610cd2565b6101a05260643560ff81168103610102576084356001600160401b0381116101025761023b903690600401610cd2565b9060a4356001600160401b0381116101025761025b903690600401610de0565b6101805260c4356001600160401b0381116101025761027e903690600401610de0565b6101605260e4356001600160401b038111610102576102a1903690600401610de0565b61014052610104356001600160401b038111610102576102c5903690600401610cd2565b610124356001600160401b038111610102576102e5903690600401610cd2565b610144356001600160401b03811161010257610305903690600401610cd2565b93610164356001600160401b03811161010257610326903690600401610cd2565b94610184356001600160401b03811161010257610347903690600401610cd2565b956101a4356001600160401b03811161010257610368903690600401610cd2565b966101c4356001600160401b03811161010257610389903690600401610cd2565b956101e4356001600160401b038111610102576103aa903690600401610cd2565b906001600160401b036102043511610102576103cc3661020435600401610cd2565b91610224356001600160401b038111610102576103ed903690600401610cd2565b946001600160401b0361024435116101025761040f3661024435600401610cd2565b97610264356001600160401b03811161010257610430903690600401610cd2565b60a052610284356001600160401b03811161010257610453903690600401610cd2565b60e0526001600160401b036102a4351161010257610477366102a435600401610cd2565b610120526101005151156107ec57604051601561010051516104a0818460206101005101610d28565b600190830190815282900360200190912001546001600160a01b03166107b65760405160208161010051516104db8183856101005101610d28565b8101600181520301902060c052601560c05101336bffffffffffffffffffffffff60a01b82541617905560005b6101c0515181101561053657806105306105276001936101c051610feb565b5160c05161110a565b01610508565b5061056d908d9c61054f6101a051600160c05101610fff565b60ff600260c05101911660ff19825416179055600360c05101610fff565b60005b61018051518110156105a1578061059b61058f60019361018051610feb565b51600460c0510161110a565b01610570565b508a9960005b61016051518110156105d857806105d26105c660019361016051610feb565b51600560c0510161110a565b016105a7565b508a9960006080525b6101405151608051101561061b5761060d61060160805161014051610feb565b51600660c0510161110a565b6001608051016080526105e1565b6106bb9a6106796106a59861066e61068f966106636106b09e6106586106849861064d61069a9e600760c05101610fff565b600860c05101610fff565b600960c05101610fff565b600a60c05101610fff565b600b60c05101610fff565b600c60c05101610fff565b600d60c05101610fff565b600e60c05101610fff565b600f60c05101610fff565b601060c05101610fff565b601160c05101610fff565b6106cc60a051601260c05101610fff565b6106dd60e051601360c05101610fff565b6106ef61012051601460c05101610fff565b600254600160401b8110156107a057600181018060025581101561078a57600260005261010051610741917f405787fa12a823e0f2b7631cc41b3ba8828b3321ca811111fa75cd3aa3bb5ace01610fff565b60405161010051519061075b828260206101005101610d28565b80339281010390207f5613b0ea20e0c0c2c37e5dee1b46009ee8b652c2f475d4d1057ef06a6a5b8c0c600080a3005b634e487b7160e01b600052603260045260246000fd5b634e487b7160e01b600052604160045260246000fd5b60405162461bcd60e51b815260206004820152600e60248201526d416c72656164792065786973747360901b6044820152606490fd5b60405162461bcd60e51b815260206004820152600b60248201526a1251081c995c5d5a5c995960aa1b6044820152606490fd5b3461010257600036600319011261010257610838611139565b600080546001600160a01b0319811682556001600160a01b03167f8be0079c531659141344cd1fd0a4f28419497f9722a3daafe3b4186f6b6457e08280a3005b34610102576020366003190112610102576004356001600160401b0381116101025760206108ad6108c0923690600401610cd2565b8160405193828580945193849201610d28565b600190820190815203019020610320819052601501546001600160a01b031661028081905215610c805761032051600281015460ff166102c05261090390610f93565b6103205160010161091390610eef565b6102a0526103205160030161092790610eef565b610300526103205160040161093b90610f93565b6103205160050161094b90610f93565b6103205160060161095b90610f93565b6103205160070161096b90610eef565b6103205160080161097b90610eef565b6103205160090161098b90610eef565b61032051600a0161099b90610eef565b9161032051600b016109ac90610eef565b9361032051600c016109bd90610eef565b9561032051600d016109ce90610eef565b9761032051600e016109df90610eef565b9961032051600f016109f090610eef565b9b61032051601001610a0190610eef565b6101e05261032051601101610a1590610eef565b6102005261032051601201610a2990610eef565b6102405261032051601301610a3d90610eef565b6102e05261032051601401610a5190610eef565b6102605260405161022052610220516102c09052610220516102c001610a7691610d70565b61022051810361022051602001526102a05190610a9291610d4b565b6102c051610220516040015261022051810361022051606001526103005190610aba91610d4b565b6102205181036102205160800152610ad191610d70565b6102205181036102205160a00152610ae891610d70565b6102205181036102205160c00152610aff91610d70565b6102205181036102205160e00152610b1691610d4b565b610220518103610220516101000152610b2e91610d4b565b610220518103610220516101200152610b4691610d4b565b610220518103610220516101400152610b5e91610d4b565b610220518103610220516101600152610b7691610d4b565b610220518103610220516101800152610b8e91610d4b565b610220518103610220516101a00152610ba691610d4b565b610220518103610220516101c00152610bbe91610d4b565b610220518103610220516101e00152610bd691610d4b565b6102205181036102205161020001526101e05190610bf391610d4b565b6102205181036102205161022001526102005190610c1091610d4b565b6102205181036102205161024001526102405190610c2d91610d4b565b6102205181036102205161026001526102e05190610c4a91610d4b565b6102205181036102205161028001526102605190610c6791610d4b565b61028051610220516102a0015261022051900361022051f35b60405162461bcd60e51b8152602060048201526009602482015268139bdd08199bdd5b9960ba1b6044820152606490fd5b90601f801991011681019081106001600160401b038211176107a057604052565b81601f82011215610102578035906001600160401b0382116107a05760405192610d06601f8401601f191660200185610cb1565b8284526020838301011161010257816000926020809301838601378301015290565b60005b838110610d3b5750506000910152565b8181015183820152602001610d2b565b90602091610d6481518092818552858086019101610d28565b601f01601f1916010190565b9080602083519182815201916020808360051b8301019401926000915b838310610d9c57505050505090565b9091929394602080610dba600193601f198682030187528951610d4b565b97019301930191939290610d8d565b6001600160401b0381116107a05760051b60200190565b9080601f83011215610102578135610df781610dc9565b92610e056040519485610cb1565b81845260208085019260051b820101918383116101025760208201905b838210610e3157505050505090565b81356001600160401b03811161010257602091610e5387848094880101610cd2565b815201910190610e22565b602435906001600160a01b038216820361010257565b604060031982011261010257600435906001600160401b03821161010257610e9e91600401610cd2565b906024356001600160a01b03811681036101025790565b90600182811c92168015610ee5575b6020831014610ecf57565b634e487b7160e01b600052602260045260246000fd5b91607f1691610ec4565b9060405191826000825492610f0384610eb5565b8084529360018116908115610f715750600114610f2a575b50610f2892500383610cb1565b565b90506000929192526020600020906000915b818310610f55575050906020610f289282010138610f1b565b6020919350806001915483858901015201910190918492610f3c565b905060209250610f2894915060ff191682840152151560051b82010138610f1b565b908154610f9f81610dc9565b92610fad6040519485610cb1565b818452602084019060005260206000206000915b838310610fce5750505050565b600160208192610fdd85610eef565b815201920192019190610fc1565b805182101561078a5760209160051b010190565b91909182516001600160401b0381116107a05761101c8254610eb5565b601f81116110c2575b506020601f82116001146110605781929394600092611055575b50508160011b916000199060031b1c1916179055565b01519050388061103f565b601f1982169083600052806000209160005b8181106110aa57509583600195969710611091575b505050811b019055565b015160001960f88460031b161c19169055388080611087565b9192602060018192868b015181550194019201611072565b826000526020600020601f830160051c81019160208410611100575b601f0160051c01905b8181106110f45750611025565b600081556001016110e7565b90915081906110de565b908154600160401b8110156107a0576001810180845581101561078a57610f2892600052602060002001610fff565b6000546001600160a01b0316330361114d57565b63118cdaa760e01b6000523360045260246000fdfea26469706673582212200cc1600b853c863287467a7ea0b83530b23a21f8cc923a458f0e5217585b216e64736f6c634300081c0033","opcodes":"PUSH1 0x80 DUP1 PUSH1 0x40 MSTORE CALLVALUE PUSH1 0x75 JUMPI CALLER ISZERO PUSH1 0x5F JUMPI PUSH1 0x0 DUP1 SLOAD CALLER PUSH1 0x1 PUSH1 0x1 PUSH1 0xA0 SHL SUB NOT DUP3 AND DUP2 OR DUP4 SSTORE SWAP2 PUSH1 0x1 PUSH1 0x1 PUSH1 0xA0 SHL SUB SWAP1 SWAP2 AND SWAP1 PUSH32 0x8BE0079C531659141344CD1FD0A4F28419497F9722A3DAAFE3B4186F6B6457E0 SWAP1 DUP1 LOG3 PUSH2 0x1198 SWAP1 DUP2 PUSH2 0x7B DUP3 CODECOPY RETURN JUMPDEST PUSH4 0x1E4FBDF7 PUSH1 0xE0 SHL PUSH1 0x0 MSTORE PUSH1 0x0 PUSH1 0x4 MSTORE PUSH1 0x24 PUSH1 0x0 REVERT JUMPDEST PUSH1 0x0 DUP1 REVERT INVALID PUSH2 0x340 PUSH1 0x40 MSTORE PUSH1 0x4 CALLDATASIZE LT ISZERO PUSH2 0x13 JUMPI PUSH1 0x0 DUP1 REVERT JUMPDEST PUSH1 0x0 CALLDATALOAD PUSH1 0xE0 SHR DUP1 PUSH4 0x11DD8845 EQ PUSH2 0x878 JUMPI DUP1 PUSH4 0x715018A6 EQ PUSH2 0x81F JUMPI DUP1 PUSH4 0x7BCFBF03 EQ PUSH2 0x194 JUMPI DUP1 PUSH4 0x8DA5CB5B EQ PUSH2 0x16B JUMPI DUP1 PUSH4 0xAEC36904 EQ PUSH2 0x150 JUMPI DUP1 PUSH4 0xDFE0B5FE EQ PUSH2 0x142 JUMPI DUP1 PUSH4 0xE5492E2B EQ PUSH2 0x107 JUMPI PUSH4 0xF2FDE38B EQ PUSH2 0x75 JUMPI PUSH1 0x0 DUP1 REVERT JUMPDEST CALLVALUE PUSH2 0x102 JUMPI PUSH1 0x20 CALLDATASIZE PUSH1 0x3 NOT ADD SLT PUSH2 0x102 JUMPI PUSH1 0x4 CALLDATALOAD PUSH1 0x1 PUSH1 0x1 PUSH1 0xA0 SHL SUB DUP2 AND SWAP1 DUP2 SWAP1 SUB PUSH2 0x102 JUMPI PUSH2 0xA3 PUSH2 0x1139 JUMP JUMPDEST DUP1 ISZERO PUSH2 0xEC JUMPI PUSH1 0x0 DUP1 SLOAD PUSH1 0x1 PUSH1 0x1 PUSH1 0xA0 SHL SUB NOT DUP2 AND DUP4 OR DUP3 SSTORE PUSH1 0x1 PUSH1 0x1 PUSH1 0xA0 SHL SUB AND SWAP1 PUSH32 0x8BE0079C531659141344CD1FD0A4F28419497F9722A3DAAFE3B4186F6B6457E0 SWAP1 DUP1 LOG3 STOP JUMPDEST PUSH4 0x1E4FBDF7 PUSH1 0xE0 SHL PUSH1 0x0 MSTORE PUSH1 0x0 PUSH1 0x4 MSTORE PUSH1 0x24 PUSH1 0x0 REVERT JUMPDEST PUSH1 0x0 DUP1 REVERT JUMPDEST CALLVALUE PUSH2 0x102 JUMPI PUSH1 0x60 CALLDATASIZE PUSH1 0x3 NOT ADD SLT PUSH2 0x102 JUMPI PUSH1 0x4 CALLDATALOAD PUSH1 0x1 PUSH1 0x1 PUSH1 0x40 SHL SUB DUP2 GT PUSH2 0x102 JUMPI PUSH2 0x137 SWAP1 CALLDATASIZE SWAP1 PUSH1 0x4 ADD PUSH2 0xCD2 JUMP JUMPDEST POP PUSH2 0x140 PUSH2 0xE5E JUMP JUMPDEST STOP JUMPDEST CALLVALUE PUSH2 0x102 JUMPI PUSH2 0x140 CALLDATASIZE PUSH2 0xE74 JUMP JUMPDEST CALLVALUE PUSH2 0x102 JUMPI PUSH2 0x15E CALLDATASIZE PUSH2 0xE74 JUMP JUMPDEST POP POP PUSH1 0x20 PUSH1 0x40 MLOAD PUSH1 0x0 DUP2 MSTORE RETURN JUMPDEST CALLVALUE PUSH2 0x102 JUMPI PUSH1 0x0 CALLDATASIZE PUSH1 0x3 NOT ADD SLT PUSH2 0x102 JUMPI PUSH1 0x0 SLOAD PUSH1 0x40 MLOAD PUSH1 0x1 PUSH1 0x1 PUSH1 0xA0 SHL SUB SWAP1 SWAP2 AND DUP2 MSTORE PUSH1 0x20 SWAP1 RETURN JUMPDEST CALLVALUE PUSH2 0x102 JUMPI PUSH2 0x2C0 CALLDATASIZE PUSH1 0x3 NOT ADD SLT PUSH2 0x102 JUMPI PUSH1 0x4 CALLDATALOAD PUSH1 0x1 PUSH1 0x1 PUSH1 0x40 SHL SUB DUP2 GT PUSH2 0x102 JUMPI PUSH2 0x1C5 SWAP1 CALLDATASIZE SWAP1 PUSH1 0x4 ADD PUSH2 0xCD2 JUMP JUMPDEST PUSH2 0x100 MSTORE PUSH1 0x24 CALLDATALOAD PUSH1 0x1 PUSH1 0x1 PUSH1 0x40 SHL SUB DUP2 GT PUSH2 0x102 JUMPI PUSH2 0x1E8 SWAP1 CALLDATASIZE SWAP1 PUSH1 0x4 ADD PUSH2 0xDE0 JUMP JUMPDEST PUSH2 0x1C0 MSTORE PUSH1 0x44 CALLDATALOAD PUSH1 0x1 PUSH1 0x1 PUSH1 0x40 SHL SUB DUP2 GT PUSH2 0x102 JUMPI PUSH2 0x20B SWAP1 CALLDATASIZE SWAP1 PUSH1 0x4 ADD PUSH2 0xCD2 JUMP JUMPDEST PUSH2 0x1A0 MSTORE PUSH1 0x64 CALLDATALOAD PUSH1 0xFF DUP2 AND DUP2 SUB PUSH2 0x102 JUMPI PUSH1 0x84 CALLDATALOAD PUSH1 0x1 PUSH1 0x1 PUSH1 0x40 SHL SUB DUP2 GT PUSH2 0x102 JUMPI PUSH2 0x23B SWAP1 CALLDATASIZE SWAP1 PUSH1 0x4 ADD PUSH2 0xCD2 JUMP JUMPDEST SWAP1 PUSH1 0xA4 CALLDATALOAD PUSH1 0x1 PUSH1 0x1 PUSH1 0x40 SHL SUB DUP2 GT PUSH2 0x102 JUMPI PUSH2 0x25B SWAP1 CALLDATASIZE SWAP1 PUSH1 0x4 ADD PUSH2 0xDE0 JUMP JUMPDEST PUSH2 0x180 MSTORE PUSH1 0xC4 CALLDATALOAD PUSH1 0x1 PUSH1 0x1 PUSH1 0x40 SHL SUB DUP2 GT PUSH2 0x102 JUMPI PUSH2 0x27E SWAP1 CALLDATASIZE SWAP1 PUSH1 0x4 ADD PUSH2 0xDE0 JUMP JUMPDEST PUSH2 0x160 MSTORE PUSH1 0xE4 CALLDATALOAD PUSH1 0x1 PUSH1 0x1 PUSH1 0x40 SHL SUB DUP2 GT PUSH2 0x102 JUMPI PUSH2 0x2A1 SWAP1 CALLDATASIZE SWAP1 PUSH1 0x4 ADD PUSH2 0xDE0 JUMP JUMPDEST PUSH2 0x140 MSTORE PUSH2 0x104 CALLDATALOAD PUSH1 0x1 PUSH1 0x1 PUSH1 0x40 SHL SUB DUP2 GT PUSH2 0x102 JUMPI PUSH2 0x2C5 SWAP1 CALLDATASIZE SWAP1 PUSH1 0x4 ADD PUSH2 0xCD2 JUMP JUMPDEST PUSH2 0x124 CALLDATALOAD PUSH1 0x1 PUSH1 0x1 PUSH1 0x40 SHL SUB DUP2 GT PUSH2 0x102 JUMPI PUSH2 0x2E5 SWAP1 CALLDATASIZE SWAP1 PUSH1 0x4 ADD PUSH2 0xCD2 JUMP JUMPDEST PUSH2 0x144 CALLDATALOAD PUSH1 0x1 PUSH1 0x1 PUSH1 0x40 SHL SUB DUP2 GT PUSH2 0x102 JUMPI PUSH2 0x305 SWAP1 CALLDATASIZE SWAP1 PUSH1 0x4 ADD PUSH2 0xCD2 JUMP JUMPDEST SWAP4 PUSH2 0x164 CALLDATALOAD PUSH1 0x1 PUSH1 0x1 PUSH1 0x40 SHL SUB DUP2 GT PUSH2 0x102 JUMPI PUSH2 0x326 SWAP1 CALLDATASIZE SWAP1 PUSH1 0x4 ADD PUSH2 0xCD2 JUMP JUMPDEST SWAP5 PUSH2 0x184 CALLDATALOAD PUSH1 0x1 PUSH1 0x1 PUSH1 0x40 SHL SUB DUP2 GT PUSH2 0x102 JUMPI PUSH2 0x347 SWAP1 CALLDATASIZE SWAP1 PUSH1 0x4 ADD PUSH2 0xCD2 JUMP JUMPDEST SWAP6 PUSH2 0x1A4 CALLDATALOAD PUSH1 0x1 PUSH1 0x1 PUSH1 0x40 SHL SUB DUP2 GT PUSH2 0x102 JUMPI PUSH2 0x368 SWAP1 CALLDATASIZE SWAP1 PUSH1 0x4 ADD PUSH2 0xCD2 JUMP JUMPDEST SWAP7 PUSH2 0x1C4 CALLDATALOAD PUSH1 0x1 PUSH1 0x1 PUSH1 0x40 SHL SUB DUP2 GT PUSH2 0x102 JUMPI PUSH2 0x389 SWAP1 CALLDATASIZE SWAP1 PUSH1 0x4 ADD PUSH2 0xCD2 JUMP JUMPDEST SWAP6 PUSH2 0x1E4 CALLDATALOAD PUSH1 0x1 PUSH1 0x1 PUSH1 0x40 SHL SUB DUP2 GT PUSH2 0x102 JUMPI PUSH2 0x3AA SWAP1 CALLDATASIZE SWAP1 PUSH1 0x4 ADD PUSH2 0xCD2 JUMP JUMPDEST SWAP1 PUSH1 0x1 PUSH1 0x1 PUSH1 0x40 SHL SUB PUSH2 0x204 CALLDATALOAD GT PUSH2 0x102 JUMPI PUSH2 0x3CC CALLDATASIZE PUSH2 0x204 CALLDATALOAD PUSH1 0x4 ADD PUSH2 0xCD2 JUMP JUMPDEST SWAP2 PUSH2 0x224 CALLDATALOAD PUSH1 0x1 PUSH1 0x1 PUSH1 0x40 SHL SUB DUP2 GT PUSH2 0x102 JUMPI PUSH2 0x3ED SWAP1 CALLDATASIZE SWAP1 PUSH1 0x4 ADD PUSH2 0xCD2 JUMP JUMPDEST SWAP5 PUSH1 0x1 PUSH1 0x1 PUSH1 0x40 SHL SUB PUSH2 0x244 CALLDATALOAD GT PUSH2 0x102 JUMPI PUSH2 0x40F CALLDATASIZE PUSH2 0x244 CALLDATALOAD PUSH1 0x4 ADD PUSH2 0xCD2 JUMP JUMPDEST SWAP8 PUSH2 0x264 CALLDATALOAD PUSH1 0x1 PUSH1 0x1 PUSH1 0x40 SHL SUB DUP2 GT PUSH2 0x102 JUMPI PUSH2 0x430 SWAP1 CALLDATASIZE SWAP1 PUSH1 0x4 ADD PUSH2 0xCD2 JUMP JUMPDEST PUSH1 0xA0 MSTORE PUSH2 0x284 CALLDATALOAD PUSH1 0x1 PUSH1 0x1 PUSH1 0x40 SHL SUB DUP2 GT PUSH2 0x102 JUMPI PUSH2 0x453 SWAP1 CALLDATASIZE SWAP1 PUSH1 0x4 ADD PUSH2 0xCD2 JUMP JUMPDEST PUSH1 0xE0 MSTORE PUSH1 0x1 PUSH1 0x1 PUSH1 0x40 SHL SUB PUSH2 0x2A4 CALLDATALOAD GT PUSH2 0x102 JUMPI PUSH2 0x477 CALLDATASIZE PUSH2 0x2A4 CALLDATALOAD PUSH1 0x4 ADD PUSH2 0xCD2 JUMP JUMPDEST PUSH2 0x120 MSTORE PUSH2 0x100 MLOAD MLOAD ISZERO PUSH2 0x7EC JUMPI PUSH1 0x40 MLOAD PUSH1 0x15 PUSH2 0x100 MLOAD MLOAD PUSH2 0x4A0 DUP2 DUP5 PUSH1 0x20 PUSH2 0x100 MLOAD ADD PUSH2 0xD28 JUMP JUMPDEST PUSH1 0x1 SWAP1 DUP4 ADD SWAP1 DUP2 MSTORE DUP3 SWAP1 SUB PUSH1 0x20 ADD SWAP1 SWAP2 KECCAK256 ADD SLOAD PUSH1 0x1 PUSH1 0x1 PUSH1 0xA0 SHL SUB AND PUSH2 0x7B6 JUMPI PUSH1 0x40 MLOAD PUSH1 0x20 DUP2 PUSH2 0x100 MLOAD MLOAD PUSH2 0x4DB DUP2 DUP4 DUP6 PUSH2 0x100 MLOAD ADD PUSH2 0xD28 JUMP JUMPDEST DUP2 ADD PUSH1 0x1 DUP2 MSTORE SUB ADD SWAP1 KECCAK256 PUSH1 0xC0 MSTORE PUSH1 0x15 PUSH1 0xC0 MLOAD ADD CALLER PUSH12 0xFFFFFFFFFFFFFFFFFFFFFFFF PUSH1 0xA0 SHL DUP3 SLOAD AND OR SWAP1 SSTORE PUSH1 0x0 JUMPDEST PUSH2 0x1C0 MLOAD MLOAD DUP2 LT ISZERO PUSH2 0x536 JUMPI DUP1 PUSH2 0x530 PUSH2 0x527 PUSH1 0x1 SWAP4 PUSH2 0x1C0 MLOAD PUSH2 0xFEB JUMP JUMPDEST MLOAD PUSH1 0xC0 MLOAD PUSH2 0x110A JUMP JUMPDEST ADD PUSH2 0x508 JUMP JUMPDEST POP PUSH2 0x56D SWAP1 DUP14 SWAP13 PUSH2 0x54F PUSH2 0x1A0 MLOAD PUSH1 0x1 PUSH1 0xC0 MLOAD ADD PUSH2 0xFFF JUMP JUMPDEST PUSH1 0xFF PUSH1 0x2 PUSH1 0xC0 MLOAD ADD SWAP2 AND PUSH1 0xFF NOT DUP3 SLOAD AND OR SWAP1 SSTORE PUSH1 0x3 PUSH1 0xC0 MLOAD ADD PUSH2 0xFFF JUMP JUMPDEST PUSH1 0x0 JUMPDEST PUSH2 0x180 MLOAD MLOAD DUP2 LT ISZERO PUSH2 0x5A1 JUMPI DUP1 PUSH2 0x59B PUSH2 0x58F PUSH1 0x1 SWAP4 PUSH2 0x180 MLOAD PUSH2 0xFEB JUMP JUMPDEST MLOAD PUSH1 0x4 PUSH1 0xC0 MLOAD ADD PUSH2 0x110A JUMP JUMPDEST ADD PUSH2 0x570 JUMP JUMPDEST POP DUP11 SWAP10 PUSH1 0x0 JUMPDEST PUSH2 0x160 MLOAD MLOAD DUP2 LT ISZERO PUSH2 0x5D8 JUMPI DUP1 PUSH2 0x5D2 PUSH2 0x5C6 PUSH1 0x1 SWAP4 PUSH2 0x160 MLOAD PUSH2 0xFEB JUMP JUMPDEST MLOAD PUSH1 0x5 PUSH1 0xC0 MLOAD ADD PUSH2 0x110A JUMP JUMPDEST ADD PUSH2 0x5A7 JUMP JUMPDEST POP DUP11 SWAP10 PUSH1 0x0 PUSH1 0x80 MSTORE JUMPDEST PUSH2 0x140 MLOAD MLOAD PUSH1 0x80 MLOAD LT ISZERO PUSH2 0x61B JUMPI PUSH2 0x60D PUSH2 0x601 PUSH1 0x80 MLOAD PUSH2 0x140 MLOAD PUSH2 0xFEB JUMP JUMPDEST MLOAD PUSH1 0x6 PUSH1 0xC0 MLOAD ADD PUSH2 0x110A JUMP JUMPDEST PUSH1 0x1 PUSH1 0x80 MLOAD ADD PUSH1 0x80 MSTORE PUSH2 0x5E1 JUMP JUMPDEST PUSH2 0x6BB SWAP11 PUSH2 0x679 PUSH2 0x6A5 SWAP9 PUSH2 0x66E PUSH2 0x68F SWAP7 PUSH2 0x663 PUSH2 0x6B0 SWAP15 PUSH2 0x658 PUSH2 0x684 SWAP9 PUSH2 0x64D PUSH2 0x69A SWAP15 PUSH1 0x7 PUSH1 0xC0 MLOAD ADD PUSH2 0xFFF JUMP JUMPDEST PUSH1 0x8 PUSH1 0xC0 MLOAD ADD PUSH2 0xFFF JUMP JUMPDEST PUSH1 0x9 PUSH1 0xC0 MLOAD ADD PUSH2 0xFFF JUMP JUMPDEST PUSH1 0xA PUSH1 0xC0 MLOAD ADD PUSH2 0xFFF JUMP JUMPDEST PUSH1 0xB PUSH1 0xC0 MLOAD ADD PUSH2 0xFFF JUMP JUMPDEST PUSH1 0xC PUSH1 0xC0 MLOAD ADD PUSH2 0xFFF JUMP JUMPDEST PUSH1 0xD PUSH1 0xC0 MLOAD ADD PUSH2 0xFFF JUMP JUMPDEST PUSH1 0xE PUSH1 0xC0 MLOAD ADD PUSH2 0xFFF JUMP JUMPDEST PUSH1 0xF PUSH1 0xC0 MLOAD ADD PUSH2 0xFFF JUMP JUMPDEST PUSH1 0x10 PUSH1 0xC0 MLOAD ADD PUSH2 0xFFF JUMP JUMPDEST PUSH1 0x11 PUSH1 0xC0 MLOAD ADD PUSH2 0xFFF JUMP JUMPDEST PUSH2 0x6CC PUSH1 0xA0 MLOAD PUSH1 0x12 PUSH1 0xC0 MLOAD ADD PUSH2 0xFFF JUMP JUMPDEST PUSH2 0x6DD PUSH1 0xE0 MLOAD PUSH1 0x13 PUSH1 0xC0 MLOAD ADD PUSH2 0xFFF JUMP JUMPDEST PUSH2 0x6EF PUSH2 0x120 MLOAD PUSH1 0x14 PUSH1 0xC0 MLOAD ADD PUSH2 0xFFF JUMP JUMPDEST PUSH1 0x2 SLOAD PUSH1 0x1 PUSH1 0x40 SHL DUP2 LT ISZERO PUSH2 0x7A0 JUMPI PUSH1 0x1 DUP2 ADD DUP1 PUSH1 0x2 SSTORE DUP2 LT ISZERO PUSH2 0x78A JUMPI PUSH1 0x2 PUSH1 0x0 MSTORE PUSH2 0x100 MLOAD PUSH2 0x741 SWAP2 PUSH32 0x405787FA12A823E0F2B7631CC41B3BA8828B3321CA811111FA75CD3AA3BB5ACE ADD PUSH2 0xFFF JUMP JUMPDEST PUSH1 0x40 MLOAD PUSH2 0x100 MLOAD MLOAD SWAP1 PUSH2 0x75B DUP3 DUP3 PUSH1 0x20 PUSH2 0x100 MLOAD ADD PUSH2 0xD28 JUMP JUMPDEST DUP1 CALLER SWAP3 DUP2 ADD SUB SWAP1 KECCAK256 PUSH32 0x5613B0EA20E0C0C2C37E5DEE1B46009EE8B652C2F475D4D1057EF06A6A5B8C0C PUSH1 0x0 DUP1 LOG3 STOP JUMPDEST PUSH4 0x4E487B71 PUSH1 0xE0 SHL PUSH1 0x0 MSTORE PUSH1 0x32 PUSH1 0x4 MSTORE PUSH1 0x24 PUSH1 0x0 REVERT JUMPDEST PUSH4 0x4E487B71 PUSH1 0xE0 SHL PUSH1 0x0 MSTORE PUSH1 0x41 PUSH1 0x4 MSTORE PUSH1 0x24 PUSH1 0x0 REVERT JUMPDEST PUSH1 0x40 MLOAD PUSH3 0x461BCD PUSH1 0xE5 SHL DUP2 MSTORE PUSH1 0x20 PUSH1 0x4 DUP3 ADD MSTORE PUSH1 0xE PUSH1 0x24 DUP3 ADD MSTORE PUSH14 0x416C726561647920657869737473 PUSH1 0x90 SHL PUSH1 0x44 DUP3 ADD MSTORE PUSH1 0x64 SWAP1 REVERT JUMPDEST PUSH1 0x40 MLOAD PUSH3 0x461BCD PUSH1 0xE5 SHL DUP2 MSTORE PUSH1 0x20 PUSH1 0x4 DUP3 ADD MSTORE PUSH1 0xB PUSH1 0x24 DUP3 ADD MSTORE PUSH11 0x1251081C995C5D5A5C9959 PUSH1 0xAA SHL PUSH1 0x44 DUP3 ADD MSTORE PUSH1 0x64 SWAP1 REVERT JUMPDEST CALLVALUE PUSH2 0x102 JUMPI PUSH1 0x0 CALLDATASIZE PUSH1 0x3 NOT ADD SLT PUSH2 0x102 JUMPI PUSH2 0x838 PUSH2 0x1139 JUMP JUMPDEST PUSH1 0x0 DUP1 SLOAD PUSH1 0x1 PUSH1 0x1 PUSH1 0xA0 SHL SUB NOT DUP2 AND DUP3 SSTORE PUSH1 0x1 PUSH1 0x1 PUSH1 0xA0 SHL SUB AND PUSH32 0x8BE0079C531659141344CD1FD0A4F28419497F9722A3DAAFE3B4186F6B6457E0 DUP3 DUP1 LOG3 STOP JUMPDEST CALLVALUE PUSH2 0x102 JUMPI PUSH1 0x20 CALLDATASIZE PUSH1 0x3 NOT ADD SLT PUSH2 0x102 JUMPI PUSH1 0x4 CALLDATALOAD PUSH1 0x1 PUSH1 0x1 PUSH1 0x40 SHL SUB DUP2 GT PUSH2 0x102 JUMPI PUSH1 0x20 PUSH2 0x8AD PUSH2 0x8C0 SWAP3 CALLDATASIZE SWAP1 PUSH1 0x4 ADD PUSH2 0xCD2 JUMP JUMPDEST DUP2 PUSH1 0x40 MLOAD SWAP4 DUP3 DUP6 DUP1 SWAP5 MLOAD SWAP4 DUP5 SWAP3 ADD PUSH2 0xD28 JUMP JUMPDEST PUSH1 0x1 SWAP1 DUP3 ADD SWAP1 DUP2 MSTORE SUB ADD SWAP1 KECCAK256 PUSH2 0x320 DUP2 SWAP1 MSTORE PUSH1 0x15 ADD SLOAD PUSH1 0x1 PUSH1 0x1 PUSH1 0xA0 SHL SUB AND PUSH2 0x280 DUP2 SWAP1 MSTORE ISZERO PUSH2 0xC80 JUMPI PUSH2 0x320 MLOAD PUSH1 0x2 DUP2 ADD SLOAD PUSH1 0xFF AND PUSH2 0x2C0 MSTORE PUSH2 0x903 SWAP1 PUSH2 0xF93 JUMP JUMPDEST PUSH2 0x320 MLOAD PUSH1 0x1 ADD PUSH2 0x913 SWAP1 PUSH2 0xEEF JUMP JUMPDEST PUSH2 0x2A0 MSTORE PUSH2 0x320 MLOAD PUSH1 0x3 ADD PUSH2 0x927 SWAP1 PUSH2 0xEEF JUMP JUMPDEST PUSH2 0x300 MSTORE PUSH2 0x320 MLOAD PUSH1 0x4 ADD PUSH2 0x93B SWAP1 PUSH2 0xF93 JUMP JUMPDEST PUSH2 0x320 MLOAD PUSH1 0x5 ADD PUSH2 0x94B SWAP1 PUSH2 0xF93 JUMP JUMPDEST PUSH2 0x320 MLOAD PUSH1 0x6 ADD PUSH2 0x95B SWAP1 PUSH2 0xF93 JUMP JUMPDEST PUSH2 0x320 MLOAD PUSH1 0x7 ADD PUSH2 0x96B SWAP1 PUSH2 0xEEF JUMP JUMPDEST PUSH2 0x320 MLOAD PUSH1 0x8 ADD PUSH2 0x97B SWAP1 PUSH2 0xEEF JUMP JUMPDEST PUSH2 0x320 MLOAD PUSH1 0x9 ADD PUSH2 0x98B SWAP1 PUSH2 0xEEF JUMP JUMPDEST PUSH2 0x320 MLOAD PUSH1 0xA ADD PUSH2 0x99B SWAP1 PUSH2 0xEEF JUMP JUMPDEST SWAP2 PUSH2 0x320 MLOAD PUSH1 0xB ADD PUSH2 0x9AC SWAP1 PUSH2 0xEEF JUMP JUMPDEST SWAP4 PUSH2 0x320 MLOAD PUSH1 0xC ADD PUSH2 0x9BD SWAP1 PUSH2 0xEEF JUMP JUMPDEST SWAP6 PUSH2 0x320 MLOAD PUSH1 0xD ADD PUSH2 0x9CE SWAP1 PUSH2 0xEEF JUMP JUMPDEST SWAP8 PUSH2 0x320 MLOAD PUSH1 0xE ADD PUSH2 0x9DF SWAP1 PUSH2 0xEEF JUMP JUMPDEST SWAP10 PUSH2 0x320 MLOAD PUSH1 0xF ADD PUSH2 0x9F0 SWAP1 PUSH2 0xEEF JUMP JUMPDEST SWAP12 PUSH2 0x320 MLOAD PUSH1 0x10 ADD PUSH2 0xA01 SWAP1 PUSH2 0xEEF JUMP JUMPDEST PUSH2 0x1E0 MSTORE PUSH2 0x320 MLOAD PUSH1 0x11 ADD PUSH2 0xA15 SWAP1 PUSH2 0xEEF JUMP JUMPDEST PUSH2 0x200 MSTORE PUSH2 0x320 MLOAD PUSH1 0x12 ADD PUSH2 0xA29 SWAP1 PUSH2 0xEEF JUMP JUMPDEST PUSH2 0x240 MSTORE PUSH2 0x320 MLOAD PUSH1 0x13 ADD PUSH2 0xA3D SWAP1 PUSH2 0xEEF JUMP JUMPDEST PUSH2 0x2E0 MSTORE PUSH2 0x320 MLOAD PUSH1 0x14 ADD PUSH2 0xA51 SWAP1 PUSH2 0xEEF JUMP JUMPDEST PUSH2 0x260 MSTORE PUSH1 0x40 MLOAD PUSH2 0x220 MSTORE PUSH2 0x220 MLOAD PUSH2 0x2C0 SWAP1 MSTORE PUSH2 0x220 MLOAD PUSH2 0x2C0 ADD PUSH2 0xA76 SWAP2 PUSH2 0xD70 JUMP JUMPDEST PUSH2 0x220 MLOAD DUP2 SUB PUSH2 0x220 MLOAD PUSH1 0x20 ADD MSTORE PUSH2 0x2A0 MLOAD SWAP1 PUSH2 0xA92 SWAP2 PUSH2 0xD4B JUMP JUMPDEST PUSH2 0x2C0 MLOAD PUSH2 0x220 MLOAD PUSH1 0x40 ADD MSTORE PUSH2 0x220 MLOAD DUP2 SUB PUSH2 0x220 MLOAD PUSH1 0x60 ADD MSTORE PUSH2 0x300 MLOAD SWAP1 PUSH2 0xABA SWAP2 PUSH2 0xD4B JUMP JUMPDEST PUSH2 0x220 MLOAD DUP2 SUB PUSH2 0x220 MLOAD PUSH1 0x80 ADD MSTORE PUSH2 0xAD1 SWAP2 PUSH2 0xD70 JUMP JUMPDEST PUSH2 0x220 MLOAD DUP2 SUB PUSH2 0x220 MLOAD PUSH1 0xA0 ADD MSTORE PUSH2 0xAE8 SWAP2 PUSH2 0xD70 JUMP JUMPDEST PUSH2 0x220 MLOAD DUP2 SUB PUSH2 0x220 MLOAD PUSH1 0xC0 ADD MSTORE PUSH2 0xAFF SWAP2 PUSH2 0xD70 JUMP JUMPDEST PUSH2 0x220 MLOAD DUP2 SUB PUSH2 0x220 MLOAD PUSH1 0xE0 ADD MSTORE PUSH2 0xB16 SWAP2 PUSH2 0xD4B JUMP JUMPDEST PUSH2 0x220 MLOAD DUP2 SUB PUSH2 0x220 MLOAD PUSH2 0x100 ADD MSTORE PUSH2 0xB2E SWAP2 PUSH2 0xD4B JUMP JUMPDEST PUSH2 0x220 MLOAD DUP2 SUB PUSH2 0x220 MLOAD PUSH2 0x120 ADD MSTORE PUSH2 0xB46 SWAP2 PUSH2 0xD4B JUMP JUMPDEST PUSH2 0x220 MLOAD DUP2 SUB PUSH2 0x220 MLOAD PUSH2 0x140 ADD MSTORE PUSH2 0xB5E SWAP2 PUSH2 0xD4B JUMP JUMPDEST PUSH2 0x220 MLOAD DUP2 SUB PUSH2 0x220 MLOAD PUSH2 0x160 ADD MSTORE PUSH2 0xB76 SWAP2 PUSH2 0xD4B JUMP JUMPDEST PUSH2 0x220 MLOAD DUP2 SUB PUSH2 0x220 MLOAD PUSH2 0x180 ADD MSTORE PUSH2 0xB8E SWAP2 PUSH2 0xD4B JUMP JUMPDEST PUSH2 0x220 MLOAD DUP2 SUB PUSH2 0x220 MLOAD PUSH2 0x1A0 ADD MSTORE PUSH2 0xBA6 SWAP2 PUSH2 0xD4B JUMP JUMPDEST PUSH2 0x220 MLOAD DUP2 SUB PUSH2 0x220 MLOAD PUSH2 0x1C0 ADD MSTORE PUSH2 0xBBE SWAP2 PUSH2 0xD4B JUMP JUMPDEST PUSH2 0x220 MLOAD DUP2 SUB PUSH2 0x220 MLOAD PUSH2 0x1E0 ADD MSTORE PUSH2 0xBD6 SWAP2 PUSH2 0xD4B JUMP JUMPDEST PUSH2 0x220 MLOAD DUP2 SUB PUSH2 0x220 MLOAD PUSH2 0x200 ADD MSTORE PUSH2 0x1E0 MLOAD SWAP1 PUSH2 0xBF3 SWAP2 PUSH2 0xD4B JUMP JUMPDEST PUSH2 0x220 MLOAD DUP2 SUB PUSH2 0x220 MLOAD PUSH2 0x220 ADD MSTORE PUSH2 0x200 MLOAD SWAP1 PUSH2 0xC10 SWAP2 PUSH2 0xD4B JUMP JUMPDEST PUSH2 0x220 MLOAD DUP2 SUB PUSH2 0x220 MLOAD PUSH2 0x240 ADD MSTORE PUSH2 0x240 MLOAD SWAP1 PUSH2 0xC2D SWAP2 PUSH2 0xD4B JUMP JUMPDEST PUSH2 0x220 MLOAD DUP2 SUB PUSH2 0x220 MLOAD PUSH2 0x260 ADD MSTORE PUSH2 0x2E0 MLOAD SWAP1 PUSH2 0xC4A SWAP2 PUSH2 0xD4B JUMP JUMPDEST PUSH2 0x220 MLOAD DUP2 SUB PUSH2 0x220 MLOAD PUSH2 0x280 ADD MSTORE PUSH2 0x260 MLOAD SWAP1 PUSH2 0xC67 SWAP2 PUSH2 0xD4B JUMP JUMPDEST PUSH2 0x280 MLOAD PUSH2 0x220 MLOAD PUSH2 0x2A0 ADD MSTORE PUSH2 0x220 MLOAD SWAP1 SUB PUSH2 0x220 MLOAD RETURN JUMPDEST PUSH1 0x40 MLOAD PUSH3 0x461BCD PUSH1 0xE5 SHL DUP2 MSTORE PUSH1 0x20 PUSH1 0x4 DUP3 ADD MSTORE PUSH1 0x9 PUSH1 0x24 DUP3 ADD MSTORE PUSH9 0x139BDD08199BDD5B99 PUSH1 0xBA SHL PUSH1 0x44 DUP3 ADD MSTORE PUSH1 0x64 SWAP1 REVERT JUMPDEST SWAP1 PUSH1 0x1F DUP1 NOT SWAP2 ADD AND DUP2 ADD SWAP1 DUP2 LT PUSH1 0x1 PUSH1 0x1 PUSH1 0x40 SHL SUB DUP3 GT OR PUSH2 0x7A0 JUMPI PUSH1 0x40 MSTORE JUMP JUMPDEST DUP2 PUSH1 0x1F DUP3 ADD SLT ISZERO PUSH2 0x102 JUMPI DUP1 CALLDATALOAD SWAP1 PUSH1 0x1 PUSH1 0x1 PUSH1 0x40 SHL SUB DUP3 GT PUSH2 0x7A0 JUMPI PUSH1 0x40 MLOAD SWAP3 PUSH2 0xD06 PUSH1 0x1F DUP5 ADD PUSH1 0x1F NOT AND PUSH1 0x20 ADD DUP6 PUSH2 0xCB1 JUMP JUMPDEST DUP3 DUP5 MSTORE PUSH1 0x20 DUP4 DUP4 ADD ADD GT PUSH2 0x102 JUMPI DUP2 PUSH1 0x0 SWAP3 PUSH1 0x20 DUP1 SWAP4 ADD DUP4 DUP7 ADD CALLDATACOPY DUP4 ADD ADD MSTORE SWAP1 JUMP JUMPDEST PUSH1 0x0 JUMPDEST DUP4 DUP2 LT PUSH2 0xD3B JUMPI POP POP PUSH1 0x0 SWAP2 ADD MSTORE JUMP JUMPDEST DUP2 DUP2 ADD MLOAD DUP4 DUP3 ADD MSTORE PUSH1 0x20 ADD PUSH2 0xD2B JUMP JUMPDEST SWAP1 PUSH1 0x20 SWAP2 PUSH2 0xD64 DUP2 MLOAD DUP1 SWAP3 DUP2 DUP6 MSTORE DUP6 DUP1 DUP7 ADD SWAP2 ADD PUSH2 0xD28 JUMP JUMPDEST PUSH1 0x1F ADD PUSH1 0x1F NOT AND ADD ADD SWAP1 JUMP JUMPDEST SWAP1 DUP1 PUSH1 0x20 DUP4 MLOAD SWAP2 DUP3 DUP2 MSTORE ADD SWAP2 PUSH1 0x20 DUP1 DUP4 PUSH1 0x5 SHL DUP4 ADD ADD SWAP5 ADD SWAP3 PUSH1 0x0 SWAP2 JUMPDEST DUP4 DUP4 LT PUSH2 0xD9C JUMPI POP POP POP POP POP SWAP1 JUMP JUMPDEST SWAP1 SWAP2 SWAP3 SWAP4 SWAP5 PUSH1 0x20 DUP1 PUSH2 0xDBA PUSH1 0x1 SWAP4 PUSH1 0x1F NOT DUP7 DUP3 SUB ADD DUP8 MSTORE DUP10 MLOAD PUSH2 0xD4B JUMP JUMPDEST SWAP8 ADD SWAP4 ADD SWAP4 ADD SWAP2 SWAP4 SWAP3 SWAP1 PUSH2 0xD8D JUMP JUMPDEST PUSH1 0x1 PUSH1 0x1 PUSH1 0x40 SHL SUB DUP2 GT PUSH2 0x7A0 JUMPI PUSH1 0x5 SHL PUSH1 0x20 ADD SWAP1 JUMP JUMPDEST SWAP1 DUP1 PUSH1 0x1F DUP4 ADD SLT ISZERO PUSH2 0x102 JUMPI DUP2 CALLDATALOAD PUSH2 0xDF7 DUP2 PUSH2 0xDC9 JUMP JUMPDEST SWAP3 PUSH2 0xE05 PUSH1 0x40 MLOAD SWAP5 DUP6 PUSH2 0xCB1 JUMP JUMPDEST DUP2 DUP5 MSTORE PUSH1 0x20 DUP1 DUP6 ADD SWAP3 PUSH1 0x5 SHL DUP3 ADD ADD SWAP2 DUP4 DUP4 GT PUSH2 0x102 JUMPI PUSH1 0x20 DUP3 ADD SWAP1 JUMPDEST DUP4 DUP3 LT PUSH2 0xE31 JUMPI POP POP POP POP POP SWAP1 JUMP JUMPDEST DUP2 CALLDATALOAD PUSH1 0x1 PUSH1 0x1 PUSH1 0x40 SHL SUB DUP2 GT PUSH2 0x102 JUMPI PUSH1 0x20 SWAP2 PUSH2 0xE53 DUP8 DUP5 DUP1 SWAP5 DUP9 ADD ADD PUSH2 0xCD2 JUMP JUMPDEST DUP2 MSTORE ADD SWAP2 ADD SWAP1 PUSH2 0xE22 JUMP JUMPDEST PUSH1 0x24 CALLDATALOAD SWAP1 PUSH1 0x1 PUSH1 0x1 PUSH1 0xA0 SHL SUB DUP3 AND DUP3 SUB PUSH2 0x102 JUMPI JUMP JUMPDEST PUSH1 0x40 PUSH1 0x3 NOT DUP3 ADD SLT PUSH2 0x102 JUMPI PUSH1 0x4 CALLDATALOAD SWAP1 PUSH1 0x1 PUSH1 0x1 PUSH1 0x40 SHL SUB DUP3 GT PUSH2 0x102 JUMPI PUSH2 0xE9E SWAP2 PUSH1 0x4 ADD PUSH2 0xCD2 JUMP JUMPDEST SWAP1 PUSH1 0x24 CALLDATALOAD PUSH1 0x1 PUSH1 0x1 PUSH1 0xA0 SHL SUB DUP2 AND DUP2 SUB PUSH2 0x102 JUMPI SWAP1 JUMP JUMPDEST SWAP1 PUSH1 0x1 DUP3 DUP2 SHR SWAP3 AND DUP1 ISZERO PUSH2 0xEE5 JUMPI JUMPDEST PUSH1 0x20 DUP4 LT EQ PUSH2 0xECF JUMPI JUMP JUMPDEST PUSH4 0x4E487B71 PUSH1 0xE0 SHL PUSH1 0x0 MSTORE PUSH1 0x22 PUSH1 0x4 MSTORE PUSH1 0x24 PUSH1 0x0 REVERT JUMPDEST SWAP2 PUSH1 0x7F AND SWAP2 PUSH2 0xEC4 JUMP JUMPDEST SWAP1 PUSH1 0x40 MLOAD SWAP2 DUP3 PUSH1 0x0 DUP3 SLOAD SWAP3 PUSH2 0xF03 DUP5 PUSH2 0xEB5 JUMP JUMPDEST DUP1 DUP5 MSTORE SWAP4 PUSH1 0x1 DUP2 AND SWAP1 DUP2 ISZERO PUSH2 0xF71 JUMPI POP PUSH1 0x1 EQ PUSH2 0xF2A JUMPI JUMPDEST POP PUSH2 0xF28 SWAP3 POP SUB DUP4 PUSH2 0xCB1 JUMP JUMPDEST JUMP JUMPDEST SWAP1 POP PUSH1 0x0 SWAP3 SWAP2 SWAP3 MSTORE PUSH1 0x20 PUSH1 0x0 KECCAK256 SWAP1 PUSH1 0x0 SWAP2 JUMPDEST DUP2 DUP4 LT PUSH2 0xF55 JUMPI POP POP SWAP1 PUSH1 0x20 PUSH2 0xF28 SWAP3 DUP3 ADD ADD CODESIZE PUSH2 0xF1B JUMP JUMPDEST PUSH1 0x20 SWAP2 SWAP4 POP DUP1 PUSH1 0x1 SWAP2 SLOAD DUP4 DUP6 DUP10 ADD ADD MSTORE ADD SWAP2 ADD SWAP1 SWAP2 DUP5 SWAP3 PUSH2 0xF3C JUMP JUMPDEST SWAP1 POP PUSH1 0x20 SWAP3 POP PUSH2 0xF28 SWAP5 SWAP2 POP PUSH1 0xFF NOT AND DUP3 DUP5 ADD MSTORE ISZERO ISZERO PUSH1 0x5 SHL DUP3 ADD ADD CODESIZE PUSH2 0xF1B JUMP JUMPDEST SWAP1 DUP2 SLOAD PUSH2 0xF9F DUP2 PUSH2 0xDC9 JUMP JUMPDEST SWAP3 PUSH2 0xFAD PUSH1 0x40 MLOAD SWAP5 DUP6 PUSH2 0xCB1 JUMP JUMPDEST DUP2 DUP5 MSTORE PUSH1 0x20 DUP5 ADD SWAP1 PUSH1 0x0 MSTORE PUSH1 0x20 PUSH1 0x0 KECCAK256 PUSH1 0x0 SWAP2 JUMPDEST DUP4 DUP4 LT PUSH2 0xFCE JUMPI POP POP POP POP JUMP JUMPDEST PUSH1 0x1 PUSH1 0x20 DUP2 SWAP3 PUSH2 0xFDD DUP6 PUSH2 0xEEF JUMP JUMPDEST DUP2 MSTORE ADD SWAP3 ADD SWAP3 ADD SWAP2 SWAP1 PUSH2 0xFC1 JUMP JUMPDEST DUP1 MLOAD DUP3 LT ISZERO PUSH2 0x78A JUMPI PUSH1 0x20 SWAP2 PUSH1 0x5 SHL ADD ADD SWAP1 JUMP JUMPDEST SWAP2 SWAP1 SWAP2 DUP3 MLOAD PUSH1 0x1 PUSH1 0x1 PUSH1 0x40 SHL SUB DUP2 GT PUSH2 0x7A0 JUMPI PUSH2 0x101C DUP3 SLOAD PUSH2 0xEB5 JUMP JUMPDEST PUSH1 0x1F DUP2 GT PUSH2 0x10C2 JUMPI JUMPDEST POP PUSH1 0x20 PUSH1 0x1F DUP3 GT PUSH1 0x1 EQ PUSH2 0x1060 JUMPI DUP2 SWAP3 SWAP4 SWAP5 PUSH1 0x0 SWAP3 PUSH2 0x1055 JUMPI JUMPDEST POP POP DUP2 PUSH1 0x1 SHL SWAP2 PUSH1 0x0 NOT SWAP1 PUSH1 0x3 SHL SHR NOT AND OR SWAP1 SSTORE JUMP JUMPDEST ADD MLOAD SWAP1 POP CODESIZE DUP1 PUSH2 0x103F JUMP JUMPDEST PUSH1 0x1F NOT DUP3 AND SWAP1 DUP4 PUSH1 0x0 MSTORE DUP1 PUSH1 0x0 KECCAK256 SWAP2 PUSH1 0x0 JUMPDEST DUP2 DUP2 LT PUSH2 0x10AA JUMPI POP SWAP6 DUP4 PUSH1 0x1 SWAP6 SWAP7 SWAP8 LT PUSH2 0x1091 JUMPI JUMPDEST POP POP POP DUP2 SHL ADD SWAP1 SSTORE JUMP JUMPDEST ADD MLOAD PUSH1 0x0 NOT PUSH1 0xF8 DUP5 PUSH1 0x3 SHL AND SHR NOT AND SWAP1 SSTORE CODESIZE DUP1 DUP1 PUSH2 0x1087 JUMP JUMPDEST SWAP2 SWAP3 PUSH1 0x20 PUSH1 0x1 DUP2 SWAP3 DUP7 DUP12 ADD MLOAD DUP2 SSTORE ADD SWAP5 ADD SWAP3 ADD PUSH2 0x1072 JUMP JUMPDEST DUP3 PUSH1 0x0 MSTORE PUSH1 0x20 PUSH1 0x0 KECCAK256 PUSH1 0x1F DUP4 ADD PUSH1 0x5 SHR DUP2 ADD SWAP2 PUSH1 0x20 DUP5 LT PUSH2 0x1100 JUMPI JUMPDEST PUSH1 0x1F ADD PUSH1 0x5 SHR ADD SWAP1 JUMPDEST DUP2 DUP2 LT PUSH2 0x10F4 JUMPI POP PUSH2 0x1025 JUMP JUMPDEST PUSH1 0x0 DUP2 SSTORE PUSH1 0x1 ADD PUSH2 0x10E7 JUMP JUMPDEST SWAP1 SWAP2 POP DUP2 SWAP1 PUSH2 0x10DE JUMP JUMPDEST SWAP1 DUP2 SLOAD PUSH1 0x1 PUSH1 0x40 SHL DUP2 LT ISZERO PUSH2 0x7A0 JUMPI PUSH1 0x1 DUP2 ADD DUP1 DUP5 SSTORE DUP2 LT ISZERO PUSH2 0x78A JUMPI PUSH2 0xF28 SWAP3 PUSH1 0x0 MSTORE PUSH1 0x20 PUSH1 0x0 KECCAK256 ADD PUSH2 0xFFF JUMP JUMPDEST PUSH1 0x0 SLOAD PUSH1 0x1 PUSH1 0x1 PUSH1 0xA0 SHL SUB AND CALLER SUB PUSH2 0x114D JUMPI JUMP JUMPDEST PUSH4 0x118CDAA7 PUSH1 0xE0 SHL PUSH1 0x0 MSTORE CALLER PUSH1 0x4 MSTORE PUSH1 0x24 PUSH1 0x0 REVERT INVALID LOG2 PUSH5 0x6970667358 0x22 SLT KECCAK256 0xC 0xC1 PUSH1 0xB DUP6 EXTCODECOPY DUP7 ORIGIN DUP8 CHAINID PUSH27 0x7EA0B83530B23A21F8CC923A458F0E5217585B216E64736F6C6343 STOP ADDMOD SHR STOP CALLER "},"methodIdentifiers":{"checkAccessExpiry(string,address)":"aec36904","getRecord(string)":"11dd8845","grantAccess(string,address,uint256)":"e5492e2b","owner()":"8da5cb5b","renounceOwnership()":"715018a6","revokeAccess(string,address)":"dfe0b5fe","transferOwnership(address)":"f2fde38b","uploadRecord(string,string[],string,uint8,string,string[],string[],string[],string,string,string,string,string,string,string,string,string,string,string,string,string,string)":"7bcfbf03"}}}}}