{"contracts/MedicalRecords.sol":{"MedicalRecords":{"abi":[{"inputs":[],"stateMutability":"nonpayable","type":"constructor"},{"inputs":[{"internalType":"address","name":"owner","type":"address"}],"name":"OwnableInvalidOwner","type":"error"},{"inputs":[{"internalType":"address","name":"account","type":"address"}],"name":"OwnableUnauthorizedAccount","type":"error"},{"anonymous":false,"inputs":[{"indexed":true,"internalType":"string","name":"recordId","type":"string"},{"indexed":true,"internalType":"address","name":"doctor","type":"address"},{"indexed":false,"internalType":"uint256","name":"expiry","type":"uint256"}],"name":"AccessGranted","type":"event"},{"anonymous":false,"inputs":[{"indexed":true,"internalType":"string","name":"recordId","type":"string"},{"indexed":true,"internalType":"address","name":"doctor","type":"address"},{"indexed":false,"internalType":"uint256","name":"revokedAt","type":"uint256"}],"name":"AccessRevoked","type":"event"},{"anonymous":false,"inputs":[{"indexed":true,"internalType":"address","name":"previousOwner","type":"address"},{"indexed":true,"internalType":"address","name":"newOwner","type":"address"}],"name":"OwnershipTransferred","type":"event"},{"anonymous":false,"inputs":[{"indexed":true,"internalType":"string","name":"recordId","type":"string"},{"indexed":true,"internalType":"address","name":"owner","type":"address"}],"name":"RecordUploaded","type":"event"},{"inputs":[{"internalType":"string","name":"recordId","type":"string"},{"internalType":"address","name":"doctor","type":"address"}],"name":"checkAccessExpiry","outputs":[{"internalType":"uint256","name":"","type":"uint256"}],"stateMutability":"view","type":"function"},{"inputs":[{"internalType":"string","name":"recordId","type":"string"}],"name":"getAccessHistory","outputs":[{"components":[{"internalType":"address","name":"doctor","type":"address"},{"internalType":"uint256","name":"sharedAt","type":"uint256"},{"internalType":"uint256","name":"expiresAt","type":"uint256"}],"internalType":"struct MedicalRecords.AccessLog[]","name":"","type":"tuple[]"}],"stateMutability":"view","type":"function"},{"inputs":[{"internalType":"address","name":"_owner","type":"address"}],"name":"getRecordsByOwner","outputs":[{"internalType":"string[]","name":"ownerRecordIds","type":"string[]"},{"internalType":"string[][]","name":"cidsList","type":"string[][]"},{"internalType":"string[]","name":"names","type":"string[]"},{"internalType":"uint8[]","name":"ages","type":"uint8[]"},{"internalType":"string[]","name":"genders","type":"string[]"},{"internalType":"string[]","name":"bloodPressures","type":"string[]"},{"internalType":"string[]","name":"heartRates","type":"string[]"},{"internalType":"string[]","name":"temperatures","type":"string[]"},{"internalType":"address[]","name":"owners","type":"address[]"}],"stateMutability":"view","type":"function"},{"inputs":[{"internalType":"address","name":"doctor","type":"address"}],"name":"getRecordsSharedWithMe","outputs":[{"internalType":"string[]","name":"sharedRecordIds","type":"string[]"},{"internalType":"string[][]","name":"cidsList","type":"string[][]"},{"internalType":"string[]","name":"names","type":"string[]"},{"internalType":"uint8[]","name":"ages","type":"uint8[]"},{"internalType":"string[]","name":"genders","type":"string[]"},{"internalType":"string[]","name":"bloodPressures","type":"string[]"},{"internalType":"string[]","name":"heartRates","type":"string[]"},{"internalType":"string[]","name":"temperatures","type":"string[]"},{"internalType":"address[]","name":"owners","type":"address[]"}],"stateMutability":"view","type":"function"},{"inputs":[{"internalType":"string","name":"recordId","type":"string"},{"internalType":"address","name":"doctor","type":"address"},{"internalType":"uint256","name":"duration","type":"uint256"}],"name":"grantAccess","outputs":[],"stateMutability":"nonpayable","type":"function"},{"inputs":[],"name":"owner","outputs":[{"internalType":"address","name":"","type":"address"}],"stateMutability":"view","type":"function"},{"inputs":[],"name":"renounceOwnership","outputs":[],"stateMutability":"nonpayable","type":"function"},{"inputs":[{"internalType":"string","name":"recordId","type":"string"},{"internalType":"address","name":"doctor","type":"address"}],"name":"revokeAccess","outputs":[],"stateMutability":"nonpayable","type":"function"},{"inputs":[{"internalType":"address","name":"newOwner","type":"address"}],"name":"transferOwnership","outputs":[],"stateMutability":"nonpayable","type":"function"},{"inputs":[{"internalType":"string","name":"recordId","type":"string"},{"internalType":"string[]","name":"_cids","type":"string[]"},{"internalType":"string","name":"_name","type":"string"},{"internalType":"uint8","name":"_age","type":"uint8"},{"internalType":"string","name":"_gender","type":"string"},{"internalType":"string","name":"_bloodPressure","type":"string"},{"internalType":"string","name":"_heartRate","type":"string"},{"internalType":"string","name":"_temperature","type":"string"}],"name":"uploadRecord","outputs":[],"stateMutability":"nonpayable","type":"function"}],"evm":{"bytecode":{"linkReferences":{},"object":"608080604052346075573315605f5760008054336001600160a01b0319821681178355916001600160a01b03909116907f8be0079c531659141344cd1fd0a4f28419497f9722a3daafe3b4186f6b6457e09080a3611837908161007b8239f35b631e4fbdf760e01b600052600060045260246000fd5b600080fdfe6080604052600436101561001257600080fd5b60003560e01c80630aad468f14610d8b578063552d710514610b255780636910dd2a146108e3578063715018a61461088a5780638117eada146106db5780638da5cb5b146106b2578063aec36904146105e9578063dfe0b5fe14610424578063e5492e2b146101185763f2fde38b1461008a57600080fd5b34610113576020366003190112610113576100a3611193565b6100ab6117d8565b6001600160a01b031680156100fd57600080546001600160a01b03198116831782556001600160a01b0316907f8be0079c531659141344cd1fd0a4f28419497f9722a3daafe3b4186f6b6457e09080a3005b631e4fbdf760e01b600052600060045260246000fd5b600080fd5b34610113576060366003190112610113576004356001600160401b03811161011357610148903690600401611126565b6024356001600160a01b03811691908290036101135760443590604051918151926007602084019461017b8184886111a9565b600190830190815282900360200190912001546001600160a01b031633036103df576101a8841515611793565b801561038f57600860405160208185516101c381838a6111a9565b8101600181520301902001846000526020526040600020548015908115610384575b50156103405742019182421161032a5761023a60206009926008604051838188516102118183886111a9565b8101600181520301902001876000528252856040600020556040518093819287519283916111a9565b81016001815203019020019060405191610253836110ea565b84835260208301914283526040840193858552825492600160401b84101561031457600184018082558410156102fe577fcd5010f0cf521705dc993ca35e5b2fd59371fb9516f4c5dab9cd77693bbf92b0956020956102f4956002936000526003886000209102019360018060a01b039060018060a01b03905116166bffffffffffffffffffffffff60a01b8554161784555160018401555191015561155e565b92604051908152a3005b634e487b7160e01b600052603260045260246000fd5b634e487b7160e01b600052604160045260246000fd5b634e487b7160e01b600052601160045260246000fd5b606460405162461bcd60e51b815260206004820152602060248201527f446f63746f7220616c72656164792068617320616374697665206163636573736044820152fd5b9050421015856101e5565b60405162461bcd60e51b815260206004820152602260248201527f4475726174696f6e206d7573742062652067726561746572207468616e207a65604482015261726f60f01b6064820152608490fd5b60405162461bcd60e51b815260206004820152601b60248201527f4f6e6c79206f776e65722063616e206772616e742061636365737300000000006044820152606490fd5b346101135761043236611391565b604051908251916007602085019361044b8184876111a9565b600190830190815282900360200190912001546001600160a01b031633036105a4576001600160a01b031691610482831515611793565b600860405160208184516104978183896111a9565b8101600181520301902001836000526020526040600020548015610560574210156105225760086104d860206104f6946040518093819287519283916111a9565b8101600181520301902001836000526020526000604081205561155e565b7ff7eb47ecbc62e098414c8565b83461841e3ae69f64ad0da8609abefecaec86ad6020604051428152a3005b60405162461bcd60e51b81526020600482015260166024820152751058d8d95cdcc8185b1c9958591e48195e1c1a5c995960521b6044820152606490fd5b606460405162461bcd60e51b815260206004820152602060248201527f4e6f20616363657373206772616e74656420746f207468697320646f63746f726044820152fd5b60405162461bcd60e51b815260206004820152601c60248201527f4f6e6c79206f776e65722063616e207265766f6b6520616363657373000000006044820152606490fd5b34610113576105f736611391565b90604051815190600760208401926106108184866111a9565b600190830190815282900360200190912001546001600160a01b03161561067557602061064b916008936040519384928392519283916111a9565b81016001815203019020019060018060a01b03166000526020526020604060002054604051908152f35b60405162461bcd60e51b8152602060048201526015602482015274149958dbdc9908191bd95cc81b9bdd08195e1a5cdd605a1b6044820152606490fd5b34610113576000366003190112610113576000546040516001600160a01b039091168152602090f35b34610113576020366003190112610113576004356001600160401b0381116101135761070b903690600401611126565b604051815190600760208401926107238184866111a9565b600190830190815282900360200190912001546001600160a01b0316330361084557602061075f916009936040519384928392519283916111a9565b81016001815203019020018054906107768261117c565b916107846040519384611105565b80835260208301809260005260206000206000915b8383106108075784866040519182916020830190602084525180915260408301919060005b8181106107cc575050500390f35b825180516001600160a01b031685526020818101518187015260409182015191860191909152869550606090940193909201916001016107be565b6003602060019260405161081a816110ea565b848060a01b038654168152848601548382015260028601546040820152815201920192019190610799565b60405162461bcd60e51b815260206004820152601b60248201527f4f6e6c79206f776e65722063616e207669657720686973746f727900000000006044820152606490fd5b34610113576000366003190112610113576108a36117d8565b600080546001600160a01b0319811682556001600160a01b03167f8be0079c531659141344cd1fd0a4f28419497f9722a3daafe3b4186f6b6457e08280a3005b34610113576020366003190112610113576108fc611193565b6002546001600160a01b0390911690600090815b818110610ac357506109218261161b565b9061092b8361161b565b926109358161161b565b61093e82611665565b6109478361161b565b6109508461161b565b9161095a8561161b565b9361096d6109678761161b565b96611665565b9660009a8b5b8281106109945750505061099097989950604051998a998a61123d565b0390f35b6109a66109a0826113e6565b5061157e565b6040600084815260088301602052204290541180610aac575b6109cd575b50600101610973565b8d8b839f8f908f94610a8c8f8f908f8f8f938f88610a7f9460019f610aa59f839996610a24610a9f9f8e879a610a4b89610a729b610a3e82600397610a3482809d610a659f610a1e610a24916113e6565b50611697565b610a2e83836113d2565b526113d2565b50610a248861173b565b50610a2460018601611697565b50610a5e8660ff600285015416926113d2565b5201611697565b50610a2460048b01611697565b50610a2460058801611697565b50610a2460068501611697565b506007878060a01b0391015416926113d2565b5261160c565b9c906109c4565b5060078101546001600160a01b03168314156109bf565b610acf6109a0826113e6565b84604060008281526008840160205220429054119182610b0d575b5050610af9575b600101610910565b91610b0560019161160c565b929050610af1565b600701546001600160a01b0316141590508486610aea565b3461011357602036600319011261011357610b3e611193565b600254906000906001600160a01b0316815b838110610d465750610b618261161b565b91610b6b8161161b565b93610b758261161b565b610b7e83611665565b610b878461161b565b90610b918561161b565b92610b9b8661161b565b94610bae610ba88861161b565b97611665565b97600090815b838110610bd3578c8c6109908d8d8d8d8d8d8d604051998a998a61123d565b81610bdd826113e6565b506001600160a01b0390600790610bf39061157e565b01541614610c04575b600101610bb4565b91610c0e836113e6565b50610c189061157e565b8c82610c23866113e6565b50610c2d90611697565b610c3782846113d2565b52610c41916113d2565b508d82610c4d8361173b565b610c5782846113d2565b52610c61916113d2565b50610c6e60018201611697565b610c7883886113d2565b52610c8382876113d2565b50600281015460ff16610c9683896113d2565b52610ca360038201611697565b610cad838a6113d2565b52610cb882896113d2565b50610cc560048201611697565b610ccf838b6113d2565b52610cda828a6113d2565b50610ce760058201611697565b610cf1838c6113d2565b52610cfc828b6113d2565b50610d0960068201611697565b610d13838d6113d2565b52610d1e828c6113d2565b50600701546001600160a01b0316610d36828d6113d2565b52610d409061160c565b91610bfc565b81610d50826113e6565b506001600160a01b0390600790610d669061157e565b01541614610d77575b600101610b50565b91610d8360019161160c565b929050610d6f565b3461011357610100366003190112610113576004356001600160401b03811161011357610dbc903690600401611126565b6024356001600160401b0381116101135736602382011215610113578060040135610de68161117c565b91610df46040519384611105565b8183526024602084019260051b820101903682116101135760248101925b8284106110bb5785856044356001600160401b03811161011357610e3a903690600401611126565b906064359260ff8416809403610113576084356001600160401b03811161011357610e69903690600401611126565b60a4356001600160401b03811161011357610e88903690600401611126565b60c4356001600160401b03811161011357610ea7903690600401611126565b9060e4356001600160401b03811161011357610ec7903690600401611126565b928451156110885760405185519060076020880192610ee78184866111a9565b600190830190815282900360200190912001546001600160a01b0316611052576020610f1e91604051809381928a519283916111a9565b6001908201908152030190206007810180546001600160a01b031916331790559760005b8751811015610fa157610f5581896113d2565b51908a54600160401b81101561031457806001610f7592018d558c611401565b610f8b57600192610f8591611453565b01610f42565b634e487b7160e01b600052600060045260246000fd5b50610ff29493610fe3600694610fda8c95610fec95610fc38e60018a01611453565b600288019060ff1982541617905560038701611453565b60048501611453565b60058301611453565b01611453565b600254600160401b8110156103145780600161101392016002556002611401565b610f8b578161102191611453565b61102b339161155e565b7f5613b0ea20e0c0c2c37e5dee1b46009ee8b652c2f475d4d1057ef06a6a5b8c0c600080a3005b60405162461bcd60e51b815260206004820152600e60248201526d416c72656164792065786973747360901b6044820152606490fd5b60405162461bcd60e51b815260206004820152600b60248201526a1251081c995c5d5a5c995960aa1b6044820152606490fd5b83356001600160401b038111610113576020916110df839260243691870101611126565b815201930192610e12565b606081019081106001600160401b0382111761031457604052565b90601f801991011681019081106001600160401b0382111761031457604052565b81601f82011215610113578035906001600160401b038211610314576040519261115a601f8401601f191660200185611105565b8284526020838301011161011357816000926020809301838601378301015290565b6001600160401b0381116103145760051b60200190565b600435906001600160a01b038216820361011357565b60005b8381106111bc5750506000910152565b81810151838201526020016111ac565b9080602083519182815201916020808360051b8301019401926000915b8383106111f857505050505090565b909192939460208080600193601f198682030187528951611224815180928185528580860191016111a9565b601f01601f1916010197019594919091019201906111e9565b97969594929190611258906101208a526101208a01906111cc565b9188830360208a0152815180845260208401936020808360051b8301019401946000915b8383106113625750505050611299925088820360408a01526111cc565b86810360608801526020808451928381520193019060005b818110611349575050506112f5926112d9836112e793896113039998960360808b01526111cc565b9087820360a08901526111cc565b9085820360c08701526111cc565b9083820360e08501526111cc565b906101008183039101526020808351928381520192019060005b81811061132a5750505090565b82516001600160a01b031684526020938401939092019160010161131d565b825160ff168552602094850194909201916001016112b1565b9091929394602080611380600193601f198682030187528a516111cc565b98019301930191959493929061127c565b604060031982011261011357600435906001600160401b038211610113576113bb91600401611126565b906024356001600160a01b03811681036101135790565b80518210156102fe5760209160051b010190565b6002548110156102fe57600260005260206000200190600090565b80548210156102fe5760005260206000200190600090565b90600182811c92168015611449575b602083101461143357565b634e487b7160e01b600052602260045260246000fd5b91607f1691611428565b91909182516001600160401b038111610314576114708254611419565b601f8111611516575b506020601f82116001146114b457819293946000926114a9575b50508160011b916000199060031b1c1916179055565b015190503880611493565b601f1982169083600052806000209160005b8181106114fe575095836001959697106114e5575b505050811b019055565b015160001960f88460031b161c191690553880806114db565b9192602060018192868b0151815501940192016114c6565b826000526020600020601f830160051c81019160208410611554575b601f0160051c01905b8181106115485750611479565b6000815560010161153b565b9091508190611532565b611576906020604051928284809451938492016111a9565b810103902090565b6040519081600082549261159184611419565b93600181169081156115f257506001146115b6575b5060209250600181520301902090565b9150506000528160206000206000905b8382106115da5750506020918101386115a6565b602091925080600191548487015201910183916115c6565b60ff191684525060209380151502830191503890506115a6565b600019811461032a5760010190565b906116258261117c565b6116326040519182611105565b82815260208193611645601f199161117c565b01910160005b82811061165757505050565b60608282015260200161164b565b9061166f8261117c565b61167c6040519182611105565b828152809261168d601f199161117c565b0190602036910137565b90604051918260008254926116ab84611419565b808452936001811690811561171957506001146116d2575b506116d092500383611105565b565b90506000929192526020600020906000915b8183106116fd5750509060206116d092820101386116c3565b60209193508060019154838589010152019101909184926116e4565b9050602092506116d094915060ff191682840152151560051b820101386116c3565b9081546117478161117c565b926117556040519485611105565b818452602084019060005260206000206000915b8383106117765750505050565b60016020819261178585611697565b815201920192019190611769565b1561179a57565b60405162461bcd60e51b8152602060048201526016602482015275496e76616c696420646f63746f72206164647265737360501b6044820152606490fd5b6000546001600160a01b031633036117ec57565b63118cdaa760e01b6000523360045260246000fdfea26469706673582212204e1740be31bd3adc3e99cf9ba37b18900dc578b206ca0736bed80adee8aa7db964736f6c634300081c0033","opcodes":"PUSH1 0x80 DUP1 PUSH1 0x40 MSTORE CALLVALUE PUSH1 0x75 JUMPI CALLER ISZERO PUSH1 0x5F JUMPI PUSH1 0x0 DUP1 SLOAD CALLER PUSH1 0x1 PUSH1 0x1 PUSH1 0xA0 SHL SUB NOT DUP3 AND DUP2 OR DUP4 SSTORE SWAP2 PUSH1 0x1 PUSH1 0x1 PUSH1 0xA0 SHL SUB SWAP1 SWAP2 AND SWAP1 PUSH32 0x8BE0079C531659141344CD1FD0A4F28419497F9722A3DAAFE3B4186F6B6457E0 SWAP1 DUP1 LOG3 PUSH2 0x1837 SWAP1 DUP2 PUSH2 0x7B DUP3 CODECOPY RETURN JUMPDEST PUSH4 0x1E4FBDF7 PUSH1 0xE0 SHL PUSH1 0x0 MSTORE PUSH1 0x0 PUSH1 0x4 MSTORE PUSH1 0x24 PUSH1 0x0 REVERT JUMPDEST PUSH1 0x0 DUP1 REVERT INVALID PUSH1 0x80 PUSH1 0x40 MSTORE PUSH1 0x4 CALLDATASIZE LT ISZERO PUSH2 0x12 JUMPI PUSH1 0x0 DUP1 REVERT JUMPDEST PUSH1 0x0 CALLDATALOAD PUSH1 0xE0 SHR DUP1 PUSH4 0xAAD468F EQ PUSH2 0xD8B JUMPI DUP1 PUSH4 0x552D7105 EQ PUSH2 0xB25 JUMPI DUP1 PUSH4 0x6910DD2A EQ PUSH2 0x8E3 JUMPI DUP1 PUSH4 0x715018A6 EQ PUSH2 0x88A JUMPI DUP1 PUSH4 0x8117EADA EQ PUSH2 0x6DB JUMPI DUP1 PUSH4 0x8DA5CB5B EQ PUSH2 0x6B2 JUMPI DUP1 PUSH4 0xAEC36904 EQ PUSH2 0x5E9 JUMPI DUP1 PUSH4 0xDFE0B5FE EQ PUSH2 0x424 JUMPI DUP1 PUSH4 0xE5492E2B EQ PUSH2 0x118 JUMPI PUSH4 0xF2FDE38B EQ PUSH2 0x8A JUMPI PUSH1 0x0 DUP1 REVERT JUMPDEST CALLVALUE PUSH2 0x113 JUMPI PUSH1 0x20 CALLDATASIZE PUSH1 0x3 NOT ADD SLT PUSH2 0x113 JUMPI PUSH2 0xA3 PUSH2 0x1193 JUMP JUMPDEST PUSH2 0xAB PUSH2 0x17D8 JUMP JUMPDEST PUSH1 0x1 PUSH1 0x1 PUSH1 0xA0 SHL SUB AND DUP1 ISZERO PUSH2 0xFD JUMPI PUSH1 0x0 DUP1 SLOAD PUSH1 0x1 PUSH1 0x1 PUSH1 0xA0 SHL SUB NOT DUP2 AND DUP4 OR DUP3 SSTORE PUSH1 0x1 PUSH1 0x1 PUSH1 0xA0 SHL SUB AND SWAP1 PUSH32 0x8BE0079C531659141344CD1FD0A4F28419497F9722A3DAAFE3B4186F6B6457E0 SWAP1 DUP1 LOG3 STOP JUMPDEST PUSH4 0x1E4FBDF7 PUSH1 0xE0 SHL PUSH1 0x0 MSTORE PUSH1 0x0 PUSH1 0x4 MSTORE PUSH1 0x24 PUSH1 0x0 REVERT JUMPDEST PUSH1 0x0 DUP1 REVERT JUMPDEST CALLVALUE PUSH2 0x113 JUMPI PUSH1 0x60 CALLDATASIZE PUSH1 0x3 NOT ADD SLT PUSH2 0x113 JUMPI PUSH1 0x4 CALLDATALOAD PUSH1 0x1 PUSH1 0x1 PUSH1 0x40 SHL SUB DUP2 GT PUSH2 0x113 JUMPI PUSH2 0x148 SWAP1 CALLDATASIZE SWAP1 PUSH1 0x4 ADD PUSH2 0x1126 JUMP JUMPDEST PUSH1 0x24 CALLDATALOAD PUSH1 0x1 PUSH1 0x1 PUSH1 0xA0 SHL SUB DUP2 AND SWAP2 SWAP1 DUP3 SWAP1 SUB PUSH2 0x113 JUMPI PUSH1 0x44 CALLDATALOAD SWAP1 PUSH1 0x40 MLOAD SWAP2 DUP2 MLOAD SWAP3 PUSH1 0x7 PUSH1 0x20 DUP5 ADD SWAP5 PUSH2 0x17B DUP2 DUP5 DUP9 PUSH2 0x11A9 JUMP JUMPDEST PUSH1 0x1 SWAP1 DUP4 ADD SWAP1 DUP2 MSTORE DUP3 SWAP1 SUB PUSH1 0x20 ADD SWAP1 SWAP2 KECCAK256 ADD SLOAD PUSH1 0x1 PUSH1 0x1 PUSH1 0xA0 SHL SUB AND CALLER SUB PUSH2 0x3DF JUMPI PUSH2 0x1A8 DUP5 ISZERO ISZERO PUSH2 0x1793 JUMP JUMPDEST DUP1 ISZERO PUSH2 0x38F JUMPI PUSH1 0x8 PUSH1 0x40 MLOAD PUSH1 0x20 DUP2 DUP6 MLOAD PUSH2 0x1C3 DUP2 DUP4 DUP11 PUSH2 0x11A9 JUMP JUMPDEST DUP2 ADD PUSH1 0x1 DUP2 MSTORE SUB ADD SWAP1 KECCAK256 ADD DUP5 PUSH1 0x0 MSTORE PUSH1 0x20 MSTORE PUSH1 0x40 PUSH1 0x0 KECCAK256 SLOAD DUP1 ISZERO SWAP1 DUP2 ISZERO PUSH2 0x384 JUMPI JUMPDEST POP ISZERO PUSH2 0x340 JUMPI TIMESTAMP ADD SWAP2 DUP3 TIMESTAMP GT PUSH2 0x32A JUMPI PUSH2 0x23A PUSH1 0x20 PUSH1 0x9 SWAP3 PUSH1 0x8 PUSH1 0x40 MLOAD DUP4 DUP2 DUP9 MLOAD PUSH2 0x211 DUP2 DUP4 DUP9 PUSH2 0x11A9 JUMP JUMPDEST DUP2 ADD PUSH1 0x1 DUP2 MSTORE SUB ADD SWAP1 KECCAK256 ADD DUP8 PUSH1 0x0 MSTORE DUP3 MSTORE DUP6 PUSH1 0x40 PUSH1 0x0 KECCAK256 SSTORE PUSH1 0x40 MLOAD DUP1 SWAP4 DUP2 SWAP3 DUP8 MLOAD SWAP3 DUP4 SWAP2 PUSH2 0x11A9 JUMP JUMPDEST DUP2 ADD PUSH1 0x1 DUP2 MSTORE SUB ADD SWAP1 KECCAK256 ADD SWAP1 PUSH1 0x40 MLOAD SWAP2 PUSH2 0x253 DUP4 PUSH2 0x10EA JUMP JUMPDEST DUP5 DUP4 MSTORE PUSH1 0x20 DUP4 ADD SWAP2 TIMESTAMP DUP4 MSTORE PUSH1 0x40 DUP5 ADD SWAP4 DUP6 DUP6 MSTORE DUP3 SLOAD SWAP3 PUSH1 0x1 PUSH1 0x40 SHL DUP5 LT ISZERO PUSH2 0x314 JUMPI PUSH1 0x1 DUP5 ADD DUP1 DUP3 SSTORE DUP5 LT ISZERO PUSH2 0x2FE JUMPI PUSH32 0xCD5010F0CF521705DC993CA35E5B2FD59371FB9516F4C5DAB9CD77693BBF92B0 SWAP6 PUSH1 0x20 SWAP6 PUSH2 0x2F4 SWAP6 PUSH1 0x2 SWAP4 PUSH1 0x0 MSTORE PUSH1 0x3 DUP9 PUSH1 0x0 KECCAK256 SWAP2 MUL ADD SWAP4 PUSH1 0x1 DUP1 PUSH1 0xA0 SHL SUB SWAP1 PUSH1 0x1 DUP1 PUSH1 0xA0 SHL SUB SWAP1 MLOAD AND AND PUSH12 0xFFFFFFFFFFFFFFFFFFFFFFFF PUSH1 0xA0 SHL DUP6 SLOAD AND OR DUP5 SSTORE MLOAD PUSH1 0x1 DUP5 ADD SSTORE MLOAD SWAP2 ADD SSTORE PUSH2 0x155E JUMP JUMPDEST SWAP3 PUSH1 0x40 MLOAD SWAP1 DUP2 MSTORE LOG3 STOP JUMPDEST PUSH4 0x4E487B71 PUSH1 0xE0 SHL PUSH1 0x0 MSTORE PUSH1 0x32 PUSH1 0x4 MSTORE PUSH1 0x24 PUSH1 0x0 REVERT JUMPDEST PUSH4 0x4E487B71 PUSH1 0xE0 SHL PUSH1 0x0 MSTORE PUSH1 0x41 PUSH1 0x4 MSTORE PUSH1 0x24 PUSH1 0x0 REVERT JUMPDEST PUSH4 0x4E487B71 PUSH1 0xE0 SHL PUSH1 0x0 MSTORE PUSH1 0x11 PUSH1 0x4 MSTORE PUSH1 0x24 PUSH1 0x0 REVERT JUMPDEST PUSH1 0x64 PUSH1 0x40 MLOAD PUSH3 0x461BCD PUSH1 0xE5 SHL DUP2 MSTORE PUSH1 0x20 PUSH1 0x4 DUP3 ADD MSTORE PUSH1 0x20 PUSH1 0x24 DUP3 ADD MSTORE PUSH32 0x446F63746F7220616C7265616479206861732061637469766520616363657373 PUSH1 0x44 DUP3 ADD MSTORE REVERT JUMPDEST SWAP1 POP TIMESTAMP LT ISZERO DUP6 PUSH2 0x1E5 JUMP JUMPDEST PUSH1 0x40 MLOAD PUSH3 0x461BCD PUSH1 0xE5 SHL DUP2 MSTORE PUSH1 0x20 PUSH1 0x4 DUP3 ADD MSTORE PUSH1 0x22 PUSH1 0x24 DUP3 ADD MSTORE PUSH32 0x4475726174696F6E206D7573742062652067726561746572207468616E207A65 PUSH1 0x44 DUP3 ADD MSTORE PUSH2 0x726F PUSH1 0xF0 SHL PUSH1 0x64 DUP3 ADD MSTORE PUSH1 0x84 SWAP1 REVERT JUMPDEST PUSH1 0x40 MLOAD PUSH3 0x461BCD PUSH1 0xE5 SHL DUP2 MSTORE PUSH1 0x20 PUSH1 0x4 DUP3 ADD MSTORE PUSH1 0x1B PUSH1 0x24 DUP3 ADD MSTORE PUSH32 0x4F6E6C79206F776E65722063616E206772616E74206163636573730000000000 PUSH1 0x44 DUP3 ADD MSTORE PUSH1 0x64 SWAP1 REVERT JUMPDEST CALLVALUE PUSH2 0x113 JUMPI PUSH2 0x432 CALLDATASIZE PUSH2 0x1391 JUMP JUMPDEST PUSH1 0x40 MLOAD SWAP1 DUP3 MLOAD SWAP2 PUSH1 0x7 PUSH1 0x20 DUP6 ADD SWAP4 PUSH2 0x44B DUP2 DUP5 DUP8 PUSH2 0x11A9 JUMP JUMPDEST PUSH1 0x1 SWAP1 DUP4 ADD SWAP1 DUP2 MSTORE DUP3 SWAP1 SUB PUSH1 0x20 ADD SWAP1 SWAP2 KECCAK256 ADD SLOAD PUSH1 0x1 PUSH1 0x1 PUSH1 0xA0 SHL SUB AND CALLER SUB PUSH2 0x5A4 JUMPI PUSH1 0x1 PUSH1 0x1 PUSH1 0xA0 SHL SUB AND SWAP2 PUSH2 0x482 DUP4 ISZERO ISZERO PUSH2 0x1793 JUMP JUMPDEST PUSH1 0x8 PUSH1 0x40 MLOAD PUSH1 0x20 DUP2 DUP5 MLOAD PUSH2 0x497 DUP2 DUP4 DUP10 PUSH2 0x11A9 JUMP JUMPDEST DUP2 ADD PUSH1 0x1 DUP2 MSTORE SUB ADD SWAP1 KECCAK256 ADD DUP4 PUSH1 0x0 MSTORE PUSH1 0x20 MSTORE PUSH1 0x40 PUSH1 0x0 KECCAK256 SLOAD DUP1 ISZERO PUSH2 0x560 JUMPI TIMESTAMP LT ISZERO PUSH2 0x522 JUMPI PUSH1 0x8 PUSH2 0x4D8 PUSH1 0x20 PUSH2 0x4F6 SWAP5 PUSH1 0x40 MLOAD DUP1 SWAP4 DUP2 SWAP3 DUP8 MLOAD SWAP3 DUP4 SWAP2 PUSH2 0x11A9 JUMP JUMPDEST DUP2 ADD PUSH1 0x1 DUP2 MSTORE SUB ADD SWAP1 KECCAK256 ADD DUP4 PUSH1 0x0 MSTORE PUSH1 0x20 MSTORE PUSH1 0x0 PUSH1 0x40 DUP2 KECCAK256 SSTORE PUSH2 0x155E JUMP JUMPDEST PUSH32 0xF7EB47ECBC62E098414C8565B83461841E3AE69F64AD0DA8609ABEFECAEC86AD PUSH1 0x20 PUSH1 0x40 MLOAD TIMESTAMP DUP2 MSTORE LOG3 STOP JUMPDEST PUSH1 0x40 MLOAD PUSH3 0x461BCD PUSH1 0xE5 SHL DUP2 MSTORE PUSH1 0x20 PUSH1 0x4 DUP3 ADD MSTORE PUSH1 0x16 PUSH1 0x24 DUP3 ADD MSTORE PUSH22 0x1058D8D95CDCC8185B1C9958591E48195E1C1A5C9959 PUSH1 0x52 SHL PUSH1 0x44 DUP3 ADD MSTORE PUSH1 0x64 SWAP1 REVERT JUMPDEST PUSH1 0x64 PUSH1 0x40 MLOAD PUSH3 0x461BCD PUSH1 0xE5 SHL DUP2 MSTORE PUSH1 0x20 PUSH1 0x4 DUP3 ADD MSTORE PUSH1 0x20 PUSH1 0x24 DUP3 ADD MSTORE PUSH32 0x4E6F20616363657373206772616E74656420746F207468697320646F63746F72 PUSH1 0x44 DUP3 ADD MSTORE REVERT JUMPDEST PUSH1 0x40 MLOAD PUSH3 0x461BCD PUSH1 0xE5 SHL DUP2 MSTORE PUSH1 0x20 PUSH1 0x4 DUP3 ADD MSTORE PUSH1 0x1C PUSH1 0x24 DUP3 ADD MSTORE PUSH32 0x4F6E6C79206F776E65722063616E207265766F6B652061636365737300000000 PUSH1 0x44 DUP3 ADD MSTORE PUSH1 0x64 SWAP1 REVERT JUMPDEST CALLVALUE PUSH2 0x113 JUMPI PUSH2 0x5F7 CALLDATASIZE PUSH2 0x1391 JUMP JUMPDEST SWAP1 PUSH1 0x40 MLOAD DUP2 MLOAD SWAP1 PUSH1 0x7 PUSH1 0x20 DUP5 ADD SWAP3 PUSH2 0x610 DUP2 DUP5 DUP7 PUSH2 0x11A9 JUMP JUMPDEST PUSH1 0x1 SWAP1 DUP4 ADD SWAP1 DUP2 MSTORE DUP3 SWAP1 SUB PUSH1 0x20 ADD SWAP1 SWAP2 KECCAK256 ADD SLOAD PUSH1 0x1 PUSH1 0x1 PUSH1 0xA0 SHL SUB AND ISZERO PUSH2 0x675 JUMPI PUSH1 0x20 PUSH2 0x64B SWAP2 PUSH1 0x8 SWAP4 PUSH1 0x40 MLOAD SWAP4 DUP5 SWAP3 DUP4 SWAP3 MLOAD SWAP3 DUP4 SWAP2 PUSH2 0x11A9 JUMP JUMPDEST DUP2 ADD PUSH1 0x1 DUP2 MSTORE SUB ADD SWAP1 KECCAK256 ADD SWAP1 PUSH1 0x1 DUP1 PUSH1 0xA0 SHL SUB AND PUSH1 0x0 MSTORE PUSH1 0x20 MSTORE PUSH1 0x20 PUSH1 0x40 PUSH1 0x0 KECCAK256 SLOAD PUSH1 0x40 MLOAD SWAP1 DUP2 MSTORE RETURN JUMPDEST PUSH1 0x40 MLOAD PUSH3 0x461BCD PUSH1 0xE5 SHL DUP2 MSTORE PUSH1 0x20 PUSH1 0x4 DUP3 ADD MSTORE PUSH1 0x15 PUSH1 0x24 DUP3 ADD MSTORE PUSH21 0x149958DBDC9908191BD95CC81B9BDD08195E1A5CDD PUSH1 0x5A SHL PUSH1 0x44 DUP3 ADD MSTORE PUSH1 0x64 SWAP1 REVERT JUMPDEST CALLVALUE PUSH2 0x113 JUMPI PUSH1 0x0 CALLDATASIZE PUSH1 0x3 NOT ADD SLT PUSH2 0x113 JUMPI PUSH1 0x0 SLOAD PUSH1 0x40 MLOAD PUSH1 0x1 PUSH1 0x1 PUSH1 0xA0 SHL SUB SWAP1 SWAP2 AND DUP2 MSTORE PUSH1 0x20 SWAP1 RETURN JUMPDEST CALLVALUE PUSH2 0x113 JUMPI PUSH1 0x20 CALLDATASIZE PUSH1 0x3 NOT ADD SLT PUSH2 0x113 JUMPI PUSH1 0x4 CALLDATALOAD PUSH1 0x1 PUSH1 0x1 PUSH1 0x40 SHL SUB DUP2 GT PUSH2 0x113 JUMPI PUSH2 0x70B SWAP1 CALLDATASIZE SWAP1 PUSH1 0x4 ADD PUSH2 0x1126 JUMP JUMPDEST PUSH1 0x40 MLOAD DUP2 MLOAD SWAP1 PUSH1 0x7 PUSH1 0x20 DUP5 ADD SWAP3 PUSH2 0x723 DUP2 DUP5 DUP7 PUSH2 0x11A9 JUMP JUMPDEST PUSH1 0x1 SWAP1 DUP4 ADD SWAP1 DUP2 MSTORE DUP3 SWAP1 SUB PUSH1 0x20 ADD SWAP1 SWAP2 KECCAK256 ADD SLOAD PUSH1 0x1 PUSH1 0x1 PUSH1 0xA0 SHL SUB AND CALLER SUB PUSH2 0x845 JUMPI PUSH1 0x20 PUSH2 0x75F SWAP2 PUSH1 0x9 SWAP4 PUSH1 0x40 MLOAD SWAP4 DUP5 SWAP3 DUP4 SWAP3 MLOAD SWAP3 DUP4 SWAP2 PUSH2 0x11A9 JUMP JUMPDEST DUP2 ADD PUSH1 0x1 DUP2 MSTORE SUB ADD SWAP1 KECCAK256 ADD DUP1 SLOAD SWAP1 PUSH2 0x776 DUP3 PUSH2 0x117C JUMP JUMPDEST SWAP2 PUSH2 0x784 PUSH1 0x40 MLOAD SWAP4 DUP5 PUSH2 0x1105 JUMP JUMPDEST DUP1 DUP4 MSTORE PUSH1 0x20 DUP4 ADD DUP1 SWAP3 PUSH1 0x0 MSTORE PUSH1 0x20 PUSH1 0x0 KECCAK256 PUSH1 0x0 SWAP2 JUMPDEST DUP4 DUP4 LT PUSH2 0x807 JUMPI DUP5 DUP7 PUSH1 0x40 MLOAD SWAP2 DUP3 SWAP2 PUSH1 0x20 DUP4 ADD SWAP1 PUSH1 0x20 DUP5 MSTORE MLOAD DUP1 SWAP2 MSTORE PUSH1 0x40 DUP4 ADD SWAP2 SWAP1 PUSH1 0x0 JUMPDEST DUP2 DUP2 LT PUSH2 0x7CC JUMPI POP POP POP SUB SWAP1 RETURN JUMPDEST DUP3 MLOAD DUP1 MLOAD PUSH1 0x1 PUSH1 0x1 PUSH1 0xA0 SHL SUB AND DUP6 MSTORE PUSH1 0x20 DUP2 DUP2 ADD MLOAD DUP2 DUP8 ADD MSTORE PUSH1 0x40 SWAP2 DUP3 ADD MLOAD SWAP2 DUP7 ADD SWAP2 SWAP1 SWAP2 MSTORE DUP7 SWAP6 POP PUSH1 0x60 SWAP1 SWAP5 ADD SWAP4 SWAP1 SWAP3 ADD SWAP2 PUSH1 0x1 ADD PUSH2 0x7BE JUMP JUMPDEST PUSH1 0x3 PUSH1 0x20 PUSH1 0x1 SWAP3 PUSH1 0x40 MLOAD PUSH2 0x81A DUP2 PUSH2 0x10EA JUMP JUMPDEST DUP5 DUP1 PUSH1 0xA0 SHL SUB DUP7 SLOAD AND DUP2 MSTORE DUP5 DUP7 ADD SLOAD DUP4 DUP3 ADD MSTORE PUSH1 0x2 DUP7 ADD SLOAD PUSH1 0x40 DUP3 ADD MSTORE DUP2 MSTORE ADD SWAP3 ADD SWAP3 ADD SWAP2 SWAP1 PUSH2 0x799 JUMP JUMPDEST PUSH1 0x40 MLOAD PUSH3 0x461BCD PUSH1 0xE5 SHL DUP2 MSTORE PUSH1 0x20 PUSH1 0x4 DUP3 ADD MSTORE PUSH1 0x1B PUSH1 0x24 DUP3 ADD MSTORE PUSH32 0x4F6E6C79206F776E65722063616E207669657720686973746F72790000000000 PUSH1 0x44 DUP3 ADD MSTORE PUSH1 0x64 SWAP1 REVERT JUMPDEST CALLVALUE PUSH2 0x113 JUMPI PUSH1 0x0 CALLDATASIZE PUSH1 0x3 NOT ADD SLT PUSH2 0x113 JUMPI PUSH2 0x8A3 PUSH2 0x17D8 JUMP JUMPDEST PUSH1 0x0 DUP1 SLOAD PUSH1 0x1 PUSH1 0x1 PUSH1 0xA0 SHL SUB NOT DUP2 AND DUP3 SSTORE PUSH1 0x1 PUSH1 0x1 PUSH1 0xA0 SHL SUB AND PUSH32 0x8BE0079C531659141344CD1FD0A4F28419497F9722A3DAAFE3B4186F6B6457E0 DUP3 DUP1 LOG3 STOP JUMPDEST CALLVALUE PUSH2 0x113 JUMPI PUSH1 0x20 CALLDATASIZE PUSH1 0x3 NOT ADD SLT PUSH2 0x113 JUMPI PUSH2 0x8FC PUSH2 0x1193 JUMP JUMPDEST PUSH1 0x2 SLOAD PUSH1 0x1 PUSH1 0x1 PUSH1 0xA0 SHL SUB SWAP1 SWAP2 AND SWAP1 PUSH1 0x0 SWAP1 DUP2 JUMPDEST DUP2 DUP2 LT PUSH2 0xAC3 JUMPI POP PUSH2 0x921 DUP3 PUSH2 0x161B JUMP JUMPDEST SWAP1 PUSH2 0x92B DUP4 PUSH2 0x161B JUMP JUMPDEST SWAP3 PUSH2 0x935 DUP2 PUSH2 0x161B JUMP JUMPDEST PUSH2 0x93E DUP3 PUSH2 0x1665 JUMP JUMPDEST PUSH2 0x947 DUP4 PUSH2 0x161B JUMP JUMPDEST PUSH2 0x950 DUP5 PUSH2 0x161B JUMP JUMPDEST SWAP2 PUSH2 0x95A DUP6 PUSH2 0x161B JUMP JUMPDEST SWAP4 PUSH2 0x96D PUSH2 0x967 DUP8 PUSH2 0x161B JUMP JUMPDEST SWAP7 PUSH2 0x1665 JUMP JUMPDEST SWAP7 PUSH1 0x0 SWAP11 DUP12 JUMPDEST DUP3 DUP2 LT PUSH2 0x994 JUMPI POP POP POP PUSH2 0x990 SWAP8 SWAP9 SWAP10 POP PUSH1 0x40 MLOAD SWAP10 DUP11 SWAP10 DUP11 PUSH2 0x123D JUMP JUMPDEST SUB SWAP1 RETURN JUMPDEST PUSH2 0x9A6 PUSH2 0x9A0 DUP3 PUSH2 0x13E6 JUMP JUMPDEST POP PUSH2 0x157E JUMP JUMPDEST PUSH1 0x40 PUSH1 0x0 DUP5 DUP2 MSTORE PUSH1 0x8 DUP4 ADD PUSH1 0x20 MSTORE KECCAK256 TIMESTAMP SWAP1 SLOAD GT DUP1 PUSH2 0xAAC JUMPI JUMPDEST PUSH2 0x9CD JUMPI JUMPDEST POP PUSH1 0x1 ADD PUSH2 0x973 JUMP JUMPDEST DUP14 DUP12 DUP4 SWAP16 DUP16 SWAP1 DUP16 SWAP5 PUSH2 0xA8C DUP16 DUP16 SWAP1 DUP16 DUP16 DUP16 SWAP4 DUP16 DUP9 PUSH2 0xA7F SWAP5 PUSH1 0x1 SWAP16 PUSH2 0xAA5 SWAP16 DUP4 SWAP10 SWAP7 PUSH2 0xA24 PUSH2 0xA9F SWAP16 DUP15 DUP8 SWAP11 PUSH2 0xA4B DUP10 PUSH2 0xA72 SWAP12 PUSH2 0xA3E DUP3 PUSH1 0x3 SWAP8 PUSH2 0xA34 DUP3 DUP1 SWAP14 PUSH2 0xA65 SWAP16 PUSH2 0xA1E PUSH2 0xA24 SWAP2 PUSH2 0x13E6 JUMP JUMPDEST POP PUSH2 0x1697 JUMP JUMPDEST PUSH2 0xA2E DUP4 DUP4 PUSH2 0x13D2 JUMP JUMPDEST MSTORE PUSH2 0x13D2 JUMP JUMPDEST POP PUSH2 0xA24 DUP9 PUSH2 0x173B JUMP JUMPDEST POP PUSH2 0xA24 PUSH1 0x1 DUP7 ADD PUSH2 0x1697 JUMP JUMPDEST POP PUSH2 0xA5E DUP7 PUSH1 0xFF PUSH1 0x2 DUP6 ADD SLOAD AND SWAP3 PUSH2 0x13D2 JUMP JUMPDEST MSTORE ADD PUSH2 0x1697 JUMP JUMPDEST POP PUSH2 0xA24 PUSH1 0x4 DUP12 ADD PUSH2 0x1697 JUMP JUMPDEST POP PUSH2 0xA24 PUSH1 0x5 DUP9 ADD PUSH2 0x1697 JUMP JUMPDEST POP PUSH2 0xA24 PUSH1 0x6 DUP6 ADD PUSH2 0x1697 JUMP JUMPDEST POP PUSH1 0x7 DUP8 DUP1 PUSH1 0xA0 SHL SUB SWAP2 ADD SLOAD AND SWAP3 PUSH2 0x13D2 JUMP JUMPDEST MSTORE PUSH2 0x160C JUMP JUMPDEST SWAP13 SWAP1 PUSH2 0x9C4 JUMP JUMPDEST POP PUSH1 0x7 DUP2 ADD SLOAD PUSH1 0x1 PUSH1 0x1 PUSH1 0xA0 SHL SUB AND DUP4 EQ ISZERO PUSH2 0x9BF JUMP JUMPDEST PUSH2 0xACF PUSH2 0x9A0 DUP3 PUSH2 0x13E6 JUMP JUMPDEST DUP5 PUSH1 0x40 PUSH1 0x0 DUP3 DUP2 MSTORE PUSH1 0x8 DUP5 ADD PUSH1 0x20 MSTORE KECCAK256 TIMESTAMP SWAP1 SLOAD GT SWAP2 DUP3 PUSH2 0xB0D JUMPI JUMPDEST POP POP PUSH2 0xAF9 JUMPI JUMPDEST PUSH1 0x1 ADD PUSH2 0x910 JUMP JUMPDEST SWAP2 PUSH2 0xB05 PUSH1 0x1 SWAP2 PUSH2 0x160C JUMP JUMPDEST SWAP3 SWAP1 POP PUSH2 0xAF1 JUMP JUMPDEST PUSH1 0x7 ADD SLOAD PUSH1 0x1 PUSH1 0x1 PUSH1 0xA0 SHL SUB AND EQ ISZERO SWAP1 POP DUP5 DUP7 PUSH2 0xAEA JUMP JUMPDEST CALLVALUE PUSH2 0x113 JUMPI PUSH1 0x20 CALLDATASIZE PUSH1 0x3 NOT ADD SLT PUSH2 0x113 JUMPI PUSH2 0xB3E PUSH2 0x1193 JUMP JUMPDEST PUSH1 0x2 SLOAD SWAP1 PUSH1 0x0 SWAP1 PUSH1 0x1 PUSH1 0x1 PUSH1 0xA0 SHL SUB AND DUP2 JUMPDEST DUP4 DUP2 LT PUSH2 0xD46 JUMPI POP PUSH2 0xB61 DUP3 PUSH2 0x161B JUMP JUMPDEST SWAP2 PUSH2 0xB6B DUP2 PUSH2 0x161B JUMP JUMPDEST SWAP4 PUSH2 0xB75 DUP3 PUSH2 0x161B JUMP JUMPDEST PUSH2 0xB7E DUP4 PUSH2 0x1665 JUMP JUMPDEST PUSH2 0xB87 DUP5 PUSH2 0x161B JUMP JUMPDEST SWAP1 PUSH2 0xB91 DUP6 PUSH2 0x161B JUMP JUMPDEST SWAP3 PUSH2 0xB9B DUP7 PUSH2 0x161B JUMP JUMPDEST SWAP5 PUSH2 0xBAE PUSH2 0xBA8 DUP9 PUSH2 0x161B JUMP JUMPDEST SWAP8 PUSH2 0x1665 JUMP JUMPDEST SWAP8 PUSH1 0x0 SWAP1 DUP2 JUMPDEST DUP4 DUP2 LT PUSH2 0xBD3 JUMPI DUP13 DUP13 PUSH2 0x990 DUP14 DUP14 DUP14 DUP14 DUP14 DUP14 DUP14 PUSH1 0x40 MLOAD SWAP10 DUP11 SWAP10 DUP11 PUSH2 0x123D JUMP JUMPDEST DUP2 PUSH2 0xBDD DUP3 PUSH2 0x13E6 JUMP JUMPDEST POP PUSH1 0x1 PUSH1 0x1 PUSH1 0xA0 SHL SUB SWAP1 PUSH1 0x7 SWAP1 PUSH2 0xBF3 SWAP1 PUSH2 0x157E JUMP JUMPDEST ADD SLOAD AND EQ PUSH2 0xC04 JUMPI JUMPDEST PUSH1 0x1 ADD PUSH2 0xBB4 JUMP JUMPDEST SWAP2 PUSH2 0xC0E DUP4 PUSH2 0x13E6 JUMP JUMPDEST POP PUSH2 0xC18 SWAP1 PUSH2 0x157E JUMP JUMPDEST DUP13 DUP3 PUSH2 0xC23 DUP7 PUSH2 0x13E6 JUMP JUMPDEST POP PUSH2 0xC2D SWAP1 PUSH2 0x1697 JUMP JUMPDEST PUSH2 0xC37 DUP3 DUP5 PUSH2 0x13D2 JUMP JUMPDEST MSTORE PUSH2 0xC41 SWAP2 PUSH2 0x13D2 JUMP JUMPDEST POP DUP14 DUP3 PUSH2 0xC4D DUP4 PUSH2 0x173B JUMP JUMPDEST PUSH2 0xC57 DUP3 DUP5 PUSH2 0x13D2 JUMP JUMPDEST MSTORE PUSH2 0xC61 SWAP2 PUSH2 0x13D2 JUMP JUMPDEST POP PUSH2 0xC6E PUSH1 0x1 DUP3 ADD PUSH2 0x1697 JUMP JUMPDEST PUSH2 0xC78 DUP4 DUP9 PUSH2 0x13D2 JUMP JUMPDEST MSTORE PUSH2 0xC83 DUP3 DUP8 PUSH2 0x13D2 JUMP JUMPDEST POP PUSH1 0x2 DUP2 ADD SLOAD PUSH1 0xFF AND PUSH2 0xC96 DUP4 DUP10 PUSH2 0x13D2 JUMP JUMPDEST MSTORE PUSH2 0xCA3 PUSH1 0x3 DUP3 ADD PUSH2 0x1697 JUMP JUMPDEST PUSH2 0xCAD DUP4 DUP11 PUSH2 0x13D2 JUMP JUMPDEST MSTORE PUSH2 0xCB8 DUP3 DUP10 PUSH2 0x13D2 JUMP JUMPDEST POP PUSH2 0xCC5 PUSH1 0x4 DUP3 ADD PUSH2 0x1697 JUMP JUMPDEST PUSH2 0xCCF DUP4 DUP12 PUSH2 0x13D2 JUMP JUMPDEST MSTORE PUSH2 0xCDA DUP3 DUP11 PUSH2 0x13D2 JUMP JUMPDEST POP PUSH2 0xCE7 PUSH1 0x5 DUP3 ADD PUSH2 0x1697 JUMP JUMPDEST PUSH2 0xCF1 DUP4 DUP13 PUSH2 0x13D2 JUMP JUMPDEST MSTORE PUSH2 0xCFC DUP3 DUP12 PUSH2 0x13D2 JUMP JUMPDEST POP PUSH2 0xD09 PUSH1 0x6 DUP3 ADD PUSH2 0x1697 JUMP JUMPDEST PUSH2 0xD13 DUP4 DUP14 PUSH2 0x13D2 JUMP JUMPDEST MSTORE PUSH2 0xD1E DUP3 DUP13 PUSH2 0x13D2 JUMP JUMPDEST POP PUSH1 0x7 ADD SLOAD PUSH1 0x1 PUSH1 0x1 PUSH1 0xA0 SHL SUB AND PUSH2 0xD36 DUP3 DUP14 PUSH2 0x13D2 JUMP JUMPDEST MSTORE PUSH2 0xD40 SWAP1 PUSH2 0x160C JUMP JUMPDEST SWAP2 PUSH2 0xBFC JUMP JUMPDEST DUP2 PUSH2 0xD50 DUP3 PUSH2 0x13E6 JUMP JUMPDEST POP PUSH1 0x1 PUSH1 0x1 PUSH1 0xA0 SHL SUB SWAP1 PUSH1 0x7 SWAP1 PUSH2 0xD66 SWAP1 PUSH2 0x157E JUMP JUMPDEST ADD SLOAD AND EQ PUSH2 0xD77 JUMPI JUMPDEST PUSH1 0x1 ADD PUSH2 0xB50 JUMP JUMPDEST SWAP2 PUSH2 0xD83 PUSH1 0x1 SWAP2 PUSH2 0x160C JUMP JUMPDEST SWAP3 SWAP1 POP PUSH2 0xD6F JUMP JUMPDEST CALLVALUE PUSH2 0x113 JUMPI PUSH2 0x100 CALLDATASIZE PUSH1 0x3 NOT ADD SLT PUSH2 0x113 JUMPI PUSH1 0x4 CALLDATALOAD PUSH1 0x1 PUSH1 0x1 PUSH1 0x40 SHL SUB DUP2 GT PUSH2 0x113 JUMPI PUSH2 0xDBC SWAP1 CALLDATASIZE SWAP1 PUSH1 0x4 ADD PUSH2 0x1126 JUMP JUMPDEST PUSH1 0x24 CALLDATALOAD PUSH1 0x1 PUSH1 0x1 PUSH1 0x40 SHL SUB DUP2 GT PUSH2 0x113 JUMPI CALLDATASIZE PUSH1 0x23 DUP3 ADD SLT ISZERO PUSH2 0x113 JUMPI DUP1 PUSH1 0x4 ADD CALLDATALOAD PUSH2 0xDE6 DUP2 PUSH2 0x117C JUMP JUMPDEST SWAP2 PUSH2 0xDF4 PUSH1 0x40 MLOAD SWAP4 DUP5 PUSH2 0x1105 JUMP JUMPDEST DUP2 DUP4 MSTORE PUSH1 0x24 PUSH1 0x20 DUP5 ADD SWAP3 PUSH1 0x5 SHL DUP3 ADD ADD SWAP1 CALLDATASIZE DUP3 GT PUSH2 0x113 JUMPI PUSH1 0x24 DUP2 ADD SWAP3 JUMPDEST DUP3 DUP5 LT PUSH2 0x10BB JUMPI DUP6 DUP6 PUSH1 0x44 CALLDATALOAD PUSH1 0x1 PUSH1 0x1 PUSH1 0x40 SHL SUB DUP2 GT PUSH2 0x113 JUMPI PUSH2 0xE3A SWAP1 CALLDATASIZE SWAP1 PUSH1 0x4 ADD PUSH2 0x1126 JUMP JUMPDEST SWAP1 PUSH1 0x64 CALLDATALOAD SWAP3 PUSH1 0xFF DUP5 AND DUP1 SWAP5 SUB PUSH2 0x113 JUMPI PUSH1 0x84 CALLDATALOAD PUSH1 0x1 PUSH1 0x1 PUSH1 0x40 SHL SUB DUP2 GT PUSH2 0x113 JUMPI PUSH2 0xE69 SWAP1 CALLDATASIZE SWAP1 PUSH1 0x4 ADD PUSH2 0x1126 JUMP JUMPDEST PUSH1 0xA4 CALLDATALOAD PUSH1 0x1 PUSH1 0x1 PUSH1 0x40 SHL SUB DUP2 GT PUSH2 0x113 JUMPI PUSH2 0xE88 SWAP1 CALLDATASIZE SWAP1 PUSH1 0x4 ADD PUSH2 0x1126 JUMP JUMPDEST PUSH1 0xC4 CALLDATALOAD PUSH1 0x1 PUSH1 0x1 PUSH1 0x40 SHL SUB DUP2 GT PUSH2 0x113 JUMPI PUSH2 0xEA7 SWAP1 CALLDATASIZE SWAP1 PUSH1 0x4 ADD PUSH2 0x1126 JUMP JUMPDEST SWAP1 PUSH1 0xE4 CALLDATALOAD PUSH1 0x1 PUSH1 0x1 PUSH1 0x40 SHL SUB DUP2 GT PUSH2 0x113 JUMPI PUSH2 0xEC7 SWAP1 CALLDATASIZE SWAP1 PUSH1 0x4 ADD PUSH2 0x1126 JUMP JUMPDEST SWAP3 DUP5 MLOAD ISZERO PUSH2 0x1088 JUMPI PUSH1 0x40 MLOAD DUP6 MLOAD SWAP1 PUSH1 0x7 PUSH1 0x20 DUP9 ADD SWAP3 PUSH2 0xEE7 DUP2 DUP5 DUP7 PUSH2 0x11A9 JUMP JUMPDEST PUSH1 0x1 SWAP1 DUP4 ADD SWAP1 DUP2 MSTORE DUP3 SWAP1 SUB PUSH1 0x20 ADD SWAP1 SWAP2 KECCAK256 ADD SLOAD PUSH1 0x1 PUSH1 0x1 PUSH1 0xA0 SHL SUB AND PUSH2 0x1052 JUMPI PUSH1 0x20 PUSH2 0xF1E SWAP2 PUSH1 0x40 MLOAD DUP1 SWAP4 DUP2 SWAP3 DUP11 MLOAD SWAP3 DUP4 SWAP2 PUSH2 0x11A9 JUMP JUMPDEST PUSH1 0x1 SWAP1 DUP3 ADD SWAP1 DUP2 MSTORE SUB ADD SWAP1 KECCAK256 PUSH1 0x7 DUP2 ADD DUP1 SLOAD PUSH1 0x1 PUSH1 0x1 PUSH1 0xA0 SHL SUB NOT AND CALLER OR SWAP1 SSTORE SWAP8 PUSH1 0x0 JUMPDEST DUP8 MLOAD DUP2 LT ISZERO PUSH2 0xFA1 JUMPI PUSH2 0xF55 DUP2 DUP10 PUSH2 0x13D2 JUMP JUMPDEST MLOAD SWAP1 DUP11 SLOAD PUSH1 0x1 PUSH1 0x40 SHL DUP2 LT ISZERO PUSH2 0x314 JUMPI DUP1 PUSH1 0x1 PUSH2 0xF75 SWAP3 ADD DUP14 SSTORE DUP13 PUSH2 0x1401 JUMP JUMPDEST PUSH2 0xF8B JUMPI PUSH1 0x1 SWAP3 PUSH2 0xF85 SWAP2 PUSH2 0x1453 JUMP JUMPDEST ADD PUSH2 0xF42 JUMP JUMPDEST PUSH4 0x4E487B71 PUSH1 0xE0 SHL PUSH1 0x0 MSTORE PUSH1 0x0 PUSH1 0x4 MSTORE PUSH1 0x24 PUSH1 0x0 REVERT JUMPDEST POP PUSH2 0xFF2 SWAP5 SWAP4 PUSH2 0xFE3 PUSH1 0x6 SWAP5 PUSH2 0xFDA DUP13 SWAP6 PUSH2 0xFEC SWAP6 PUSH2 0xFC3 DUP15 PUSH1 0x1 DUP11 ADD PUSH2 0x1453 JUMP JUMPDEST PUSH1 0x2 DUP9 ADD SWAP1 PUSH1 0xFF NOT DUP3 SLOAD AND OR SWAP1 SSTORE PUSH1 0x3 DUP8 ADD PUSH2 0x1453 JUMP JUMPDEST PUSH1 0x4 DUP6 ADD PUSH2 0x1453 JUMP JUMPDEST PUSH1 0x5 DUP4 ADD PUSH2 0x1453 JUMP JUMPDEST ADD PUSH2 0x1453 JUMP JUMPDEST PUSH1 0x2 SLOAD PUSH1 0x1 PUSH1 0x40 SHL DUP2 LT ISZERO PUSH2 0x314 JUMPI DUP1 PUSH1 0x1 PUSH2 0x1013 SWAP3 ADD PUSH1 0x2 SSTORE PUSH1 0x2 PUSH2 0x1401 JUMP JUMPDEST PUSH2 0xF8B JUMPI DUP2 PUSH2 0x1021 SWAP2 PUSH2 0x1453 JUMP JUMPDEST PUSH2 0x102B CALLER SWAP2 PUSH2 0x155E JUMP JUMPDEST PUSH32 0x5613B0EA20E0C0C2C37E5DEE1B46009EE8B652C2F475D4D1057EF06A6A5B8C0C PUSH1 0x0 DUP1 LOG3 STOP JUMPDEST PUSH1 0x40 MLOAD PUSH3 0x461BCD PUSH1 0xE5 SHL DUP2 MSTORE PUSH1 0x20 PUSH1 0x4 DUP3 ADD MSTORE PUSH1 0xE PUSH1 0x24 DUP3 ADD MSTORE PUSH14 0x416C726561647920657869737473 PUSH1 0x90 SHL PUSH1 0x44 DUP3 ADD MSTORE PUSH1 0x64 SWAP1 REVERT JUMPDEST PUSH1 0x40 MLOAD PUSH3 0x461BCD PUSH1 0xE5 SHL DUP2 MSTORE PUSH1 0x20 PUSH1 0x4 DUP3 ADD MSTORE PUSH1 0xB PUSH1 0x24 DUP3 ADD MSTORE PUSH11 0x1251081C995C5D5A5C9959 PUSH1 0xAA SHL PUSH1 0x44 DUP3 ADD MSTORE PUSH1 0x64 SWAP1 REVERT JUMPDEST DUP4 CALLDATALOAD PUSH1 0x1 PUSH1 0x1 PUSH1 0x40 SHL SUB DUP2 GT PUSH2 0x113 JUMPI PUSH1 0x20 SWAP2 PUSH2 0x10DF DUP4 SWAP3 PUSH1 0x24 CALLDATASIZE SWAP2 DUP8 ADD ADD PUSH2 0x1126 JUMP JUMPDEST DUP2 MSTORE ADD SWAP4 ADD SWAP3 PUSH2 0xE12 JUMP JUMPDEST PUSH1 0x60 DUP2 ADD SWAP1 DUP2 LT PUSH1 0x1 PUSH1 0x1 PUSH1 0x40 SHL SUB DUP3 GT OR PUSH2 0x314 JUMPI PUSH1 0x40 MSTORE JUMP JUMPDEST SWAP1 PUSH1 0x1F DUP1 NOT SWAP2 ADD AND DUP2 ADD SWAP1 DUP2 LT PUSH1 0x1 PUSH1 0x1 PUSH1 0x40 SHL SUB DUP3 GT OR PUSH2 0x314 JUMPI PUSH1 0x40 MSTORE JUMP JUMPDEST DUP2 PUSH1 0x1F DUP3 ADD SLT ISZERO PUSH2 0x113 JUMPI DUP1 CALLDATALOAD SWAP1 PUSH1 0x1 PUSH1 0x1 PUSH1 0x40 SHL SUB DUP3 GT PUSH2 0x314 JUMPI PUSH1 0x40 MLOAD SWAP3 PUSH2 0x115A PUSH1 0x1F DUP5 ADD PUSH1 0x1F NOT AND PUSH1 0x20 ADD DUP6 PUSH2 0x1105 JUMP JUMPDEST DUP3 DUP5 MSTORE PUSH1 0x20 DUP4 DUP4 ADD ADD GT PUSH2 0x113 JUMPI DUP2 PUSH1 0x0 SWAP3 PUSH1 0x20 DUP1 SWAP4 ADD DUP4 DUP7 ADD CALLDATACOPY DUP4 ADD ADD MSTORE SWAP1 JUMP JUMPDEST PUSH1 0x1 PUSH1 0x1 PUSH1 0x40 SHL SUB DUP2 GT PUSH2 0x314 JUMPI PUSH1 0x5 SHL PUSH1 0x20 ADD SWAP1 JUMP JUMPDEST PUSH1 0x4 CALLDATALOAD SWAP1 PUSH1 0x1 PUSH1 0x1 PUSH1 0xA0 SHL SUB DUP3 AND DUP3 SUB PUSH2 0x113 JUMPI JUMP JUMPDEST PUSH1 0x0 JUMPDEST DUP4 DUP2 LT PUSH2 0x11BC JUMPI POP POP PUSH1 0x0 SWAP2 ADD MSTORE JUMP JUMPDEST DUP2 DUP2 ADD MLOAD DUP4 DUP3 ADD MSTORE PUSH1 0x20 ADD PUSH2 0x11AC JUMP JUMPDEST SWAP1 DUP1 PUSH1 0x20 DUP4 MLOAD SWAP2 DUP3 DUP2 MSTORE ADD SWAP2 PUSH1 0x20 DUP1 DUP4 PUSH1 0x5 SHL DUP4 ADD ADD SWAP5 ADD SWAP3 PUSH1 0x0 SWAP2 JUMPDEST DUP4 DUP4 LT PUSH2 0x11F8 JUMPI POP POP POP POP POP SWAP1 JUMP JUMPDEST SWAP1 SWAP2 SWAP3 SWAP4 SWAP5 PUSH1 0x20 DUP1 DUP1 PUSH1 0x1 SWAP4 PUSH1 0x1F NOT DUP7 DUP3 SUB ADD DUP8 MSTORE DUP10 MLOAD PUSH2 0x1224 DUP2 MLOAD DUP1 SWAP3 DUP2 DUP6 MSTORE DUP6 DUP1 DUP7 ADD SWAP2 ADD PUSH2 0x11A9 JUMP JUMPDEST PUSH1 0x1F ADD PUSH1 0x1F NOT AND ADD ADD SWAP8 ADD SWAP6 SWAP5 SWAP2 SWAP1 SWAP2 ADD SWAP3 ADD SWAP1 PUSH2 0x11E9 JUMP JUMPDEST SWAP8 SWAP7 SWAP6 SWAP5 SWAP3 SWAP2 SWAP1 PUSH2 0x1258 SWAP1 PUSH2 0x120 DUP11 MSTORE PUSH2 0x120 DUP11 ADD SWAP1 PUSH2 0x11CC JUMP JUMPDEST SWAP2 DUP9 DUP4 SUB PUSH1 0x20 DUP11 ADD MSTORE DUP2 MLOAD DUP1 DUP5 MSTORE PUSH1 0x20 DUP5 ADD SWAP4 PUSH1 0x20 DUP1 DUP4 PUSH1 0x5 SHL DUP4 ADD ADD SWAP5 ADD SWAP5 PUSH1 0x0 SWAP2 JUMPDEST DUP4 DUP4 LT PUSH2 0x1362 JUMPI POP POP POP POP PUSH2 0x1299 SWAP3 POP DUP9 DUP3 SUB PUSH1 0x40 DUP11 ADD MSTORE PUSH2 0x11CC JUMP JUMPDEST DUP7 DUP2 SUB PUSH1 0x60 DUP9 ADD MSTORE PUSH1 0x20 DUP1 DUP5 MLOAD SWAP3 DUP4 DUP2 MSTORE ADD SWAP4 ADD SWAP1 PUSH1 0x0 JUMPDEST DUP2 DUP2 LT PUSH2 0x1349 JUMPI POP POP POP PUSH2 0x12F5 SWAP3 PUSH2 0x12D9 DUP4 PUSH2 0x12E7 SWAP4 DUP10 PUSH2 0x1303 SWAP10 SWAP9 SWAP7 SUB PUSH1 0x80 DUP12 ADD MSTORE PUSH2 0x11CC JUMP JUMPDEST SWAP1 DUP8 DUP3 SUB PUSH1 0xA0 DUP10 ADD MSTORE PUSH2 0x11CC JUMP JUMPDEST SWAP1 DUP6 DUP3 SUB PUSH1 0xC0 DUP8 ADD MSTORE PUSH2 0x11CC JUMP JUMPDEST SWAP1 DUP4 DUP3 SUB PUSH1 0xE0 DUP6 ADD MSTORE PUSH2 0x11CC JUMP JUMPDEST SWAP1 PUSH2 0x100 DUP2 DUP4 SUB SWAP2 ADD MSTORE PUSH1 0x20 DUP1 DUP4 MLOAD SWAP3 DUP4 DUP2 MSTORE ADD SWAP3 ADD SWAP1 PUSH1 0x0 JUMPDEST DUP2 DUP2 LT PUSH2 0x132A JUMPI POP POP POP SWAP1 JUMP JUMPDEST DUP3 MLOAD PUSH1 0x1 PUSH1 0x1 PUSH1 0xA0 SHL SUB AND DUP5 MSTORE PUSH1 0x20 SWAP4 DUP5 ADD SWAP4 SWAP1 SWAP3 ADD SWAP2 PUSH1 0x1 ADD PUSH2 0x131D JUMP JUMPDEST DUP3 MLOAD PUSH1 0xFF AND DUP6 MSTORE PUSH1 0x20 SWAP5 DUP6 ADD SWAP5 SWAP1 SWAP3 ADD SWAP2 PUSH1 0x1 ADD PUSH2 0x12B1 JUMP JUMPDEST SWAP1 SWAP2 SWAP3 SWAP4 SWAP5 PUSH1 0x20 DUP1 PUSH2 0x1380 PUSH1 0x1 SWAP4 PUSH1 0x1F NOT DUP7 DUP3 SUB ADD DUP8 MSTORE DUP11 MLOAD PUSH2 0x11CC JUMP JUMPDEST SWAP9 ADD SWAP4 ADD SWAP4 ADD SWAP2 SWAP6 SWAP5 SWAP4 SWAP3 SWAP1 PUSH2 0x127C JUMP JUMPDEST PUSH1 0x40 PUSH1 0x3 NOT DUP3 ADD SLT PUSH2 0x113 JUMPI PUSH1 0x4 CALLDATALOAD SWAP1 PUSH1 0x1 PUSH1 0x1 PUSH1 0x40 SHL SUB DUP3 GT PUSH2 0x113 JUMPI PUSH2 0x13BB SWAP2 PUSH1 0x4 ADD PUSH2 0x1126 JUMP JUMPDEST SWAP1 PUSH1 0x24 CALLDATALOAD PUSH1 0x1 PUSH1 0x1 PUSH1 0xA0 SHL SUB DUP2 AND DUP2 SUB PUSH2 0x113 JUMPI SWAP1 JUMP JUMPDEST DUP1 MLOAD DUP3 LT ISZERO PUSH2 0x2FE JUMPI PUSH1 0x20 SWAP2 PUSH1 0x5 SHL ADD ADD SWAP1 JUMP JUMPDEST PUSH1 0x2 SLOAD DUP2 LT ISZERO PUSH2 0x2FE JUMPI PUSH1 0x2 PUSH1 0x0 MSTORE PUSH1 0x20 PUSH1 0x0 KECCAK256 ADD SWAP1 PUSH1 0x0 SWAP1 JUMP JUMPDEST DUP1 SLOAD DUP3 LT ISZERO PUSH2 0x2FE JUMPI PUSH1 0x0 MSTORE PUSH1 0x20 PUSH1 0x0 KECCAK256 ADD SWAP1 PUSH1 0x0 SWAP1 JUMP JUMPDEST SWAP1 PUSH1 0x1 DUP3 DUP2 SHR SWAP3 AND DUP1 ISZERO PUSH2 0x1449 JUMPI JUMPDEST PUSH1 0x20 DUP4 LT EQ PUSH2 0x1433 JUMPI JUMP JUMPDEST PUSH4 0x4E487B71 PUSH1 0xE0 SHL PUSH1 0x0 MSTORE PUSH1 0x22 PUSH1 0x4 MSTORE PUSH1 0x24 PUSH1 0x0 REVERT JUMPDEST SWAP2 PUSH1 0x7F AND SWAP2 PUSH2 0x1428 JUMP JUMPDEST SWAP2 SWAP1 SWAP2 DUP3 MLOAD PUSH1 0x1 PUSH1 0x1 PUSH1 0x40 SHL SUB DUP2 GT PUSH2 0x314 JUMPI PUSH2 0x1470 DUP3 SLOAD PUSH2 0x1419 JUMP JUMPDEST PUSH1 0x1F DUP2 GT PUSH2 0x1516 JUMPI JUMPDEST POP PUSH1 0x20 PUSH1 0x1F DUP3 GT PUSH1 0x1 EQ PUSH2 0x14B4 JUMPI DUP2 SWAP3 SWAP4 SWAP5 PUSH1 0x0 SWAP3 PUSH2 0x14A9 JUMPI JUMPDEST POP POP DUP2 PUSH1 0x1 SHL SWAP2 PUSH1 0x0 NOT SWAP1 PUSH1 0x3 SHL SHR NOT AND OR SWAP1 SSTORE JUMP JUMPDEST ADD MLOAD SWAP1 POP CODESIZE DUP1 PUSH2 0x1493 JUMP JUMPDEST PUSH1 0x1F NOT DUP3 AND SWAP1 DUP4 PUSH1 0x0 MSTORE DUP1 PUSH1 0x0 KECCAK256 SWAP2 PUSH1 0x0 JUMPDEST DUP2 DUP2 LT PUSH2 0x14FE JUMPI POP SWAP6 DUP4 PUSH1 0x1 SWAP6 SWAP7 SWAP8 LT PUSH2 0x14E5 JUMPI JUMPDEST POP POP POP DUP2 SHL ADD SWAP1 SSTORE JUMP JUMPDEST ADD MLOAD PUSH1 0x0 NOT PUSH1 0xF8 DUP5 PUSH1 0x3 SHL AND SHR NOT AND SWAP1 SSTORE CODESIZE DUP1 DUP1 PUSH2 0x14DB JUMP JUMPDEST SWAP2 SWAP3 PUSH1 0x20 PUSH1 0x1 DUP2 SWAP3 DUP7 DUP12 ADD MLOAD DUP2 SSTORE ADD SWAP5 ADD SWAP3 ADD PUSH2 0x14C6 JUMP JUMPDEST DUP3 PUSH1 0x0 MSTORE PUSH1 0x20 PUSH1 0x0 KECCAK256 PUSH1 0x1F DUP4 ADD PUSH1 0x5 SHR DUP2 ADD SWAP2 PUSH1 0x20 DUP5 LT PUSH2 0x1554 JUMPI JUMPDEST PUSH1 0x1F ADD PUSH1 0x5 SHR ADD SWAP1 JUMPDEST DUP2 DUP2 LT PUSH2 0x1548 JUMPI POP PUSH2 0x1479 JUMP JUMPDEST PUSH1 0x0 DUP2 SSTORE PUSH1 0x1 ADD PUSH2 0x153B JUMP JUMPDEST SWAP1 SWAP2 POP DUP2 SWAP1 PUSH2 0x1532 JUMP JUMPDEST PUSH2 0x1576 SWAP1 PUSH1 0x20 PUSH1 0x40 MLOAD SWAP3 DUP3 DUP5 DUP1 SWAP5 MLOAD SWAP4 DUP5 SWAP3 ADD PUSH2 0x11A9 JUMP JUMPDEST DUP2 ADD SUB SWAP1 KECCAK256 SWAP1 JUMP JUMPDEST PUSH1 0x40 MLOAD SWAP1 DUP2 PUSH1 0x0 DUP3 SLOAD SWAP3 PUSH2 0x1591 DUP5 PUSH2 0x1419 JUMP JUMPDEST SWAP4 PUSH1 0x1 DUP2 AND SWAP1 DUP2 ISZERO PUSH2 0x15F2 JUMPI POP PUSH1 0x1 EQ PUSH2 0x15B6 JUMPI JUMPDEST POP PUSH1 0x20 SWAP3 POP PUSH1 0x1 DUP2 MSTORE SUB ADD SWAP1 KECCAK256 SWAP1 JUMP JUMPDEST SWAP2 POP POP PUSH1 0x0 MSTORE DUP2 PUSH1 0x20 PUSH1 0x0 KECCAK256 PUSH1 0x0 SWAP1 JUMPDEST DUP4 DUP3 LT PUSH2 0x15DA JUMPI POP POP PUSH1 0x20 SWAP2 DUP2 ADD CODESIZE PUSH2 0x15A6 JUMP JUMPDEST PUSH1 0x20 SWAP2 SWAP3 POP DUP1 PUSH1 0x1 SWAP2 SLOAD DUP5 DUP8 ADD MSTORE ADD SWAP2 ADD DUP4 SWAP2 PUSH2 0x15C6 JUMP JUMPDEST PUSH1 0xFF NOT AND DUP5 MSTORE POP PUSH1 0x20 SWAP4 DUP1 ISZERO ISZERO MUL DUP4 ADD SWAP2 POP CODESIZE SWAP1 POP PUSH2 0x15A6 JUMP JUMPDEST PUSH1 0x0 NOT DUP2 EQ PUSH2 0x32A JUMPI PUSH1 0x1 ADD SWAP1 JUMP JUMPDEST SWAP1 PUSH2 0x1625 DUP3 PUSH2 0x117C JUMP JUMPDEST PUSH2 0x1632 PUSH1 0x40 MLOAD SWAP2 DUP3 PUSH2 0x1105 JUMP JUMPDEST DUP3 DUP2 MSTORE PUSH1 0x20 DUP2 SWAP4 PUSH2 0x1645 PUSH1 0x1F NOT SWAP2 PUSH2 0x117C JUMP JUMPDEST ADD SWAP2 ADD PUSH1 0x0 JUMPDEST DUP3 DUP2 LT PUSH2 0x1657 JUMPI POP POP POP JUMP JUMPDEST PUSH1 0x60 DUP3 DUP3 ADD MSTORE PUSH1 0x20 ADD PUSH2 0x164B JUMP JUMPDEST SWAP1 PUSH2 0x166F DUP3 PUSH2 0x117C JUMP JUMPDEST PUSH2 0x167C PUSH1 0x40 MLOAD SWAP2 DUP3 PUSH2 0x1105 JUMP JUMPDEST DUP3 DUP2 MSTORE DUP1 SWAP3 PUSH2 0x168D PUSH1 0x1F NOT SWAP2 PUSH2 0x117C JUMP JUMPDEST ADD SWAP1 PUSH1 0x20 CALLDATASIZE SWAP2 ADD CALLDATACOPY JUMP JUMPDEST SWAP1 PUSH1 0x40 MLOAD SWAP2 DUP3 PUSH1 0x0 DUP3 SLOAD SWAP3 PUSH2 0x16AB DUP5 PUSH2 0x1419 JUMP JUMPDEST DUP1 DUP5 MSTORE SWAP4 PUSH1 0x1 DUP2 AND SWAP1 DUP2 ISZERO PUSH2 0x1719 JUMPI POP PUSH1 0x1 EQ PUSH2 0x16D2 JUMPI JUMPDEST POP PUSH2 0x16D0 SWAP3 POP SUB DUP4 PUSH2 0x1105 JUMP JUMPDEST JUMP JUMPDEST SWAP1 POP PUSH1 0x0 SWAP3 SWAP2 SWAP3 MSTORE PUSH1 0x20 PUSH1 0x0 KECCAK256 SWAP1 PUSH1 0x0 SWAP2 JUMPDEST DUP2 DUP4 LT PUSH2 0x16FD JUMPI POP POP SWAP1 PUSH1 0x20 PUSH2 0x16D0 SWAP3 DUP3 ADD ADD CODESIZE PUSH2 0x16C3 JUMP JUMPDEST PUSH1 0x20 SWAP2 SWAP4 POP DUP1 PUSH1 0x1 SWAP2 SLOAD DUP4 DUP6 DUP10 ADD ADD MSTORE ADD SWAP2 ADD SWAP1 SWAP2 DUP5 SWAP3 PUSH2 0x16E4 JUMP JUMPDEST SWAP1 POP PUSH1 0x20 SWAP3 POP PUSH2 0x16D0 SWAP5 SWAP2 POP PUSH1 0xFF NOT AND DUP3 DUP5 ADD MSTORE ISZERO ISZERO PUSH1 0x5 SHL DUP3 ADD ADD CODESIZE PUSH2 0x16C3 JUMP JUMPDEST SWAP1 DUP2 SLOAD PUSH2 0x1747 DUP2 PUSH2 0x117C JUMP JUMPDEST SWAP3 PUSH2 0x1755 PUSH1 0x40 MLOAD SWAP5 DUP6 PUSH2 0x1105 JUMP JUMPDEST DUP2 DUP5 MSTORE PUSH1 0x20 DUP5 ADD SWAP1 PUSH1 0x0 MSTORE PUSH1 0x20 PUSH1 0x0 KECCAK256 PUSH1 0x0 SWAP2 JUMPDEST DUP4 DUP4 LT PUSH2 0x1776 JUMPI POP POP POP POP JUMP JUMPDEST PUSH1 0x1 PUSH1 0x20 DUP2 SWAP3 PUSH2 0x1785 DUP6 PUSH2 0x1697 JUMP JUMPDEST DUP2 MSTORE ADD SWAP3 ADD SWAP3 ADD SWAP2 SWAP1 PUSH2 0x1769 JUMP JUMPDEST ISZERO PUSH2 0x179A JUMPI JUMP JUMPDEST PUSH1 0x40 MLOAD PUSH3 0x461BCD PUSH1 0xE5 SHL DUP2 MSTORE PUSH1 0x20 PUSH1 0x4 DUP3 ADD MSTORE PUSH1 0x16 PUSH1 0x24 DUP3 ADD MSTORE PUSH22 0x496E76616C696420646F63746F722061646472657373 PUSH1 0x50 SHL PUSH1 0x44 DUP3 ADD MSTORE PUSH1 0x64 SWAP1 REVERT JUMPDEST PUSH1 0x0 SLOAD PUSH1 0x1 PUSH1 0x1 PUSH1 0xA0 SHL SUB AND CALLER SUB PUSH2 0x17EC JUMPI JUMP JUMPDEST PUSH4 0x118CDAA7 PUSH1 0xE0 SHL PUSH1 0x0 MSTORE CALLER PUSH1 0x4 MSTORE PUSH1 0x24 PUSH1 0x0 REVERT INVALID LOG2 PUSH5 0x6970667358 0x22 SLT KECCAK256 0x4E OR BLOCKHASH 0xBE BALANCE 0xBD GASPRICE 0xDC RETURNDATACOPY SWAP10 0xCF SWAP12 LOG3 PUSH28 0x18900DC578B206CA0736BED80ADEE8AA7DB964736F6C634300081C00 CALLER "},"methodIdentifiers":{"checkAccessExpiry(string,address)":"aec36904","getAccessHistory(string)":"8117eada","getRecordsByOwner(address)":"552d7105","getRecordsSharedWithMe(address)":"6910dd2a","grantAccess(string,address,uint256)":"e5492e2b","owner()":"8da5cb5b","renounceOwnership()":"715018a6","revokeAccess(string,address)":"dfe0b5fe","transferOwnership(address)":"f2fde38b","uploadRecord(string,string[],string,uint8,string,string,string,string)":"0aad468f"}}}}}