{"contracts/ProductMarketplace.sol":{"Marketplace":{"abi":[{"anonymous":false,"inputs":[{"indexed":false,"internalType":"uint256","name":"id","type":"uint256"},{"indexed":false,"internalType":"address","name":"buyer","type":"address"},{"indexed":false,"internalType":"uint256","name":"remainingQuantity","type":"uint256"}],"name":"ProductPurchased","type":"event"},{"anonymous":false,"inputs":[{"indexed":false,"internalType":"uint256","name":"id","type":"uint256"},{"indexed":false,"internalType":"string","name":"brand","type":"string"},{"indexed":false,"internalType":"string","name":"name","type":"string"},{"indexed":false,"internalType":"string","name":"imageCID","type":"string"},{"indexed":false,"internalType":"uint256","name":"currentPrice","type":"uint256"},{"indexed":false,"internalType":"uint256","name":"oldPrice","type":"uint256"},{"indexed":false,"internalType":"uint256","name":"rating","type":"uint256"},{"indexed":false,"internalType":"uint256","name":"quantity","type":"uint256"}],"name":"ProductUpdated","type":"event"},{"anonymous":false,"inputs":[{"indexed":false,"internalType":"uint256","name":"id","type":"uint256"},{"indexed":false,"internalType":"address","name":"owner","type":"address"},{"indexed":false,"internalType":"string","name":"brand","type":"string"},{"indexed":false,"internalType":"string","name":"name","type":"string"},{"indexed":false,"internalType":"string","name":"imageCID","type":"string"},{"indexed":false,"internalType":"uint256","name":"currentPrice","type":"uint256"},{"indexed":false,"internalType":"uint256","name":"oldPrice","type":"uint256"},{"indexed":false,"internalType":"uint256","name":"rating","type":"uint256"},{"indexed":false,"internalType":"uint256","name":"daysOnSale","type":"uint256"},{"indexed":false,"internalType":"bool","name":"isSold","type":"bool"},{"indexed":false,"internalType":"bool","name":"isOnSale","type":"bool"},{"indexed":false,"internalType":"uint256","name":"quantity","type":"uint256"}],"name":"ProductUploaded","type":"event"},{"inputs":[{"internalType":"uint256","name":"_id","type":"uint256"}],"name":"buyProduct","outputs":[],"stateMutability":"payable","type":"function"},{"inputs":[{"internalType":"uint256","name":"_id","type":"uint256"}],"name":"getProduct","outputs":[{"internalType":"uint256","name":"","type":"uint256"},{"internalType":"address","name":"","type":"address"},{"internalType":"string","name":"","type":"string"},{"internalType":"string","name":"","type":"string"},{"internalType":"string","name":"","type":"string"},{"internalType":"uint256","name":"","type":"uint256"},{"internalType":"uint256","name":"","type":"uint256"},{"internalType":"uint256","name":"","type":"uint256"},{"internalType":"uint256","name":"","type":"uint256"},{"internalType":"uint256","name":"","type":"uint256"},{"internalType":"bool","name":"","type":"bool"},{"internalType":"bool","name":"","type":"bool"},{"internalType":"uint256","name":"","type":"uint256"}],"stateMutability":"view","type":"function"},{"inputs":[],"name":"productCount","outputs":[{"internalType":"uint256","name":"","type":"uint256"}],"stateMutability":"view","type":"function"},{"inputs":[{"internalType":"uint256","name":"","type":"uint256"}],"name":"products","outputs":[{"internalType":"uint256","name":"id","type":"uint256"},{"internalType":"address payable","name":"owner","type":"address"},{"internalType":"string","name":"brand","type":"string"},{"internalType":"string","name":"name","type":"string"},{"internalType":"string","name":"imageCID","type":"string"},{"internalType":"uint256","name":"currentPrice","type":"uint256"},{"internalType":"uint256","name":"oldPrice","type":"uint256"},{"internalType":"uint256","name":"rating","type":"uint256"},{"internalType":"uint256","name":"daysOnSale","type":"uint256"},{"internalType":"uint256","name":"createdAt","type":"uint256"},{"internalType":"bool","name":"isSold","type":"bool"},{"internalType":"bool","name":"isOnSale","type":"bool"},{"internalType":"uint256","name":"quantity","type":"uint256"}],"stateMutability":"view","type":"function"},{"inputs":[{"internalType":"uint256","name":"_id","type":"uint256"},{"internalType":"string","name":"_brand","type":"string"},{"internalType":"string","name":"_name","type":"string"},{"internalType":"string","name":"_imageCID","type":"string"},{"internalType":"uint256","name":"_currentPrice","type":"uint256"},{"internalType":"uint256","name":"_oldPrice","type":"uint256"},{"internalType":"uint256","name":"_rating","type":"uint256"},{"internalType":"uint256","name":"_quantity","type":"uint256"}],"name":"updateProductInfo","outputs":[],"stateMutability":"nonpayable","type":"function"},{"inputs":[{"internalType":"string","name":"_name","type":"string"},{"internalType":"string","name":"_imageCID","type":"string"},{"internalType":"string","name":"_brand","type":"string"},{"internalType":"uint256","name":"_currentPrice","type":"uint256"},{"internalType":"uint256","name":"_oldPrice","type":"uint256"},{"internalType":"uint256","name":"_rating","type":"uint256"},{"internalType":"uint256","name":"daysOnSale","type":"uint256"},{"internalType":"bool","name":"_isOnSale","type":"bool"},{"internalType":"uint256","name":"_quantity","type":"uint256"}],"name":"uploadProduct","outputs":[],"stateMutability":"nonpayable","type":"function"}],"evm":{"bytecode":{"linkReferences":{},"object":"6080806040523460195760008055611368908161001f8239f35b600080fdfe6080604052600436101561001257600080fd5b60003560e01c80637acc0b2014610fd1578063822febfb14610a635780638642269e14610875578063b9db15b4146106fb578063e0f6ef87146106dd5763f56fa78a1461005e57600080fd5b346106d8576101203660031901126106d8576004356001600160401b0381116106d85761008f903690600401611235565b6024356001600160401b0381116106d8576100ae903690600401611235565b906044356001600160401b0381116106d8576100ce903690600401611235565b9060e43580151581036106d8576100e8606435151561128b565b6100f7600560a43511156112e7565b61010435156106885760005460001981146106725760010193846000556040519461012186611113565b8086526020860190338252604087018681526060880190868252608089019285845260643560a08b015260843560c08b015260a43560e08b015260c4356101008b0152426101208b015260006101408b01528615156101608b0152610104356101808b0152600052600160205260406000209389518555600185019060018060a01b039051166bffffffffffffffffffffffff60a01b8254161790556002840190518051906001600160401b0382116104d65781906101e084546110d9565b601f811161061f575b50602090601f83116001146105ba576000926105af575b50508160011b916000199060031b1c19161790555b51805160038401916001600160401b0382116104d657819061023784546110d9565b601f811161055c575b50602090601f83116001146104f7576000926104ec575b50508160011b916000199060031b1c19161790555b519586516001600160401b0381116104d65761028b60048401546110d9565b601f811161048b575b506020601f82116001146103f1576103a594939282600b93610180937fe4b1c4bc60e762b06195df1bf220825e9958a2fff2c67cb3fae7507af26c97989c6000926103e6575b50508160011b916000199060031b1c19161760048501555b60a0810151600585015560c0810151600685015560e0810151600785015561010081015160088501556101208101516009850155600a8401610140820151151560ff80198354169116178155610160820151151561ff0082549160081b169061ff001916179055015191015561039760005494610389604051978897885233602089015261018060408901526101808801906111f4565b9086820360608801526111f4565b9084820360808601526111f4565b9060643560a084015260843560c084015260a43560e084015260c43561010084015260006101208401521515610140830152610104356101608301520390a1005b0151905038806102da565b60048401600052806000209860005b601f19841681106104735750926001837fe4b1c4bc60e762b06195df1bf220825e9958a2fff2c67cb3fae7507af26c97989b610180946103a5999897600b97601f1981161061045a575b505050811b0160048501556102f2565b015160001960f88460031b161c1916905538808061044a565b828201518b556001909a019960209283019201610400565b600484016000526020600020601f830160051c810191602084106104cc575b601f0160051c01905b8181106104c05750610294565b600081556001016104b3565b90915081906104aa565b634e487b7160e01b600052604160045260246000fd5b015190503880610257565b60008581528281209350601f198516905b818110610544575090846001959493921061052b575b505050811b01905561026c565b015160001960f88460031b161c1916905538808061051e565b92936020600181928786015181550195019301610508565b909150836000526020600020601f840160051c810191602085106105a5575b90601f859493920160051c01905b8181106105965750610240565b60008155849350600101610589565b909150819061057b565b015190503880610200565b60008581528281209350601f198516905b81811061060757509084600195949392106105ee575b505050811b019055610215565b015160001960f88460031b161c191690553880806105e1565b929360206001819287860151815501950193016105cb565b909150836000526020600020601f840160051c81019160208510610668575b90601f859493920160051c01905b81811061065957506101e9565b6000815584935060010161064c565b909150819061063e565b634e487b7160e01b600052601160045260246000fd5b60405162461bcd60e51b815260206004820152602260248201527f5175616e74697479206d7573742062652067726561746572207468616e207a65604482015261726f60f01b6064820152608490fd5b600080fd5b346106d85760003660031901126106d8576020600054604051908152f35b346106d85760203660031901126106d857600435600052600160205260406000206040519061072982611113565b8054825260018101546001600160a01b0316602083019081529061074f60028201611150565b604084019081529261076360038301611150565b606082019081529161077760048201611150565b928360808401526005820154938460a085015260068301548060c086015260078401548060e08701526008850154918261010088015260098601549384610120890152600a8701549560ff8716151596876101408b015260081c60ff16151597886101608b0152600b01549889610180820152519a600160a01b600190039051169b519051906040519c8d9c8d5260208d015260408c016101a090526101a08c01610821916111f4565b8b810360608d0152610832916111f4565b8a810360808c0152610843916111f4565b9760a08a015260c089015260e08801526101008701526101208601526101408501526101608401526101808301520390f35b60203660031901126106d8576004358060005260016020526040600020600a81019160ff835416610a2757600582015434036109ef57600b8201918254156109aa57600101546001600160a01b031633811461095a5760008080809381903415610950575b3491f1156109445781546000198101908111610672577fa530f889d7f1bd9a73028e48944ca013ab2c6624a31e3fa26f923f4bb719abd59381606094558115610933575b506040519182523360208301526040820152a1005b805460ff191660011790558461091e565b6040513d6000823e3d90fd5b6108fc91506108da565b60405162461bcd60e51b815260206004820152602260248201527f4f776e65722063616e6e6f7420627579207468656972206f776e2070726f647560448201526118dd60f21b6064820152608490fd5b60405162461bcd60e51b815260206004820152601760248201527f50726f64756374206973206f7574206f662073746f636b0000000000000000006044820152606490fd5b60405162461bcd60e51b815260206004820152601060248201526f125b98dbdc9c9958dd08185b5bdd5b9d60821b6044820152606490fd5b60405162461bcd60e51b8152602060048201526014602482015273141c9bd91d58dd08185b1c9958591e481cdbdb1960621b6044820152606490fd5b346106d8576101003660031901126106d8576004356024356001600160401b0381116106d857610a97903690600401611235565b6044356001600160401b0381116106d857610ab6903690600401611235565b916064356001600160401b0381116106d857610ad6903690600401611235565b6084359060a43560c4359060e43592856000526001602052604060002060018060a01b036001820154163303610f8257600a81019060ff825416610f3d57610b1f87151561128b565b610b2c60058611156112e7565b6002810189516001600160401b0381116104d657610b4a82546110d9565b601f8111610ef5575b50806020601f8211600114610e8f57600091610e84575b508160011b916000199060031b1c19161790555b600381018a516001600160401b0381116104d657610b9c82546110d9565b601f8111610e3c575b50806020601f8211600114610dd457600091610dc9575b508160011b916000199060031b1c19161790555b6004810183516001600160401b0381116104d657610bee82546110d9565b601f8111610d81575b506020601f8211600114610cee57600b610ca2947ffac9873ad58cc48e362590f6c52dac70ef6e257d1fdfaf36cf9c808d58b5723d9e9484610cb09998958d95600091610ce3575b508160011b916000199060031b1c19161790555b8b6005820155886006820155896007820155015587151580610cd8575b610cca575b50610c946040519a8b9a8b5261010060208c01526101008b01906111f4565b9089820360408b01526111f4565b9087820360608901526111f4565b93608086015260a085015260c084015260e08301520390a1005b805460ff191690558b610c75565b5060ff815416610c70565b905089015138610c3f565b601f1982169083600052806000209160005b818110610d695750947ffac9873ad58cc48e362590f6c52dac70ef6e257d1fdfaf36cf9c808d58b5723d9e946001858d95600b95610cb09c9b98610ca29b10610d50575b5050811b019055610c53565b8b015160001960f88460031b161c191690553880610d44565b9192602060018192868c015181550194019201610d00565b826000526020600020601f830160051c81019160208410610dbf575b601f0160051c01905b818110610db35750610bf7565b60008155600101610da6565b9091508190610d9d565b90508c01518d610bbc565b8d9250601f1982169084600052806000209160005b818110610e225750938360019510610e09575b505050811b019055610bd0565b015160001960f88460031b161c191690558d808e610dfc565b9482015183558f9460019093019260209283019201610de9565b826000526020600020601f830160051c81019160208410610e7a575b601f0160051c01905b818110610e6e5750610ba5565b60008155600101610e61565b9091508190610e58565b90508b01518d610b6a565b60008481528181209250601f198416908e5b828210610edc5750509083600194939210610ec3575b5050811b019055610b7e565b8d015160001960f88460031b161c191690558d80610eb7565b600184956020939584930151815501940192018e610ea1565b826000526020600020601f830160051c81019160208410610f33575b601f0160051c01905b818110610f275750610b53565b60008155600101610f1a565b9091508190610f11565b60405162461bcd60e51b815260206004820152601c60248201527f43616e6e6f7420757064617465206120736f6c642070726f64756374000000006044820152606490fd5b60405162461bcd60e51b815260206004820152602160248201527f4f6e6c79206f776e65722063616e20757064617465207468652070726f6475636044820152601d60fa1b6064820152608490fd5b346106d85760203660031901126106d857600435600052600160205260406000208054600160a01b60019003600183015416916002810161101190611150565b61101d60038301611150565b9161102a60048201611150565b926005820154936006830154600784015490600885015492600986015494600a87015496600b0154976040519b8c9b8c5260208c015260408b016101a090526101a08b01611077916111f4565b8a810360608c0152611088916111f4565b89810360808b0152611099916111f4565b9660a089015260c088015260e087015261010086015261012085015260ff8116151561014085015260081c60ff1615156101608401526101808301520390f35b90600182811c92168015611109575b60208310146110f357565b634e487b7160e01b600052602260045260246000fd5b91607f16916110e8565b6101a081019081106001600160401b038211176104d657604052565b90601f801991011681019081106001600160401b038211176104d657604052565b9060405191826000825492611164846110d9565b80845293600181169081156111d2575060011461118b575b506111899250038361112f565b565b90506000929192526020600020906000915b8183106111b6575050906020611189928201013861117c565b602091935080600191548385890101520191019091849261119d565b90506020925061118994915060ff191682840152151560051b8201013861117c565b919082519283825260005b848110611220575050826000602080949584010152601f8019910116010190565b806020809284010151828286010152016111ff565b81601f820112156106d8578035906001600160401b0382116104d65760405192611269601f8401601f19166020018561112f565b828452602083830101116106d857816000926020809301838601378301015290565b1561129257565b60405162461bcd60e51b815260206004820152602760248201527f43757272656e74207072696365206d7573742062652067726561746572207468604482015266616e207a65726f60c81b6064820152608490fd5b156112ee57565b606460405162461bcd60e51b815260206004820152602060248201527f526174696e672073686f756c64206265206265747765656e203020616e6420356044820152fdfea264697066735822122060f5ba7d678f83a15a1f06b73271f35404d834cbbae362c3f85e59c157683d3064736f6c634300081c0033","opcodes":"PUSH1 0x80 DUP1 PUSH1 0x40 MSTORE CALLVALUE PUSH1 0x19 JUMPI PUSH1 0x0 DUP1 SSTORE PUSH2 0x1368 SWAP1 DUP2 PUSH2 0x1F DUP3 CODECOPY RETURN JUMPDEST PUSH1 0x0 DUP1 REVERT INVALID PUSH1 0x80 PUSH1 0x40 MSTORE PUSH1 0x4 CALLDATASIZE LT ISZERO PUSH2 0x12 JUMPI PUSH1 0x0 DUP1 REVERT JUMPDEST PUSH1 0x0 CALLDATALOAD PUSH1 0xE0 SHR DUP1 PUSH4 0x7ACC0B20 EQ PUSH2 0xFD1 JUMPI DUP1 PUSH4 0x822FEBFB EQ PUSH2 0xA63 JUMPI DUP1 PUSH4 0x8642269E EQ PUSH2 0x875 JUMPI DUP1 PUSH4 0xB9DB15B4 EQ PUSH2 0x6FB JUMPI DUP1 PUSH4 0xE0F6EF87 EQ PUSH2 0x6DD JUMPI PUSH4 0xF56FA78A EQ PUSH2 0x5E JUMPI PUSH1 0x0 DUP1 REVERT JUMPDEST CALLVALUE PUSH2 0x6D8 JUMPI PUSH2 0x120 CALLDATASIZE PUSH1 0x3 NOT ADD SLT PUSH2 0x6D8 JUMPI PUSH1 0x4 CALLDATALOAD PUSH1 0x1 PUSH1 0x1 PUSH1 0x40 SHL SUB DUP2 GT PUSH2 0x6D8 JUMPI PUSH2 0x8F SWAP1 CALLDATASIZE SWAP1 PUSH1 0x4 ADD PUSH2 0x1235 JUMP JUMPDEST PUSH1 0x24 CALLDATALOAD PUSH1 0x1 PUSH1 0x1 PUSH1 0x40 SHL SUB DUP2 GT PUSH2 0x6D8 JUMPI PUSH2 0xAE SWAP1 CALLDATASIZE SWAP1 PUSH1 0x4 ADD PUSH2 0x1235 JUMP JUMPDEST SWAP1 PUSH1 0x44 CALLDATALOAD PUSH1 0x1 PUSH1 0x1 PUSH1 0x40 SHL SUB DUP2 GT PUSH2 0x6D8 JUMPI PUSH2 0xCE SWAP1 CALLDATASIZE SWAP1 PUSH1 0x4 ADD PUSH2 0x1235 JUMP JUMPDEST SWAP1 PUSH1 0xE4 CALLDATALOAD DUP1 ISZERO ISZERO DUP2 SUB PUSH2 0x6D8 JUMPI PUSH2 0xE8 PUSH1 0x64 CALLDATALOAD ISZERO ISZERO PUSH2 0x128B JUMP JUMPDEST PUSH2 0xF7 PUSH1 0x5 PUSH1 0xA4 CALLDATALOAD GT ISZERO PUSH2 0x12E7 JUMP JUMPDEST PUSH2 0x104 CALLDATALOAD ISZERO PUSH2 0x688 JUMPI PUSH1 0x0 SLOAD PUSH1 0x0 NOT DUP2 EQ PUSH2 0x672 JUMPI PUSH1 0x1 ADD SWAP4 DUP5 PUSH1 0x0 SSTORE PUSH1 0x40 MLOAD SWAP5 PUSH2 0x121 DUP7 PUSH2 0x1113 JUMP JUMPDEST DUP1 DUP7 MSTORE PUSH1 0x20 DUP7 ADD SWAP1 CALLER DUP3 MSTORE PUSH1 0x40 DUP8 ADD DUP7 DUP2 MSTORE PUSH1 0x60 DUP9 ADD SWAP1 DUP7 DUP3 MSTORE PUSH1 0x80 DUP10 ADD SWAP3 DUP6 DUP5 MSTORE PUSH1 0x64 CALLDATALOAD PUSH1 0xA0 DUP12 ADD MSTORE PUSH1 0x84 CALLDATALOAD PUSH1 0xC0 DUP12 ADD MSTORE PUSH1 0xA4 CALLDATALOAD PUSH1 0xE0 DUP12 ADD MSTORE PUSH1 0xC4 CALLDATALOAD PUSH2 0x100 DUP12 ADD MSTORE TIMESTAMP PUSH2 0x120 DUP12 ADD MSTORE PUSH1 0x0 PUSH2 0x140 DUP12 ADD MSTORE DUP7 ISZERO ISZERO PUSH2 0x160 DUP12 ADD MSTORE PUSH2 0x104 CALLDATALOAD PUSH2 0x180 DUP12 ADD MSTORE PUSH1 0x0 MSTORE PUSH1 0x1 PUSH1 0x20 MSTORE PUSH1 0x40 PUSH1 0x0 KECCAK256 SWAP4 DUP10 MLOAD DUP6 SSTORE PUSH1 0x1 DUP6 ADD SWAP1 PUSH1 0x1 DUP1 PUSH1 0xA0 SHL SUB SWAP1 MLOAD AND PUSH12 0xFFFFFFFFFFFFFFFFFFFFFFFF PUSH1 0xA0 SHL DUP3 SLOAD AND OR SWAP1 SSTORE PUSH1 0x2 DUP5 ADD SWAP1 MLOAD DUP1 MLOAD SWAP1 PUSH1 0x1 PUSH1 0x1 PUSH1 0x40 SHL SUB DUP3 GT PUSH2 0x4D6 JUMPI DUP2 SWAP1 PUSH2 0x1E0 DUP5 SLOAD PUSH2 0x10D9 JUMP JUMPDEST PUSH1 0x1F DUP2 GT PUSH2 0x61F JUMPI JUMPDEST POP PUSH1 0x20 SWAP1 PUSH1 0x1F DUP4 GT PUSH1 0x1 EQ PUSH2 0x5BA JUMPI PUSH1 0x0 SWAP3 PUSH2 0x5AF JUMPI JUMPDEST POP POP DUP2 PUSH1 0x1 SHL SWAP2 PUSH1 0x0 NOT SWAP1 PUSH1 0x3 SHL SHR NOT AND OR SWAP1 SSTORE JUMPDEST MLOAD DUP1 MLOAD PUSH1 0x3 DUP5 ADD SWAP2 PUSH1 0x1 PUSH1 0x1 PUSH1 0x40 SHL SUB DUP3 GT PUSH2 0x4D6 JUMPI DUP2 SWAP1 PUSH2 0x237 DUP5 SLOAD PUSH2 0x10D9 JUMP JUMPDEST PUSH1 0x1F DUP2 GT PUSH2 0x55C JUMPI JUMPDEST POP PUSH1 0x20 SWAP1 PUSH1 0x1F DUP4 GT PUSH1 0x1 EQ PUSH2 0x4F7 JUMPI PUSH1 0x0 SWAP3 PUSH2 0x4EC JUMPI JUMPDEST POP POP DUP2 PUSH1 0x1 SHL SWAP2 PUSH1 0x0 NOT SWAP1 PUSH1 0x3 SHL SHR NOT AND OR SWAP1 SSTORE JUMPDEST MLOAD SWAP6 DUP7 MLOAD PUSH1 0x1 PUSH1 0x1 PUSH1 0x40 SHL SUB DUP2 GT PUSH2 0x4D6 JUMPI PUSH2 0x28B PUSH1 0x4 DUP5 ADD SLOAD PUSH2 0x10D9 JUMP JUMPDEST PUSH1 0x1F DUP2 GT PUSH2 0x48B JUMPI JUMPDEST POP PUSH1 0x20 PUSH1 0x1F DUP3 GT PUSH1 0x1 EQ PUSH2 0x3F1 JUMPI PUSH2 0x3A5 SWAP5 SWAP4 SWAP3 DUP3 PUSH1 0xB SWAP4 PUSH2 0x180 SWAP4 PUSH32 0xE4B1C4BC60E762B06195DF1BF220825E9958A2FFF2C67CB3FAE7507AF26C9798 SWAP13 PUSH1 0x0 SWAP3 PUSH2 0x3E6 JUMPI JUMPDEST POP POP DUP2 PUSH1 0x1 SHL SWAP2 PUSH1 0x0 NOT SWAP1 PUSH1 0x3 SHL SHR NOT AND OR PUSH1 0x4 DUP6 ADD SSTORE JUMPDEST PUSH1 0xA0 DUP2 ADD MLOAD PUSH1 0x5 DUP6 ADD SSTORE PUSH1 0xC0 DUP2 ADD MLOAD PUSH1 0x6 DUP6 ADD SSTORE PUSH1 0xE0 DUP2 ADD MLOAD PUSH1 0x7 DUP6 ADD SSTORE PUSH2 0x100 DUP2 ADD MLOAD PUSH1 0x8 DUP6 ADD SSTORE PUSH2 0x120 DUP2 ADD MLOAD PUSH1 0x9 DUP6 ADD SSTORE PUSH1 0xA DUP5 ADD PUSH2 0x140 DUP3 ADD MLOAD ISZERO ISZERO PUSH1 0xFF DUP1 NOT DUP4 SLOAD AND SWAP2 AND OR DUP2 SSTORE PUSH2 0x160 DUP3 ADD MLOAD ISZERO ISZERO PUSH2 0xFF00 DUP3 SLOAD SWAP2 PUSH1 0x8 SHL AND SWAP1 PUSH2 0xFF00 NOT AND OR SWAP1 SSTORE ADD MLOAD SWAP2 ADD SSTORE PUSH2 0x397 PUSH1 0x0 SLOAD SWAP5 PUSH2 0x389 PUSH1 0x40 MLOAD SWAP8 DUP9 SWAP8 DUP9 MSTORE CALLER PUSH1 0x20 DUP10 ADD MSTORE PUSH2 0x180 PUSH1 0x40 DUP10 ADD MSTORE PUSH2 0x180 DUP9 ADD SWAP1 PUSH2 0x11F4 JUMP JUMPDEST SWAP1 DUP7 DUP3 SUB PUSH1 0x60 DUP9 ADD MSTORE PUSH2 0x11F4 JUMP JUMPDEST SWAP1 DUP5 DUP3 SUB PUSH1 0x80 DUP7 ADD MSTORE PUSH2 0x11F4 JUMP JUMPDEST SWAP1 PUSH1 0x64 CALLDATALOAD PUSH1 0xA0 DUP5 ADD MSTORE PUSH1 0x84 CALLDATALOAD PUSH1 0xC0 DUP5 ADD MSTORE PUSH1 0xA4 CALLDATALOAD PUSH1 0xE0 DUP5 ADD MSTORE PUSH1 0xC4 CALLDATALOAD PUSH2 0x100 DUP5 ADD MSTORE PUSH1 0x0 PUSH2 0x120 DUP5 ADD MSTORE ISZERO ISZERO PUSH2 0x140 DUP4 ADD MSTORE PUSH2 0x104 CALLDATALOAD PUSH2 0x160 DUP4 ADD MSTORE SUB SWAP1 LOG1 STOP JUMPDEST ADD MLOAD SWAP1 POP CODESIZE DUP1 PUSH2 0x2DA JUMP JUMPDEST PUSH1 0x4 DUP5 ADD PUSH1 0x0 MSTORE DUP1 PUSH1 0x0 KECCAK256 SWAP9 PUSH1 0x0 JUMPDEST PUSH1 0x1F NOT DUP5 AND DUP2 LT PUSH2 0x473 JUMPI POP SWAP3 PUSH1 0x1 DUP4 PUSH32 0xE4B1C4BC60E762B06195DF1BF220825E9958A2FFF2C67CB3FAE7507AF26C9798 SWAP12 PUSH2 0x180 SWAP5 PUSH2 0x3A5 SWAP10 SWAP9 SWAP8 PUSH1 0xB SWAP8 PUSH1 0x1F NOT DUP2 AND LT PUSH2 0x45A JUMPI JUMPDEST POP POP POP DUP2 SHL ADD PUSH1 0x4 DUP6 ADD SSTORE PUSH2 0x2F2 JUMP JUMPDEST ADD MLOAD PUSH1 0x0 NOT PUSH1 0xF8 DUP5 PUSH1 0x3 SHL AND SHR NOT AND SWAP1 SSTORE CODESIZE DUP1 DUP1 PUSH2 0x44A JUMP JUMPDEST DUP3 DUP3 ADD MLOAD DUP12 SSTORE PUSH1 0x1 SWAP1 SWAP11 ADD SWAP10 PUSH1 0x20 SWAP3 DUP4 ADD SWAP3 ADD PUSH2 0x400 JUMP JUMPDEST PUSH1 0x4 DUP5 ADD PUSH1 0x0 MSTORE PUSH1 0x20 PUSH1 0x0 KECCAK256 PUSH1 0x1F DUP4 ADD PUSH1 0x5 SHR DUP2 ADD SWAP2 PUSH1 0x20 DUP5 LT PUSH2 0x4CC JUMPI JUMPDEST PUSH1 0x1F ADD PUSH1 0x5 SHR ADD SWAP1 JUMPDEST DUP2 DUP2 LT PUSH2 0x4C0 JUMPI POP PUSH2 0x294 JUMP JUMPDEST PUSH1 0x0 DUP2 SSTORE PUSH1 0x1 ADD PUSH2 0x4B3 JUMP JUMPDEST SWAP1 SWAP2 POP DUP2 SWAP1 PUSH2 0x4AA JUMP JUMPDEST PUSH4 0x4E487B71 PUSH1 0xE0 SHL PUSH1 0x0 MSTORE PUSH1 0x41 PUSH1 0x4 MSTORE PUSH1 0x24 PUSH1 0x0 REVERT JUMPDEST ADD MLOAD SWAP1 POP CODESIZE DUP1 PUSH2 0x257 JUMP JUMPDEST PUSH1 0x0 DUP6 DUP2 MSTORE DUP3 DUP2 KECCAK256 SWAP4 POP PUSH1 0x1F NOT DUP6 AND SWAP1 JUMPDEST DUP2 DUP2 LT PUSH2 0x544 JUMPI POP SWAP1 DUP5 PUSH1 0x1 SWAP6 SWAP5 SWAP4 SWAP3 LT PUSH2 0x52B JUMPI JUMPDEST POP POP POP DUP2 SHL ADD SWAP1 SSTORE PUSH2 0x26C JUMP JUMPDEST ADD MLOAD PUSH1 0x0 NOT PUSH1 0xF8 DUP5 PUSH1 0x3 SHL AND SHR NOT AND SWAP1 SSTORE CODESIZE DUP1 DUP1 PUSH2 0x51E JUMP JUMPDEST SWAP3 SWAP4 PUSH1 0x20 PUSH1 0x1 DUP2 SWAP3 DUP8 DUP7 ADD MLOAD DUP2 SSTORE ADD SWAP6 ADD SWAP4 ADD PUSH2 0x508 JUMP JUMPDEST SWAP1 SWAP2 POP DUP4 PUSH1 0x0 MSTORE PUSH1 0x20 PUSH1 0x0 KECCAK256 PUSH1 0x1F DUP5 ADD PUSH1 0x5 SHR DUP2 ADD SWAP2 PUSH1 0x20 DUP6 LT PUSH2 0x5A5 JUMPI JUMPDEST SWAP1 PUSH1 0x1F DUP6 SWAP5 SWAP4 SWAP3 ADD PUSH1 0x5 SHR ADD SWAP1 JUMPDEST DUP2 DUP2 LT PUSH2 0x596 JUMPI POP PUSH2 0x240 JUMP JUMPDEST PUSH1 0x0 DUP2 SSTORE DUP5 SWAP4 POP PUSH1 0x1 ADD PUSH2 0x589 JUMP JUMPDEST SWAP1 SWAP2 POP DUP2 SWAP1 PUSH2 0x57B JUMP JUMPDEST ADD MLOAD SWAP1 POP CODESIZE DUP1 PUSH2 0x200 JUMP JUMPDEST PUSH1 0x0 DUP6 DUP2 MSTORE DUP3 DUP2 KECCAK256 SWAP4 POP PUSH1 0x1F NOT DUP6 AND SWAP1 JUMPDEST DUP2 DUP2 LT PUSH2 0x607 JUMPI POP SWAP1 DUP5 PUSH1 0x1 SWAP6 SWAP5 SWAP4 SWAP3 LT PUSH2 0x5EE JUMPI JUMPDEST POP POP POP DUP2 SHL ADD SWAP1 SSTORE PUSH2 0x215 JUMP JUMPDEST ADD MLOAD PUSH1 0x0 NOT PUSH1 0xF8 DUP5 PUSH1 0x3 SHL AND SHR NOT AND SWAP1 SSTORE CODESIZE DUP1 DUP1 PUSH2 0x5E1 JUMP JUMPDEST SWAP3 SWAP4 PUSH1 0x20 PUSH1 0x1 DUP2 SWAP3 DUP8 DUP7 ADD MLOAD DUP2 SSTORE ADD SWAP6 ADD SWAP4 ADD PUSH2 0x5CB JUMP JUMPDEST SWAP1 SWAP2 POP DUP4 PUSH1 0x0 MSTORE PUSH1 0x20 PUSH1 0x0 KECCAK256 PUSH1 0x1F DUP5 ADD PUSH1 0x5 SHR DUP2 ADD SWAP2 PUSH1 0x20 DUP6 LT PUSH2 0x668 JUMPI JUMPDEST SWAP1 PUSH1 0x1F DUP6 SWAP5 SWAP4 SWAP3 ADD PUSH1 0x5 SHR ADD SWAP1 JUMPDEST DUP2 DUP2 LT PUSH2 0x659 JUMPI POP PUSH2 0x1E9 JUMP JUMPDEST PUSH1 0x0 DUP2 SSTORE DUP5 SWAP4 POP PUSH1 0x1 ADD PUSH2 0x64C JUMP JUMPDEST SWAP1 SWAP2 POP DUP2 SWAP1 PUSH2 0x63E JUMP JUMPDEST PUSH4 0x4E487B71 PUSH1 0xE0 SHL PUSH1 0x0 MSTORE PUSH1 0x11 PUSH1 0x4 MSTORE PUSH1 0x24 PUSH1 0x0 REVERT JUMPDEST PUSH1 0x40 MLOAD PUSH3 0x461BCD PUSH1 0xE5 SHL DUP2 MSTORE PUSH1 0x20 PUSH1 0x4 DUP3 ADD MSTORE PUSH1 0x22 PUSH1 0x24 DUP3 ADD MSTORE PUSH32 0x5175616E74697479206D7573742062652067726561746572207468616E207A65 PUSH1 0x44 DUP3 ADD MSTORE PUSH2 0x726F PUSH1 0xF0 SHL PUSH1 0x64 DUP3 ADD MSTORE PUSH1 0x84 SWAP1 REVERT JUMPDEST PUSH1 0x0 DUP1 REVERT JUMPDEST CALLVALUE PUSH2 0x6D8 JUMPI PUSH1 0x0 CALLDATASIZE PUSH1 0x3 NOT ADD SLT PUSH2 0x6D8 JUMPI PUSH1 0x20 PUSH1 0x0 SLOAD PUSH1 0x40 MLOAD SWAP1 DUP2 MSTORE RETURN JUMPDEST CALLVALUE PUSH2 0x6D8 JUMPI PUSH1 0x20 CALLDATASIZE PUSH1 0x3 NOT ADD SLT PUSH2 0x6D8 JUMPI PUSH1 0x4 CALLDATALOAD PUSH1 0x0 MSTORE PUSH1 0x1 PUSH1 0x20 MSTORE PUSH1 0x40 PUSH1 0x0 KECCAK256 PUSH1 0x40 MLOAD SWAP1 PUSH2 0x729 DUP3 PUSH2 0x1113 JUMP JUMPDEST DUP1 SLOAD DUP3 MSTORE PUSH1 0x1 DUP2 ADD SLOAD PUSH1 0x1 PUSH1 0x1 PUSH1 0xA0 SHL SUB AND PUSH1 0x20 DUP4 ADD SWAP1 DUP2 MSTORE SWAP1 PUSH2 0x74F PUSH1 0x2 DUP3 ADD PUSH2 0x1150 JUMP JUMPDEST PUSH1 0x40 DUP5 ADD SWAP1 DUP2 MSTORE SWAP3 PUSH2 0x763 PUSH1 0x3 DUP4 ADD PUSH2 0x1150 JUMP JUMPDEST PUSH1 0x60 DUP3 ADD SWAP1 DUP2 MSTORE SWAP2 PUSH2 0x777 PUSH1 0x4 DUP3 ADD PUSH2 0x1150 JUMP JUMPDEST SWAP3 DUP4 PUSH1 0x80 DUP5 ADD MSTORE PUSH1 0x5 DUP3 ADD SLOAD SWAP4 DUP5 PUSH1 0xA0 DUP6 ADD MSTORE PUSH1 0x6 DUP4 ADD SLOAD DUP1 PUSH1 0xC0 DUP7 ADD MSTORE PUSH1 0x7 DUP5 ADD SLOAD DUP1 PUSH1 0xE0 DUP8 ADD MSTORE PUSH1 0x8 DUP6 ADD SLOAD SWAP2 DUP3 PUSH2 0x100 DUP9 ADD MSTORE PUSH1 0x9 DUP7 ADD SLOAD SWAP4 DUP5 PUSH2 0x120 DUP10 ADD MSTORE PUSH1 0xA DUP8 ADD SLOAD SWAP6 PUSH1 0xFF DUP8 AND ISZERO ISZERO SWAP7 DUP8 PUSH2 0x140 DUP12 ADD MSTORE PUSH1 0x8 SHR PUSH1 0xFF AND ISZERO ISZERO SWAP8 DUP9 PUSH2 0x160 DUP12 ADD MSTORE PUSH1 0xB ADD SLOAD SWAP9 DUP10 PUSH2 0x180 DUP3 ADD MSTORE MLOAD SWAP11 PUSH1 0x1 PUSH1 0xA0 SHL PUSH1 0x1 SWAP1 SUB SWAP1 MLOAD AND SWAP12 MLOAD SWAP1 MLOAD SWAP1 PUSH1 0x40 MLOAD SWAP13 DUP14 SWAP13 DUP14 MSTORE PUSH1 0x20 DUP14 ADD MSTORE PUSH1 0x40 DUP13 ADD PUSH2 0x1A0 SWAP1 MSTORE PUSH2 0x1A0 DUP13 ADD PUSH2 0x821 SWAP2 PUSH2 0x11F4 JUMP JUMPDEST DUP12 DUP2 SUB PUSH1 0x60 DUP14 ADD MSTORE PUSH2 0x832 SWAP2 PUSH2 0x11F4 JUMP JUMPDEST DUP11 DUP2 SUB PUSH1 0x80 DUP13 ADD MSTORE PUSH2 0x843 SWAP2 PUSH2 0x11F4 JUMP JUMPDEST SWAP8 PUSH1 0xA0 DUP11 ADD MSTORE PUSH1 0xC0 DUP10 ADD MSTORE PUSH1 0xE0 DUP9 ADD MSTORE PUSH2 0x100 DUP8 ADD MSTORE PUSH2 0x120 DUP7 ADD MSTORE PUSH2 0x140 DUP6 ADD MSTORE PUSH2 0x160 DUP5 ADD MSTORE PUSH2 0x180 DUP4 ADD MSTORE SUB SWAP1 RETURN JUMPDEST PUSH1 0x20 CALLDATASIZE PUSH1 0x3 NOT ADD SLT PUSH2 0x6D8 JUMPI PUSH1 0x4 CALLDATALOAD DUP1 PUSH1 0x0 MSTORE PUSH1 0x1 PUSH1 0x20 MSTORE PUSH1 0x40 PUSH1 0x0 KECCAK256 PUSH1 0xA DUP2 ADD SWAP2 PUSH1 0xFF DUP4 SLOAD AND PUSH2 0xA27 JUMPI PUSH1 0x5 DUP3 ADD SLOAD CALLVALUE SUB PUSH2 0x9EF JUMPI PUSH1 0xB DUP3 ADD SWAP2 DUP3 SLOAD ISZERO PUSH2 0x9AA JUMPI PUSH1 0x1 ADD SLOAD PUSH1 0x1 PUSH1 0x1 PUSH1 0xA0 SHL SUB AND CALLER DUP2 EQ PUSH2 0x95A JUMPI PUSH1 0x0 DUP1 DUP1 DUP1 SWAP4 DUP2 SWAP1 CALLVALUE ISZERO PUSH2 0x950 JUMPI JUMPDEST CALLVALUE SWAP2 CALL ISZERO PUSH2 0x944 JUMPI DUP2 SLOAD PUSH1 0x0 NOT DUP2 ADD SWAP1 DUP2 GT PUSH2 0x672 JUMPI PUSH32 0xA530F889D7F1BD9A73028E48944CA013AB2C6624A31E3FA26F923F4BB719ABD5 SWAP4 DUP2 PUSH1 0x60 SWAP5 SSTORE DUP2 ISZERO PUSH2 0x933 JUMPI JUMPDEST POP PUSH1 0x40 MLOAD SWAP2 DUP3 MSTORE CALLER PUSH1 0x20 DUP4 ADD MSTORE PUSH1 0x40 DUP3 ADD MSTORE LOG1 STOP JUMPDEST DUP1 SLOAD PUSH1 0xFF NOT AND PUSH1 0x1 OR SWAP1 SSTORE DUP5 PUSH2 0x91E JUMP JUMPDEST PUSH1 0x40 MLOAD RETURNDATASIZE PUSH1 0x0 DUP3 RETURNDATACOPY RETURNDATASIZE SWAP1 REVERT JUMPDEST PUSH2 0x8FC SWAP2 POP PUSH2 0x8DA JUMP JUMPDEST PUSH1 0x40 MLOAD PUSH3 0x461BCD PUSH1 0xE5 SHL DUP2 MSTORE PUSH1 0x20 PUSH1 0x4 DUP3 ADD MSTORE PUSH1 0x22 PUSH1 0x24 DUP3 ADD MSTORE PUSH32 0x4F776E65722063616E6E6F7420627579207468656972206F776E2070726F6475 PUSH1 0x44 DUP3 ADD MSTORE PUSH2 0x18DD PUSH1 0xF2 SHL PUSH1 0x64 DUP3 ADD MSTORE PUSH1 0x84 SWAP1 REVERT JUMPDEST PUSH1 0x40 MLOAD PUSH3 0x461BCD PUSH1 0xE5 SHL DUP2 MSTORE PUSH1 0x20 PUSH1 0x4 DUP3 ADD MSTORE PUSH1 0x17 PUSH1 0x24 DUP3 ADD MSTORE PUSH32 0x50726F64756374206973206F7574206F662073746F636B000000000000000000 PUSH1 0x44 DUP3 ADD MSTORE PUSH1 0x64 SWAP1 REVERT JUMPDEST PUSH1 0x40 MLOAD PUSH3 0x461BCD PUSH1 0xE5 SHL DUP2 MSTORE PUSH1 0x20 PUSH1 0x4 DUP3 ADD MSTORE PUSH1 0x10 PUSH1 0x24 DUP3 ADD MSTORE PUSH16 0x125B98DBDC9C9958DD08185B5BDD5B9D PUSH1 0x82 SHL PUSH1 0x44 DUP3 ADD MSTORE PUSH1 0x64 SWAP1 REVERT JUMPDEST PUSH1 0x40 MLOAD PUSH3 0x461BCD PUSH1 0xE5 SHL DUP2 MSTORE PUSH1 0x20 PUSH1 0x4 DUP3 ADD MSTORE PUSH1 0x14 PUSH1 0x24 DUP3 ADD MSTORE PUSH20 0x141C9BD91D58DD08185B1C9958591E481CDBDB19 PUSH1 0x62 SHL PUSH1 0x44 DUP3 ADD MSTORE PUSH1 0x64 SWAP1 REVERT JUMPDEST CALLVALUE PUSH2 0x6D8 JUMPI PUSH2 0x100 CALLDATASIZE PUSH1 0x3 NOT ADD SLT PUSH2 0x6D8 JUMPI PUSH1 0x4 CALLDATALOAD PUSH1 0x24 CALLDATALOAD PUSH1 0x1 PUSH1 0x1 PUSH1 0x40 SHL SUB DUP2 GT PUSH2 0x6D8 JUMPI PUSH2 0xA97 SWAP1 CALLDATASIZE SWAP1 PUSH1 0x4 ADD PUSH2 0x1235 JUMP JUMPDEST PUSH1 0x44 CALLDATALOAD PUSH1 0x1 PUSH1 0x1 PUSH1 0x40 SHL SUB DUP2 GT PUSH2 0x6D8 JUMPI PUSH2 0xAB6 SWAP1 CALLDATASIZE SWAP1 PUSH1 0x4 ADD PUSH2 0x1235 JUMP JUMPDEST SWAP2 PUSH1 0x64 CALLDATALOAD PUSH1 0x1 PUSH1 0x1 PUSH1 0x40 SHL SUB DUP2 GT PUSH2 0x6D8 JUMPI PUSH2 0xAD6 SWAP1 CALLDATASIZE SWAP1 PUSH1 0x4 ADD PUSH2 0x1235 JUMP JUMPDEST PUSH1 0x84 CALLDATALOAD SWAP1 PUSH1 0xA4 CALLDATALOAD PUSH1 0xC4 CALLDATALOAD SWAP1 PUSH1 0xE4 CALLDATALOAD SWAP3 DUP6 PUSH1 0x0 MSTORE PUSH1 0x1 PUSH1 0x20 MSTORE PUSH1 0x40 PUSH1 0x0 KECCAK256 PUSH1 0x1 DUP1 PUSH1 0xA0 SHL SUB PUSH1 0x1 DUP3 ADD SLOAD AND CALLER SUB PUSH2 0xF82 JUMPI PUSH1 0xA DUP2 ADD SWAP1 PUSH1 0xFF DUP3 SLOAD AND PUSH2 0xF3D JUMPI PUSH2 0xB1F DUP8 ISZERO ISZERO PUSH2 0x128B JUMP JUMPDEST PUSH2 0xB2C PUSH1 0x5 DUP7 GT ISZERO PUSH2 0x12E7 JUMP JUMPDEST PUSH1 0x2 DUP2 ADD DUP10 MLOAD PUSH1 0x1 PUSH1 0x1 PUSH1 0x40 SHL SUB DUP2 GT PUSH2 0x4D6 JUMPI PUSH2 0xB4A DUP3 SLOAD PUSH2 0x10D9 JUMP JUMPDEST PUSH1 0x1F DUP2 GT PUSH2 0xEF5 JUMPI JUMPDEST POP DUP1 PUSH1 0x20 PUSH1 0x1F DUP3 GT PUSH1 0x1 EQ PUSH2 0xE8F JUMPI PUSH1 0x0 SWAP2 PUSH2 0xE84 JUMPI JUMPDEST POP DUP2 PUSH1 0x1 SHL SWAP2 PUSH1 0x0 NOT SWAP1 PUSH1 0x3 SHL SHR NOT AND OR SWAP1 SSTORE JUMPDEST PUSH1 0x3 DUP2 ADD DUP11 MLOAD PUSH1 0x1 PUSH1 0x1 PUSH1 0x40 SHL SUB DUP2 GT PUSH2 0x4D6 JUMPI PUSH2 0xB9C DUP3 SLOAD PUSH2 0x10D9 JUMP JUMPDEST PUSH1 0x1F DUP2 GT PUSH2 0xE3C JUMPI JUMPDEST POP DUP1 PUSH1 0x20 PUSH1 0x1F DUP3 GT PUSH1 0x1 EQ PUSH2 0xDD4 JUMPI PUSH1 0x0 SWAP2 PUSH2 0xDC9 JUMPI JUMPDEST POP DUP2 PUSH1 0x1 SHL SWAP2 PUSH1 0x0 NOT SWAP1 PUSH1 0x3 SHL SHR NOT AND OR SWAP1 SSTORE JUMPDEST PUSH1 0x4 DUP2 ADD DUP4 MLOAD PUSH1 0x1 PUSH1 0x1 PUSH1 0x40 SHL SUB DUP2 GT PUSH2 0x4D6 JUMPI PUSH2 0xBEE DUP3 SLOAD PUSH2 0x10D9 JUMP JUMPDEST PUSH1 0x1F DUP2 GT PUSH2 0xD81 JUMPI JUMPDEST POP PUSH1 0x20 PUSH1 0x1F DUP3 GT PUSH1 0x1 EQ PUSH2 0xCEE JUMPI PUSH1 0xB PUSH2 0xCA2 SWAP5 PUSH32 0xFAC9873AD58CC48E362590F6C52DAC70EF6E257D1FDFAF36CF9C808D58B5723D SWAP15 SWAP5 DUP5 PUSH2 0xCB0 SWAP10 SWAP9 SWAP6 DUP14 SWAP6 PUSH1 0x0 SWAP2 PUSH2 0xCE3 JUMPI JUMPDEST POP DUP2 PUSH1 0x1 SHL SWAP2 PUSH1 0x0 NOT SWAP1 PUSH1 0x3 SHL SHR NOT AND OR SWAP1 SSTORE JUMPDEST DUP12 PUSH1 0x5 DUP3 ADD SSTORE DUP9 PUSH1 0x6 DUP3 ADD SSTORE DUP10 PUSH1 0x7 DUP3 ADD SSTORE ADD SSTORE DUP8 ISZERO ISZERO DUP1 PUSH2 0xCD8 JUMPI JUMPDEST PUSH2 0xCCA JUMPI JUMPDEST POP PUSH2 0xC94 PUSH1 0x40 MLOAD SWAP11 DUP12 SWAP11 DUP12 MSTORE PUSH2 0x100 PUSH1 0x20 DUP13 ADD MSTORE PUSH2 0x100 DUP12 ADD SWAP1 PUSH2 0x11F4 JUMP JUMPDEST SWAP1 DUP10 DUP3 SUB PUSH1 0x40 DUP12 ADD MSTORE PUSH2 0x11F4 JUMP JUMPDEST SWAP1 DUP8 DUP3 SUB PUSH1 0x60 DUP10 ADD MSTORE PUSH2 0x11F4 JUMP JUMPDEST SWAP4 PUSH1 0x80 DUP7 ADD MSTORE PUSH1 0xA0 DUP6 ADD MSTORE PUSH1 0xC0 DUP5 ADD MSTORE PUSH1 0xE0 DUP4 ADD MSTORE SUB SWAP1 LOG1 STOP JUMPDEST DUP1 SLOAD PUSH1 0xFF NOT AND SWAP1 SSTORE DUP12 PUSH2 0xC75 JUMP JUMPDEST POP PUSH1 0xFF DUP2 SLOAD AND PUSH2 0xC70 JUMP JUMPDEST SWAP1 POP DUP10 ADD MLOAD CODESIZE PUSH2 0xC3F JUMP JUMPDEST PUSH1 0x1F NOT DUP3 AND SWAP1 DUP4 PUSH1 0x0 MSTORE DUP1 PUSH1 0x0 KECCAK256 SWAP2 PUSH1 0x0 JUMPDEST DUP2 DUP2 LT PUSH2 0xD69 JUMPI POP SWAP5 PUSH32 0xFAC9873AD58CC48E362590F6C52DAC70EF6E257D1FDFAF36CF9C808D58B5723D SWAP15 SWAP5 PUSH1 0x1 DUP6 DUP14 SWAP6 PUSH1 0xB SWAP6 PUSH2 0xCB0 SWAP13 SWAP12 SWAP9 PUSH2 0xCA2 SWAP12 LT PUSH2 0xD50 JUMPI JUMPDEST POP POP DUP2 SHL ADD SWAP1 SSTORE PUSH2 0xC53 JUMP JUMPDEST DUP12 ADD MLOAD PUSH1 0x0 NOT PUSH1 0xF8 DUP5 PUSH1 0x3 SHL AND SHR NOT AND SWAP1 SSTORE CODESIZE DUP1 PUSH2 0xD44 JUMP JUMPDEST SWAP2 SWAP3 PUSH1 0x20 PUSH1 0x1 DUP2 SWAP3 DUP7 DUP13 ADD MLOAD DUP2 SSTORE ADD SWAP5 ADD SWAP3 ADD PUSH2 0xD00 JUMP JUMPDEST DUP3 PUSH1 0x0 MSTORE PUSH1 0x20 PUSH1 0x0 KECCAK256 PUSH1 0x1F DUP4 ADD PUSH1 0x5 SHR DUP2 ADD SWAP2 PUSH1 0x20 DUP5 LT PUSH2 0xDBF JUMPI JUMPDEST PUSH1 0x1F ADD PUSH1 0x5 SHR ADD SWAP1 JUMPDEST DUP2 DUP2 LT PUSH2 0xDB3 JUMPI POP PUSH2 0xBF7 JUMP JUMPDEST PUSH1 0x0 DUP2 SSTORE PUSH1 0x1 ADD PUSH2 0xDA6 JUMP JUMPDEST SWAP1 SWAP2 POP DUP2 SWAP1 PUSH2 0xD9D JUMP JUMPDEST SWAP1 POP DUP13 ADD MLOAD DUP14 PUSH2 0xBBC JUMP JUMPDEST DUP14 SWAP3 POP PUSH1 0x1F NOT DUP3 AND SWAP1 DUP5 PUSH1 0x0 MSTORE DUP1 PUSH1 0x0 KECCAK256 SWAP2 PUSH1 0x0 JUMPDEST DUP2 DUP2 LT PUSH2 0xE22 JUMPI POP SWAP4 DUP4 PUSH1 0x1 SWAP6 LT PUSH2 0xE09 JUMPI JUMPDEST POP POP POP DUP2 SHL ADD SWAP1 SSTORE PUSH2 0xBD0 JUMP JUMPDEST ADD MLOAD PUSH1 0x0 NOT PUSH1 0xF8 DUP5 PUSH1 0x3 SHL AND SHR NOT AND SWAP1 SSTORE DUP14 DUP1 DUP15 PUSH2 0xDFC JUMP JUMPDEST SWAP5 DUP3 ADD MLOAD DUP4 SSTORE DUP16 SWAP5 PUSH1 0x1 SWAP1 SWAP4 ADD SWAP3 PUSH1 0x20 SWAP3 DUP4 ADD SWAP3 ADD PUSH2 0xDE9 JUMP JUMPDEST DUP3 PUSH1 0x0 MSTORE PUSH1 0x20 PUSH1 0x0 KECCAK256 PUSH1 0x1F DUP4 ADD PUSH1 0x5 SHR DUP2 ADD SWAP2 PUSH1 0x20 DUP5 LT PUSH2 0xE7A JUMPI JUMPDEST PUSH1 0x1F ADD PUSH1 0x5 SHR ADD SWAP1 JUMPDEST DUP2 DUP2 LT PUSH2 0xE6E JUMPI POP PUSH2 0xBA5 JUMP JUMPDEST PUSH1 0x0 DUP2 SSTORE PUSH1 0x1 ADD PUSH2 0xE61 JUMP JUMPDEST SWAP1 SWAP2 POP DUP2 SWAP1 PUSH2 0xE58 JUMP JUMPDEST SWAP1 POP DUP12 ADD MLOAD DUP14 PUSH2 0xB6A JUMP JUMPDEST PUSH1 0x0 DUP5 DUP2 MSTORE DUP2 DUP2 KECCAK256 SWAP3 POP PUSH1 0x1F NOT DUP5 AND SWAP1 DUP15 JUMPDEST DUP3 DUP3 LT PUSH2 0xEDC JUMPI POP POP SWAP1 DUP4 PUSH1 0x1 SWAP5 SWAP4 SWAP3 LT PUSH2 0xEC3 JUMPI JUMPDEST POP POP DUP2 SHL ADD SWAP1 SSTORE PUSH2 0xB7E JUMP JUMPDEST DUP14 ADD MLOAD PUSH1 0x0 NOT PUSH1 0xF8 DUP5 PUSH1 0x3 SHL AND SHR NOT AND SWAP1 SSTORE DUP14 DUP1 PUSH2 0xEB7 JUMP JUMPDEST PUSH1 0x1 DUP5 SWAP6 PUSH1 0x20 SWAP4 SWAP6 DUP5 SWAP4 ADD MLOAD DUP2 SSTORE ADD SWAP5 ADD SWAP3 ADD DUP15 PUSH2 0xEA1 JUMP JUMPDEST DUP3 PUSH1 0x0 MSTORE PUSH1 0x20 PUSH1 0x0 KECCAK256 PUSH1 0x1F DUP4 ADD PUSH1 0x5 SHR DUP2 ADD SWAP2 PUSH1 0x20 DUP5 LT PUSH2 0xF33 JUMPI JUMPDEST PUSH1 0x1F ADD PUSH1 0x5 SHR ADD SWAP1 JUMPDEST DUP2 DUP2 LT PUSH2 0xF27 JUMPI POP PUSH2 0xB53 JUMP JUMPDEST PUSH1 0x0 DUP2 SSTORE PUSH1 0x1 ADD PUSH2 0xF1A JUMP JUMPDEST SWAP1 SWAP2 POP DUP2 SWAP1 PUSH2 0xF11 JUMP JUMPDEST PUSH1 0x40 MLOAD PUSH3 0x461BCD PUSH1 0xE5 SHL DUP2 MSTORE PUSH1 0x20 PUSH1 0x4 DUP3 ADD MSTORE PUSH1 0x1C PUSH1 0x24 DUP3 ADD MSTORE PUSH32 0x43616E6E6F7420757064617465206120736F6C642070726F6475637400000000 PUSH1 0x44 DUP3 ADD MSTORE PUSH1 0x64 SWAP1 REVERT JUMPDEST PUSH1 0x40 MLOAD PUSH3 0x461BCD PUSH1 0xE5 SHL DUP2 MSTORE PUSH1 0x20 PUSH1 0x4 DUP3 ADD MSTORE PUSH1 0x21 PUSH1 0x24 DUP3 ADD MSTORE PUSH32 0x4F6E6C79206F776E65722063616E20757064617465207468652070726F647563 PUSH1 0x44 DUP3 ADD MSTORE PUSH1 0x1D PUSH1 0xFA SHL PUSH1 0x64 DUP3 ADD MSTORE PUSH1 0x84 SWAP1 REVERT JUMPDEST CALLVALUE PUSH2 0x6D8 JUMPI PUSH1 0x20 CALLDATASIZE PUSH1 0x3 NOT ADD SLT PUSH2 0x6D8 JUMPI PUSH1 0x4 CALLDATALOAD PUSH1 0x0 MSTORE PUSH1 0x1 PUSH1 0x20 MSTORE PUSH1 0x40 PUSH1 0x0 KECCAK256 DUP1 SLOAD PUSH1 0x1 PUSH1 0xA0 SHL PUSH1 0x1 SWAP1 SUB PUSH1 0x1 DUP4 ADD SLOAD AND SWAP2 PUSH1 0x2 DUP2 ADD PUSH2 0x1011 SWAP1 PUSH2 0x1150 JUMP JUMPDEST PUSH2 0x101D PUSH1 0x3 DUP4 ADD PUSH2 0x1150 JUMP JUMPDEST SWAP2 PUSH2 0x102A PUSH1 0x4 DUP3 ADD PUSH2 0x1150 JUMP JUMPDEST SWAP3 PUSH1 0x5 DUP3 ADD SLOAD SWAP4 PUSH1 0x6 DUP4 ADD SLOAD PUSH1 0x7 DUP5 ADD SLOAD SWAP1 PUSH1 0x8 DUP6 ADD SLOAD SWAP3 PUSH1 0x9 DUP7 ADD SLOAD SWAP5 PUSH1 0xA DUP8 ADD SLOAD SWAP7 PUSH1 0xB ADD SLOAD SWAP8 PUSH1 0x40 MLOAD SWAP12 DUP13 SWAP12 DUP13 MSTORE PUSH1 0x20 DUP13 ADD MSTORE PUSH1 0x40 DUP12 ADD PUSH2 0x1A0 SWAP1 MSTORE PUSH2 0x1A0 DUP12 ADD PUSH2 0x1077 SWAP2 PUSH2 0x11F4 JUMP JUMPDEST DUP11 DUP2 SUB PUSH1 0x60 DUP13 ADD MSTORE PUSH2 0x1088 SWAP2 PUSH2 0x11F4 JUMP JUMPDEST DUP10 DUP2 SUB PUSH1 0x80 DUP12 ADD MSTORE PUSH2 0x1099 SWAP2 PUSH2 0x11F4 JUMP JUMPDEST SWAP7 PUSH1 0xA0 DUP10 ADD MSTORE PUSH1 0xC0 DUP9 ADD MSTORE PUSH1 0xE0 DUP8 ADD MSTORE PUSH2 0x100 DUP7 ADD MSTORE PUSH2 0x120 DUP6 ADD MSTORE PUSH1 0xFF DUP2 AND ISZERO ISZERO PUSH2 0x140 DUP6 ADD MSTORE PUSH1 0x8 SHR PUSH1 0xFF AND ISZERO ISZERO PUSH2 0x160 DUP5 ADD MSTORE PUSH2 0x180 DUP4 ADD MSTORE SUB SWAP1 RETURN JUMPDEST SWAP1 PUSH1 0x1 DUP3 DUP2 SHR SWAP3 AND DUP1 ISZERO PUSH2 0x1109 JUMPI JUMPDEST PUSH1 0x20 DUP4 LT EQ PUSH2 0x10F3 JUMPI JUMP JUMPDEST PUSH4 0x4E487B71 PUSH1 0xE0 SHL PUSH1 0x0 MSTORE PUSH1 0x22 PUSH1 0x4 MSTORE PUSH1 0x24 PUSH1 0x0 REVERT JUMPDEST SWAP2 PUSH1 0x7F AND SWAP2 PUSH2 0x10E8 JUMP JUMPDEST PUSH2 0x1A0 DUP2 ADD SWAP1 DUP2 LT PUSH1 0x1 PUSH1 0x1 PUSH1 0x40 SHL SUB DUP3 GT OR PUSH2 0x4D6 JUMPI PUSH1 0x40 MSTORE JUMP JUMPDEST SWAP1 PUSH1 0x1F DUP1 NOT SWAP2 ADD AND DUP2 ADD SWAP1 DUP2 LT PUSH1 0x1 PUSH1 0x1 PUSH1 0x40 SHL SUB DUP3 GT OR PUSH2 0x4D6 JUMPI PUSH1 0x40 MSTORE JUMP JUMPDEST SWAP1 PUSH1 0x40 MLOAD SWAP2 DUP3 PUSH1 0x0 DUP3 SLOAD SWAP3 PUSH2 0x1164 DUP5 PUSH2 0x10D9 JUMP JUMPDEST DUP1 DUP5 MSTORE SWAP4 PUSH1 0x1 DUP2 AND SWAP1 DUP2 ISZERO PUSH2 0x11D2 JUMPI POP PUSH1 0x1 EQ PUSH2 0x118B JUMPI JUMPDEST POP PUSH2 0x1189 SWAP3 POP SUB DUP4 PUSH2 0x112F JUMP JUMPDEST JUMP JUMPDEST SWAP1 POP PUSH1 0x0 SWAP3 SWAP2 SWAP3 MSTORE PUSH1 0x20 PUSH1 0x0 KECCAK256 SWAP1 PUSH1 0x0 SWAP2 JUMPDEST DUP2 DUP4 LT PUSH2 0x11B6 JUMPI POP POP SWAP1 PUSH1 0x20 PUSH2 0x1189 SWAP3 DUP3 ADD ADD CODESIZE PUSH2 0x117C JUMP JUMPDEST PUSH1 0x20 SWAP2 SWAP4 POP DUP1 PUSH1 0x1 SWAP2 SLOAD DUP4 DUP6 DUP10 ADD ADD MSTORE ADD SWAP2 ADD SWAP1 SWAP2 DUP5 SWAP3 PUSH2 0x119D JUMP JUMPDEST SWAP1 POP PUSH1 0x20 SWAP3 POP PUSH2 0x1189 SWAP5 SWAP2 POP PUSH1 0xFF NOT AND DUP3 DUP5 ADD MSTORE ISZERO ISZERO PUSH1 0x5 SHL DUP3 ADD ADD CODESIZE PUSH2 0x117C JUMP JUMPDEST SWAP2 SWAP1 DUP3 MLOAD SWAP3 DUP4 DUP3 MSTORE PUSH1 0x0 JUMPDEST DUP5 DUP2 LT PUSH2 0x1220 JUMPI POP POP DUP3 PUSH1 0x0 PUSH1 0x20 DUP1 SWAP5 SWAP6 DUP5 ADD ADD MSTORE PUSH1 0x1F DUP1 NOT SWAP2 ADD AND ADD ADD SWAP1 JUMP JUMPDEST DUP1 PUSH1 0x20 DUP1 SWAP3 DUP5 ADD ADD MLOAD DUP3 DUP3 DUP7 ADD ADD MSTORE ADD PUSH2 0x11FF JUMP JUMPDEST DUP2 PUSH1 0x1F DUP3 ADD SLT ISZERO PUSH2 0x6D8 JUMPI DUP1 CALLDATALOAD SWAP1 PUSH1 0x1 PUSH1 0x1 PUSH1 0x40 SHL SUB DUP3 GT PUSH2 0x4D6 JUMPI PUSH1 0x40 MLOAD SWAP3 PUSH2 0x1269 PUSH1 0x1F DUP5 ADD PUSH1 0x1F NOT AND PUSH1 0x20 ADD DUP6 PUSH2 0x112F JUMP JUMPDEST DUP3 DUP5 MSTORE PUSH1 0x20 DUP4 DUP4 ADD ADD GT PUSH2 0x6D8 JUMPI DUP2 PUSH1 0x0 SWAP3 PUSH1 0x20 DUP1 SWAP4 ADD DUP4 DUP7 ADD CALLDATACOPY DUP4 ADD ADD MSTORE SWAP1 JUMP JUMPDEST ISZERO PUSH2 0x1292 JUMPI JUMP JUMPDEST PUSH1 0x40 MLOAD PUSH3 0x461BCD PUSH1 0xE5 SHL DUP2 MSTORE PUSH1 0x20 PUSH1 0x4 DUP3 ADD MSTORE PUSH1 0x27 PUSH1 0x24 DUP3 ADD MSTORE PUSH32 0x43757272656E74207072696365206D7573742062652067726561746572207468 PUSH1 0x44 DUP3 ADD MSTORE PUSH7 0x616E207A65726F PUSH1 0xC8 SHL PUSH1 0x64 DUP3 ADD MSTORE PUSH1 0x84 SWAP1 REVERT JUMPDEST ISZERO PUSH2 0x12EE JUMPI JUMP JUMPDEST PUSH1 0x64 PUSH1 0x40 MLOAD PUSH3 0x461BCD PUSH1 0xE5 SHL DUP2 MSTORE PUSH1 0x20 PUSH1 0x4 DUP3 ADD MSTORE PUSH1 0x20 PUSH1 0x24 DUP3 ADD MSTORE PUSH32 0x526174696E672073686F756C64206265206265747765656E203020616E642035 PUSH1 0x44 DUP3 ADD MSTORE REVERT INVALID LOG2 PUSH5 0x6970667358 0x22 SLT KECCAK256 PUSH1 0xF5 0xBA PUSH30 0x678F83A15A1F06B73271F35404D834CBBAE362C3F85E59C157683D306473 PUSH16 0x6C634300081C00330000000000000000 "},"methodIdentifiers":{"buyProduct(uint256)":"8642269e","getProduct(uint256)":"b9db15b4","productCount()":"e0f6ef87","products(uint256)":"7acc0b20","updateProductInfo(uint256,string,string,string,uint256,uint256,uint256,uint256)":"822febfb","uploadProduct(string,string,string,uint256,uint256,uint256,uint256,bool,uint256)":"f56fa78a"}}}}}