{"contracts/MedicalRecords.sol":{"MedicalRecords":{"abi":[{"inputs":[],"stateMutability":"nonpayable","type":"constructor"},{"inputs":[{"internalType":"address","name":"owner","type":"address"}],"name":"OwnableInvalidOwner","type":"error"},{"inputs":[{"internalType":"address","name":"account","type":"address"}],"name":"OwnableUnauthorizedAccount","type":"error"},{"anonymous":false,"inputs":[{"indexed":true,"internalType":"string","name":"recordId","type":"string"},{"indexed":true,"internalType":"address","name":"doctor","type":"address"},{"indexed":false,"internalType":"uint256","name":"expiry","type":"uint256"}],"name":"AccessGranted","type":"event"},{"anonymous":false,"inputs":[{"indexed":true,"internalType":"string","name":"recordId","type":"string"},{"indexed":true,"internalType":"address","name":"doctor","type":"address"},{"indexed":false,"internalType":"uint256","name":"revokedAt","type":"uint256"}],"name":"AccessRevoked","type":"event"},{"anonymous":false,"inputs":[{"indexed":true,"internalType":"address","name":"previousOwner","type":"address"},{"indexed":true,"internalType":"address","name":"newOwner","type":"address"}],"name":"OwnershipTransferred","type":"event"},{"anonymous":false,"inputs":[{"indexed":true,"internalType":"string","name":"recordId","type":"string"},{"indexed":true,"internalType":"address","name":"owner","type":"address"}],"name":"RecordUploaded","type":"event"},{"inputs":[{"internalType":"string","name":"recordId","type":"string"},{"internalType":"address","name":"doctor","type":"address"}],"name":"checkAccessExpiry","outputs":[{"internalType":"uint256","name":"","type":"uint256"}],"stateMutability":"view","type":"function"},{"inputs":[{"internalType":"string","name":"recordId","type":"string"}],"name":"getAccessHistory","outputs":[{"components":[{"internalType":"address","name":"doctor","type":"address"},{"internalType":"uint256","name":"sharedAt","type":"uint256"},{"internalType":"uint256","name":"expiresAt","type":"uint256"}],"internalType":"struct MedicalRecords.AccessLog[]","name":"","type":"tuple[]"}],"stateMutability":"view","type":"function"},{"inputs":[{"internalType":"address","name":"_owner","type":"address"}],"name":"getRecordsByOwner","outputs":[{"internalType":"string[]","name":"ownerRecordIds","type":"string[]"},{"internalType":"string[][]","name":"cidsList","type":"string[][]"},{"internalType":"string[]","name":"names","type":"string[]"},{"internalType":"uint8[]","name":"ages","type":"uint8[]"},{"internalType":"string[]","name":"genders","type":"string[]"},{"internalType":"string[]","name":"bloodPressures","type":"string[]"},{"internalType":"string[]","name":"heartRates","type":"string[]"},{"internalType":"string[]","name":"temperatures","type":"string[]"},{"internalType":"string[]","name":"diseaseGroup","type":"string[]"},{"internalType":"string[]","name":"description","type":"string[]"},{"internalType":"address[]","name":"owners","type":"address[]"}],"stateMutability":"view","type":"function"},{"inputs":[{"internalType":"address","name":"doctor","type":"address"}],"name":"getRecordsSharedWithMe","outputs":[{"internalType":"string[]","name":"sharedRecordIds","type":"string[]"},{"internalType":"string[][]","name":"cidsList","type":"string[][]"},{"internalType":"string[]","name":"names","type":"string[]"},{"internalType":"uint8[]","name":"ages","type":"uint8[]"},{"internalType":"string[]","name":"genders","type":"string[]"},{"internalType":"string[]","name":"bloodPressures","type":"string[]"},{"internalType":"string[]","name":"heartRates","type":"string[]"},{"internalType":"string[]","name":"temperatures","type":"string[]"},{"internalType":"string[]","name":"diseaseGroup","type":"string[]"},{"internalType":"string[]","name":"description","type":"string[]"},{"internalType":"address[]","name":"owners","type":"address[]"}],"stateMutability":"view","type":"function"},{"inputs":[{"internalType":"string","name":"recordId","type":"string"},{"internalType":"address","name":"doctor","type":"address"},{"internalType":"uint256","name":"duration","type":"uint256"}],"name":"grantAccess","outputs":[],"stateMutability":"nonpayable","type":"function"},{"inputs":[],"name":"owner","outputs":[{"internalType":"address","name":"","type":"address"}],"stateMutability":"view","type":"function"},{"inputs":[],"name":"renounceOwnership","outputs":[],"stateMutability":"nonpayable","type":"function"},{"inputs":[{"internalType":"string","name":"recordId","type":"string"},{"internalType":"address","name":"doctor","type":"address"}],"name":"revokeAccess","outputs":[],"stateMutability":"nonpayable","type":"function"},{"inputs":[{"internalType":"address","name":"newOwner","type":"address"}],"name":"transferOwnership","outputs":[],"stateMutability":"nonpayable","type":"function"},{"inputs":[{"internalType":"string","name":"recordId","type":"string"},{"internalType":"string[]","name":"_cids","type":"string[]"},{"internalType":"string","name":"_name","type":"string"},{"internalType":"uint8","name":"_age","type":"uint8"},{"internalType":"string","name":"_gender","type":"string"},{"internalType":"string","name":"_bloodPressure","type":"string"},{"internalType":"string","name":"_heartRate","type":"string"},{"internalType":"string","name":"_temperature","type":"string"},{"internalType":"string","name":"_diseaseGroup","type":"string"},{"internalType":"string","name":"_description","type":"string"}],"name":"uploadRecord","outputs":[],"stateMutability":"nonpayable","type":"function"}],"evm":{"bytecode":{"linkReferences":{},"object":"608080604052346075573315605f5760008054336001600160a01b0319821681178355916001600160a01b03909116907f8be0079c531659141344cd1fd0a4f28419497f9722a3daafe3b4186f6b6457e09080a3611a18908161007b8239f35b631e4fbdf760e01b600052600060045260246000fd5b600080fdfe6080604052600436101561001257600080fd5b60003560e01c8063552d710514610f455780636910dd2a14610c9e5780636c2b8226146108e3578063715018a61461088a5780638117eada146106db5780638da5cb5b146106b2578063aec36904146105e9578063dfe0b5fe14610424578063e5492e2b146101185763f2fde38b1461008a57600080fd5b34610113576020366003190112610113576100a3611241565b6100ab6119b9565b6001600160a01b031680156100fd57600080546001600160a01b03198116831782556001600160a01b0316907f8be0079c531659141344cd1fd0a4f28419497f9722a3daafe3b4186f6b6457e09080a3005b631e4fbdf760e01b600052600060045260246000fd5b600080fd5b34610113576060366003190112610113576004356001600160401b03811161011357610148903690600401611505565b6024356001600160a01b03811691908290036101135760443590604051918151926009602084019461017b818488611257565b600190830190815282900360200190912001546001600160a01b031633036103df576101a8841515611974565b801561038f57600a60405160208185516101c381838a611257565b8101600181520301902001846000526020526040600020548015908115610384575b50156103405742019182421161032a5761023a6020600b92600a60405183818851610211818388611257565b810160018152030190200187600052825285604060002055604051809381928751928391611257565b81016001815203019020019060405191610253836114c9565b84835260208301914283526040840193858552825492600160401b84101561031457600184018082558410156102fe577fcd5010f0cf521705dc993ca35e5b2fd59371fb9516f4c5dab9cd77693bbf92b0956020956102f4956002936000526003886000209102019360018060a01b039060018060a01b03905116166bffffffffffffffffffffffff60a01b85541617845551600184015551910155611954565b92604051908152a3005b634e487b7160e01b600052603260045260246000fd5b634e487b7160e01b600052604160045260246000fd5b634e487b7160e01b600052601160045260246000fd5b606460405162461bcd60e51b815260206004820152602060248201527f446f63746f7220616c72656164792068617320616374697665206163636573736044820152fd5b9050421015856101e5565b60405162461bcd60e51b815260206004820152602260248201527f4475726174696f6e206d7573742062652067726561746572207468616e207a65604482015261726f60f01b6064820152608490fd5b60405162461bcd60e51b815260206004820152601b60248201527f4f6e6c79206f776e65722063616e206772616e742061636365737300000000006044820152606490fd5b346101135761043236611572565b604051908251916009602085019361044b818487611257565b600190830190815282900360200190912001546001600160a01b031633036105a4576001600160a01b031691610482831515611974565b600a6040516020818451610497818389611257565b81016001815203019020018360005260205260406000205480156105605742101561052257600a6104d860206104f694604051809381928751928391611257565b81016001815203019020018360005260205260006040812055611954565b7ff7eb47ecbc62e098414c8565b83461841e3ae69f64ad0da8609abefecaec86ad6020604051428152a3005b60405162461bcd60e51b81526020600482015260166024820152751058d8d95cdcc8185b1c9958591e48195e1c1a5c995960521b6044820152606490fd5b606460405162461bcd60e51b815260206004820152602060248201527f4e6f20616363657373206772616e74656420746f207468697320646f63746f726044820152fd5b60405162461bcd60e51b815260206004820152601c60248201527f4f6e6c79206f776e65722063616e207265766f6b6520616363657373000000006044820152606490fd5b34610113576105f736611572565b9060405181519060096020840192610610818486611257565b600190830190815282900360200190912001546001600160a01b03161561067557602061064b91600a93604051938492839251928391611257565b81016001815203019020019060018060a01b03166000526020526020604060002054604051908152f35b60405162461bcd60e51b8152602060048201526015602482015274149958dbdc9908191bd95cc81b9bdd08195e1a5cdd605a1b6044820152606490fd5b34610113576000366003190112610113576000546040516001600160a01b039091168152602090f35b34610113576020366003190112610113576004356001600160401b0381116101135761070b903690600401611505565b60405181519060096020840192610723818486611257565b600190830190815282900360200190912001546001600160a01b0316330361084557602061075f91600b93604051938492839251928391611257565b81016001815203019020018054906107768261155b565b9161078460405193846114e4565b80835260208301809260005260206000206000915b8383106108075784866040519182916020830190602084525180915260408301919060005b8181106107cc575050500390f35b825180516001600160a01b031685526020818101518187015260409182015191860191909152869550606090940193909201916001016107be565b6003602060019260405161081a816114c9565b848060a01b038654168152848601548382015260028601546040820152815201920192019190610799565b60405162461bcd60e51b815260206004820152601b60248201527f4f6e6c79206f776e65722063616e207669657720686973746f727900000000006044820152606490fd5b34610113576000366003190112610113576108a36119b9565b600080546001600160a01b0319811682556001600160a01b03167f8be0079c531659141344cd1fd0a4f28419497f9722a3daafe3b4186f6b6457e08280a3005b3461011357610140366003190112610113576004356001600160401b03811161011357610914903690600401611505565b6024356001600160401b038111610113573660238201121561011357806004013561093e8161155b565b9161094c60405193846114e4565b8183526024602084019260051b820101903682116101135760248101925b828410610c6f5785856044356001600160401b03811161011357610992903690600401611505565b906064359260ff8416809403610113576084356001600160401b038111610113576109c1903690600401611505565b60a4356001600160401b038111610113576109e0903690600401611505565b60c4356001600160401b038111610113576109ff903690600401611505565b60e4356001600160401b03811161011357610a1e903690600401611505565b90610104356001600160401b03811161011357610a3f903690600401611505565b92610124356001600160401b03811161011357610a60903690600401611505565b94865115610c3c57604051875190600960208a0192610a80818486611257565b600190830190815282900360200190912001546001600160a01b0316610c06576020610ab791604051809381928c51928391611257565b6001908201908152030190206009810180546001600160a01b031916331790559960005b8951811015610b3a57610aee818b611739565b51908c54600160401b81101561031457808e6001610b0e930181556115ce565b610b2457600192610b1e91611849565b01610adb565b634e487b7160e01b600052600060045260246000fd5b50600894610b8e8c95610b85610ba096610b7c8f97610b9797610b65610ba69f9e9a60018e01611849565b60028c019060ff1982541617905560038b01611849565b60048901611849565b60058701611849565b60068501611849565b60078301611849565b01611849565b600254600160401b81101561031457806001610bc7920160025560026115ce565b610b245781610bd591611849565b610bdf3391611954565b7f5613b0ea20e0c0c2c37e5dee1b46009ee8b652c2f475d4d1057ef06a6a5b8c0c600080a3005b60405162461bcd60e51b815260206004820152600e60248201526d416c72656164792065786973747360901b6044820152606490fd5b60405162461bcd60e51b815260206004820152600b60248201526a1251081c995c5d5a5c995960aa1b6044820152606490fd5b83356001600160401b03811161011357602091610c93839260243691870101611505565b81520193019261096a565b3461011357602036600319011261011357610cb7611241565b600254906000906001600160a01b0316815b838110610ee35750610cda826116bd565b90610ce4836116bd565b92610cee816116bd565b610cf782611707565b610d00836116bd565b610d09846116bd565b610d12856116bd565b91610d1c866116bd565b93610d26876116bd565b95610d39610d33896116bd565b98611707565b98600090818e5b8110610d6057505050610d5c999a9b506040519b8c9b8c6112eb565b0390f35b8b828f8f8c8f928f928c8f928f928e918e916040610d86610d808f6115b3565b50611620565b9b6000908152600a8d01602052204290541180610ecc575b610db8575b5050505050505050505050506001018e610d40565b97610e7f8d9f809c989960019f610eb29f9d97839c610e1b610eac9f8e610e6b610e999f899f90610e5e610e8c9f8c9f938d9a610e3e8c809794610e729f828097610e1b60059f8f9084610e2b91610e1b610e15610e31996115b3565b5061174d565b610e258383611739565b52611739565b506117f1565b50610e1b60018c0161174d565b50610e518360ff60028b01541692611739565b52610e1b6003880161174d565b50610e1b6004850161174d565b500161174d565b50610e1b60068b0161174d565b50610e1b6007880161174d565b50610e1b6008850161174d565b506009878060a01b039101541692611739565b526116ae565b9290508b388f8f8c8f928f928c8f928f928e918e91610da3565b5060098b01546001600160a01b03168e1415610d9e565b610eef610d80826115b3565b8260406000828152600a840160205220429054119182610f2d575b5050610f19575b600101610cc9565b91610f256001916116ae565b929050610f11565b600901546001600160a01b0316141590508286610f0a565b3461011357602036600319011261011357610f5e611241565b600254906000906001600160a01b0316815b8381106111fc5750610f81826116bd565b91610f8b816116bd565b93610f95826116bd565b610f9e83611707565b610fa7846116bd565b610fb0856116bd565b90610fba866116bd565b92610fc4876116bd565b94610fce886116bd565b968b610fe2610fdc8b6116bd565b9a611707565b9a8c60009283915b85831061100957610d5c8f8f8f8f8f8f8f8f8f6040519b8c9b8c6112eb565b8c8f928f928c8f928f928c8f928f928c6110228d6115b3565b506001600160a01b039060099061103890611620565b01541614611056575b50505050505050505050506001018e8e610fea565b928b9d9b989694928c9b9a989694928c93846110718d6115b3565b5061107b90611620565b9c611085906115b3565b5061108f9061174d565b6110998284611739565b526110a391611739565b50836110ae8c6117f1565b6110b88284611739565b526110c291611739565b50826110d060018c0161174d565b6110da8284611739565b526110e491611739565b50600289015460ff16916110f791611739565b52886111056003890161174d565b61110f8284611739565b5261111991611739565b50876111276004880161174d565b6111318284611739565b5261113b91611739565b50866111496005870161174d565b6111538284611739565b5261115d91611739565b508561116b6006860161174d565b6111758284611739565b5261117f91611739565b508461118d6007850161174d565b6111978284611739565b526111a191611739565b50836111af6008840161174d565b6111b98284611739565b526111c391611739565b50600901546001600160a01b0316916111db91611739565b526111e5906116ae565b918c8f8f8c8f928f928c8f928f928e918e91611041565b81611206826115b3565b506001600160a01b039060099061121c90611620565b0154161461122d575b600101610f70565b916112396001916116ae565b929050611225565b600435906001600160a01b038216820361011357565b60005b83811061126a5750506000910152565b818101518382015260200161125a565b9080602083519182815201916020808360051b8301019401926000915b8383106112a657505050505090565b909192939460208080600193601f1986820301875289516112d281518092818552858086019101611257565b601f01601f191601019701959491909101920190611297565b999897969594929190611308906101608c526101608c019061127a565b918a830360208c0152815180845260208401936020808360051b8301019401946000915b838310611439575050505061134992508a820360408c015261127a565b88810360608a01526020808451928381520193019060005b818110611420575050506113da9695936113a06113bc94611392856113ae958d6080816113cb9d9a0391015261127a565b908b820360a08d015261127a565b9089820360c08b015261127a565b9087820360e089015261127a565b9085820361010087015261127a565b9083820361012085015261127a565b906101408183039101526020808351928381520192019060005b8181106114015750505090565b82516001600160a01b03168452602093840193909201916001016113f4565b825160ff16855260209485019490920191600101611361565b9091929394601f19828203018352865190815180825260208201906020808260051b85010194019260005b82811061148757505050505060208060019298019301930191959493929061132c565b909192939460208080600193601f1987820301895289516114b381518092818552858086019101611257565b601f01601f191601019701950193929101611464565b606081019081106001600160401b0382111761031457604052565b90601f801991011681019081106001600160401b0382111761031457604052565b81601f82011215610113578035906001600160401b0382116103145760405192611539601f8401601f1916602001856114e4565b8284526020838301011161011357816000926020809301838601378301015290565b6001600160401b0381116103145760051b60200190565b604060031982011261011357600435906001600160401b0382116101135761159c91600401611505565b906024356001600160a01b03811681036101135790565b6002548110156102fe57600260005260206000200190600090565b80548210156102fe5760005260206000200190600090565b90600182811c92168015611616575b602083101461160057565b634e487b7160e01b600052602260045260246000fd5b91607f16916115f5565b60405190816000825492611633846115e6565b93600181169081156116945750600114611658575b5060209250600181520301902090565b9150506000528160206000206000905b83821061167c575050602091810138611648565b60209192508060019154848701520191018391611668565b60ff19168452506020938015150283019150389050611648565b600019811461032a5760010190565b906116c78261155b565b6116d460405191826114e4565b828152602081936116e7601f199161155b565b01910160005b8281106116f957505050565b6060828201526020016116ed565b906117118261155b565b61171e60405191826114e4565b828152809261172f601f199161155b565b0190602036910137565b80518210156102fe5760209160051b010190565b9060405191826000825492611761846115e6565b80845293600181169081156117cf5750600114611788575b50611786925003836114e4565b565b90506000929192526020600020906000915b8183106117b35750509060206117869282010138611779565b602091935080600191548385890101520191019091849261179a565b90506020925061178694915060ff191682840152151560051b82010138611779565b9081546117fd8161155b565b9261180b60405194856114e4565b818452602084019060005260206000206000915b83831061182c5750505050565b60016020819261183b8561174d565b81520192019201919061181f565b91909182516001600160401b0381116103145761186682546115e6565b601f811161190c575b506020601f82116001146118aa578192939460009261189f575b50508160011b916000199060031b1c1916179055565b015190503880611889565b601f1982169083600052806000209160005b8181106118f4575095836001959697106118db575b505050811b019055565b015160001960f88460031b161c191690553880806118d1565b9192602060018192868b0151815501940192016118bc565b826000526020600020601f830160051c8101916020841061194a575b601f0160051c01905b81811061193e575061186f565b60008155600101611931565b9091508190611928565b61196c90602060405192828480945193849201611257565b810103902090565b1561197b57565b60405162461bcd60e51b8152602060048201526016602482015275496e76616c696420646f63746f72206164647265737360501b6044820152606490fd5b6000546001600160a01b031633036119cd57565b63118cdaa760e01b6000523360045260246000fdfea2646970667358221220a53618952420db59d11fb22f04171208b26d374fc4b839a41083d6407571d84d64736f6c634300081c0033","opcodes":"PUSH1 0x80 DUP1 PUSH1 0x40 MSTORE CALLVALUE PUSH1 0x75 JUMPI CALLER ISZERO PUSH1 0x5F JUMPI PUSH1 0x0 DUP1 SLOAD CALLER PUSH1 0x1 PUSH1 0x1 PUSH1 0xA0 SHL SUB NOT DUP3 AND DUP2 OR DUP4 SSTORE SWAP2 PUSH1 0x1 PUSH1 0x1 PUSH1 0xA0 SHL SUB SWAP1 SWAP2 AND SWAP1 PUSH32 0x8BE0079C531659141344CD1FD0A4F28419497F9722A3DAAFE3B4186F6B6457E0 SWAP1 DUP1 LOG3 PUSH2 0x1A18 SWAP1 DUP2 PUSH2 0x7B DUP3 CODECOPY RETURN JUMPDEST PUSH4 0x1E4FBDF7 PUSH1 0xE0 SHL PUSH1 0x0 MSTORE PUSH1 0x0 PUSH1 0x4 MSTORE PUSH1 0x24 PUSH1 0x0 REVERT JUMPDEST PUSH1 0x0 DUP1 REVERT INVALID PUSH1 0x80 PUSH1 0x40 MSTORE PUSH1 0x4 CALLDATASIZE LT ISZERO PUSH2 0x12 JUMPI PUSH1 0x0 DUP1 REVERT JUMPDEST PUSH1 0x0 CALLDATALOAD PUSH1 0xE0 SHR DUP1 PUSH4 0x552D7105 EQ PUSH2 0xF45 JUMPI DUP1 PUSH4 0x6910DD2A EQ PUSH2 0xC9E JUMPI DUP1 PUSH4 0x6C2B8226 EQ PUSH2 0x8E3 JUMPI DUP1 PUSH4 0x715018A6 EQ PUSH2 0x88A JUMPI DUP1 PUSH4 0x8117EADA EQ PUSH2 0x6DB JUMPI DUP1 PUSH4 0x8DA5CB5B EQ PUSH2 0x6B2 JUMPI DUP1 PUSH4 0xAEC36904 EQ PUSH2 0x5E9 JUMPI DUP1 PUSH4 0xDFE0B5FE EQ PUSH2 0x424 JUMPI DUP1 PUSH4 0xE5492E2B EQ PUSH2 0x118 JUMPI PUSH4 0xF2FDE38B EQ PUSH2 0x8A JUMPI PUSH1 0x0 DUP1 REVERT JUMPDEST CALLVALUE PUSH2 0x113 JUMPI PUSH1 0x20 CALLDATASIZE PUSH1 0x3 NOT ADD SLT PUSH2 0x113 JUMPI PUSH2 0xA3 PUSH2 0x1241 JUMP JUMPDEST PUSH2 0xAB PUSH2 0x19B9 JUMP JUMPDEST PUSH1 0x1 PUSH1 0x1 PUSH1 0xA0 SHL SUB AND DUP1 ISZERO PUSH2 0xFD JUMPI PUSH1 0x0 DUP1 SLOAD PUSH1 0x1 PUSH1 0x1 PUSH1 0xA0 SHL SUB NOT DUP2 AND DUP4 OR DUP3 SSTORE PUSH1 0x1 PUSH1 0x1 PUSH1 0xA0 SHL SUB AND SWAP1 PUSH32 0x8BE0079C531659141344CD1FD0A4F28419497F9722A3DAAFE3B4186F6B6457E0 SWAP1 DUP1 LOG3 STOP JUMPDEST PUSH4 0x1E4FBDF7 PUSH1 0xE0 SHL PUSH1 0x0 MSTORE PUSH1 0x0 PUSH1 0x4 MSTORE PUSH1 0x24 PUSH1 0x0 REVERT JUMPDEST PUSH1 0x0 DUP1 REVERT JUMPDEST CALLVALUE PUSH2 0x113 JUMPI PUSH1 0x60 CALLDATASIZE PUSH1 0x3 NOT ADD SLT PUSH2 0x113 JUMPI PUSH1 0x4 CALLDATALOAD PUSH1 0x1 PUSH1 0x1 PUSH1 0x40 SHL SUB DUP2 GT PUSH2 0x113 JUMPI PUSH2 0x148 SWAP1 CALLDATASIZE SWAP1 PUSH1 0x4 ADD PUSH2 0x1505 JUMP JUMPDEST PUSH1 0x24 CALLDATALOAD PUSH1 0x1 PUSH1 0x1 PUSH1 0xA0 SHL SUB DUP2 AND SWAP2 SWAP1 DUP3 SWAP1 SUB PUSH2 0x113 JUMPI PUSH1 0x44 CALLDATALOAD SWAP1 PUSH1 0x40 MLOAD SWAP2 DUP2 MLOAD SWAP3 PUSH1 0x9 PUSH1 0x20 DUP5 ADD SWAP5 PUSH2 0x17B DUP2 DUP5 DUP9 PUSH2 0x1257 JUMP JUMPDEST PUSH1 0x1 SWAP1 DUP4 ADD SWAP1 DUP2 MSTORE DUP3 SWAP1 SUB PUSH1 0x20 ADD SWAP1 SWAP2 KECCAK256 ADD SLOAD PUSH1 0x1 PUSH1 0x1 PUSH1 0xA0 SHL SUB AND CALLER SUB PUSH2 0x3DF JUMPI PUSH2 0x1A8 DUP5 ISZERO ISZERO PUSH2 0x1974 JUMP JUMPDEST DUP1 ISZERO PUSH2 0x38F JUMPI PUSH1 0xA PUSH1 0x40 MLOAD PUSH1 0x20 DUP2 DUP6 MLOAD PUSH2 0x1C3 DUP2 DUP4 DUP11 PUSH2 0x1257 JUMP JUMPDEST DUP2 ADD PUSH1 0x1 DUP2 MSTORE SUB ADD SWAP1 KECCAK256 ADD DUP5 PUSH1 0x0 MSTORE PUSH1 0x20 MSTORE PUSH1 0x40 PUSH1 0x0 KECCAK256 SLOAD DUP1 ISZERO SWAP1 DUP2 ISZERO PUSH2 0x384 JUMPI JUMPDEST POP ISZERO PUSH2 0x340 JUMPI TIMESTAMP ADD SWAP2 DUP3 TIMESTAMP GT PUSH2 0x32A JUMPI PUSH2 0x23A PUSH1 0x20 PUSH1 0xB SWAP3 PUSH1 0xA PUSH1 0x40 MLOAD DUP4 DUP2 DUP9 MLOAD PUSH2 0x211 DUP2 DUP4 DUP9 PUSH2 0x1257 JUMP JUMPDEST DUP2 ADD PUSH1 0x1 DUP2 MSTORE SUB ADD SWAP1 KECCAK256 ADD DUP8 PUSH1 0x0 MSTORE DUP3 MSTORE DUP6 PUSH1 0x40 PUSH1 0x0 KECCAK256 SSTORE PUSH1 0x40 MLOAD DUP1 SWAP4 DUP2 SWAP3 DUP8 MLOAD SWAP3 DUP4 SWAP2 PUSH2 0x1257 JUMP JUMPDEST DUP2 ADD PUSH1 0x1 DUP2 MSTORE SUB ADD SWAP1 KECCAK256 ADD SWAP1 PUSH1 0x40 MLOAD SWAP2 PUSH2 0x253 DUP4 PUSH2 0x14C9 JUMP JUMPDEST DUP5 DUP4 MSTORE PUSH1 0x20 DUP4 ADD SWAP2 TIMESTAMP DUP4 MSTORE PUSH1 0x40 DUP5 ADD SWAP4 DUP6 DUP6 MSTORE DUP3 SLOAD SWAP3 PUSH1 0x1 PUSH1 0x40 SHL DUP5 LT ISZERO PUSH2 0x314 JUMPI PUSH1 0x1 DUP5 ADD DUP1 DUP3 SSTORE DUP5 LT ISZERO PUSH2 0x2FE JUMPI PUSH32 0xCD5010F0CF521705DC993CA35E5B2FD59371FB9516F4C5DAB9CD77693BBF92B0 SWAP6 PUSH1 0x20 SWAP6 PUSH2 0x2F4 SWAP6 PUSH1 0x2 SWAP4 PUSH1 0x0 MSTORE PUSH1 0x3 DUP9 PUSH1 0x0 KECCAK256 SWAP2 MUL ADD SWAP4 PUSH1 0x1 DUP1 PUSH1 0xA0 SHL SUB SWAP1 PUSH1 0x1 DUP1 PUSH1 0xA0 SHL SUB SWAP1 MLOAD AND AND PUSH12 0xFFFFFFFFFFFFFFFFFFFFFFFF PUSH1 0xA0 SHL DUP6 SLOAD AND OR DUP5 SSTORE MLOAD PUSH1 0x1 DUP5 ADD SSTORE MLOAD SWAP2 ADD SSTORE PUSH2 0x1954 JUMP JUMPDEST SWAP3 PUSH1 0x40 MLOAD SWAP1 DUP2 MSTORE LOG3 STOP JUMPDEST PUSH4 0x4E487B71 PUSH1 0xE0 SHL PUSH1 0x0 MSTORE PUSH1 0x32 PUSH1 0x4 MSTORE PUSH1 0x24 PUSH1 0x0 REVERT JUMPDEST PUSH4 0x4E487B71 PUSH1 0xE0 SHL PUSH1 0x0 MSTORE PUSH1 0x41 PUSH1 0x4 MSTORE PUSH1 0x24 PUSH1 0x0 REVERT JUMPDEST PUSH4 0x4E487B71 PUSH1 0xE0 SHL PUSH1 0x0 MSTORE PUSH1 0x11 PUSH1 0x4 MSTORE PUSH1 0x24 PUSH1 0x0 REVERT JUMPDEST PUSH1 0x64 PUSH1 0x40 MLOAD PUSH3 0x461BCD PUSH1 0xE5 SHL DUP2 MSTORE PUSH1 0x20 PUSH1 0x4 DUP3 ADD MSTORE PUSH1 0x20 PUSH1 0x24 DUP3 ADD MSTORE PUSH32 0x446F63746F7220616C7265616479206861732061637469766520616363657373 PUSH1 0x44 DUP3 ADD MSTORE REVERT JUMPDEST SWAP1 POP TIMESTAMP LT ISZERO DUP6 PUSH2 0x1E5 JUMP JUMPDEST PUSH1 0x40 MLOAD PUSH3 0x461BCD PUSH1 0xE5 SHL DUP2 MSTORE PUSH1 0x20 PUSH1 0x4 DUP3 ADD MSTORE PUSH1 0x22 PUSH1 0x24 DUP3 ADD MSTORE PUSH32 0x4475726174696F6E206D7573742062652067726561746572207468616E207A65 PUSH1 0x44 DUP3 ADD MSTORE PUSH2 0x726F PUSH1 0xF0 SHL PUSH1 0x64 DUP3 ADD MSTORE PUSH1 0x84 SWAP1 REVERT JUMPDEST PUSH1 0x40 MLOAD PUSH3 0x461BCD PUSH1 0xE5 SHL DUP2 MSTORE PUSH1 0x20 PUSH1 0x4 DUP3 ADD MSTORE PUSH1 0x1B PUSH1 0x24 DUP3 ADD MSTORE PUSH32 0x4F6E6C79206F776E65722063616E206772616E74206163636573730000000000 PUSH1 0x44 DUP3 ADD MSTORE PUSH1 0x64 SWAP1 REVERT JUMPDEST CALLVALUE PUSH2 0x113 JUMPI PUSH2 0x432 CALLDATASIZE PUSH2 0x1572 JUMP JUMPDEST PUSH1 0x40 MLOAD SWAP1 DUP3 MLOAD SWAP2 PUSH1 0x9 PUSH1 0x20 DUP6 ADD SWAP4 PUSH2 0x44B DUP2 DUP5 DUP8 PUSH2 0x1257 JUMP JUMPDEST PUSH1 0x1 SWAP1 DUP4 ADD SWAP1 DUP2 MSTORE DUP3 SWAP1 SUB PUSH1 0x20 ADD SWAP1 SWAP2 KECCAK256 ADD SLOAD PUSH1 0x1 PUSH1 0x1 PUSH1 0xA0 SHL SUB AND CALLER SUB PUSH2 0x5A4 JUMPI PUSH1 0x1 PUSH1 0x1 PUSH1 0xA0 SHL SUB AND SWAP2 PUSH2 0x482 DUP4 ISZERO ISZERO PUSH2 0x1974 JUMP JUMPDEST PUSH1 0xA PUSH1 0x40 MLOAD PUSH1 0x20 DUP2 DUP5 MLOAD PUSH2 0x497 DUP2 DUP4 DUP10 PUSH2 0x1257 JUMP JUMPDEST DUP2 ADD PUSH1 0x1 DUP2 MSTORE SUB ADD SWAP1 KECCAK256 ADD DUP4 PUSH1 0x0 MSTORE PUSH1 0x20 MSTORE PUSH1 0x40 PUSH1 0x0 KECCAK256 SLOAD DUP1 ISZERO PUSH2 0x560 JUMPI TIMESTAMP LT ISZERO PUSH2 0x522 JUMPI PUSH1 0xA PUSH2 0x4D8 PUSH1 0x20 PUSH2 0x4F6 SWAP5 PUSH1 0x40 MLOAD DUP1 SWAP4 DUP2 SWAP3 DUP8 MLOAD SWAP3 DUP4 SWAP2 PUSH2 0x1257 JUMP JUMPDEST DUP2 ADD PUSH1 0x1 DUP2 MSTORE SUB ADD SWAP1 KECCAK256 ADD DUP4 PUSH1 0x0 MSTORE PUSH1 0x20 MSTORE PUSH1 0x0 PUSH1 0x40 DUP2 KECCAK256 SSTORE PUSH2 0x1954 JUMP JUMPDEST PUSH32 0xF7EB47ECBC62E098414C8565B83461841E3AE69F64AD0DA8609ABEFECAEC86AD PUSH1 0x20 PUSH1 0x40 MLOAD TIMESTAMP DUP2 MSTORE LOG3 STOP JUMPDEST PUSH1 0x40 MLOAD PUSH3 0x461BCD PUSH1 0xE5 SHL DUP2 MSTORE PUSH1 0x20 PUSH1 0x4 DUP3 ADD MSTORE PUSH1 0x16 PUSH1 0x24 DUP3 ADD MSTORE PUSH22 0x1058D8D95CDCC8185B1C9958591E48195E1C1A5C9959 PUSH1 0x52 SHL PUSH1 0x44 DUP3 ADD MSTORE PUSH1 0x64 SWAP1 REVERT JUMPDEST PUSH1 0x64 PUSH1 0x40 MLOAD PUSH3 0x461BCD PUSH1 0xE5 SHL DUP2 MSTORE PUSH1 0x20 PUSH1 0x4 DUP3 ADD MSTORE PUSH1 0x20 PUSH1 0x24 DUP3 ADD MSTORE PUSH32 0x4E6F20616363657373206772616E74656420746F207468697320646F63746F72 PUSH1 0x44 DUP3 ADD MSTORE REVERT JUMPDEST PUSH1 0x40 MLOAD PUSH3 0x461BCD PUSH1 0xE5 SHL DUP2 MSTORE PUSH1 0x20 PUSH1 0x4 DUP3 ADD MSTORE PUSH1 0x1C PUSH1 0x24 DUP3 ADD MSTORE PUSH32 0x4F6E6C79206F776E65722063616E207265766F6B652061636365737300000000 PUSH1 0x44 DUP3 ADD MSTORE PUSH1 0x64 SWAP1 REVERT JUMPDEST CALLVALUE PUSH2 0x113 JUMPI PUSH2 0x5F7 CALLDATASIZE PUSH2 0x1572 JUMP JUMPDEST SWAP1 PUSH1 0x40 MLOAD DUP2 MLOAD SWAP1 PUSH1 0x9 PUSH1 0x20 DUP5 ADD SWAP3 PUSH2 0x610 DUP2 DUP5 DUP7 PUSH2 0x1257 JUMP JUMPDEST PUSH1 0x1 SWAP1 DUP4 ADD SWAP1 DUP2 MSTORE DUP3 SWAP1 SUB PUSH1 0x20 ADD SWAP1 SWAP2 KECCAK256 ADD SLOAD PUSH1 0x1 PUSH1 0x1 PUSH1 0xA0 SHL SUB AND ISZERO PUSH2 0x675 JUMPI PUSH1 0x20 PUSH2 0x64B SWAP2 PUSH1 0xA SWAP4 PUSH1 0x40 MLOAD SWAP4 DUP5 SWAP3 DUP4 SWAP3 MLOAD SWAP3 DUP4 SWAP2 PUSH2 0x1257 JUMP JUMPDEST DUP2 ADD PUSH1 0x1 DUP2 MSTORE SUB ADD SWAP1 KECCAK256 ADD SWAP1 PUSH1 0x1 DUP1 PUSH1 0xA0 SHL SUB AND PUSH1 0x0 MSTORE PUSH1 0x20 MSTORE PUSH1 0x20 PUSH1 0x40 PUSH1 0x0 KECCAK256 SLOAD PUSH1 0x40 MLOAD SWAP1 DUP2 MSTORE RETURN JUMPDEST PUSH1 0x40 MLOAD PUSH3 0x461BCD PUSH1 0xE5 SHL DUP2 MSTORE PUSH1 0x20 PUSH1 0x4 DUP3 ADD MSTORE PUSH1 0x15 PUSH1 0x24 DUP3 ADD MSTORE PUSH21 0x149958DBDC9908191BD95CC81B9BDD08195E1A5CDD PUSH1 0x5A SHL PUSH1 0x44 DUP3 ADD MSTORE PUSH1 0x64 SWAP1 REVERT JUMPDEST CALLVALUE PUSH2 0x113 JUMPI PUSH1 0x0 CALLDATASIZE PUSH1 0x3 NOT ADD SLT PUSH2 0x113 JUMPI PUSH1 0x0 SLOAD PUSH1 0x40 MLOAD PUSH1 0x1 PUSH1 0x1 PUSH1 0xA0 SHL SUB SWAP1 SWAP2 AND DUP2 MSTORE PUSH1 0x20 SWAP1 RETURN JUMPDEST CALLVALUE PUSH2 0x113 JUMPI PUSH1 0x20 CALLDATASIZE PUSH1 0x3 NOT ADD SLT PUSH2 0x113 JUMPI PUSH1 0x4 CALLDATALOAD PUSH1 0x1 PUSH1 0x1 PUSH1 0x40 SHL SUB DUP2 GT PUSH2 0x113 JUMPI PUSH2 0x70B SWAP1 CALLDATASIZE SWAP1 PUSH1 0x4 ADD PUSH2 0x1505 JUMP JUMPDEST PUSH1 0x40 MLOAD DUP2 MLOAD SWAP1 PUSH1 0x9 PUSH1 0x20 DUP5 ADD SWAP3 PUSH2 0x723 DUP2 DUP5 DUP7 PUSH2 0x1257 JUMP JUMPDEST PUSH1 0x1 SWAP1 DUP4 ADD SWAP1 DUP2 MSTORE DUP3 SWAP1 SUB PUSH1 0x20 ADD SWAP1 SWAP2 KECCAK256 ADD SLOAD PUSH1 0x1 PUSH1 0x1 PUSH1 0xA0 SHL SUB AND CALLER SUB PUSH2 0x845 JUMPI PUSH1 0x20 PUSH2 0x75F SWAP2 PUSH1 0xB SWAP4 PUSH1 0x40 MLOAD SWAP4 DUP5 SWAP3 DUP4 SWAP3 MLOAD SWAP3 DUP4 SWAP2 PUSH2 0x1257 JUMP JUMPDEST DUP2 ADD PUSH1 0x1 DUP2 MSTORE SUB ADD SWAP1 KECCAK256 ADD DUP1 SLOAD SWAP1 PUSH2 0x776 DUP3 PUSH2 0x155B JUMP JUMPDEST SWAP2 PUSH2 0x784 PUSH1 0x40 MLOAD SWAP4 DUP5 PUSH2 0x14E4 JUMP JUMPDEST DUP1 DUP4 MSTORE PUSH1 0x20 DUP4 ADD DUP1 SWAP3 PUSH1 0x0 MSTORE PUSH1 0x20 PUSH1 0x0 KECCAK256 PUSH1 0x0 SWAP2 JUMPDEST DUP4 DUP4 LT PUSH2 0x807 JUMPI DUP5 DUP7 PUSH1 0x40 MLOAD SWAP2 DUP3 SWAP2 PUSH1 0x20 DUP4 ADD SWAP1 PUSH1 0x20 DUP5 MSTORE MLOAD DUP1 SWAP2 MSTORE PUSH1 0x40 DUP4 ADD SWAP2 SWAP1 PUSH1 0x0 JUMPDEST DUP2 DUP2 LT PUSH2 0x7CC JUMPI POP POP POP SUB SWAP1 RETURN JUMPDEST DUP3 MLOAD DUP1 MLOAD PUSH1 0x1 PUSH1 0x1 PUSH1 0xA0 SHL SUB AND DUP6 MSTORE PUSH1 0x20 DUP2 DUP2 ADD MLOAD DUP2 DUP8 ADD MSTORE PUSH1 0x40 SWAP2 DUP3 ADD MLOAD SWAP2 DUP7 ADD SWAP2 SWAP1 SWAP2 MSTORE DUP7 SWAP6 POP PUSH1 0x60 SWAP1 SWAP5 ADD SWAP4 SWAP1 SWAP3 ADD SWAP2 PUSH1 0x1 ADD PUSH2 0x7BE JUMP JUMPDEST PUSH1 0x3 PUSH1 0x20 PUSH1 0x1 SWAP3 PUSH1 0x40 MLOAD PUSH2 0x81A DUP2 PUSH2 0x14C9 JUMP JUMPDEST DUP5 DUP1 PUSH1 0xA0 SHL SUB DUP7 SLOAD AND DUP2 MSTORE DUP5 DUP7 ADD SLOAD DUP4 DUP3 ADD MSTORE PUSH1 0x2 DUP7 ADD SLOAD PUSH1 0x40 DUP3 ADD MSTORE DUP2 MSTORE ADD SWAP3 ADD SWAP3 ADD SWAP2 SWAP1 PUSH2 0x799 JUMP JUMPDEST PUSH1 0x40 MLOAD PUSH3 0x461BCD PUSH1 0xE5 SHL DUP2 MSTORE PUSH1 0x20 PUSH1 0x4 DUP3 ADD MSTORE PUSH1 0x1B PUSH1 0x24 DUP3 ADD MSTORE PUSH32 0x4F6E6C79206F776E65722063616E207669657720686973746F72790000000000 PUSH1 0x44 DUP3 ADD MSTORE PUSH1 0x64 SWAP1 REVERT JUMPDEST CALLVALUE PUSH2 0x113 JUMPI PUSH1 0x0 CALLDATASIZE PUSH1 0x3 NOT ADD SLT PUSH2 0x113 JUMPI PUSH2 0x8A3 PUSH2 0x19B9 JUMP JUMPDEST PUSH1 0x0 DUP1 SLOAD PUSH1 0x1 PUSH1 0x1 PUSH1 0xA0 SHL SUB NOT DUP2 AND DUP3 SSTORE PUSH1 0x1 PUSH1 0x1 PUSH1 0xA0 SHL SUB AND PUSH32 0x8BE0079C531659141344CD1FD0A4F28419497F9722A3DAAFE3B4186F6B6457E0 DUP3 DUP1 LOG3 STOP JUMPDEST CALLVALUE PUSH2 0x113 JUMPI PUSH2 0x140 CALLDATASIZE PUSH1 0x3 NOT ADD SLT PUSH2 0x113 JUMPI PUSH1 0x4 CALLDATALOAD PUSH1 0x1 PUSH1 0x1 PUSH1 0x40 SHL SUB DUP2 GT PUSH2 0x113 JUMPI PUSH2 0x914 SWAP1 CALLDATASIZE SWAP1 PUSH1 0x4 ADD PUSH2 0x1505 JUMP JUMPDEST PUSH1 0x24 CALLDATALOAD PUSH1 0x1 PUSH1 0x1 PUSH1 0x40 SHL SUB DUP2 GT PUSH2 0x113 JUMPI CALLDATASIZE PUSH1 0x23 DUP3 ADD SLT ISZERO PUSH2 0x113 JUMPI DUP1 PUSH1 0x4 ADD CALLDATALOAD PUSH2 0x93E DUP2 PUSH2 0x155B JUMP JUMPDEST SWAP2 PUSH2 0x94C PUSH1 0x40 MLOAD SWAP4 DUP5 PUSH2 0x14E4 JUMP JUMPDEST DUP2 DUP4 MSTORE PUSH1 0x24 PUSH1 0x20 DUP5 ADD SWAP3 PUSH1 0x5 SHL DUP3 ADD ADD SWAP1 CALLDATASIZE DUP3 GT PUSH2 0x113 JUMPI PUSH1 0x24 DUP2 ADD SWAP3 JUMPDEST DUP3 DUP5 LT PUSH2 0xC6F JUMPI DUP6 DUP6 PUSH1 0x44 CALLDATALOAD PUSH1 0x1 PUSH1 0x1 PUSH1 0x40 SHL SUB DUP2 GT PUSH2 0x113 JUMPI PUSH2 0x992 SWAP1 CALLDATASIZE SWAP1 PUSH1 0x4 ADD PUSH2 0x1505 JUMP JUMPDEST SWAP1 PUSH1 0x64 CALLDATALOAD SWAP3 PUSH1 0xFF DUP5 AND DUP1 SWAP5 SUB PUSH2 0x113 JUMPI PUSH1 0x84 CALLDATALOAD PUSH1 0x1 PUSH1 0x1 PUSH1 0x40 SHL SUB DUP2 GT PUSH2 0x113 JUMPI PUSH2 0x9C1 SWAP1 CALLDATASIZE SWAP1 PUSH1 0x4 ADD PUSH2 0x1505 JUMP JUMPDEST PUSH1 0xA4 CALLDATALOAD PUSH1 0x1 PUSH1 0x1 PUSH1 0x40 SHL SUB DUP2 GT PUSH2 0x113 JUMPI PUSH2 0x9E0 SWAP1 CALLDATASIZE SWAP1 PUSH1 0x4 ADD PUSH2 0x1505 JUMP JUMPDEST PUSH1 0xC4 CALLDATALOAD PUSH1 0x1 PUSH1 0x1 PUSH1 0x40 SHL SUB DUP2 GT PUSH2 0x113 JUMPI PUSH2 0x9FF SWAP1 CALLDATASIZE SWAP1 PUSH1 0x4 ADD PUSH2 0x1505 JUMP JUMPDEST PUSH1 0xE4 CALLDATALOAD PUSH1 0x1 PUSH1 0x1 PUSH1 0x40 SHL SUB DUP2 GT PUSH2 0x113 JUMPI PUSH2 0xA1E SWAP1 CALLDATASIZE SWAP1 PUSH1 0x4 ADD PUSH2 0x1505 JUMP JUMPDEST SWAP1 PUSH2 0x104 CALLDATALOAD PUSH1 0x1 PUSH1 0x1 PUSH1 0x40 SHL SUB DUP2 GT PUSH2 0x113 JUMPI PUSH2 0xA3F SWAP1 CALLDATASIZE SWAP1 PUSH1 0x4 ADD PUSH2 0x1505 JUMP JUMPDEST SWAP3 PUSH2 0x124 CALLDATALOAD PUSH1 0x1 PUSH1 0x1 PUSH1 0x40 SHL SUB DUP2 GT PUSH2 0x113 JUMPI PUSH2 0xA60 SWAP1 CALLDATASIZE SWAP1 PUSH1 0x4 ADD PUSH2 0x1505 JUMP JUMPDEST SWAP5 DUP7 MLOAD ISZERO PUSH2 0xC3C JUMPI PUSH1 0x40 MLOAD DUP8 MLOAD SWAP1 PUSH1 0x9 PUSH1 0x20 DUP11 ADD SWAP3 PUSH2 0xA80 DUP2 DUP5 DUP7 PUSH2 0x1257 JUMP JUMPDEST PUSH1 0x1 SWAP1 DUP4 ADD SWAP1 DUP2 MSTORE DUP3 SWAP1 SUB PUSH1 0x20 ADD SWAP1 SWAP2 KECCAK256 ADD SLOAD PUSH1 0x1 PUSH1 0x1 PUSH1 0xA0 SHL SUB AND PUSH2 0xC06 JUMPI PUSH1 0x20 PUSH2 0xAB7 SWAP2 PUSH1 0x40 MLOAD DUP1 SWAP4 DUP2 SWAP3 DUP13 MLOAD SWAP3 DUP4 SWAP2 PUSH2 0x1257 JUMP JUMPDEST PUSH1 0x1 SWAP1 DUP3 ADD SWAP1 DUP2 MSTORE SUB ADD SWAP1 KECCAK256 PUSH1 0x9 DUP2 ADD DUP1 SLOAD PUSH1 0x1 PUSH1 0x1 PUSH1 0xA0 SHL SUB NOT AND CALLER OR SWAP1 SSTORE SWAP10 PUSH1 0x0 JUMPDEST DUP10 MLOAD DUP2 LT ISZERO PUSH2 0xB3A JUMPI PUSH2 0xAEE DUP2 DUP12 PUSH2 0x1739 JUMP JUMPDEST MLOAD SWAP1 DUP13 SLOAD PUSH1 0x1 PUSH1 0x40 SHL DUP2 LT ISZERO PUSH2 0x314 JUMPI DUP1 DUP15 PUSH1 0x1 PUSH2 0xB0E SWAP4 ADD DUP2 SSTORE PUSH2 0x15CE JUMP JUMPDEST PUSH2 0xB24 JUMPI PUSH1 0x1 SWAP3 PUSH2 0xB1E SWAP2 PUSH2 0x1849 JUMP JUMPDEST ADD PUSH2 0xADB JUMP JUMPDEST PUSH4 0x4E487B71 PUSH1 0xE0 SHL PUSH1 0x0 MSTORE PUSH1 0x0 PUSH1 0x4 MSTORE PUSH1 0x24 PUSH1 0x0 REVERT JUMPDEST POP PUSH1 0x8 SWAP5 PUSH2 0xB8E DUP13 SWAP6 PUSH2 0xB85 PUSH2 0xBA0 SWAP7 PUSH2 0xB7C DUP16 SWAP8 PUSH2 0xB97 SWAP8 PUSH2 0xB65 PUSH2 0xBA6 SWAP16 SWAP15 SWAP11 PUSH1 0x1 DUP15 ADD PUSH2 0x1849 JUMP JUMPDEST PUSH1 0x2 DUP13 ADD SWAP1 PUSH1 0xFF NOT DUP3 SLOAD AND OR SWAP1 SSTORE PUSH1 0x3 DUP12 ADD PUSH2 0x1849 JUMP JUMPDEST PUSH1 0x4 DUP10 ADD PUSH2 0x1849 JUMP JUMPDEST PUSH1 0x5 DUP8 ADD PUSH2 0x1849 JUMP JUMPDEST PUSH1 0x6 DUP6 ADD PUSH2 0x1849 JUMP JUMPDEST PUSH1 0x7 DUP4 ADD PUSH2 0x1849 JUMP JUMPDEST ADD PUSH2 0x1849 JUMP JUMPDEST PUSH1 0x2 SLOAD PUSH1 0x1 PUSH1 0x40 SHL DUP2 LT ISZERO PUSH2 0x314 JUMPI DUP1 PUSH1 0x1 PUSH2 0xBC7 SWAP3 ADD PUSH1 0x2 SSTORE PUSH1 0x2 PUSH2 0x15CE JUMP JUMPDEST PUSH2 0xB24 JUMPI DUP2 PUSH2 0xBD5 SWAP2 PUSH2 0x1849 JUMP JUMPDEST PUSH2 0xBDF CALLER SWAP2 PUSH2 0x1954 JUMP JUMPDEST PUSH32 0x5613B0EA20E0C0C2C37E5DEE1B46009EE8B652C2F475D4D1057EF06A6A5B8C0C PUSH1 0x0 DUP1 LOG3 STOP JUMPDEST PUSH1 0x40 MLOAD PUSH3 0x461BCD PUSH1 0xE5 SHL DUP2 MSTORE PUSH1 0x20 PUSH1 0x4 DUP3 ADD MSTORE PUSH1 0xE PUSH1 0x24 DUP3 ADD MSTORE PUSH14 0x416C726561647920657869737473 PUSH1 0x90 SHL PUSH1 0x44 DUP3 ADD MSTORE PUSH1 0x64 SWAP1 REVERT JUMPDEST PUSH1 0x40 MLOAD PUSH3 0x461BCD PUSH1 0xE5 SHL DUP2 MSTORE PUSH1 0x20 PUSH1 0x4 DUP3 ADD MSTORE PUSH1 0xB PUSH1 0x24 DUP3 ADD MSTORE PUSH11 0x1251081C995C5D5A5C9959 PUSH1 0xAA SHL PUSH1 0x44 DUP3 ADD MSTORE PUSH1 0x64 SWAP1 REVERT JUMPDEST DUP4 CALLDATALOAD PUSH1 0x1 PUSH1 0x1 PUSH1 0x40 SHL SUB DUP2 GT PUSH2 0x113 JUMPI PUSH1 0x20 SWAP2 PUSH2 0xC93 DUP4 SWAP3 PUSH1 0x24 CALLDATASIZE SWAP2 DUP8 ADD ADD PUSH2 0x1505 JUMP JUMPDEST DUP2 MSTORE ADD SWAP4 ADD SWAP3 PUSH2 0x96A JUMP JUMPDEST CALLVALUE PUSH2 0x113 JUMPI PUSH1 0x20 CALLDATASIZE PUSH1 0x3 NOT ADD SLT PUSH2 0x113 JUMPI PUSH2 0xCB7 PUSH2 0x1241 JUMP JUMPDEST PUSH1 0x2 SLOAD SWAP1 PUSH1 0x0 SWAP1 PUSH1 0x1 PUSH1 0x1 PUSH1 0xA0 SHL SUB AND DUP2 JUMPDEST DUP4 DUP2 LT PUSH2 0xEE3 JUMPI POP PUSH2 0xCDA DUP3 PUSH2 0x16BD JUMP JUMPDEST SWAP1 PUSH2 0xCE4 DUP4 PUSH2 0x16BD JUMP JUMPDEST SWAP3 PUSH2 0xCEE DUP2 PUSH2 0x16BD JUMP JUMPDEST PUSH2 0xCF7 DUP3 PUSH2 0x1707 JUMP JUMPDEST PUSH2 0xD00 DUP4 PUSH2 0x16BD JUMP JUMPDEST PUSH2 0xD09 DUP5 PUSH2 0x16BD JUMP JUMPDEST PUSH2 0xD12 DUP6 PUSH2 0x16BD JUMP JUMPDEST SWAP2 PUSH2 0xD1C DUP7 PUSH2 0x16BD JUMP JUMPDEST SWAP4 PUSH2 0xD26 DUP8 PUSH2 0x16BD JUMP JUMPDEST SWAP6 PUSH2 0xD39 PUSH2 0xD33 DUP10 PUSH2 0x16BD JUMP JUMPDEST SWAP9 PUSH2 0x1707 JUMP JUMPDEST SWAP9 PUSH1 0x0 SWAP1 DUP2 DUP15 JUMPDEST DUP2 LT PUSH2 0xD60 JUMPI POP POP POP PUSH2 0xD5C SWAP10 SWAP11 SWAP12 POP PUSH1 0x40 MLOAD SWAP12 DUP13 SWAP12 DUP13 PUSH2 0x12EB JUMP JUMPDEST SUB SWAP1 RETURN JUMPDEST DUP12 DUP3 DUP16 DUP16 DUP13 DUP16 SWAP3 DUP16 SWAP3 DUP13 DUP16 SWAP3 DUP16 SWAP3 DUP15 SWAP2 DUP15 SWAP2 PUSH1 0x40 PUSH2 0xD86 PUSH2 0xD80 DUP16 PUSH2 0x15B3 JUMP JUMPDEST POP PUSH2 0x1620 JUMP JUMPDEST SWAP12 PUSH1 0x0 SWAP1 DUP2 MSTORE PUSH1 0xA DUP14 ADD PUSH1 0x20 MSTORE KECCAK256 TIMESTAMP SWAP1 SLOAD GT DUP1 PUSH2 0xECC JUMPI JUMPDEST PUSH2 0xDB8 JUMPI JUMPDEST POP POP POP POP POP POP POP POP POP POP POP POP PUSH1 0x1 ADD DUP15 PUSH2 0xD40 JUMP JUMPDEST SWAP8 PUSH2 0xE7F DUP14 SWAP16 DUP1 SWAP13 SWAP9 SWAP10 PUSH1 0x1 SWAP16 PUSH2 0xEB2 SWAP16 SWAP14 SWAP8 DUP4 SWAP13 PUSH2 0xE1B PUSH2 0xEAC SWAP16 DUP15 PUSH2 0xE6B PUSH2 0xE99 SWAP16 DUP10 SWAP16 SWAP1 PUSH2 0xE5E PUSH2 0xE8C SWAP16 DUP13 SWAP16 SWAP4 DUP14 SWAP11 PUSH2 0xE3E DUP13 DUP1 SWAP8 SWAP5 PUSH2 0xE72 SWAP16 DUP3 DUP1 SWAP8 PUSH2 0xE1B PUSH1 0x5 SWAP16 DUP16 SWAP1 DUP5 PUSH2 0xE2B SWAP2 PUSH2 0xE1B PUSH2 0xE15 PUSH2 0xE31 SWAP10 PUSH2 0x15B3 JUMP JUMPDEST POP PUSH2 0x174D JUMP JUMPDEST PUSH2 0xE25 DUP4 DUP4 PUSH2 0x1739 JUMP JUMPDEST MSTORE PUSH2 0x1739 JUMP JUMPDEST POP PUSH2 0x17F1 JUMP JUMPDEST POP PUSH2 0xE1B PUSH1 0x1 DUP13 ADD PUSH2 0x174D JUMP JUMPDEST POP PUSH2 0xE51 DUP4 PUSH1 0xFF PUSH1 0x2 DUP12 ADD SLOAD AND SWAP3 PUSH2 0x1739 JUMP JUMPDEST MSTORE PUSH2 0xE1B PUSH1 0x3 DUP9 ADD PUSH2 0x174D JUMP JUMPDEST POP PUSH2 0xE1B PUSH1 0x4 DUP6 ADD PUSH2 0x174D JUMP JUMPDEST POP ADD PUSH2 0x174D JUMP JUMPDEST POP PUSH2 0xE1B PUSH1 0x6 DUP12 ADD PUSH2 0x174D JUMP JUMPDEST POP PUSH2 0xE1B PUSH1 0x7 DUP9 ADD PUSH2 0x174D JUMP JUMPDEST POP PUSH2 0xE1B PUSH1 0x8 DUP6 ADD PUSH2 0x174D JUMP JUMPDEST POP PUSH1 0x9 DUP8 DUP1 PUSH1 0xA0 SHL SUB SWAP2 ADD SLOAD AND SWAP3 PUSH2 0x1739 JUMP JUMPDEST MSTORE PUSH2 0x16AE JUMP JUMPDEST SWAP3 SWAP1 POP DUP12 CODESIZE DUP16 DUP16 DUP13 DUP16 SWAP3 DUP16 SWAP3 DUP13 DUP16 SWAP3 DUP16 SWAP3 DUP15 SWAP2 DUP15 SWAP2 PUSH2 0xDA3 JUMP JUMPDEST POP PUSH1 0x9 DUP12 ADD SLOAD PUSH1 0x1 PUSH1 0x1 PUSH1 0xA0 SHL SUB AND DUP15 EQ ISZERO PUSH2 0xD9E JUMP JUMPDEST PUSH2 0xEEF PUSH2 0xD80 DUP3 PUSH2 0x15B3 JUMP JUMPDEST DUP3 PUSH1 0x40 PUSH1 0x0 DUP3 DUP2 MSTORE PUSH1 0xA DUP5 ADD PUSH1 0x20 MSTORE KECCAK256 TIMESTAMP SWAP1 SLOAD GT SWAP2 DUP3 PUSH2 0xF2D JUMPI JUMPDEST POP POP PUSH2 0xF19 JUMPI JUMPDEST PUSH1 0x1 ADD PUSH2 0xCC9 JUMP JUMPDEST SWAP2 PUSH2 0xF25 PUSH1 0x1 SWAP2 PUSH2 0x16AE JUMP JUMPDEST SWAP3 SWAP1 POP PUSH2 0xF11 JUMP JUMPDEST PUSH1 0x9 ADD SLOAD PUSH1 0x1 PUSH1 0x1 PUSH1 0xA0 SHL SUB AND EQ ISZERO SWAP1 POP DUP3 DUP7 PUSH2 0xF0A JUMP JUMPDEST CALLVALUE PUSH2 0x113 JUMPI PUSH1 0x20 CALLDATASIZE PUSH1 0x3 NOT ADD SLT PUSH2 0x113 JUMPI PUSH2 0xF5E PUSH2 0x1241 JUMP JUMPDEST PUSH1 0x2 SLOAD SWAP1 PUSH1 0x0 SWAP1 PUSH1 0x1 PUSH1 0x1 PUSH1 0xA0 SHL SUB AND DUP2 JUMPDEST DUP4 DUP2 LT PUSH2 0x11FC JUMPI POP PUSH2 0xF81 DUP3 PUSH2 0x16BD JUMP JUMPDEST SWAP2 PUSH2 0xF8B DUP2 PUSH2 0x16BD JUMP JUMPDEST SWAP4 PUSH2 0xF95 DUP3 PUSH2 0x16BD JUMP JUMPDEST PUSH2 0xF9E DUP4 PUSH2 0x1707 JUMP JUMPDEST PUSH2 0xFA7 DUP5 PUSH2 0x16BD JUMP JUMPDEST PUSH2 0xFB0 DUP6 PUSH2 0x16BD JUMP JUMPDEST SWAP1 PUSH2 0xFBA DUP7 PUSH2 0x16BD JUMP JUMPDEST SWAP3 PUSH2 0xFC4 DUP8 PUSH2 0x16BD JUMP JUMPDEST SWAP5 PUSH2 0xFCE DUP9 PUSH2 0x16BD JUMP JUMPDEST SWAP7 DUP12 PUSH2 0xFE2 PUSH2 0xFDC DUP12 PUSH2 0x16BD JUMP JUMPDEST SWAP11 PUSH2 0x1707 JUMP JUMPDEST SWAP11 DUP13 PUSH1 0x0 SWAP3 DUP4 SWAP2 JUMPDEST DUP6 DUP4 LT PUSH2 0x1009 JUMPI PUSH2 0xD5C DUP16 DUP16 DUP16 DUP16 DUP16 DUP16 DUP16 DUP16 DUP16 PUSH1 0x40 MLOAD SWAP12 DUP13 SWAP12 DUP13 PUSH2 0x12EB JUMP JUMPDEST DUP13 DUP16 SWAP3 DUP16 SWAP3 DUP13 DUP16 SWAP3 DUP16 SWAP3 DUP13 DUP16 SWAP3 DUP16 SWAP3 DUP13 PUSH2 0x1022 DUP14 PUSH2 0x15B3 JUMP JUMPDEST POP PUSH1 0x1 PUSH1 0x1 PUSH1 0xA0 SHL SUB SWAP1 PUSH1 0x9 SWAP1 PUSH2 0x1038 SWAP1 PUSH2 0x1620 JUMP JUMPDEST ADD SLOAD AND EQ PUSH2 0x1056 JUMPI JUMPDEST POP POP POP POP POP POP POP POP POP POP POP PUSH1 0x1 ADD DUP15 DUP15 PUSH2 0xFEA JUMP JUMPDEST SWAP3 DUP12 SWAP14 SWAP12 SWAP9 SWAP7 SWAP5 SWAP3 DUP13 SWAP12 SWAP11 SWAP9 SWAP7 SWAP5 SWAP3 DUP13 SWAP4 DUP5 PUSH2 0x1071 DUP14 PUSH2 0x15B3 JUMP JUMPDEST POP PUSH2 0x107B SWAP1 PUSH2 0x1620 JUMP JUMPDEST SWAP13 PUSH2 0x1085 SWAP1 PUSH2 0x15B3 JUMP JUMPDEST POP PUSH2 0x108F SWAP1 PUSH2 0x174D JUMP JUMPDEST PUSH2 0x1099 DUP3 DUP5 PUSH2 0x1739 JUMP JUMPDEST MSTORE PUSH2 0x10A3 SWAP2 PUSH2 0x1739 JUMP JUMPDEST POP DUP4 PUSH2 0x10AE DUP13 PUSH2 0x17F1 JUMP JUMPDEST PUSH2 0x10B8 DUP3 DUP5 PUSH2 0x1739 JUMP JUMPDEST MSTORE PUSH2 0x10C2 SWAP2 PUSH2 0x1739 JUMP JUMPDEST POP DUP3 PUSH2 0x10D0 PUSH1 0x1 DUP13 ADD PUSH2 0x174D JUMP JUMPDEST PUSH2 0x10DA DUP3 DUP5 PUSH2 0x1739 JUMP JUMPDEST MSTORE PUSH2 0x10E4 SWAP2 PUSH2 0x1739 JUMP JUMPDEST POP PUSH1 0x2 DUP10 ADD SLOAD PUSH1 0xFF AND SWAP2 PUSH2 0x10F7 SWAP2 PUSH2 0x1739 JUMP JUMPDEST MSTORE DUP9 PUSH2 0x1105 PUSH1 0x3 DUP10 ADD PUSH2 0x174D JUMP JUMPDEST PUSH2 0x110F DUP3 DUP5 PUSH2 0x1739 JUMP JUMPDEST MSTORE PUSH2 0x1119 SWAP2 PUSH2 0x1739 JUMP JUMPDEST POP DUP8 PUSH2 0x1127 PUSH1 0x4 DUP9 ADD PUSH2 0x174D JUMP JUMPDEST PUSH2 0x1131 DUP3 DUP5 PUSH2 0x1739 JUMP JUMPDEST MSTORE PUSH2 0x113B SWAP2 PUSH2 0x1739 JUMP JUMPDEST POP DUP7 PUSH2 0x1149 PUSH1 0x5 DUP8 ADD PUSH2 0x174D JUMP JUMPDEST PUSH2 0x1153 DUP3 DUP5 PUSH2 0x1739 JUMP JUMPDEST MSTORE PUSH2 0x115D SWAP2 PUSH2 0x1739 JUMP JUMPDEST POP DUP6 PUSH2 0x116B PUSH1 0x6 DUP7 ADD PUSH2 0x174D JUMP JUMPDEST PUSH2 0x1175 DUP3 DUP5 PUSH2 0x1739 JUMP JUMPDEST MSTORE PUSH2 0x117F SWAP2 PUSH2 0x1739 JUMP JUMPDEST POP DUP5 PUSH2 0x118D PUSH1 0x7 DUP6 ADD PUSH2 0x174D JUMP JUMPDEST PUSH2 0x1197 DUP3 DUP5 PUSH2 0x1739 JUMP JUMPDEST MSTORE PUSH2 0x11A1 SWAP2 PUSH2 0x1739 JUMP JUMPDEST POP DUP4 PUSH2 0x11AF PUSH1 0x8 DUP5 ADD PUSH2 0x174D JUMP JUMPDEST PUSH2 0x11B9 DUP3 DUP5 PUSH2 0x1739 JUMP JUMPDEST MSTORE PUSH2 0x11C3 SWAP2 PUSH2 0x1739 JUMP JUMPDEST POP PUSH1 0x9 ADD SLOAD PUSH1 0x1 PUSH1 0x1 PUSH1 0xA0 SHL SUB AND SWAP2 PUSH2 0x11DB SWAP2 PUSH2 0x1739 JUMP JUMPDEST MSTORE PUSH2 0x11E5 SWAP1 PUSH2 0x16AE JUMP JUMPDEST SWAP2 DUP13 DUP16 DUP16 DUP13 DUP16 SWAP3 DUP16 SWAP3 DUP13 DUP16 SWAP3 DUP16 SWAP3 DUP15 SWAP2 DUP15 SWAP2 PUSH2 0x1041 JUMP JUMPDEST DUP2 PUSH2 0x1206 DUP3 PUSH2 0x15B3 JUMP JUMPDEST POP PUSH1 0x1 PUSH1 0x1 PUSH1 0xA0 SHL SUB SWAP1 PUSH1 0x9 SWAP1 PUSH2 0x121C SWAP1 PUSH2 0x1620 JUMP JUMPDEST ADD SLOAD AND EQ PUSH2 0x122D JUMPI JUMPDEST PUSH1 0x1 ADD PUSH2 0xF70 JUMP JUMPDEST SWAP2 PUSH2 0x1239 PUSH1 0x1 SWAP2 PUSH2 0x16AE JUMP JUMPDEST SWAP3 SWAP1 POP PUSH2 0x1225 JUMP JUMPDEST PUSH1 0x4 CALLDATALOAD SWAP1 PUSH1 0x1 PUSH1 0x1 PUSH1 0xA0 SHL SUB DUP3 AND DUP3 SUB PUSH2 0x113 JUMPI JUMP JUMPDEST PUSH1 0x0 JUMPDEST DUP4 DUP2 LT PUSH2 0x126A JUMPI POP POP PUSH1 0x0 SWAP2 ADD MSTORE JUMP JUMPDEST DUP2 DUP2 ADD MLOAD DUP4 DUP3 ADD MSTORE PUSH1 0x20 ADD PUSH2 0x125A JUMP JUMPDEST SWAP1 DUP1 PUSH1 0x20 DUP4 MLOAD SWAP2 DUP3 DUP2 MSTORE ADD SWAP2 PUSH1 0x20 DUP1 DUP4 PUSH1 0x5 SHL DUP4 ADD ADD SWAP5 ADD SWAP3 PUSH1 0x0 SWAP2 JUMPDEST DUP4 DUP4 LT PUSH2 0x12A6 JUMPI POP POP POP POP POP SWAP1 JUMP JUMPDEST SWAP1 SWAP2 SWAP3 SWAP4 SWAP5 PUSH1 0x20 DUP1 DUP1 PUSH1 0x1 SWAP4 PUSH1 0x1F NOT DUP7 DUP3 SUB ADD DUP8 MSTORE DUP10 MLOAD PUSH2 0x12D2 DUP2 MLOAD DUP1 SWAP3 DUP2 DUP6 MSTORE DUP6 DUP1 DUP7 ADD SWAP2 ADD PUSH2 0x1257 JUMP JUMPDEST PUSH1 0x1F ADD PUSH1 0x1F NOT AND ADD ADD SWAP8 ADD SWAP6 SWAP5 SWAP2 SWAP1 SWAP2 ADD SWAP3 ADD SWAP1 PUSH2 0x1297 JUMP JUMPDEST SWAP10 SWAP9 SWAP8 SWAP7 SWAP6 SWAP5 SWAP3 SWAP2 SWAP1 PUSH2 0x1308 SWAP1 PUSH2 0x160 DUP13 MSTORE PUSH2 0x160 DUP13 ADD SWAP1 PUSH2 0x127A JUMP JUMPDEST SWAP2 DUP11 DUP4 SUB PUSH1 0x20 DUP13 ADD MSTORE DUP2 MLOAD DUP1 DUP5 MSTORE PUSH1 0x20 DUP5 ADD SWAP4 PUSH1 0x20 DUP1 DUP4 PUSH1 0x5 SHL DUP4 ADD ADD SWAP5 ADD SWAP5 PUSH1 0x0 SWAP2 JUMPDEST DUP4 DUP4 LT PUSH2 0x1439 JUMPI POP POP POP POP PUSH2 0x1349 SWAP3 POP DUP11 DUP3 SUB PUSH1 0x40 DUP13 ADD MSTORE PUSH2 0x127A JUMP JUMPDEST DUP9 DUP2 SUB PUSH1 0x60 DUP11 ADD MSTORE PUSH1 0x20 DUP1 DUP5 MLOAD SWAP3 DUP4 DUP2 MSTORE ADD SWAP4 ADD SWAP1 PUSH1 0x0 JUMPDEST DUP2 DUP2 LT PUSH2 0x1420 JUMPI POP POP POP PUSH2 0x13DA SWAP7 SWAP6 SWAP4 PUSH2 0x13A0 PUSH2 0x13BC SWAP5 PUSH2 0x1392 DUP6 PUSH2 0x13AE SWAP6 DUP14 PUSH1 0x80 DUP2 PUSH2 0x13CB SWAP14 SWAP11 SUB SWAP2 ADD MSTORE PUSH2 0x127A JUMP JUMPDEST SWAP1 DUP12 DUP3 SUB PUSH1 0xA0 DUP14 ADD MSTORE PUSH2 0x127A JUMP JUMPDEST SWAP1 DUP10 DUP3 SUB PUSH1 0xC0 DUP12 ADD MSTORE PUSH2 0x127A JUMP JUMPDEST SWAP1 DUP8 DUP3 SUB PUSH1 0xE0 DUP10 ADD MSTORE PUSH2 0x127A JUMP JUMPDEST SWAP1 DUP6 DUP3 SUB PUSH2 0x100 DUP8 ADD MSTORE PUSH2 0x127A JUMP JUMPDEST SWAP1 DUP4 DUP3 SUB PUSH2 0x120 DUP6 ADD MSTORE PUSH2 0x127A JUMP JUMPDEST SWAP1 PUSH2 0x140 DUP2 DUP4 SUB SWAP2 ADD MSTORE PUSH1 0x20 DUP1 DUP4 MLOAD SWAP3 DUP4 DUP2 MSTORE ADD SWAP3 ADD SWAP1 PUSH1 0x0 JUMPDEST DUP2 DUP2 LT PUSH2 0x1401 JUMPI POP POP POP SWAP1 JUMP JUMPDEST DUP3 MLOAD PUSH1 0x1 PUSH1 0x1 PUSH1 0xA0 SHL SUB AND DUP5 MSTORE PUSH1 0x20 SWAP4 DUP5 ADD SWAP4 SWAP1 SWAP3 ADD SWAP2 PUSH1 0x1 ADD PUSH2 0x13F4 JUMP JUMPDEST DUP3 MLOAD PUSH1 0xFF AND DUP6 MSTORE PUSH1 0x20 SWAP5 DUP6 ADD SWAP5 SWAP1 SWAP3 ADD SWAP2 PUSH1 0x1 ADD PUSH2 0x1361 JUMP JUMPDEST SWAP1 SWAP2 SWAP3 SWAP4 SWAP5 PUSH1 0x1F NOT DUP3 DUP3 SUB ADD DUP4 MSTORE DUP7 MLOAD SWAP1 DUP2 MLOAD DUP1 DUP3 MSTORE PUSH1 0x20 DUP3 ADD SWAP1 PUSH1 0x20 DUP1 DUP3 PUSH1 0x5 SHL DUP6 ADD ADD SWAP5 ADD SWAP3 PUSH1 0x0 JUMPDEST DUP3 DUP2 LT PUSH2 0x1487 JUMPI POP POP POP POP POP PUSH1 0x20 DUP1 PUSH1 0x1 SWAP3 SWAP9 ADD SWAP4 ADD SWAP4 ADD SWAP2 SWAP6 SWAP5 SWAP4 SWAP3 SWAP1 PUSH2 0x132C JUMP JUMPDEST SWAP1 SWAP2 SWAP3 SWAP4 SWAP5 PUSH1 0x20 DUP1 DUP1 PUSH1 0x1 SWAP4 PUSH1 0x1F NOT DUP8 DUP3 SUB ADD DUP10 MSTORE DUP10 MLOAD PUSH2 0x14B3 DUP2 MLOAD DUP1 SWAP3 DUP2 DUP6 MSTORE DUP6 DUP1 DUP7 ADD SWAP2 ADD PUSH2 0x1257 JUMP JUMPDEST PUSH1 0x1F ADD PUSH1 0x1F NOT AND ADD ADD SWAP8 ADD SWAP6 ADD SWAP4 SWAP3 SWAP2 ADD PUSH2 0x1464 JUMP JUMPDEST PUSH1 0x60 DUP2 ADD SWAP1 DUP2 LT PUSH1 0x1 PUSH1 0x1 PUSH1 0x40 SHL SUB DUP3 GT OR PUSH2 0x314 JUMPI PUSH1 0x40 MSTORE JUMP JUMPDEST SWAP1 PUSH1 0x1F DUP1 NOT SWAP2 ADD AND DUP2 ADD SWAP1 DUP2 LT PUSH1 0x1 PUSH1 0x1 PUSH1 0x40 SHL SUB DUP3 GT OR PUSH2 0x314 JUMPI PUSH1 0x40 MSTORE JUMP JUMPDEST DUP2 PUSH1 0x1F DUP3 ADD SLT ISZERO PUSH2 0x113 JUMPI DUP1 CALLDATALOAD SWAP1 PUSH1 0x1 PUSH1 0x1 PUSH1 0x40 SHL SUB DUP3 GT PUSH2 0x314 JUMPI PUSH1 0x40 MLOAD SWAP3 PUSH2 0x1539 PUSH1 0x1F DUP5 ADD PUSH1 0x1F NOT AND PUSH1 0x20 ADD DUP6 PUSH2 0x14E4 JUMP JUMPDEST DUP3 DUP5 MSTORE PUSH1 0x20 DUP4 DUP4 ADD ADD GT PUSH2 0x113 JUMPI DUP2 PUSH1 0x0 SWAP3 PUSH1 0x20 DUP1 SWAP4 ADD DUP4 DUP7 ADD CALLDATACOPY DUP4 ADD ADD MSTORE SWAP1 JUMP JUMPDEST PUSH1 0x1 PUSH1 0x1 PUSH1 0x40 SHL SUB DUP2 GT PUSH2 0x314 JUMPI PUSH1 0x5 SHL PUSH1 0x20 ADD SWAP1 JUMP JUMPDEST PUSH1 0x40 PUSH1 0x3 NOT DUP3 ADD SLT PUSH2 0x113 JUMPI PUSH1 0x4 CALLDATALOAD SWAP1 PUSH1 0x1 PUSH1 0x1 PUSH1 0x40 SHL SUB DUP3 GT PUSH2 0x113 JUMPI PUSH2 0x159C SWAP2 PUSH1 0x4 ADD PUSH2 0x1505 JUMP JUMPDEST SWAP1 PUSH1 0x24 CALLDATALOAD PUSH1 0x1 PUSH1 0x1 PUSH1 0xA0 SHL SUB DUP2 AND DUP2 SUB PUSH2 0x113 JUMPI SWAP1 JUMP JUMPDEST PUSH1 0x2 SLOAD DUP2 LT ISZERO PUSH2 0x2FE JUMPI PUSH1 0x2 PUSH1 0x0 MSTORE PUSH1 0x20 PUSH1 0x0 KECCAK256 ADD SWAP1 PUSH1 0x0 SWAP1 JUMP JUMPDEST DUP1 SLOAD DUP3 LT ISZERO PUSH2 0x2FE JUMPI PUSH1 0x0 MSTORE PUSH1 0x20 PUSH1 0x0 KECCAK256 ADD SWAP1 PUSH1 0x0 SWAP1 JUMP JUMPDEST SWAP1 PUSH1 0x1 DUP3 DUP2 SHR SWAP3 AND DUP1 ISZERO PUSH2 0x1616 JUMPI JUMPDEST PUSH1 0x20 DUP4 LT EQ PUSH2 0x1600 JUMPI JUMP JUMPDEST PUSH4 0x4E487B71 PUSH1 0xE0 SHL PUSH1 0x0 MSTORE PUSH1 0x22 PUSH1 0x4 MSTORE PUSH1 0x24 PUSH1 0x0 REVERT JUMPDEST SWAP2 PUSH1 0x7F AND SWAP2 PUSH2 0x15F5 JUMP JUMPDEST PUSH1 0x40 MLOAD SWAP1 DUP2 PUSH1 0x0 DUP3 SLOAD SWAP3 PUSH2 0x1633 DUP5 PUSH2 0x15E6 JUMP JUMPDEST SWAP4 PUSH1 0x1 DUP2 AND SWAP1 DUP2 ISZERO PUSH2 0x1694 JUMPI POP PUSH1 0x1 EQ PUSH2 0x1658 JUMPI JUMPDEST POP PUSH1 0x20 SWAP3 POP PUSH1 0x1 DUP2 MSTORE SUB ADD SWAP1 KECCAK256 SWAP1 JUMP JUMPDEST SWAP2 POP POP PUSH1 0x0 MSTORE DUP2 PUSH1 0x20 PUSH1 0x0 KECCAK256 PUSH1 0x0 SWAP1 JUMPDEST DUP4 DUP3 LT PUSH2 0x167C JUMPI POP POP PUSH1 0x20 SWAP2 DUP2 ADD CODESIZE PUSH2 0x1648 JUMP JUMPDEST PUSH1 0x20 SWAP2 SWAP3 POP DUP1 PUSH1 0x1 SWAP2 SLOAD DUP5 DUP8 ADD MSTORE ADD SWAP2 ADD DUP4 SWAP2 PUSH2 0x1668 JUMP JUMPDEST PUSH1 0xFF NOT AND DUP5 MSTORE POP PUSH1 0x20 SWAP4 DUP1 ISZERO ISZERO MUL DUP4 ADD SWAP2 POP CODESIZE SWAP1 POP PUSH2 0x1648 JUMP JUMPDEST PUSH1 0x0 NOT DUP2 EQ PUSH2 0x32A JUMPI PUSH1 0x1 ADD SWAP1 JUMP JUMPDEST SWAP1 PUSH2 0x16C7 DUP3 PUSH2 0x155B JUMP JUMPDEST PUSH2 0x16D4 PUSH1 0x40 MLOAD SWAP2 DUP3 PUSH2 0x14E4 JUMP JUMPDEST DUP3 DUP2 MSTORE PUSH1 0x20 DUP2 SWAP4 PUSH2 0x16E7 PUSH1 0x1F NOT SWAP2 PUSH2 0x155B JUMP JUMPDEST ADD SWAP2 ADD PUSH1 0x0 JUMPDEST DUP3 DUP2 LT PUSH2 0x16F9 JUMPI POP POP POP JUMP JUMPDEST PUSH1 0x60 DUP3 DUP3 ADD MSTORE PUSH1 0x20 ADD PUSH2 0x16ED JUMP JUMPDEST SWAP1 PUSH2 0x1711 DUP3 PUSH2 0x155B JUMP JUMPDEST PUSH2 0x171E PUSH1 0x40 MLOAD SWAP2 DUP3 PUSH2 0x14E4 JUMP JUMPDEST DUP3 DUP2 MSTORE DUP1 SWAP3 PUSH2 0x172F PUSH1 0x1F NOT SWAP2 PUSH2 0x155B JUMP JUMPDEST ADD SWAP1 PUSH1 0x20 CALLDATASIZE SWAP2 ADD CALLDATACOPY JUMP JUMPDEST DUP1 MLOAD DUP3 LT ISZERO PUSH2 0x2FE JUMPI PUSH1 0x20 SWAP2 PUSH1 0x5 SHL ADD ADD SWAP1 JUMP JUMPDEST SWAP1 PUSH1 0x40 MLOAD SWAP2 DUP3 PUSH1 0x0 DUP3 SLOAD SWAP3 PUSH2 0x1761 DUP5 PUSH2 0x15E6 JUMP JUMPDEST DUP1 DUP5 MSTORE SWAP4 PUSH1 0x1 DUP2 AND SWAP1 DUP2 ISZERO PUSH2 0x17CF JUMPI POP PUSH1 0x1 EQ PUSH2 0x1788 JUMPI JUMPDEST POP PUSH2 0x1786 SWAP3 POP SUB DUP4 PUSH2 0x14E4 JUMP JUMPDEST JUMP JUMPDEST SWAP1 POP PUSH1 0x0 SWAP3 SWAP2 SWAP3 MSTORE PUSH1 0x20 PUSH1 0x0 KECCAK256 SWAP1 PUSH1 0x0 SWAP2 JUMPDEST DUP2 DUP4 LT PUSH2 0x17B3 JUMPI POP POP SWAP1 PUSH1 0x20 PUSH2 0x1786 SWAP3 DUP3 ADD ADD CODESIZE PUSH2 0x1779 JUMP JUMPDEST PUSH1 0x20 SWAP2 SWAP4 POP DUP1 PUSH1 0x1 SWAP2 SLOAD DUP4 DUP6 DUP10 ADD ADD MSTORE ADD SWAP2 ADD SWAP1 SWAP2 DUP5 SWAP3 PUSH2 0x179A JUMP JUMPDEST SWAP1 POP PUSH1 0x20 SWAP3 POP PUSH2 0x1786 SWAP5 SWAP2 POP PUSH1 0xFF NOT AND DUP3 DUP5 ADD MSTORE ISZERO ISZERO PUSH1 0x5 SHL DUP3 ADD ADD CODESIZE PUSH2 0x1779 JUMP JUMPDEST SWAP1 DUP2 SLOAD PUSH2 0x17FD DUP2 PUSH2 0x155B JUMP JUMPDEST SWAP3 PUSH2 0x180B PUSH1 0x40 MLOAD SWAP5 DUP6 PUSH2 0x14E4 JUMP JUMPDEST DUP2 DUP5 MSTORE PUSH1 0x20 DUP5 ADD SWAP1 PUSH1 0x0 MSTORE PUSH1 0x20 PUSH1 0x0 KECCAK256 PUSH1 0x0 SWAP2 JUMPDEST DUP4 DUP4 LT PUSH2 0x182C JUMPI POP POP POP POP JUMP JUMPDEST PUSH1 0x1 PUSH1 0x20 DUP2 SWAP3 PUSH2 0x183B DUP6 PUSH2 0x174D JUMP JUMPDEST DUP2 MSTORE ADD SWAP3 ADD SWAP3 ADD SWAP2 SWAP1 PUSH2 0x181F JUMP JUMPDEST SWAP2 SWAP1 SWAP2 DUP3 MLOAD PUSH1 0x1 PUSH1 0x1 PUSH1 0x40 SHL SUB DUP2 GT PUSH2 0x314 JUMPI PUSH2 0x1866 DUP3 SLOAD PUSH2 0x15E6 JUMP JUMPDEST PUSH1 0x1F DUP2 GT PUSH2 0x190C JUMPI JUMPDEST POP PUSH1 0x20 PUSH1 0x1F DUP3 GT PUSH1 0x1 EQ PUSH2 0x18AA JUMPI DUP2 SWAP3 SWAP4 SWAP5 PUSH1 0x0 SWAP3 PUSH2 0x189F JUMPI JUMPDEST POP POP DUP2 PUSH1 0x1 SHL SWAP2 PUSH1 0x0 NOT SWAP1 PUSH1 0x3 SHL SHR NOT AND OR SWAP1 SSTORE JUMP JUMPDEST ADD MLOAD SWAP1 POP CODESIZE DUP1 PUSH2 0x1889 JUMP JUMPDEST PUSH1 0x1F NOT DUP3 AND SWAP1 DUP4 PUSH1 0x0 MSTORE DUP1 PUSH1 0x0 KECCAK256 SWAP2 PUSH1 0x0 JUMPDEST DUP2 DUP2 LT PUSH2 0x18F4 JUMPI POP SWAP6 DUP4 PUSH1 0x1 SWAP6 SWAP7 SWAP8 LT PUSH2 0x18DB JUMPI JUMPDEST POP POP POP DUP2 SHL ADD SWAP1 SSTORE JUMP JUMPDEST ADD MLOAD PUSH1 0x0 NOT PUSH1 0xF8 DUP5 PUSH1 0x3 SHL AND SHR NOT AND SWAP1 SSTORE CODESIZE DUP1 DUP1 PUSH2 0x18D1 JUMP JUMPDEST SWAP2 SWAP3 PUSH1 0x20 PUSH1 0x1 DUP2 SWAP3 DUP7 DUP12 ADD MLOAD DUP2 SSTORE ADD SWAP5 ADD SWAP3 ADD PUSH2 0x18BC JUMP JUMPDEST DUP3 PUSH1 0x0 MSTORE PUSH1 0x20 PUSH1 0x0 KECCAK256 PUSH1 0x1F DUP4 ADD PUSH1 0x5 SHR DUP2 ADD SWAP2 PUSH1 0x20 DUP5 LT PUSH2 0x194A JUMPI JUMPDEST PUSH1 0x1F ADD PUSH1 0x5 SHR ADD SWAP1 JUMPDEST DUP2 DUP2 LT PUSH2 0x193E JUMPI POP PUSH2 0x186F JUMP JUMPDEST PUSH1 0x0 DUP2 SSTORE PUSH1 0x1 ADD PUSH2 0x1931 JUMP JUMPDEST SWAP1 SWAP2 POP DUP2 SWAP1 PUSH2 0x1928 JUMP JUMPDEST PUSH2 0x196C SWAP1 PUSH1 0x20 PUSH1 0x40 MLOAD SWAP3 DUP3 DUP5 DUP1 SWAP5 MLOAD SWAP4 DUP5 SWAP3 ADD PUSH2 0x1257 JUMP JUMPDEST DUP2 ADD SUB SWAP1 KECCAK256 SWAP1 JUMP JUMPDEST ISZERO PUSH2 0x197B JUMPI JUMP JUMPDEST PUSH1 0x40 MLOAD PUSH3 0x461BCD PUSH1 0xE5 SHL DUP2 MSTORE PUSH1 0x20 PUSH1 0x4 DUP3 ADD MSTORE PUSH1 0x16 PUSH1 0x24 DUP3 ADD MSTORE PUSH22 0x496E76616C696420646F63746F722061646472657373 PUSH1 0x50 SHL PUSH1 0x44 DUP3 ADD MSTORE PUSH1 0x64 SWAP1 REVERT JUMPDEST PUSH1 0x0 SLOAD PUSH1 0x1 PUSH1 0x1 PUSH1 0xA0 SHL SUB AND CALLER SUB PUSH2 0x19CD JUMPI JUMP JUMPDEST PUSH4 0x118CDAA7 PUSH1 0xE0 SHL PUSH1 0x0 MSTORE CALLER PUSH1 0x4 MSTORE PUSH1 0x24 PUSH1 0x0 REVERT INVALID LOG2 PUSH5 0x6970667358 0x22 SLT KECCAK256 0xA5 CALLDATASIZE XOR SWAP6 0x24 KECCAK256 0xDB MSIZE 0xD1 0x1F 0xB2 0x2F DIV OR SLT ADDMOD 0xB2 PUSH14 0x374FC4B839A41083D6407571D84D PUSH5 0x736F6C6343 STOP ADDMOD SHR STOP CALLER "},"methodIdentifiers":{"checkAccessExpiry(string,address)":"aec36904","getAccessHistory(string)":"8117eada","getRecordsByOwner(address)":"552d7105","getRecordsSharedWithMe(address)":"6910dd2a","grantAccess(string,address,uint256)":"e5492e2b","owner()":"8da5cb5b","renounceOwnership()":"715018a6","revokeAccess(string,address)":"dfe0b5fe","transferOwnership(address)":"f2fde38b","uploadRecord(string,string[],string,uint8,string,string,string,string,string,string)":"6c2b8226"}}}}}