{"contracts/MedicalRecords.sol":{"MedicalRecords":{"abi":[{"inputs":[],"stateMutability":"nonpayable","type":"constructor"},{"inputs":[{"internalType":"address","name":"owner","type":"address"}],"name":"OwnableInvalidOwner","type":"error"},{"inputs":[{"internalType":"address","name":"account","type":"address"}],"name":"OwnableUnauthorizedAccount","type":"error"},{"anonymous":false,"inputs":[{"indexed":true,"internalType":"string","name":"recordId","type":"string"},{"indexed":true,"internalType":"address","name":"doctor","type":"address"},{"indexed":false,"internalType":"uint256","name":"expiry","type":"uint256"}],"name":"AccessGranted","type":"event"},{"anonymous":false,"inputs":[{"indexed":true,"internalType":"string","name":"recordId","type":"string"},{"indexed":true,"internalType":"address","name":"doctor","type":"address"},{"indexed":false,"internalType":"uint256","name":"revokedAt","type":"uint256"}],"name":"AccessRevoked","type":"event"},{"anonymous":false,"inputs":[{"indexed":true,"internalType":"address","name":"previousOwner","type":"address"},{"indexed":true,"internalType":"address","name":"newOwner","type":"address"}],"name":"OwnershipTransferred","type":"event"},{"anonymous":false,"inputs":[{"indexed":true,"internalType":"string","name":"recordId","type":"string"},{"indexed":true,"internalType":"address","name":"doctor","type":"address"},{"indexed":false,"internalType":"uint256","name":"timestamp","type":"uint256"}],"name":"RecommendationAdded","type":"event"},{"anonymous":false,"inputs":[{"indexed":true,"internalType":"string","name":"recordId","type":"string"},{"indexed":true,"internalType":"address","name":"owner","type":"address"}],"name":"RecordUploaded","type":"event"},{"inputs":[{"internalType":"string","name":"recordId","type":"string"},{"internalType":"string","name":"diagnosis","type":"string"},{"internalType":"string[]","name":"medNames","type":"string[]"},{"internalType":"string[]","name":"medQuantities","type":"string[]"},{"internalType":"string[]","name":"medInstructions","type":"string[]"}],"name":"addRecommendation","outputs":[],"stateMutability":"nonpayable","type":"function"},{"inputs":[{"internalType":"string","name":"recordId","type":"string"},{"internalType":"address","name":"doctor","type":"address"}],"name":"checkAccessExpiry","outputs":[{"internalType":"uint256","name":"","type":"uint256"}],"stateMutability":"view","type":"function"},{"inputs":[{"internalType":"string","name":"recordId","type":"string"}],"name":"getAccessHistory","outputs":[{"components":[{"internalType":"address","name":"doctor","type":"address"},{"internalType":"uint256","name":"sharedAt","type":"uint256"},{"internalType":"uint256","name":"expiresAt","type":"uint256"}],"internalType":"struct MedicalRecords.AccessLog[]","name":"","type":"tuple[]"}],"stateMutability":"view","type":"function"},{"inputs":[{"internalType":"string","name":"recordId","type":"string"}],"name":"getRecommendations","outputs":[{"components":[{"internalType":"address","name":"doctor","type":"address"},{"internalType":"uint256","name":"timestamp","type":"uint256"},{"internalType":"string","name":"diagnosis","type":"string"},{"components":[{"internalType":"string","name":"name","type":"string"},{"internalType":"string","name":"quantity","type":"string"},{"internalType":"string","name":"instructions","type":"string"}],"internalType":"struct MedicalRecords.Medicine[]","name":"medicines","type":"tuple[]"}],"internalType":"struct MedicalRecords.Recommendation[]","name":"","type":"tuple[]"}],"stateMutability":"view","type":"function"},{"inputs":[{"internalType":"address","name":"_owner","type":"address"}],"name":"getRecordsByOwner","outputs":[{"internalType":"string[]","name":"ownerRecordIds","type":"string[]"},{"internalType":"string[][]","name":"cidsList","type":"string[][]"},{"internalType":"string[]","name":"names","type":"string[]"},{"internalType":"uint8[]","name":"ages","type":"uint8[]"},{"internalType":"string[]","name":"genders","type":"string[]"},{"internalType":"string[]","name":"bloodPressures","type":"string[]"},{"internalType":"string[]","name":"heartRates","type":"string[]"},{"internalType":"string[]","name":"temperatures","type":"string[]"},{"internalType":"string[]","name":"diseaseGroup","type":"string[]"},{"internalType":"string[]","name":"description","type":"string[]"},{"internalType":"address[]","name":"owners","type":"address[]"}],"stateMutability":"view","type":"function"},{"inputs":[{"internalType":"address","name":"doctor","type":"address"}],"name":"getRecordsSharedWithMe","outputs":[{"internalType":"string[]","name":"sharedRecordIds","type":"string[]"},{"internalType":"string[][]","name":"cidsList","type":"string[][]"},{"internalType":"string[]","name":"names","type":"string[]"},{"internalType":"uint8[]","name":"ages","type":"uint8[]"},{"internalType":"string[]","name":"genders","type":"string[]"},{"internalType":"string[]","name":"bloodPressures","type":"string[]"},{"internalType":"string[]","name":"heartRates","type":"string[]"},{"internalType":"string[]","name":"temperatures","type":"string[]"},{"internalType":"string[]","name":"diseaseGroup","type":"string[]"},{"internalType":"string[]","name":"description","type":"string[]"},{"internalType":"address[]","name":"owners","type":"address[]"}],"stateMutability":"view","type":"function"},{"inputs":[{"internalType":"string","name":"recordId","type":"string"},{"internalType":"address","name":"doctor","type":"address"},{"internalType":"uint256","name":"duration","type":"uint256"}],"name":"grantAccess","outputs":[],"stateMutability":"nonpayable","type":"function"},{"inputs":[],"name":"owner","outputs":[{"internalType":"address","name":"","type":"address"}],"stateMutability":"view","type":"function"},{"inputs":[],"name":"renounceOwnership","outputs":[],"stateMutability":"nonpayable","type":"function"},{"inputs":[{"internalType":"string","name":"recordId","type":"string"},{"internalType":"address","name":"doctor","type":"address"}],"name":"revokeAccess","outputs":[],"stateMutability":"nonpayable","type":"function"},{"inputs":[{"internalType":"address","name":"newOwner","type":"address"}],"name":"transferOwnership","outputs":[],"stateMutability":"nonpayable","type":"function"},{"inputs":[{"internalType":"string","name":"recordId","type":"string"},{"internalType":"string[]","name":"_cids","type":"string[]"},{"internalType":"string","name":"_name","type":"string"},{"internalType":"uint8","name":"_age","type":"uint8"},{"internalType":"string","name":"_gender","type":"string"},{"internalType":"string","name":"_bloodPressure","type":"string"},{"internalType":"string","name":"_heartRate","type":"string"},{"internalType":"string","name":"_temperature","type":"string"},{"internalType":"string","name":"_diseaseGroup","type":"string"},{"internalType":"string","name":"_description","type":"string"}],"name":"uploadRecord","outputs":[],"stateMutability":"nonpayable","type":"function"}],"evm":{"bytecode":{"linkReferences":{},"object":"608080604052346075573315605f5760008054336001600160a01b0319821681178355916001600160a01b03909116907f8be0079c531659141344cd1fd0a4f28419497f9722a3daafe3b4186f6b6457e09080a361203c908161007b8239f35b631e4fbdf760e01b600052600060045260246000fd5b600080fdfe6080604052600436101561001257600080fd5b60003560e01c80632e0d7cdd146114a8578063552d7105146111ac5780636910dd2a14610f055780636c2b822614610bcf578063715018a614610b765780638117eada146109c75780638da5cb5b1461099e578063aec369041461090f578063b73dffb1146105ef578063dfe0b5fe1461042a578063e5492e2b1461012e5763f2fde38b146100a057600080fd5b34610129576020366003190112610129576100b96118b5565b6100c1611fdd565b6001600160a01b0316801561011357600080546001600160a01b03198116831782556001600160a01b0316907f8be0079c531659141344cd1fd0a4f28419497f9722a3daafe3b4186f6b6457e09080a3005b631e4fbdf760e01b600052600060045260246000fd5b600080fd5b34610129576060366003190112610129576004356001600160401b0381116101295761015e903690600401611817565b6024356001600160a01b03811691908290036101295760443590604051918151926009602084019461019181848861186d565b600190830190815282900360200190912001546001600160a01b031633036103e5576101be841515611f98565b801561039557600a60405160208185516101d981838a61186d565b810160018152030190200184600052602052604060002054801590811561038a575b501561034657420191824211610330576102506020600b92600a6040518381885161022781838861186d565b81016001815203019020018760005282528560406000205560405180938192875192839161186d565b810160018152030190200160405191610268836117db565b848352602083019042825260408401928584528054600160401b81101561031a5761029891600182018155611f7c565b61030457935184546001600160a01b0319166001600160a01b0391909116178455905160018401559051600292909201919091557fcd5010f0cf521705dc993ca35e5b2fd59371fb9516f4c5dab9cd77693bbf92b0906020906102fa90611f5c565b92604051908152a3005b634e487b7160e01b600052600060045260246000fd5b634e487b7160e01b600052604160045260246000fd5b634e487b7160e01b600052601160045260246000fd5b606460405162461bcd60e51b815260206004820152602060248201527f446f63746f7220616c72656164792068617320616374697665206163636573736044820152fd5b9050421015856101fb565b60405162461bcd60e51b815260206004820152602260248201527f4475726174696f6e206d7573742062652067726561746572207468616e207a65604482015261726f60f01b6064820152608490fd5b60405162461bcd60e51b815260206004820152601b60248201527f4f6e6c79206f776e65722063616e206772616e742061636365737300000000006044820152606490fd5b346101295761043836611b36565b604051908251916009602085019361045181848761186d565b600190830190815282900360200190912001546001600160a01b031633036105aa576001600160a01b031691610488831515611f98565b600a604051602081845161049d81838961186d565b81016001815203019020018360005260205260406000205480156105665742101561052857600a6104de60206104fc9460405180938192875192839161186d565b81016001815203019020018360005260205260006040812055611f5c565b7ff7eb47ecbc62e098414c8565b83461841e3ae69f64ad0da8609abefecaec86ad6020604051428152a3005b60405162461bcd60e51b81526020600482015260166024820152751058d8d95cdcc8185b1c9958591e48195e1c1a5c995960521b6044820152606490fd5b606460405162461bcd60e51b815260206004820152602060248201527f4e6f20616363657373206772616e74656420746f207468697320646f63746f726044820152fd5b60405162461bcd60e51b815260206004820152601c60248201527f4f6e6c79206f776e65722063616e207265766f6b6520616363657373000000006044820152606490fd5b346101295760a0366003190112610129576004356001600160401b0381116101295761061f903690600401611817565b6024356001600160401b0381116101295761063e903690600401611817565b6044356001600160401b0381116101295761065d903690600401611ab8565b6064356001600160401b0381116101295761067c903690600401611ab8565b906084356001600160401b0381116101295761069c903690600401611ab8565b9060405160208187516106b28183858c0161186d565b60019082019081520301902060098101546001600160a01b03166106d7811515611b77565b336000818152600a840160205260409020549114908115610905575b501561089a57815184518114908161088f575b501561085157600c018054600160401b81101561031a576001810180835581101561083b5760009182526020909120600291821b0180546001600160a01b03191633178155426001820155959461075e918701611e51565b600360009501945b8151811015610803576107798183611de5565b51906107858186611de5565b51916107918286611de5565b5192604051916107a0836117db565b825260208201908152604082019384528854600160401b81101561031a578060016107ce92018b558a611f7c565b919091610304576001946107f56002926107ec6107fd965186611e51565b51878501611e51565b519101611e51565b01610766565b61080c85611f5c565b604051904282527fc80725979b17511ebf63e1f6dc8d5c05386ddcac1a1faa0d7301160188f772f360203393a3005b634e487b7160e01b600052603260045260246000fd5b60405162461bcd60e51b815260206004820152601660248201527509acac8d2c6d2dcca40c8c2e8c240dad2e6dac2e8c6d60531b6044820152606490fd5b905083511487610706565b60405162461bcd60e51b815260206004820152603a60248201527f4e6f7420617574686f72697a65643a204d757374206265204f776e6572206f7260448201527f20446f63746f72207769746820616374697665206163636573730000000000006064820152608490fd5b90504210876106f3565b34610129576020600a61097461092436611b36565b93906040519061096381519260098584019461094181848861186d565b6001908301908152829003860190912001546001600160a01b03161515611b77565b60405193849283925192839161186d565b81016001815203019020019060018060a01b03166000526020526020604060002054604051908152f35b34610129576000366003190112610129576000546040516001600160a01b039091168152602090f35b34610129576020366003190112610129576004356001600160401b038111610129576109f7903690600401611817565b60405181519060096020840192610a0f81848661186d565b600190830190815282900360200190912001546001600160a01b03163303610b31576020610a4b91600b9360405193849283925192839161186d565b8101600181520301902001805490610a6282611aa1565b91610a7060405193846117f6565b80835260208301809260005260206000206000915b838310610af35784866040519182916020830190602084525180915260408301919060005b818110610ab8575050500390f35b825180516001600160a01b03168552602081810151818701526040918201519186019190915286955060609094019390920191600101610aaa565b60036020600192604051610b06816117db565b848060a01b038654168152848601548382015260028601546040820152815201920192019190610a85565b60405162461bcd60e51b815260206004820152601b60248201527f4f6e6c79206f776e65722063616e207669657720686973746f727900000000006044820152606490fd5b3461012957600036600319011261012957610b8f611fdd565b600080546001600160a01b0319811682556001600160a01b03167f8be0079c531659141344cd1fd0a4f28419497f9722a3daafe3b4186f6b6457e08280a3005b3461012957610140366003190112610129576004356001600160401b03811161012957610c00903690600401611817565b6024356001600160401b03811161012957610c1f903690600401611ab8565b6044356001600160401b03811161012957610c3e903690600401611817565b906064359260ff8416809403610129576084356001600160401b03811161012957610c6d903690600401611817565b60a4356001600160401b03811161012957610c8c903690600401611817565b60c4356001600160401b03811161012957610cab903690600401611817565b60e4356001600160401b03811161012957610cca903690600401611817565b90610104356001600160401b03811161012957610ceb903690600401611817565b92610124356001600160401b03811161012957610d0c903690600401611817565b94865115610ed257604051875190600960208a0192610d2c81848661186d565b600190830190815282900360200190912001546001600160a01b0316610e9c576020610d6391604051809381928c5192839161186d565b6001908201908152030190206009810180546001600160a01b031916331790559960005b8951811015610dd057610d9a818b611de5565b51908c54600160401b81101561031a57808e6001610dba93018155611cb4565b61030457600192610dca91611e51565b01610d87565b50600894610e248c95610e1b610e3696610e128f97610e2d97610dfb610e3c9f9e9a60018e01611e51565b60028c019060ff1982541617905560038b01611e51565b60048901611e51565b60058701611e51565b60068501611e51565b60078301611e51565b01611e51565b600254600160401b81101561031a57806001610e5d92016002556002611cb4565b6103045781610e6b91611e51565b610e753391611f5c565b7f5613b0ea20e0c0c2c37e5dee1b46009ee8b652c2f475d4d1057ef06a6a5b8c0c600080a3005b60405162461bcd60e51b815260206004820152600e60248201526d416c72656164792065786973747360901b6044820152606490fd5b60405162461bcd60e51b815260206004820152600b60248201526a1251081c995c5d5a5c995960aa1b6044820152606490fd5b3461012957602036600319011261012957610f1e6118b5565b600254906000906001600160a01b0316815b83811061114a5750610f4182611d69565b90610f4b83611d69565b92610f5581611d69565b610f5e82611db3565b610f6783611d69565b610f7084611d69565b610f7985611d69565b91610f8386611d69565b93610f8d87611d69565b95610fa0610f9a89611d69565b98611db3565b98600090818e5b8110610fc757505050610fc3999a9b506040519b8c9b8c611924565b0390f35b8b828f8f8c8f928f928c8f928f928e918e916040610fed610fe78f611c99565b50611ccc565b9b6000908152600a8d01602052204290541180611133575b61101f575b5050505050505050505050506001018e610fa7565b976110e68d9f809c989960019f6111199f9d97839c6110826111139f8e6110d26111009f899f906110c56110f39f8c9f938d9a6110a58c8097946110d99f82809761108260059f8f90846110929161108261107c61109899611c99565b50611bf5565b61108c8383611de5565b52611de5565b50611df9565b5061108260018c01611bf5565b506110b88360ff60028b01541692611de5565b5261108260038801611bf5565b5061108260048501611bf5565b5001611bf5565b5061108260068b01611bf5565b5061108260078801611bf5565b5061108260088501611bf5565b506009878060a01b039101541692611de5565b52611d5a565b9290508b388f8f8c8f928f928c8f928f928e918e9161100a565b5060098b01546001600160a01b03168e1415611005565b611156610fe782611c99565b8260406000828152600a840160205220429054119182611194575b5050611180575b600101610f30565b9161118c600191611d5a565b929050611178565b600901546001600160a01b0316141590508286611171565b34610129576020366003190112610129576111c56118b5565b600254906000906001600160a01b0316815b83811061146357506111e882611d69565b916111f281611d69565b936111fc82611d69565b61120583611db3565b61120e84611d69565b61121785611d69565b9061122186611d69565b9261122b87611d69565b9461123588611d69565b968b6112496112438b611d69565b9a611db3565b9a8c60009283915b85831061127057610fc38f8f8f8f8f8f8f8f8f6040519b8c9b8c611924565b8c8f928f928c8f928f928c8f928f928c6112898d611c99565b506001600160a01b039060099061129f90611ccc565b015416146112bd575b50505050505050505050506001018e8e611251565b928b9d9b989694928c9b9a989694928c93846112d88d611c99565b506112e290611ccc565b9c6112ec90611c99565b506112f690611bf5565b6113008284611de5565b5261130a91611de5565b50836113158c611df9565b61131f8284611de5565b5261132991611de5565b508261133760018c01611bf5565b6113418284611de5565b5261134b91611de5565b50600289015460ff169161135e91611de5565b528861136c60038901611bf5565b6113768284611de5565b5261138091611de5565b508761138e60048801611bf5565b6113988284611de5565b526113a291611de5565b50866113b060058701611bf5565b6113ba8284611de5565b526113c491611de5565b50856113d260068601611bf5565b6113dc8284611de5565b526113e691611de5565b50846113f460078501611bf5565b6113fe8284611de5565b5261140891611de5565b508361141660088401611bf5565b6114208284611de5565b5261142a91611de5565b50600901546001600160a01b03169161144291611de5565b5261144c90611d5a565b918c8f8f8c8f928f928c8f928f928e918e916112a8565b8161146d82611c99565b506001600160a01b039060099061148390611ccc565b01541614611494575b6001016111d7565b916114a0600191611d5a565b92905061148c565b34610129576020366003190112610129576004356001600160401b0381116101295760206114dd6114f0923690600401611817565b816040519382858094519384920161186d565b60019082019081520301902060098101546001600160a01b0316611515811515611b77565b336000818152600a8401602052604090205491149081156117d1575b501561177d57600c0180549061154682611aa1565b9161155460405193846117f6565b808352602083019081926000526020600020916000905b82821061169457848660405191829160208301906020845251809152604083019060408160051b85010192916000905b8282106115aa57505050500390f35b919390929450603f19868203018252845160018060a01b0381511682526020810151602083015260606115ec6040830151608060408601526080850190611890565b910151916060818303910152815180825260208201906020808260051b85010194019260005b828110611634575050505050602080600192960192019201859493919261159b565b9091929394602080611687600193601f1987820301895289519060406116766116668451606085526060850190611890565b8685015184820388860152611890565b920151906040818403910152611890565b9701950193929101611612565b604051608081018181106001600160401b0382111761031a5760405284546001600160a01b03168152600185015460208201526116d360028601611bf5565b60408201526003850180546116e781611aa1565b916116f560405193846117f6565b81835260208301906000526020600020906000905b8382106117315750505050600192826020926060600495015281520194019101909261156b565b60036020600192604051611744816117db565b61174d87611bf5565b815261175a858801611bf5565b8382015261176a60028801611bf5565b604082015281520193019101909161170a565b60405162461bcd60e51b815260206004820152602660248201527f4e6f7420617574686f72697a656420746f2076696577207265636f6d6d656e646044820152656174696f6e7360d01b6064820152608490fd5b9050421082611531565b606081019081106001600160401b0382111761031a57604052565b90601f801991011681019081106001600160401b0382111761031a57604052565b81601f82011215610129578035906001600160401b03821161031a576040519261184b601f8401601f1916602001856117f6565b8284526020838301011161012957816000926020809301838601378301015290565b60005b8381106118805750506000910152565b8181015183820152602001611870565b906020916118a98151809281855285808601910161186d565b601f01601f1916010190565b600435906001600160a01b038216820361012957565b9080602083519182815201916020808360051b8301019401926000915b8383106118f757505050505090565b9091929394602080611915600193601f198682030187528951611890565b970193019301919392906118e8565b999897969594929190611941906101608c526101608c01906118cb565b918a830360208c0152815180845260208401936020808360051b8301019401946000915b838310611a72575050505061198292508a820360408c01526118cb565b88810360608a01526020808451928381520193019060005b818110611a5957505050611a139695936119d96119f5946119cb856119e7958d608081611a049d9a039101526118cb565b908b820360a08d01526118cb565b9089820360c08b01526118cb565b9087820360e08901526118cb565b908582036101008701526118cb565b908382036101208501526118cb565b906101408183039101526020808351928381520192019060005b818110611a3a5750505090565b82516001600160a01b0316845260209384019390920191600101611a2d565b825160ff1685526020948501949092019160010161199a565b9091929394602080611a90600193601f198682030187528a516118cb565b980193019301919594939290611965565b6001600160401b03811161031a5760051b60200190565b9080601f83011215610129578135611acf81611aa1565b92611add60405194856117f6565b81845260208085019260051b820101918383116101295760208201905b838210611b0957505050505090565b81356001600160401b03811161012957602091611b2b87848094880101611817565b815201910190611afa565b604060031982011261012957600435906001600160401b03821161012957611b6091600401611817565b906024356001600160a01b03811681036101295790565b15611b7e57565b60405162461bcd60e51b8152602060048201526015602482015274149958dbdc9908191bd95cc81b9bdd08195e1a5cdd605a1b6044820152606490fd5b90600182811c92168015611beb575b6020831014611bd557565b634e487b7160e01b600052602260045260246000fd5b91607f1691611bca565b9060405191826000825492611c0984611bbb565b8084529360018116908115611c775750600114611c30575b50611c2e925003836117f6565b565b90506000929192526020600020906000915b818310611c5b575050906020611c2e9282010138611c21565b6020919350806001915483858901015201910190918492611c42565b905060209250611c2e94915060ff191682840152151560051b82010138611c21565b60025481101561083b57600260005260206000200190600090565b805482101561083b5760005260206000200190600090565b60405190816000825492611cdf84611bbb565b9360018116908115611d405750600114611d04575b5060209250600181520301902090565b9150506000528160206000206000905b838210611d28575050602091810138611cf4565b60209192508060019154848701520191018391611d14565b60ff19168452506020938015150283019150389050611cf4565b60001981146103305760010190565b90611d7382611aa1565b611d8060405191826117f6565b82815260208193611d93601f1991611aa1565b01910160005b828110611da557505050565b606082820152602001611d99565b90611dbd82611aa1565b611dca60405191826117f6565b8281528092611ddb601f1991611aa1565b0190602036910137565b805182101561083b5760209160051b010190565b908154611e0581611aa1565b92611e1360405194856117f6565b818452602084019060005260206000206000915b838310611e345750505050565b600160208192611e4385611bf5565b815201920192019190611e27565b91909182516001600160401b03811161031a57611e6e8254611bbb565b601f8111611f14575b506020601f8211600114611eb25781929394600092611ea7575b50508160011b916000199060031b1c1916179055565b015190503880611e91565b601f1982169083600052806000209160005b818110611efc57509583600195969710611ee3575b505050811b019055565b015160001960f88460031b161c19169055388080611ed9565b9192602060018192868b015181550194019201611ec4565b826000526020600020601f830160051c81019160208410611f52575b601f0160051c01905b818110611f465750611e77565b60008155600101611f39565b9091508190611f30565b611f749060206040519282848094519384920161186d565b810103902090565b805482101561083b576000526003602060002091020190600090565b15611f9f57565b60405162461bcd60e51b8152602060048201526016602482015275496e76616c696420646f63746f72206164647265737360501b6044820152606490fd5b6000546001600160a01b03163303611ff157565b63118cdaa760e01b6000523360045260246000fdfea264697066735822122094e2e434460b09caeda4da9eecc90c8dba9c76448ff51e403a5420d17a1c207a64736f6c634300081c0033","opcodes":"PUSH1 0x80 DUP1 PUSH1 0x40 MSTORE CALLVALUE PUSH1 0x75 JUMPI CALLER ISZERO PUSH1 0x5F JUMPI PUSH1 0x0 DUP1 SLOAD CALLER PUSH1 0x1 PUSH1 0x1 PUSH1 0xA0 SHL SUB NOT DUP3 AND DUP2 OR DUP4 SSTORE SWAP2 PUSH1 0x1 PUSH1 0x1 PUSH1 0xA0 SHL SUB SWAP1 SWAP2 AND SWAP1 PUSH32 0x8BE0079C531659141344CD1FD0A4F28419497F9722A3DAAFE3B4186F6B6457E0 SWAP1 DUP1 LOG3 PUSH2 0x203C SWAP1 DUP2 PUSH2 0x7B DUP3 CODECOPY RETURN JUMPDEST PUSH4 0x1E4FBDF7 PUSH1 0xE0 SHL PUSH1 0x0 MSTORE PUSH1 0x0 PUSH1 0x4 MSTORE PUSH1 0x24 PUSH1 0x0 REVERT JUMPDEST PUSH1 0x0 DUP1 REVERT INVALID PUSH1 0x80 PUSH1 0x40 MSTORE PUSH1 0x4 CALLDATASIZE LT ISZERO PUSH2 0x12 JUMPI PUSH1 0x0 DUP1 REVERT JUMPDEST PUSH1 0x0 CALLDATALOAD PUSH1 0xE0 SHR DUP1 PUSH4 0x2E0D7CDD EQ PUSH2 0x14A8 JUMPI DUP1 PUSH4 0x552D7105 EQ PUSH2 0x11AC JUMPI DUP1 PUSH4 0x6910DD2A EQ PUSH2 0xF05 JUMPI DUP1 PUSH4 0x6C2B8226 EQ PUSH2 0xBCF JUMPI DUP1 PUSH4 0x715018A6 EQ PUSH2 0xB76 JUMPI DUP1 PUSH4 0x8117EADA EQ PUSH2 0x9C7 JUMPI DUP1 PUSH4 0x8DA5CB5B EQ PUSH2 0x99E JUMPI DUP1 PUSH4 0xAEC36904 EQ PUSH2 0x90F JUMPI DUP1 PUSH4 0xB73DFFB1 EQ PUSH2 0x5EF JUMPI DUP1 PUSH4 0xDFE0B5FE EQ PUSH2 0x42A JUMPI DUP1 PUSH4 0xE5492E2B EQ PUSH2 0x12E JUMPI PUSH4 0xF2FDE38B EQ PUSH2 0xA0 JUMPI PUSH1 0x0 DUP1 REVERT JUMPDEST CALLVALUE PUSH2 0x129 JUMPI PUSH1 0x20 CALLDATASIZE PUSH1 0x3 NOT ADD SLT PUSH2 0x129 JUMPI PUSH2 0xB9 PUSH2 0x18B5 JUMP JUMPDEST PUSH2 0xC1 PUSH2 0x1FDD JUMP JUMPDEST PUSH1 0x1 PUSH1 0x1 PUSH1 0xA0 SHL SUB AND DUP1 ISZERO PUSH2 0x113 JUMPI PUSH1 0x0 DUP1 SLOAD PUSH1 0x1 PUSH1 0x1 PUSH1 0xA0 SHL SUB NOT DUP2 AND DUP4 OR DUP3 SSTORE PUSH1 0x1 PUSH1 0x1 PUSH1 0xA0 SHL SUB AND SWAP1 PUSH32 0x8BE0079C531659141344CD1FD0A4F28419497F9722A3DAAFE3B4186F6B6457E0 SWAP1 DUP1 LOG3 STOP JUMPDEST PUSH4 0x1E4FBDF7 PUSH1 0xE0 SHL PUSH1 0x0 MSTORE PUSH1 0x0 PUSH1 0x4 MSTORE PUSH1 0x24 PUSH1 0x0 REVERT JUMPDEST PUSH1 0x0 DUP1 REVERT JUMPDEST CALLVALUE PUSH2 0x129 JUMPI PUSH1 0x60 CALLDATASIZE PUSH1 0x3 NOT ADD SLT PUSH2 0x129 JUMPI PUSH1 0x4 CALLDATALOAD PUSH1 0x1 PUSH1 0x1 PUSH1 0x40 SHL SUB DUP2 GT PUSH2 0x129 JUMPI PUSH2 0x15E SWAP1 CALLDATASIZE SWAP1 PUSH1 0x4 ADD PUSH2 0x1817 JUMP JUMPDEST PUSH1 0x24 CALLDATALOAD PUSH1 0x1 PUSH1 0x1 PUSH1 0xA0 SHL SUB DUP2 AND SWAP2 SWAP1 DUP3 SWAP1 SUB PUSH2 0x129 JUMPI PUSH1 0x44 CALLDATALOAD SWAP1 PUSH1 0x40 MLOAD SWAP2 DUP2 MLOAD SWAP3 PUSH1 0x9 PUSH1 0x20 DUP5 ADD SWAP5 PUSH2 0x191 DUP2 DUP5 DUP9 PUSH2 0x186D JUMP JUMPDEST PUSH1 0x1 SWAP1 DUP4 ADD SWAP1 DUP2 MSTORE DUP3 SWAP1 SUB PUSH1 0x20 ADD SWAP1 SWAP2 KECCAK256 ADD SLOAD PUSH1 0x1 PUSH1 0x1 PUSH1 0xA0 SHL SUB AND CALLER SUB PUSH2 0x3E5 JUMPI PUSH2 0x1BE DUP5 ISZERO ISZERO PUSH2 0x1F98 JUMP JUMPDEST DUP1 ISZERO PUSH2 0x395 JUMPI PUSH1 0xA PUSH1 0x40 MLOAD PUSH1 0x20 DUP2 DUP6 MLOAD PUSH2 0x1D9 DUP2 DUP4 DUP11 PUSH2 0x186D JUMP JUMPDEST DUP2 ADD PUSH1 0x1 DUP2 MSTORE SUB ADD SWAP1 KECCAK256 ADD DUP5 PUSH1 0x0 MSTORE PUSH1 0x20 MSTORE PUSH1 0x40 PUSH1 0x0 KECCAK256 SLOAD DUP1 ISZERO SWAP1 DUP2 ISZERO PUSH2 0x38A JUMPI JUMPDEST POP ISZERO PUSH2 0x346 JUMPI TIMESTAMP ADD SWAP2 DUP3 TIMESTAMP GT PUSH2 0x330 JUMPI PUSH2 0x250 PUSH1 0x20 PUSH1 0xB SWAP3 PUSH1 0xA PUSH1 0x40 MLOAD DUP4 DUP2 DUP9 MLOAD PUSH2 0x227 DUP2 DUP4 DUP9 PUSH2 0x186D JUMP JUMPDEST DUP2 ADD PUSH1 0x1 DUP2 MSTORE SUB ADD SWAP1 KECCAK256 ADD DUP8 PUSH1 0x0 MSTORE DUP3 MSTORE DUP6 PUSH1 0x40 PUSH1 0x0 KECCAK256 SSTORE PUSH1 0x40 MLOAD DUP1 SWAP4 DUP2 SWAP3 DUP8 MLOAD SWAP3 DUP4 SWAP2 PUSH2 0x186D JUMP JUMPDEST DUP2 ADD PUSH1 0x1 DUP2 MSTORE SUB ADD SWAP1 KECCAK256 ADD PUSH1 0x40 MLOAD SWAP2 PUSH2 0x268 DUP4 PUSH2 0x17DB JUMP JUMPDEST DUP5 DUP4 MSTORE PUSH1 0x20 DUP4 ADD SWAP1 TIMESTAMP DUP3 MSTORE PUSH1 0x40 DUP5 ADD SWAP3 DUP6 DUP5 MSTORE DUP1 SLOAD PUSH1 0x1 PUSH1 0x40 SHL DUP2 LT ISZERO PUSH2 0x31A JUMPI PUSH2 0x298 SWAP2 PUSH1 0x1 DUP3 ADD DUP2 SSTORE PUSH2 0x1F7C JUMP JUMPDEST PUSH2 0x304 JUMPI SWAP4 MLOAD DUP5 SLOAD PUSH1 0x1 PUSH1 0x1 PUSH1 0xA0 SHL SUB NOT AND PUSH1 0x1 PUSH1 0x1 PUSH1 0xA0 SHL SUB SWAP2 SWAP1 SWAP2 AND OR DUP5 SSTORE SWAP1 MLOAD PUSH1 0x1 DUP5 ADD SSTORE SWAP1 MLOAD PUSH1 0x2 SWAP3 SWAP1 SWAP3 ADD SWAP2 SWAP1 SWAP2 SSTORE PUSH32 0xCD5010F0CF521705DC993CA35E5B2FD59371FB9516F4C5DAB9CD77693BBF92B0 SWAP1 PUSH1 0x20 SWAP1 PUSH2 0x2FA SWAP1 PUSH2 0x1F5C JUMP JUMPDEST SWAP3 PUSH1 0x40 MLOAD SWAP1 DUP2 MSTORE LOG3 STOP JUMPDEST PUSH4 0x4E487B71 PUSH1 0xE0 SHL PUSH1 0x0 MSTORE PUSH1 0x0 PUSH1 0x4 MSTORE PUSH1 0x24 PUSH1 0x0 REVERT JUMPDEST PUSH4 0x4E487B71 PUSH1 0xE0 SHL PUSH1 0x0 MSTORE PUSH1 0x41 PUSH1 0x4 MSTORE PUSH1 0x24 PUSH1 0x0 REVERT JUMPDEST PUSH4 0x4E487B71 PUSH1 0xE0 SHL PUSH1 0x0 MSTORE PUSH1 0x11 PUSH1 0x4 MSTORE PUSH1 0x24 PUSH1 0x0 REVERT JUMPDEST PUSH1 0x64 PUSH1 0x40 MLOAD PUSH3 0x461BCD PUSH1 0xE5 SHL DUP2 MSTORE PUSH1 0x20 PUSH1 0x4 DUP3 ADD MSTORE PUSH1 0x20 PUSH1 0x24 DUP3 ADD MSTORE PUSH32 0x446F63746F7220616C7265616479206861732061637469766520616363657373 PUSH1 0x44 DUP3 ADD MSTORE REVERT JUMPDEST SWAP1 POP TIMESTAMP LT ISZERO DUP6 PUSH2 0x1FB JUMP JUMPDEST PUSH1 0x40 MLOAD PUSH3 0x461BCD PUSH1 0xE5 SHL DUP2 MSTORE PUSH1 0x20 PUSH1 0x4 DUP3 ADD MSTORE PUSH1 0x22 PUSH1 0x24 DUP3 ADD MSTORE PUSH32 0x4475726174696F6E206D7573742062652067726561746572207468616E207A65 PUSH1 0x44 DUP3 ADD MSTORE PUSH2 0x726F PUSH1 0xF0 SHL PUSH1 0x64 DUP3 ADD MSTORE PUSH1 0x84 SWAP1 REVERT JUMPDEST PUSH1 0x40 MLOAD PUSH3 0x461BCD PUSH1 0xE5 SHL DUP2 MSTORE PUSH1 0x20 PUSH1 0x4 DUP3 ADD MSTORE PUSH1 0x1B PUSH1 0x24 DUP3 ADD MSTORE PUSH32 0x4F6E6C79206F776E65722063616E206772616E74206163636573730000000000 PUSH1 0x44 DUP3 ADD MSTORE PUSH1 0x64 SWAP1 REVERT JUMPDEST CALLVALUE PUSH2 0x129 JUMPI PUSH2 0x438 CALLDATASIZE PUSH2 0x1B36 JUMP JUMPDEST PUSH1 0x40 MLOAD SWAP1 DUP3 MLOAD SWAP2 PUSH1 0x9 PUSH1 0x20 DUP6 ADD SWAP4 PUSH2 0x451 DUP2 DUP5 DUP8 PUSH2 0x186D JUMP JUMPDEST PUSH1 0x1 SWAP1 DUP4 ADD SWAP1 DUP2 MSTORE DUP3 SWAP1 SUB PUSH1 0x20 ADD SWAP1 SWAP2 KECCAK256 ADD SLOAD PUSH1 0x1 PUSH1 0x1 PUSH1 0xA0 SHL SUB AND CALLER SUB PUSH2 0x5AA JUMPI PUSH1 0x1 PUSH1 0x1 PUSH1 0xA0 SHL SUB AND SWAP2 PUSH2 0x488 DUP4 ISZERO ISZERO PUSH2 0x1F98 JUMP JUMPDEST PUSH1 0xA PUSH1 0x40 MLOAD PUSH1 0x20 DUP2 DUP5 MLOAD PUSH2 0x49D DUP2 DUP4 DUP10 PUSH2 0x186D JUMP JUMPDEST DUP2 ADD PUSH1 0x1 DUP2 MSTORE SUB ADD SWAP1 KECCAK256 ADD DUP4 PUSH1 0x0 MSTORE PUSH1 0x20 MSTORE PUSH1 0x40 PUSH1 0x0 KECCAK256 SLOAD DUP1 ISZERO PUSH2 0x566 JUMPI TIMESTAMP LT ISZERO PUSH2 0x528 JUMPI PUSH1 0xA PUSH2 0x4DE PUSH1 0x20 PUSH2 0x4FC SWAP5 PUSH1 0x40 MLOAD DUP1 SWAP4 DUP2 SWAP3 DUP8 MLOAD SWAP3 DUP4 SWAP2 PUSH2 0x186D JUMP JUMPDEST DUP2 ADD PUSH1 0x1 DUP2 MSTORE SUB ADD SWAP1 KECCAK256 ADD DUP4 PUSH1 0x0 MSTORE PUSH1 0x20 MSTORE PUSH1 0x0 PUSH1 0x40 DUP2 KECCAK256 SSTORE PUSH2 0x1F5C JUMP JUMPDEST PUSH32 0xF7EB47ECBC62E098414C8565B83461841E3AE69F64AD0DA8609ABEFECAEC86AD PUSH1 0x20 PUSH1 0x40 MLOAD TIMESTAMP DUP2 MSTORE LOG3 STOP JUMPDEST PUSH1 0x40 MLOAD PUSH3 0x461BCD PUSH1 0xE5 SHL DUP2 MSTORE PUSH1 0x20 PUSH1 0x4 DUP3 ADD MSTORE PUSH1 0x16 PUSH1 0x24 DUP3 ADD MSTORE PUSH22 0x1058D8D95CDCC8185B1C9958591E48195E1C1A5C9959 PUSH1 0x52 SHL PUSH1 0x44 DUP3 ADD MSTORE PUSH1 0x64 SWAP1 REVERT JUMPDEST PUSH1 0x64 PUSH1 0x40 MLOAD PUSH3 0x461BCD PUSH1 0xE5 SHL DUP2 MSTORE PUSH1 0x20 PUSH1 0x4 DUP3 ADD MSTORE PUSH1 0x20 PUSH1 0x24 DUP3 ADD MSTORE PUSH32 0x4E6F20616363657373206772616E74656420746F207468697320646F63746F72 PUSH1 0x44 DUP3 ADD MSTORE REVERT JUMPDEST PUSH1 0x40 MLOAD PUSH3 0x461BCD PUSH1 0xE5 SHL DUP2 MSTORE PUSH1 0x20 PUSH1 0x4 DUP3 ADD MSTORE PUSH1 0x1C PUSH1 0x24 DUP3 ADD MSTORE PUSH32 0x4F6E6C79206F776E65722063616E207265766F6B652061636365737300000000 PUSH1 0x44 DUP3 ADD MSTORE PUSH1 0x64 SWAP1 REVERT JUMPDEST CALLVALUE PUSH2 0x129 JUMPI PUSH1 0xA0 CALLDATASIZE PUSH1 0x3 NOT ADD SLT PUSH2 0x129 JUMPI PUSH1 0x4 CALLDATALOAD PUSH1 0x1 PUSH1 0x1 PUSH1 0x40 SHL SUB DUP2 GT PUSH2 0x129 JUMPI PUSH2 0x61F SWAP1 CALLDATASIZE SWAP1 PUSH1 0x4 ADD PUSH2 0x1817 JUMP JUMPDEST PUSH1 0x24 CALLDATALOAD PUSH1 0x1 PUSH1 0x1 PUSH1 0x40 SHL SUB DUP2 GT PUSH2 0x129 JUMPI PUSH2 0x63E SWAP1 CALLDATASIZE SWAP1 PUSH1 0x4 ADD PUSH2 0x1817 JUMP JUMPDEST PUSH1 0x44 CALLDATALOAD PUSH1 0x1 PUSH1 0x1 PUSH1 0x40 SHL SUB DUP2 GT PUSH2 0x129 JUMPI PUSH2 0x65D SWAP1 CALLDATASIZE SWAP1 PUSH1 0x4 ADD PUSH2 0x1AB8 JUMP JUMPDEST PUSH1 0x64 CALLDATALOAD PUSH1 0x1 PUSH1 0x1 PUSH1 0x40 SHL SUB DUP2 GT PUSH2 0x129 JUMPI PUSH2 0x67C SWAP1 CALLDATASIZE SWAP1 PUSH1 0x4 ADD PUSH2 0x1AB8 JUMP JUMPDEST SWAP1 PUSH1 0x84 CALLDATALOAD PUSH1 0x1 PUSH1 0x1 PUSH1 0x40 SHL SUB DUP2 GT PUSH2 0x129 JUMPI PUSH2 0x69C SWAP1 CALLDATASIZE SWAP1 PUSH1 0x4 ADD PUSH2 0x1AB8 JUMP JUMPDEST SWAP1 PUSH1 0x40 MLOAD PUSH1 0x20 DUP2 DUP8 MLOAD PUSH2 0x6B2 DUP2 DUP4 DUP6 DUP13 ADD PUSH2 0x186D JUMP JUMPDEST PUSH1 0x1 SWAP1 DUP3 ADD SWAP1 DUP2 MSTORE SUB ADD SWAP1 KECCAK256 PUSH1 0x9 DUP2 ADD SLOAD PUSH1 0x1 PUSH1 0x1 PUSH1 0xA0 SHL SUB AND PUSH2 0x6D7 DUP2 ISZERO ISZERO PUSH2 0x1B77 JUMP JUMPDEST CALLER PUSH1 0x0 DUP2 DUP2 MSTORE PUSH1 0xA DUP5 ADD PUSH1 0x20 MSTORE PUSH1 0x40 SWAP1 KECCAK256 SLOAD SWAP2 EQ SWAP1 DUP2 ISZERO PUSH2 0x905 JUMPI JUMPDEST POP ISZERO PUSH2 0x89A JUMPI DUP2 MLOAD DUP5 MLOAD DUP2 EQ SWAP1 DUP2 PUSH2 0x88F JUMPI JUMPDEST POP ISZERO PUSH2 0x851 JUMPI PUSH1 0xC ADD DUP1 SLOAD PUSH1 0x1 PUSH1 0x40 SHL DUP2 LT ISZERO PUSH2 0x31A JUMPI PUSH1 0x1 DUP2 ADD DUP1 DUP4 SSTORE DUP2 LT ISZERO PUSH2 0x83B JUMPI PUSH1 0x0 SWAP2 DUP3 MSTORE PUSH1 0x20 SWAP1 SWAP2 KECCAK256 PUSH1 0x2 SWAP2 DUP3 SHL ADD DUP1 SLOAD PUSH1 0x1 PUSH1 0x1 PUSH1 0xA0 SHL SUB NOT AND CALLER OR DUP2 SSTORE TIMESTAMP PUSH1 0x1 DUP3 ADD SSTORE SWAP6 SWAP5 PUSH2 0x75E SWAP2 DUP8 ADD PUSH2 0x1E51 JUMP JUMPDEST PUSH1 0x3 PUSH1 0x0 SWAP6 ADD SWAP5 JUMPDEST DUP2 MLOAD DUP2 LT ISZERO PUSH2 0x803 JUMPI PUSH2 0x779 DUP2 DUP4 PUSH2 0x1DE5 JUMP JUMPDEST MLOAD SWAP1 PUSH2 0x785 DUP2 DUP7 PUSH2 0x1DE5 JUMP JUMPDEST MLOAD SWAP2 PUSH2 0x791 DUP3 DUP7 PUSH2 0x1DE5 JUMP JUMPDEST MLOAD SWAP3 PUSH1 0x40 MLOAD SWAP2 PUSH2 0x7A0 DUP4 PUSH2 0x17DB JUMP JUMPDEST DUP3 MSTORE PUSH1 0x20 DUP3 ADD SWAP1 DUP2 MSTORE PUSH1 0x40 DUP3 ADD SWAP4 DUP5 MSTORE DUP9 SLOAD PUSH1 0x1 PUSH1 0x40 SHL DUP2 LT ISZERO PUSH2 0x31A JUMPI DUP1 PUSH1 0x1 PUSH2 0x7CE SWAP3 ADD DUP12 SSTORE DUP11 PUSH2 0x1F7C JUMP JUMPDEST SWAP2 SWAP1 SWAP2 PUSH2 0x304 JUMPI PUSH1 0x1 SWAP5 PUSH2 0x7F5 PUSH1 0x2 SWAP3 PUSH2 0x7EC PUSH2 0x7FD SWAP7 MLOAD DUP7 PUSH2 0x1E51 JUMP JUMPDEST MLOAD DUP8 DUP6 ADD PUSH2 0x1E51 JUMP JUMPDEST MLOAD SWAP2 ADD PUSH2 0x1E51 JUMP JUMPDEST ADD PUSH2 0x766 JUMP JUMPDEST PUSH2 0x80C DUP6 PUSH2 0x1F5C JUMP JUMPDEST PUSH1 0x40 MLOAD SWAP1 TIMESTAMP DUP3 MSTORE PUSH32 0xC80725979B17511EBF63E1F6DC8D5C05386DDCAC1A1FAA0D7301160188F772F3 PUSH1 0x20 CALLER SWAP4 LOG3 STOP JUMPDEST PUSH4 0x4E487B71 PUSH1 0xE0 SHL PUSH1 0x0 MSTORE PUSH1 0x32 PUSH1 0x4 MSTORE PUSH1 0x24 PUSH1 0x0 REVERT JUMPDEST PUSH1 0x40 MLOAD PUSH3 0x461BCD PUSH1 0xE5 SHL DUP2 MSTORE PUSH1 0x20 PUSH1 0x4 DUP3 ADD MSTORE PUSH1 0x16 PUSH1 0x24 DUP3 ADD MSTORE PUSH22 0x9ACAC8D2C6D2DCCA40C8C2E8C240DAD2E6DAC2E8C6D PUSH1 0x53 SHL PUSH1 0x44 DUP3 ADD MSTORE PUSH1 0x64 SWAP1 REVERT JUMPDEST SWAP1 POP DUP4 MLOAD EQ DUP8 PUSH2 0x706 JUMP JUMPDEST PUSH1 0x40 MLOAD PUSH3 0x461BCD PUSH1 0xE5 SHL DUP2 MSTORE PUSH1 0x20 PUSH1 0x4 DUP3 ADD MSTORE PUSH1 0x3A PUSH1 0x24 DUP3 ADD MSTORE PUSH32 0x4E6F7420617574686F72697A65643A204D757374206265204F776E6572206F72 PUSH1 0x44 DUP3 ADD MSTORE PUSH32 0x20446F63746F7220776974682061637469766520616363657373000000000000 PUSH1 0x64 DUP3 ADD MSTORE PUSH1 0x84 SWAP1 REVERT JUMPDEST SWAP1 POP TIMESTAMP LT DUP8 PUSH2 0x6F3 JUMP JUMPDEST CALLVALUE PUSH2 0x129 JUMPI PUSH1 0x20 PUSH1 0xA PUSH2 0x974 PUSH2 0x924 CALLDATASIZE PUSH2 0x1B36 JUMP JUMPDEST SWAP4 SWAP1 PUSH1 0x40 MLOAD SWAP1 PUSH2 0x963 DUP2 MLOAD SWAP3 PUSH1 0x9 DUP6 DUP5 ADD SWAP5 PUSH2 0x941 DUP2 DUP5 DUP9 PUSH2 0x186D JUMP JUMPDEST PUSH1 0x1 SWAP1 DUP4 ADD SWAP1 DUP2 MSTORE DUP3 SWAP1 SUB DUP7 ADD SWAP1 SWAP2 KECCAK256 ADD SLOAD PUSH1 0x1 PUSH1 0x1 PUSH1 0xA0 SHL SUB AND ISZERO ISZERO PUSH2 0x1B77 JUMP JUMPDEST PUSH1 0x40 MLOAD SWAP4 DUP5 SWAP3 DUP4 SWAP3 MLOAD SWAP3 DUP4 SWAP2 PUSH2 0x186D JUMP JUMPDEST DUP2 ADD PUSH1 0x1 DUP2 MSTORE SUB ADD SWAP1 KECCAK256 ADD SWAP1 PUSH1 0x1 DUP1 PUSH1 0xA0 SHL SUB AND PUSH1 0x0 MSTORE PUSH1 0x20 MSTORE PUSH1 0x20 PUSH1 0x40 PUSH1 0x0 KECCAK256 SLOAD PUSH1 0x40 MLOAD SWAP1 DUP2 MSTORE RETURN JUMPDEST CALLVALUE PUSH2 0x129 JUMPI PUSH1 0x0 CALLDATASIZE PUSH1 0x3 NOT ADD SLT PUSH2 0x129 JUMPI PUSH1 0x0 SLOAD PUSH1 0x40 MLOAD PUSH1 0x1 PUSH1 0x1 PUSH1 0xA0 SHL SUB SWAP1 SWAP2 AND DUP2 MSTORE PUSH1 0x20 SWAP1 RETURN JUMPDEST CALLVALUE PUSH2 0x129 JUMPI PUSH1 0x20 CALLDATASIZE PUSH1 0x3 NOT ADD SLT PUSH2 0x129 JUMPI PUSH1 0x4 CALLDATALOAD PUSH1 0x1 PUSH1 0x1 PUSH1 0x40 SHL SUB DUP2 GT PUSH2 0x129 JUMPI PUSH2 0x9F7 SWAP1 CALLDATASIZE SWAP1 PUSH1 0x4 ADD PUSH2 0x1817 JUMP JUMPDEST PUSH1 0x40 MLOAD DUP2 MLOAD SWAP1 PUSH1 0x9 PUSH1 0x20 DUP5 ADD SWAP3 PUSH2 0xA0F DUP2 DUP5 DUP7 PUSH2 0x186D JUMP JUMPDEST PUSH1 0x1 SWAP1 DUP4 ADD SWAP1 DUP2 MSTORE DUP3 SWAP1 SUB PUSH1 0x20 ADD SWAP1 SWAP2 KECCAK256 ADD SLOAD PUSH1 0x1 PUSH1 0x1 PUSH1 0xA0 SHL SUB AND CALLER SUB PUSH2 0xB31 JUMPI PUSH1 0x20 PUSH2 0xA4B SWAP2 PUSH1 0xB SWAP4 PUSH1 0x40 MLOAD SWAP4 DUP5 SWAP3 DUP4 SWAP3 MLOAD SWAP3 DUP4 SWAP2 PUSH2 0x186D JUMP JUMPDEST DUP2 ADD PUSH1 0x1 DUP2 MSTORE SUB ADD SWAP1 KECCAK256 ADD DUP1 SLOAD SWAP1 PUSH2 0xA62 DUP3 PUSH2 0x1AA1 JUMP JUMPDEST SWAP2 PUSH2 0xA70 PUSH1 0x40 MLOAD SWAP4 DUP5 PUSH2 0x17F6 JUMP JUMPDEST DUP1 DUP4 MSTORE PUSH1 0x20 DUP4 ADD DUP1 SWAP3 PUSH1 0x0 MSTORE PUSH1 0x20 PUSH1 0x0 KECCAK256 PUSH1 0x0 SWAP2 JUMPDEST DUP4 DUP4 LT PUSH2 0xAF3 JUMPI DUP5 DUP7 PUSH1 0x40 MLOAD SWAP2 DUP3 SWAP2 PUSH1 0x20 DUP4 ADD SWAP1 PUSH1 0x20 DUP5 MSTORE MLOAD DUP1 SWAP2 MSTORE PUSH1 0x40 DUP4 ADD SWAP2 SWAP1 PUSH1 0x0 JUMPDEST DUP2 DUP2 LT PUSH2 0xAB8 JUMPI POP POP POP SUB SWAP1 RETURN JUMPDEST DUP3 MLOAD DUP1 MLOAD PUSH1 0x1 PUSH1 0x1 PUSH1 0xA0 SHL SUB AND DUP6 MSTORE PUSH1 0x20 DUP2 DUP2 ADD MLOAD DUP2 DUP8 ADD MSTORE PUSH1 0x40 SWAP2 DUP3 ADD MLOAD SWAP2 DUP7 ADD SWAP2 SWAP1 SWAP2 MSTORE DUP7 SWAP6 POP PUSH1 0x60 SWAP1 SWAP5 ADD SWAP4 SWAP1 SWAP3 ADD SWAP2 PUSH1 0x1 ADD PUSH2 0xAAA JUMP JUMPDEST PUSH1 0x3 PUSH1 0x20 PUSH1 0x1 SWAP3 PUSH1 0x40 MLOAD PUSH2 0xB06 DUP2 PUSH2 0x17DB JUMP JUMPDEST DUP5 DUP1 PUSH1 0xA0 SHL SUB DUP7 SLOAD AND DUP2 MSTORE DUP5 DUP7 ADD SLOAD DUP4 DUP3 ADD MSTORE PUSH1 0x2 DUP7 ADD SLOAD PUSH1 0x40 DUP3 ADD MSTORE DUP2 MSTORE ADD SWAP3 ADD SWAP3 ADD SWAP2 SWAP1 PUSH2 0xA85 JUMP JUMPDEST PUSH1 0x40 MLOAD PUSH3 0x461BCD PUSH1 0xE5 SHL DUP2 MSTORE PUSH1 0x20 PUSH1 0x4 DUP3 ADD MSTORE PUSH1 0x1B PUSH1 0x24 DUP3 ADD MSTORE PUSH32 0x4F6E6C79206F776E65722063616E207669657720686973746F72790000000000 PUSH1 0x44 DUP3 ADD MSTORE PUSH1 0x64 SWAP1 REVERT JUMPDEST CALLVALUE PUSH2 0x129 JUMPI PUSH1 0x0 CALLDATASIZE PUSH1 0x3 NOT ADD SLT PUSH2 0x129 JUMPI PUSH2 0xB8F PUSH2 0x1FDD JUMP JUMPDEST PUSH1 0x0 DUP1 SLOAD PUSH1 0x1 PUSH1 0x1 PUSH1 0xA0 SHL SUB NOT DUP2 AND DUP3 SSTORE PUSH1 0x1 PUSH1 0x1 PUSH1 0xA0 SHL SUB AND PUSH32 0x8BE0079C531659141344CD1FD0A4F28419497F9722A3DAAFE3B4186F6B6457E0 DUP3 DUP1 LOG3 STOP JUMPDEST CALLVALUE PUSH2 0x129 JUMPI PUSH2 0x140 CALLDATASIZE PUSH1 0x3 NOT ADD SLT PUSH2 0x129 JUMPI PUSH1 0x4 CALLDATALOAD PUSH1 0x1 PUSH1 0x1 PUSH1 0x40 SHL SUB DUP2 GT PUSH2 0x129 JUMPI PUSH2 0xC00 SWAP1 CALLDATASIZE SWAP1 PUSH1 0x4 ADD PUSH2 0x1817 JUMP JUMPDEST PUSH1 0x24 CALLDATALOAD PUSH1 0x1 PUSH1 0x1 PUSH1 0x40 SHL SUB DUP2 GT PUSH2 0x129 JUMPI PUSH2 0xC1F SWAP1 CALLDATASIZE SWAP1 PUSH1 0x4 ADD PUSH2 0x1AB8 JUMP JUMPDEST PUSH1 0x44 CALLDATALOAD PUSH1 0x1 PUSH1 0x1 PUSH1 0x40 SHL SUB DUP2 GT PUSH2 0x129 JUMPI PUSH2 0xC3E SWAP1 CALLDATASIZE SWAP1 PUSH1 0x4 ADD PUSH2 0x1817 JUMP JUMPDEST SWAP1 PUSH1 0x64 CALLDATALOAD SWAP3 PUSH1 0xFF DUP5 AND DUP1 SWAP5 SUB PUSH2 0x129 JUMPI PUSH1 0x84 CALLDATALOAD PUSH1 0x1 PUSH1 0x1 PUSH1 0x40 SHL SUB DUP2 GT PUSH2 0x129 JUMPI PUSH2 0xC6D SWAP1 CALLDATASIZE SWAP1 PUSH1 0x4 ADD PUSH2 0x1817 JUMP JUMPDEST PUSH1 0xA4 CALLDATALOAD PUSH1 0x1 PUSH1 0x1 PUSH1 0x40 SHL SUB DUP2 GT PUSH2 0x129 JUMPI PUSH2 0xC8C SWAP1 CALLDATASIZE SWAP1 PUSH1 0x4 ADD PUSH2 0x1817 JUMP JUMPDEST PUSH1 0xC4 CALLDATALOAD PUSH1 0x1 PUSH1 0x1 PUSH1 0x40 SHL SUB DUP2 GT PUSH2 0x129 JUMPI PUSH2 0xCAB SWAP1 CALLDATASIZE SWAP1 PUSH1 0x4 ADD PUSH2 0x1817 JUMP JUMPDEST PUSH1 0xE4 CALLDATALOAD PUSH1 0x1 PUSH1 0x1 PUSH1 0x40 SHL SUB DUP2 GT PUSH2 0x129 JUMPI PUSH2 0xCCA SWAP1 CALLDATASIZE SWAP1 PUSH1 0x4 ADD PUSH2 0x1817 JUMP JUMPDEST SWAP1 PUSH2 0x104 CALLDATALOAD PUSH1 0x1 PUSH1 0x1 PUSH1 0x40 SHL SUB DUP2 GT PUSH2 0x129 JUMPI PUSH2 0xCEB SWAP1 CALLDATASIZE SWAP1 PUSH1 0x4 ADD PUSH2 0x1817 JUMP JUMPDEST SWAP3 PUSH2 0x124 CALLDATALOAD PUSH1 0x1 PUSH1 0x1 PUSH1 0x40 SHL SUB DUP2 GT PUSH2 0x129 JUMPI PUSH2 0xD0C SWAP1 CALLDATASIZE SWAP1 PUSH1 0x4 ADD PUSH2 0x1817 JUMP JUMPDEST SWAP5 DUP7 MLOAD ISZERO PUSH2 0xED2 JUMPI PUSH1 0x40 MLOAD DUP8 MLOAD SWAP1 PUSH1 0x9 PUSH1 0x20 DUP11 ADD SWAP3 PUSH2 0xD2C DUP2 DUP5 DUP7 PUSH2 0x186D JUMP JUMPDEST PUSH1 0x1 SWAP1 DUP4 ADD SWAP1 DUP2 MSTORE DUP3 SWAP1 SUB PUSH1 0x20 ADD SWAP1 SWAP2 KECCAK256 ADD SLOAD PUSH1 0x1 PUSH1 0x1 PUSH1 0xA0 SHL SUB AND PUSH2 0xE9C JUMPI PUSH1 0x20 PUSH2 0xD63 SWAP2 PUSH1 0x40 MLOAD DUP1 SWAP4 DUP2 SWAP3 DUP13 MLOAD SWAP3 DUP4 SWAP2 PUSH2 0x186D JUMP JUMPDEST PUSH1 0x1 SWAP1 DUP3 ADD SWAP1 DUP2 MSTORE SUB ADD SWAP1 KECCAK256 PUSH1 0x9 DUP2 ADD DUP1 SLOAD PUSH1 0x1 PUSH1 0x1 PUSH1 0xA0 SHL SUB NOT AND CALLER OR SWAP1 SSTORE SWAP10 PUSH1 0x0 JUMPDEST DUP10 MLOAD DUP2 LT ISZERO PUSH2 0xDD0 JUMPI PUSH2 0xD9A DUP2 DUP12 PUSH2 0x1DE5 JUMP JUMPDEST MLOAD SWAP1 DUP13 SLOAD PUSH1 0x1 PUSH1 0x40 SHL DUP2 LT ISZERO PUSH2 0x31A JUMPI DUP1 DUP15 PUSH1 0x1 PUSH2 0xDBA SWAP4 ADD DUP2 SSTORE PUSH2 0x1CB4 JUMP JUMPDEST PUSH2 0x304 JUMPI PUSH1 0x1 SWAP3 PUSH2 0xDCA SWAP2 PUSH2 0x1E51 JUMP JUMPDEST ADD PUSH2 0xD87 JUMP JUMPDEST POP PUSH1 0x8 SWAP5 PUSH2 0xE24 DUP13 SWAP6 PUSH2 0xE1B PUSH2 0xE36 SWAP7 PUSH2 0xE12 DUP16 SWAP8 PUSH2 0xE2D SWAP8 PUSH2 0xDFB PUSH2 0xE3C SWAP16 SWAP15 SWAP11 PUSH1 0x1 DUP15 ADD PUSH2 0x1E51 JUMP JUMPDEST PUSH1 0x2 DUP13 ADD SWAP1 PUSH1 0xFF NOT DUP3 SLOAD AND OR SWAP1 SSTORE PUSH1 0x3 DUP12 ADD PUSH2 0x1E51 JUMP JUMPDEST PUSH1 0x4 DUP10 ADD PUSH2 0x1E51 JUMP JUMPDEST PUSH1 0x5 DUP8 ADD PUSH2 0x1E51 JUMP JUMPDEST PUSH1 0x6 DUP6 ADD PUSH2 0x1E51 JUMP JUMPDEST PUSH1 0x7 DUP4 ADD PUSH2 0x1E51 JUMP JUMPDEST ADD PUSH2 0x1E51 JUMP JUMPDEST PUSH1 0x2 SLOAD PUSH1 0x1 PUSH1 0x40 SHL DUP2 LT ISZERO PUSH2 0x31A JUMPI DUP1 PUSH1 0x1 PUSH2 0xE5D SWAP3 ADD PUSH1 0x2 SSTORE PUSH1 0x2 PUSH2 0x1CB4 JUMP JUMPDEST PUSH2 0x304 JUMPI DUP2 PUSH2 0xE6B SWAP2 PUSH2 0x1E51 JUMP JUMPDEST PUSH2 0xE75 CALLER SWAP2 PUSH2 0x1F5C JUMP JUMPDEST PUSH32 0x5613B0EA20E0C0C2C37E5DEE1B46009EE8B652C2F475D4D1057EF06A6A5B8C0C PUSH1 0x0 DUP1 LOG3 STOP JUMPDEST PUSH1 0x40 MLOAD PUSH3 0x461BCD PUSH1 0xE5 SHL DUP2 MSTORE PUSH1 0x20 PUSH1 0x4 DUP3 ADD MSTORE PUSH1 0xE PUSH1 0x24 DUP3 ADD MSTORE PUSH14 0x416C726561647920657869737473 PUSH1 0x90 SHL PUSH1 0x44 DUP3 ADD MSTORE PUSH1 0x64 SWAP1 REVERT JUMPDEST PUSH1 0x40 MLOAD PUSH3 0x461BCD PUSH1 0xE5 SHL DUP2 MSTORE PUSH1 0x20 PUSH1 0x4 DUP3 ADD MSTORE PUSH1 0xB PUSH1 0x24 DUP3 ADD MSTORE PUSH11 0x1251081C995C5D5A5C9959 PUSH1 0xAA SHL PUSH1 0x44 DUP3 ADD MSTORE PUSH1 0x64 SWAP1 REVERT JUMPDEST CALLVALUE PUSH2 0x129 JUMPI PUSH1 0x20 CALLDATASIZE PUSH1 0x3 NOT ADD SLT PUSH2 0x129 JUMPI PUSH2 0xF1E PUSH2 0x18B5 JUMP JUMPDEST PUSH1 0x2 SLOAD SWAP1 PUSH1 0x0 SWAP1 PUSH1 0x1 PUSH1 0x1 PUSH1 0xA0 SHL SUB AND DUP2 JUMPDEST DUP4 DUP2 LT PUSH2 0x114A JUMPI POP PUSH2 0xF41 DUP3 PUSH2 0x1D69 JUMP JUMPDEST SWAP1 PUSH2 0xF4B DUP4 PUSH2 0x1D69 JUMP JUMPDEST SWAP3 PUSH2 0xF55 DUP2 PUSH2 0x1D69 JUMP JUMPDEST PUSH2 0xF5E DUP3 PUSH2 0x1DB3 JUMP JUMPDEST PUSH2 0xF67 DUP4 PUSH2 0x1D69 JUMP JUMPDEST PUSH2 0xF70 DUP5 PUSH2 0x1D69 JUMP JUMPDEST PUSH2 0xF79 DUP6 PUSH2 0x1D69 JUMP JUMPDEST SWAP2 PUSH2 0xF83 DUP7 PUSH2 0x1D69 JUMP JUMPDEST SWAP4 PUSH2 0xF8D DUP8 PUSH2 0x1D69 JUMP JUMPDEST SWAP6 PUSH2 0xFA0 PUSH2 0xF9A DUP10 PUSH2 0x1D69 JUMP JUMPDEST SWAP9 PUSH2 0x1DB3 JUMP JUMPDEST SWAP9 PUSH1 0x0 SWAP1 DUP2 DUP15 JUMPDEST DUP2 LT PUSH2 0xFC7 JUMPI POP POP POP PUSH2 0xFC3 SWAP10 SWAP11 SWAP12 POP PUSH1 0x40 MLOAD SWAP12 DUP13 SWAP12 DUP13 PUSH2 0x1924 JUMP JUMPDEST SUB SWAP1 RETURN JUMPDEST DUP12 DUP3 DUP16 DUP16 DUP13 DUP16 SWAP3 DUP16 SWAP3 DUP13 DUP16 SWAP3 DUP16 SWAP3 DUP15 SWAP2 DUP15 SWAP2 PUSH1 0x40 PUSH2 0xFED PUSH2 0xFE7 DUP16 PUSH2 0x1C99 JUMP JUMPDEST POP PUSH2 0x1CCC JUMP JUMPDEST SWAP12 PUSH1 0x0 SWAP1 DUP2 MSTORE PUSH1 0xA DUP14 ADD PUSH1 0x20 MSTORE KECCAK256 TIMESTAMP SWAP1 SLOAD GT DUP1 PUSH2 0x1133 JUMPI JUMPDEST PUSH2 0x101F JUMPI JUMPDEST POP POP POP POP POP POP POP POP POP POP POP POP PUSH1 0x1 ADD DUP15 PUSH2 0xFA7 JUMP JUMPDEST SWAP8 PUSH2 0x10E6 DUP14 SWAP16 DUP1 SWAP13 SWAP9 SWAP10 PUSH1 0x1 SWAP16 PUSH2 0x1119 SWAP16 SWAP14 SWAP8 DUP4 SWAP13 PUSH2 0x1082 PUSH2 0x1113 SWAP16 DUP15 PUSH2 0x10D2 PUSH2 0x1100 SWAP16 DUP10 SWAP16 SWAP1 PUSH2 0x10C5 PUSH2 0x10F3 SWAP16 DUP13 SWAP16 SWAP4 DUP14 SWAP11 PUSH2 0x10A5 DUP13 DUP1 SWAP8 SWAP5 PUSH2 0x10D9 SWAP16 DUP3 DUP1 SWAP8 PUSH2 0x1082 PUSH1 0x5 SWAP16 DUP16 SWAP1 DUP5 PUSH2 0x1092 SWAP2 PUSH2 0x1082 PUSH2 0x107C PUSH2 0x1098 SWAP10 PUSH2 0x1C99 JUMP JUMPDEST POP PUSH2 0x1BF5 JUMP JUMPDEST PUSH2 0x108C DUP4 DUP4 PUSH2 0x1DE5 JUMP JUMPDEST MSTORE PUSH2 0x1DE5 JUMP JUMPDEST POP PUSH2 0x1DF9 JUMP JUMPDEST POP PUSH2 0x1082 PUSH1 0x1 DUP13 ADD PUSH2 0x1BF5 JUMP JUMPDEST POP PUSH2 0x10B8 DUP4 PUSH1 0xFF PUSH1 0x2 DUP12 ADD SLOAD AND SWAP3 PUSH2 0x1DE5 JUMP JUMPDEST MSTORE PUSH2 0x1082 PUSH1 0x3 DUP9 ADD PUSH2 0x1BF5 JUMP JUMPDEST POP PUSH2 0x1082 PUSH1 0x4 DUP6 ADD PUSH2 0x1BF5 JUMP JUMPDEST POP ADD PUSH2 0x1BF5 JUMP JUMPDEST POP PUSH2 0x1082 PUSH1 0x6 DUP12 ADD PUSH2 0x1BF5 JUMP JUMPDEST POP PUSH2 0x1082 PUSH1 0x7 DUP9 ADD PUSH2 0x1BF5 JUMP JUMPDEST POP PUSH2 0x1082 PUSH1 0x8 DUP6 ADD PUSH2 0x1BF5 JUMP JUMPDEST POP PUSH1 0x9 DUP8 DUP1 PUSH1 0xA0 SHL SUB SWAP2 ADD SLOAD AND SWAP3 PUSH2 0x1DE5 JUMP JUMPDEST MSTORE PUSH2 0x1D5A JUMP JUMPDEST SWAP3 SWAP1 POP DUP12 CODESIZE DUP16 DUP16 DUP13 DUP16 SWAP3 DUP16 SWAP3 DUP13 DUP16 SWAP3 DUP16 SWAP3 DUP15 SWAP2 DUP15 SWAP2 PUSH2 0x100A JUMP JUMPDEST POP PUSH1 0x9 DUP12 ADD SLOAD PUSH1 0x1 PUSH1 0x1 PUSH1 0xA0 SHL SUB AND DUP15 EQ ISZERO PUSH2 0x1005 JUMP JUMPDEST PUSH2 0x1156 PUSH2 0xFE7 DUP3 PUSH2 0x1C99 JUMP JUMPDEST DUP3 PUSH1 0x40 PUSH1 0x0 DUP3 DUP2 MSTORE PUSH1 0xA DUP5 ADD PUSH1 0x20 MSTORE KECCAK256 TIMESTAMP SWAP1 SLOAD GT SWAP2 DUP3 PUSH2 0x1194 JUMPI JUMPDEST POP POP PUSH2 0x1180 JUMPI JUMPDEST PUSH1 0x1 ADD PUSH2 0xF30 JUMP JUMPDEST SWAP2 PUSH2 0x118C PUSH1 0x1 SWAP2 PUSH2 0x1D5A JUMP JUMPDEST SWAP3 SWAP1 POP PUSH2 0x1178 JUMP JUMPDEST PUSH1 0x9 ADD SLOAD PUSH1 0x1 PUSH1 0x1 PUSH1 0xA0 SHL SUB AND EQ ISZERO SWAP1 POP DUP3 DUP7 PUSH2 0x1171 JUMP JUMPDEST CALLVALUE PUSH2 0x129 JUMPI PUSH1 0x20 CALLDATASIZE PUSH1 0x3 NOT ADD SLT PUSH2 0x129 JUMPI PUSH2 0x11C5 PUSH2 0x18B5 JUMP JUMPDEST PUSH1 0x2 SLOAD SWAP1 PUSH1 0x0 SWAP1 PUSH1 0x1 PUSH1 0x1 PUSH1 0xA0 SHL SUB AND DUP2 JUMPDEST DUP4 DUP2 LT PUSH2 0x1463 JUMPI POP PUSH2 0x11E8 DUP3 PUSH2 0x1D69 JUMP JUMPDEST SWAP2 PUSH2 0x11F2 DUP2 PUSH2 0x1D69 JUMP JUMPDEST SWAP4 PUSH2 0x11FC DUP3 PUSH2 0x1D69 JUMP JUMPDEST PUSH2 0x1205 DUP4 PUSH2 0x1DB3 JUMP JUMPDEST PUSH2 0x120E DUP5 PUSH2 0x1D69 JUMP JUMPDEST PUSH2 0x1217 DUP6 PUSH2 0x1D69 JUMP JUMPDEST SWAP1 PUSH2 0x1221 DUP7 PUSH2 0x1D69 JUMP JUMPDEST SWAP3 PUSH2 0x122B DUP8 PUSH2 0x1D69 JUMP JUMPDEST SWAP5 PUSH2 0x1235 DUP9 PUSH2 0x1D69 JUMP JUMPDEST SWAP7 DUP12 PUSH2 0x1249 PUSH2 0x1243 DUP12 PUSH2 0x1D69 JUMP JUMPDEST SWAP11 PUSH2 0x1DB3 JUMP JUMPDEST SWAP11 DUP13 PUSH1 0x0 SWAP3 DUP4 SWAP2 JUMPDEST DUP6 DUP4 LT PUSH2 0x1270 JUMPI PUSH2 0xFC3 DUP16 DUP16 DUP16 DUP16 DUP16 DUP16 DUP16 DUP16 DUP16 PUSH1 0x40 MLOAD SWAP12 DUP13 SWAP12 DUP13 PUSH2 0x1924 JUMP JUMPDEST DUP13 DUP16 SWAP3 DUP16 SWAP3 DUP13 DUP16 SWAP3 DUP16 SWAP3 DUP13 DUP16 SWAP3 DUP16 SWAP3 DUP13 PUSH2 0x1289 DUP14 PUSH2 0x1C99 JUMP JUMPDEST POP PUSH1 0x1 PUSH1 0x1 PUSH1 0xA0 SHL SUB SWAP1 PUSH1 0x9 SWAP1 PUSH2 0x129F SWAP1 PUSH2 0x1CCC JUMP JUMPDEST ADD SLOAD AND EQ PUSH2 0x12BD JUMPI JUMPDEST POP POP POP POP POP POP POP POP POP POP POP PUSH1 0x1 ADD DUP15 DUP15 PUSH2 0x1251 JUMP JUMPDEST SWAP3 DUP12 SWAP14 SWAP12 SWAP9 SWAP7 SWAP5 SWAP3 DUP13 SWAP12 SWAP11 SWAP9 SWAP7 SWAP5 SWAP3 DUP13 SWAP4 DUP5 PUSH2 0x12D8 DUP14 PUSH2 0x1C99 JUMP JUMPDEST POP PUSH2 0x12E2 SWAP1 PUSH2 0x1CCC JUMP JUMPDEST SWAP13 PUSH2 0x12EC SWAP1 PUSH2 0x1C99 JUMP JUMPDEST POP PUSH2 0x12F6 SWAP1 PUSH2 0x1BF5 JUMP JUMPDEST PUSH2 0x1300 DUP3 DUP5 PUSH2 0x1DE5 JUMP JUMPDEST MSTORE PUSH2 0x130A SWAP2 PUSH2 0x1DE5 JUMP JUMPDEST POP DUP4 PUSH2 0x1315 DUP13 PUSH2 0x1DF9 JUMP JUMPDEST PUSH2 0x131F DUP3 DUP5 PUSH2 0x1DE5 JUMP JUMPDEST MSTORE PUSH2 0x1329 SWAP2 PUSH2 0x1DE5 JUMP JUMPDEST POP DUP3 PUSH2 0x1337 PUSH1 0x1 DUP13 ADD PUSH2 0x1BF5 JUMP JUMPDEST PUSH2 0x1341 DUP3 DUP5 PUSH2 0x1DE5 JUMP JUMPDEST MSTORE PUSH2 0x134B SWAP2 PUSH2 0x1DE5 JUMP JUMPDEST POP PUSH1 0x2 DUP10 ADD SLOAD PUSH1 0xFF AND SWAP2 PUSH2 0x135E SWAP2 PUSH2 0x1DE5 JUMP JUMPDEST MSTORE DUP9 PUSH2 0x136C PUSH1 0x3 DUP10 ADD PUSH2 0x1BF5 JUMP JUMPDEST PUSH2 0x1376 DUP3 DUP5 PUSH2 0x1DE5 JUMP JUMPDEST MSTORE PUSH2 0x1380 SWAP2 PUSH2 0x1DE5 JUMP JUMPDEST POP DUP8 PUSH2 0x138E PUSH1 0x4 DUP9 ADD PUSH2 0x1BF5 JUMP JUMPDEST PUSH2 0x1398 DUP3 DUP5 PUSH2 0x1DE5 JUMP JUMPDEST MSTORE PUSH2 0x13A2 SWAP2 PUSH2 0x1DE5 JUMP JUMPDEST POP DUP7 PUSH2 0x13B0 PUSH1 0x5 DUP8 ADD PUSH2 0x1BF5 JUMP JUMPDEST PUSH2 0x13BA DUP3 DUP5 PUSH2 0x1DE5 JUMP JUMPDEST MSTORE PUSH2 0x13C4 SWAP2 PUSH2 0x1DE5 JUMP JUMPDEST POP DUP6 PUSH2 0x13D2 PUSH1 0x6 DUP7 ADD PUSH2 0x1BF5 JUMP JUMPDEST PUSH2 0x13DC DUP3 DUP5 PUSH2 0x1DE5 JUMP JUMPDEST MSTORE PUSH2 0x13E6 SWAP2 PUSH2 0x1DE5 JUMP JUMPDEST POP DUP5 PUSH2 0x13F4 PUSH1 0x7 DUP6 ADD PUSH2 0x1BF5 JUMP JUMPDEST PUSH2 0x13FE DUP3 DUP5 PUSH2 0x1DE5 JUMP JUMPDEST MSTORE PUSH2 0x1408 SWAP2 PUSH2 0x1DE5 JUMP JUMPDEST POP DUP4 PUSH2 0x1416 PUSH1 0x8 DUP5 ADD PUSH2 0x1BF5 JUMP JUMPDEST PUSH2 0x1420 DUP3 DUP5 PUSH2 0x1DE5 JUMP JUMPDEST MSTORE PUSH2 0x142A SWAP2 PUSH2 0x1DE5 JUMP JUMPDEST POP PUSH1 0x9 ADD SLOAD PUSH1 0x1 PUSH1 0x1 PUSH1 0xA0 SHL SUB AND SWAP2 PUSH2 0x1442 SWAP2 PUSH2 0x1DE5 JUMP JUMPDEST MSTORE PUSH2 0x144C SWAP1 PUSH2 0x1D5A JUMP JUMPDEST SWAP2 DUP13 DUP16 DUP16 DUP13 DUP16 SWAP3 DUP16 SWAP3 DUP13 DUP16 SWAP3 DUP16 SWAP3 DUP15 SWAP2 DUP15 SWAP2 PUSH2 0x12A8 JUMP JUMPDEST DUP2 PUSH2 0x146D DUP3 PUSH2 0x1C99 JUMP JUMPDEST POP PUSH1 0x1 PUSH1 0x1 PUSH1 0xA0 SHL SUB SWAP1 PUSH1 0x9 SWAP1 PUSH2 0x1483 SWAP1 PUSH2 0x1CCC JUMP JUMPDEST ADD SLOAD AND EQ PUSH2 0x1494 JUMPI JUMPDEST PUSH1 0x1 ADD PUSH2 0x11D7 JUMP JUMPDEST SWAP2 PUSH2 0x14A0 PUSH1 0x1 SWAP2 PUSH2 0x1D5A JUMP JUMPDEST SWAP3 SWAP1 POP PUSH2 0x148C JUMP JUMPDEST CALLVALUE PUSH2 0x129 JUMPI PUSH1 0x20 CALLDATASIZE PUSH1 0x3 NOT ADD SLT PUSH2 0x129 JUMPI PUSH1 0x4 CALLDATALOAD PUSH1 0x1 PUSH1 0x1 PUSH1 0x40 SHL SUB DUP2 GT PUSH2 0x129 JUMPI PUSH1 0x20 PUSH2 0x14DD PUSH2 0x14F0 SWAP3 CALLDATASIZE SWAP1 PUSH1 0x4 ADD PUSH2 0x1817 JUMP JUMPDEST DUP2 PUSH1 0x40 MLOAD SWAP4 DUP3 DUP6 DUP1 SWAP5 MLOAD SWAP4 DUP5 SWAP3 ADD PUSH2 0x186D JUMP JUMPDEST PUSH1 0x1 SWAP1 DUP3 ADD SWAP1 DUP2 MSTORE SUB ADD SWAP1 KECCAK256 PUSH1 0x9 DUP2 ADD SLOAD PUSH1 0x1 PUSH1 0x1 PUSH1 0xA0 SHL SUB AND PUSH2 0x1515 DUP2 ISZERO ISZERO PUSH2 0x1B77 JUMP JUMPDEST CALLER PUSH1 0x0 DUP2 DUP2 MSTORE PUSH1 0xA DUP5 ADD PUSH1 0x20 MSTORE PUSH1 0x40 SWAP1 KECCAK256 SLOAD SWAP2 EQ SWAP1 DUP2 ISZERO PUSH2 0x17D1 JUMPI JUMPDEST POP ISZERO PUSH2 0x177D JUMPI PUSH1 0xC ADD DUP1 SLOAD SWAP1 PUSH2 0x1546 DUP3 PUSH2 0x1AA1 JUMP JUMPDEST SWAP2 PUSH2 0x1554 PUSH1 0x40 MLOAD SWAP4 DUP5 PUSH2 0x17F6 JUMP JUMPDEST DUP1 DUP4 MSTORE PUSH1 0x20 DUP4 ADD SWAP1 DUP2 SWAP3 PUSH1 0x0 MSTORE PUSH1 0x20 PUSH1 0x0 KECCAK256 SWAP2 PUSH1 0x0 SWAP1 JUMPDEST DUP3 DUP3 LT PUSH2 0x1694 JUMPI DUP5 DUP7 PUSH1 0x40 MLOAD SWAP2 DUP3 SWAP2 PUSH1 0x20 DUP4 ADD SWAP1 PUSH1 0x20 DUP5 MSTORE MLOAD DUP1 SWAP2 MSTORE PUSH1 0x40 DUP4 ADD SWAP1 PUSH1 0x40 DUP2 PUSH1 0x5 SHL DUP6 ADD ADD SWAP3 SWAP2 PUSH1 0x0 SWAP1 JUMPDEST DUP3 DUP3 LT PUSH2 0x15AA JUMPI POP POP POP POP SUB SWAP1 RETURN JUMPDEST SWAP2 SWAP4 SWAP1 SWAP3 SWAP5 POP PUSH1 0x3F NOT DUP7 DUP3 SUB ADD DUP3 MSTORE DUP5 MLOAD PUSH1 0x1 DUP1 PUSH1 0xA0 SHL SUB DUP2 MLOAD AND DUP3 MSTORE PUSH1 0x20 DUP2 ADD MLOAD PUSH1 0x20 DUP4 ADD MSTORE PUSH1 0x60 PUSH2 0x15EC PUSH1 0x40 DUP4 ADD MLOAD PUSH1 0x80 PUSH1 0x40 DUP7 ADD MSTORE PUSH1 0x80 DUP6 ADD SWAP1 PUSH2 0x1890 JUMP JUMPDEST SWAP2 ADD MLOAD SWAP2 PUSH1 0x60 DUP2 DUP4 SUB SWAP2 ADD MSTORE DUP2 MLOAD DUP1 DUP3 MSTORE PUSH1 0x20 DUP3 ADD SWAP1 PUSH1 0x20 DUP1 DUP3 PUSH1 0x5 SHL DUP6 ADD ADD SWAP5 ADD SWAP3 PUSH1 0x0 JUMPDEST DUP3 DUP2 LT PUSH2 0x1634 JUMPI POP POP POP POP POP PUSH1 0x20 DUP1 PUSH1 0x1 SWAP3 SWAP7 ADD SWAP3 ADD SWAP3 ADD DUP6 SWAP5 SWAP4 SWAP2 SWAP3 PUSH2 0x159B JUMP JUMPDEST SWAP1 SWAP2 SWAP3 SWAP4 SWAP5 PUSH1 0x20 DUP1 PUSH2 0x1687 PUSH1 0x1 SWAP4 PUSH1 0x1F NOT DUP8 DUP3 SUB ADD DUP10 MSTORE DUP10 MLOAD SWAP1 PUSH1 0x40 PUSH2 0x1676 PUSH2 0x1666 DUP5 MLOAD PUSH1 0x60 DUP6 MSTORE PUSH1 0x60 DUP6 ADD SWAP1 PUSH2 0x1890 JUMP JUMPDEST DUP7 DUP6 ADD MLOAD DUP5 DUP3 SUB DUP9 DUP7 ADD MSTORE PUSH2 0x1890 JUMP JUMPDEST SWAP3 ADD MLOAD SWAP1 PUSH1 0x40 DUP2 DUP5 SUB SWAP2 ADD MSTORE PUSH2 0x1890 JUMP JUMPDEST SWAP8 ADD SWAP6 ADD SWAP4 SWAP3 SWAP2 ADD PUSH2 0x1612 JUMP JUMPDEST PUSH1 0x40 MLOAD PUSH1 0x80 DUP2 ADD DUP2 DUP2 LT PUSH1 0x1 PUSH1 0x1 PUSH1 0x40 SHL SUB DUP3 GT OR PUSH2 0x31A JUMPI PUSH1 0x40 MSTORE DUP5 SLOAD PUSH1 0x1 PUSH1 0x1 PUSH1 0xA0 SHL SUB AND DUP2 MSTORE PUSH1 0x1 DUP6 ADD SLOAD PUSH1 0x20 DUP3 ADD MSTORE PUSH2 0x16D3 PUSH1 0x2 DUP7 ADD PUSH2 0x1BF5 JUMP JUMPDEST PUSH1 0x40 DUP3 ADD MSTORE PUSH1 0x3 DUP6 ADD DUP1 SLOAD PUSH2 0x16E7 DUP2 PUSH2 0x1AA1 JUMP JUMPDEST SWAP2 PUSH2 0x16F5 PUSH1 0x40 MLOAD SWAP4 DUP5 PUSH2 0x17F6 JUMP JUMPDEST DUP2 DUP4 MSTORE PUSH1 0x20 DUP4 ADD SWAP1 PUSH1 0x0 MSTORE PUSH1 0x20 PUSH1 0x0 KECCAK256 SWAP1 PUSH1 0x0 SWAP1 JUMPDEST DUP4 DUP3 LT PUSH2 0x1731 JUMPI POP POP POP POP PUSH1 0x1 SWAP3 DUP3 PUSH1 0x20 SWAP3 PUSH1 0x60 PUSH1 0x4 SWAP6 ADD MSTORE DUP2 MSTORE ADD SWAP5 ADD SWAP2 ADD SWAP1 SWAP3 PUSH2 0x156B JUMP JUMPDEST PUSH1 0x3 PUSH1 0x20 PUSH1 0x1 SWAP3 PUSH1 0x40 MLOAD PUSH2 0x1744 DUP2 PUSH2 0x17DB JUMP JUMPDEST PUSH2 0x174D DUP8 PUSH2 0x1BF5 JUMP JUMPDEST DUP2 MSTORE PUSH2 0x175A DUP6 DUP9 ADD PUSH2 0x1BF5 JUMP JUMPDEST DUP4 DUP3 ADD MSTORE PUSH2 0x176A PUSH1 0x2 DUP9 ADD PUSH2 0x1BF5 JUMP JUMPDEST PUSH1 0x40 DUP3 ADD MSTORE DUP2 MSTORE ADD SWAP4 ADD SWAP2 ADD SWAP1 SWAP2 PUSH2 0x170A JUMP JUMPDEST PUSH1 0x40 MLOAD PUSH3 0x461BCD PUSH1 0xE5 SHL DUP2 MSTORE PUSH1 0x20 PUSH1 0x4 DUP3 ADD MSTORE PUSH1 0x26 PUSH1 0x24 DUP3 ADD MSTORE PUSH32 0x4E6F7420617574686F72697A656420746F2076696577207265636F6D6D656E64 PUSH1 0x44 DUP3 ADD MSTORE PUSH6 0x6174696F6E73 PUSH1 0xD0 SHL PUSH1 0x64 DUP3 ADD MSTORE PUSH1 0x84 SWAP1 REVERT JUMPDEST SWAP1 POP TIMESTAMP LT DUP3 PUSH2 0x1531 JUMP JUMPDEST PUSH1 0x60 DUP2 ADD SWAP1 DUP2 LT PUSH1 0x1 PUSH1 0x1 PUSH1 0x40 SHL SUB DUP3 GT OR PUSH2 0x31A JUMPI PUSH1 0x40 MSTORE JUMP JUMPDEST SWAP1 PUSH1 0x1F DUP1 NOT SWAP2 ADD AND DUP2 ADD SWAP1 DUP2 LT PUSH1 0x1 PUSH1 0x1 PUSH1 0x40 SHL SUB DUP3 GT OR PUSH2 0x31A JUMPI PUSH1 0x40 MSTORE JUMP JUMPDEST DUP2 PUSH1 0x1F DUP3 ADD SLT ISZERO PUSH2 0x129 JUMPI DUP1 CALLDATALOAD SWAP1 PUSH1 0x1 PUSH1 0x1 PUSH1 0x40 SHL SUB DUP3 GT PUSH2 0x31A JUMPI PUSH1 0x40 MLOAD SWAP3 PUSH2 0x184B PUSH1 0x1F DUP5 ADD PUSH1 0x1F NOT AND PUSH1 0x20 ADD DUP6 PUSH2 0x17F6 JUMP JUMPDEST DUP3 DUP5 MSTORE PUSH1 0x20 DUP4 DUP4 ADD ADD GT PUSH2 0x129 JUMPI DUP2 PUSH1 0x0 SWAP3 PUSH1 0x20 DUP1 SWAP4 ADD DUP4 DUP7 ADD CALLDATACOPY DUP4 ADD ADD MSTORE SWAP1 JUMP JUMPDEST PUSH1 0x0 JUMPDEST DUP4 DUP2 LT PUSH2 0x1880 JUMPI POP POP PUSH1 0x0 SWAP2 ADD MSTORE JUMP JUMPDEST DUP2 DUP2 ADD MLOAD DUP4 DUP3 ADD MSTORE PUSH1 0x20 ADD PUSH2 0x1870 JUMP JUMPDEST SWAP1 PUSH1 0x20 SWAP2 PUSH2 0x18A9 DUP2 MLOAD DUP1 SWAP3 DUP2 DUP6 MSTORE DUP6 DUP1 DUP7 ADD SWAP2 ADD PUSH2 0x186D JUMP JUMPDEST PUSH1 0x1F ADD PUSH1 0x1F NOT AND ADD ADD SWAP1 JUMP JUMPDEST PUSH1 0x4 CALLDATALOAD SWAP1 PUSH1 0x1 PUSH1 0x1 PUSH1 0xA0 SHL SUB DUP3 AND DUP3 SUB PUSH2 0x129 JUMPI JUMP JUMPDEST SWAP1 DUP1 PUSH1 0x20 DUP4 MLOAD SWAP2 DUP3 DUP2 MSTORE ADD SWAP2 PUSH1 0x20 DUP1 DUP4 PUSH1 0x5 SHL DUP4 ADD ADD SWAP5 ADD SWAP3 PUSH1 0x0 SWAP2 JUMPDEST DUP4 DUP4 LT PUSH2 0x18F7 JUMPI POP POP POP POP POP SWAP1 JUMP JUMPDEST SWAP1 SWAP2 SWAP3 SWAP4 SWAP5 PUSH1 0x20 DUP1 PUSH2 0x1915 PUSH1 0x1 SWAP4 PUSH1 0x1F NOT DUP7 DUP3 SUB ADD DUP8 MSTORE DUP10 MLOAD PUSH2 0x1890 JUMP JUMPDEST SWAP8 ADD SWAP4 ADD SWAP4 ADD SWAP2 SWAP4 SWAP3 SWAP1 PUSH2 0x18E8 JUMP JUMPDEST SWAP10 SWAP9 SWAP8 SWAP7 SWAP6 SWAP5 SWAP3 SWAP2 SWAP1 PUSH2 0x1941 SWAP1 PUSH2 0x160 DUP13 MSTORE PUSH2 0x160 DUP13 ADD SWAP1 PUSH2 0x18CB JUMP JUMPDEST SWAP2 DUP11 DUP4 SUB PUSH1 0x20 DUP13 ADD MSTORE DUP2 MLOAD DUP1 DUP5 MSTORE PUSH1 0x20 DUP5 ADD SWAP4 PUSH1 0x20 DUP1 DUP4 PUSH1 0x5 SHL DUP4 ADD ADD SWAP5 ADD SWAP5 PUSH1 0x0 SWAP2 JUMPDEST DUP4 DUP4 LT PUSH2 0x1A72 JUMPI POP POP POP POP PUSH2 0x1982 SWAP3 POP DUP11 DUP3 SUB PUSH1 0x40 DUP13 ADD MSTORE PUSH2 0x18CB JUMP JUMPDEST DUP9 DUP2 SUB PUSH1 0x60 DUP11 ADD MSTORE PUSH1 0x20 DUP1 DUP5 MLOAD SWAP3 DUP4 DUP2 MSTORE ADD SWAP4 ADD SWAP1 PUSH1 0x0 JUMPDEST DUP2 DUP2 LT PUSH2 0x1A59 JUMPI POP POP POP PUSH2 0x1A13 SWAP7 SWAP6 SWAP4 PUSH2 0x19D9 PUSH2 0x19F5 SWAP5 PUSH2 0x19CB DUP6 PUSH2 0x19E7 SWAP6 DUP14 PUSH1 0x80 DUP2 PUSH2 0x1A04 SWAP14 SWAP11 SUB SWAP2 ADD MSTORE PUSH2 0x18CB JUMP JUMPDEST SWAP1 DUP12 DUP3 SUB PUSH1 0xA0 DUP14 ADD MSTORE PUSH2 0x18CB JUMP JUMPDEST SWAP1 DUP10 DUP3 SUB PUSH1 0xC0 DUP12 ADD MSTORE PUSH2 0x18CB JUMP JUMPDEST SWAP1 DUP8 DUP3 SUB PUSH1 0xE0 DUP10 ADD MSTORE PUSH2 0x18CB JUMP JUMPDEST SWAP1 DUP6 DUP3 SUB PUSH2 0x100 DUP8 ADD MSTORE PUSH2 0x18CB JUMP JUMPDEST SWAP1 DUP4 DUP3 SUB PUSH2 0x120 DUP6 ADD MSTORE PUSH2 0x18CB JUMP JUMPDEST SWAP1 PUSH2 0x140 DUP2 DUP4 SUB SWAP2 ADD MSTORE PUSH1 0x20 DUP1 DUP4 MLOAD SWAP3 DUP4 DUP2 MSTORE ADD SWAP3 ADD SWAP1 PUSH1 0x0 JUMPDEST DUP2 DUP2 LT PUSH2 0x1A3A JUMPI POP POP POP SWAP1 JUMP JUMPDEST DUP3 MLOAD PUSH1 0x1 PUSH1 0x1 PUSH1 0xA0 SHL SUB AND DUP5 MSTORE PUSH1 0x20 SWAP4 DUP5 ADD SWAP4 SWAP1 SWAP3 ADD SWAP2 PUSH1 0x1 ADD PUSH2 0x1A2D JUMP JUMPDEST DUP3 MLOAD PUSH1 0xFF AND DUP6 MSTORE PUSH1 0x20 SWAP5 DUP6 ADD SWAP5 SWAP1 SWAP3 ADD SWAP2 PUSH1 0x1 ADD PUSH2 0x199A JUMP JUMPDEST SWAP1 SWAP2 SWAP3 SWAP4 SWAP5 PUSH1 0x20 DUP1 PUSH2 0x1A90 PUSH1 0x1 SWAP4 PUSH1 0x1F NOT DUP7 DUP3 SUB ADD DUP8 MSTORE DUP11 MLOAD PUSH2 0x18CB JUMP JUMPDEST SWAP9 ADD SWAP4 ADD SWAP4 ADD SWAP2 SWAP6 SWAP5 SWAP4 SWAP3 SWAP1 PUSH2 0x1965 JUMP JUMPDEST PUSH1 0x1 PUSH1 0x1 PUSH1 0x40 SHL SUB DUP2 GT PUSH2 0x31A JUMPI PUSH1 0x5 SHL PUSH1 0x20 ADD SWAP1 JUMP JUMPDEST SWAP1 DUP1 PUSH1 0x1F DUP4 ADD SLT ISZERO PUSH2 0x129 JUMPI DUP2 CALLDATALOAD PUSH2 0x1ACF DUP2 PUSH2 0x1AA1 JUMP JUMPDEST SWAP3 PUSH2 0x1ADD PUSH1 0x40 MLOAD SWAP5 DUP6 PUSH2 0x17F6 JUMP JUMPDEST DUP2 DUP5 MSTORE PUSH1 0x20 DUP1 DUP6 ADD SWAP3 PUSH1 0x5 SHL DUP3 ADD ADD SWAP2 DUP4 DUP4 GT PUSH2 0x129 JUMPI PUSH1 0x20 DUP3 ADD SWAP1 JUMPDEST DUP4 DUP3 LT PUSH2 0x1B09 JUMPI POP POP POP POP POP SWAP1 JUMP JUMPDEST DUP2 CALLDATALOAD PUSH1 0x1 PUSH1 0x1 PUSH1 0x40 SHL SUB DUP2 GT PUSH2 0x129 JUMPI PUSH1 0x20 SWAP2 PUSH2 0x1B2B DUP8 DUP5 DUP1 SWAP5 DUP9 ADD ADD PUSH2 0x1817 JUMP JUMPDEST DUP2 MSTORE ADD SWAP2 ADD SWAP1 PUSH2 0x1AFA JUMP JUMPDEST PUSH1 0x40 PUSH1 0x3 NOT DUP3 ADD SLT PUSH2 0x129 JUMPI PUSH1 0x4 CALLDATALOAD SWAP1 PUSH1 0x1 PUSH1 0x1 PUSH1 0x40 SHL SUB DUP3 GT PUSH2 0x129 JUMPI PUSH2 0x1B60 SWAP2 PUSH1 0x4 ADD PUSH2 0x1817 JUMP JUMPDEST SWAP1 PUSH1 0x24 CALLDATALOAD PUSH1 0x1 PUSH1 0x1 PUSH1 0xA0 SHL SUB DUP2 AND DUP2 SUB PUSH2 0x129 JUMPI SWAP1 JUMP JUMPDEST ISZERO PUSH2 0x1B7E JUMPI JUMP JUMPDEST PUSH1 0x40 MLOAD PUSH3 0x461BCD PUSH1 0xE5 SHL DUP2 MSTORE PUSH1 0x20 PUSH1 0x4 DUP3 ADD MSTORE PUSH1 0x15 PUSH1 0x24 DUP3 ADD MSTORE PUSH21 0x149958DBDC9908191BD95CC81B9BDD08195E1A5CDD PUSH1 0x5A SHL PUSH1 0x44 DUP3 ADD MSTORE PUSH1 0x64 SWAP1 REVERT JUMPDEST SWAP1 PUSH1 0x1 DUP3 DUP2 SHR SWAP3 AND DUP1 ISZERO PUSH2 0x1BEB JUMPI JUMPDEST PUSH1 0x20 DUP4 LT EQ PUSH2 0x1BD5 JUMPI JUMP JUMPDEST PUSH4 0x4E487B71 PUSH1 0xE0 SHL PUSH1 0x0 MSTORE PUSH1 0x22 PUSH1 0x4 MSTORE PUSH1 0x24 PUSH1 0x0 REVERT JUMPDEST SWAP2 PUSH1 0x7F AND SWAP2 PUSH2 0x1BCA JUMP JUMPDEST SWAP1 PUSH1 0x40 MLOAD SWAP2 DUP3 PUSH1 0x0 DUP3 SLOAD SWAP3 PUSH2 0x1C09 DUP5 PUSH2 0x1BBB JUMP JUMPDEST DUP1 DUP5 MSTORE SWAP4 PUSH1 0x1 DUP2 AND SWAP1 DUP2 ISZERO PUSH2 0x1C77 JUMPI POP PUSH1 0x1 EQ PUSH2 0x1C30 JUMPI JUMPDEST POP PUSH2 0x1C2E SWAP3 POP SUB DUP4 PUSH2 0x17F6 JUMP JUMPDEST JUMP JUMPDEST SWAP1 POP PUSH1 0x0 SWAP3 SWAP2 SWAP3 MSTORE PUSH1 0x20 PUSH1 0x0 KECCAK256 SWAP1 PUSH1 0x0 SWAP2 JUMPDEST DUP2 DUP4 LT PUSH2 0x1C5B JUMPI POP POP SWAP1 PUSH1 0x20 PUSH2 0x1C2E SWAP3 DUP3 ADD ADD CODESIZE PUSH2 0x1C21 JUMP JUMPDEST PUSH1 0x20 SWAP2 SWAP4 POP DUP1 PUSH1 0x1 SWAP2 SLOAD DUP4 DUP6 DUP10 ADD ADD MSTORE ADD SWAP2 ADD SWAP1 SWAP2 DUP5 SWAP3 PUSH2 0x1C42 JUMP JUMPDEST SWAP1 POP PUSH1 0x20 SWAP3 POP PUSH2 0x1C2E SWAP5 SWAP2 POP PUSH1 0xFF NOT AND DUP3 DUP5 ADD MSTORE ISZERO ISZERO PUSH1 0x5 SHL DUP3 ADD ADD CODESIZE PUSH2 0x1C21 JUMP JUMPDEST PUSH1 0x2 SLOAD DUP2 LT ISZERO PUSH2 0x83B JUMPI PUSH1 0x2 PUSH1 0x0 MSTORE PUSH1 0x20 PUSH1 0x0 KECCAK256 ADD SWAP1 PUSH1 0x0 SWAP1 JUMP JUMPDEST DUP1 SLOAD DUP3 LT ISZERO PUSH2 0x83B JUMPI PUSH1 0x0 MSTORE PUSH1 0x20 PUSH1 0x0 KECCAK256 ADD SWAP1 PUSH1 0x0 SWAP1 JUMP JUMPDEST PUSH1 0x40 MLOAD SWAP1 DUP2 PUSH1 0x0 DUP3 SLOAD SWAP3 PUSH2 0x1CDF DUP5 PUSH2 0x1BBB JUMP JUMPDEST SWAP4 PUSH1 0x1 DUP2 AND SWAP1 DUP2 ISZERO PUSH2 0x1D40 JUMPI POP PUSH1 0x1 EQ PUSH2 0x1D04 JUMPI JUMPDEST POP PUSH1 0x20 SWAP3 POP PUSH1 0x1 DUP2 MSTORE SUB ADD SWAP1 KECCAK256 SWAP1 JUMP JUMPDEST SWAP2 POP POP PUSH1 0x0 MSTORE DUP2 PUSH1 0x20 PUSH1 0x0 KECCAK256 PUSH1 0x0 SWAP1 JUMPDEST DUP4 DUP3 LT PUSH2 0x1D28 JUMPI POP POP PUSH1 0x20 SWAP2 DUP2 ADD CODESIZE PUSH2 0x1CF4 JUMP JUMPDEST PUSH1 0x20 SWAP2 SWAP3 POP DUP1 PUSH1 0x1 SWAP2 SLOAD DUP5 DUP8 ADD MSTORE ADD SWAP2 ADD DUP4 SWAP2 PUSH2 0x1D14 JUMP JUMPDEST PUSH1 0xFF NOT AND DUP5 MSTORE POP PUSH1 0x20 SWAP4 DUP1 ISZERO ISZERO MUL DUP4 ADD SWAP2 POP CODESIZE SWAP1 POP PUSH2 0x1CF4 JUMP JUMPDEST PUSH1 0x0 NOT DUP2 EQ PUSH2 0x330 JUMPI PUSH1 0x1 ADD SWAP1 JUMP JUMPDEST SWAP1 PUSH2 0x1D73 DUP3 PUSH2 0x1AA1 JUMP JUMPDEST PUSH2 0x1D80 PUSH1 0x40 MLOAD SWAP2 DUP3 PUSH2 0x17F6 JUMP JUMPDEST DUP3 DUP2 MSTORE PUSH1 0x20 DUP2 SWAP4 PUSH2 0x1D93 PUSH1 0x1F NOT SWAP2 PUSH2 0x1AA1 JUMP JUMPDEST ADD SWAP2 ADD PUSH1 0x0 JUMPDEST DUP3 DUP2 LT PUSH2 0x1DA5 JUMPI POP POP POP JUMP JUMPDEST PUSH1 0x60 DUP3 DUP3 ADD MSTORE PUSH1 0x20 ADD PUSH2 0x1D99 JUMP JUMPDEST SWAP1 PUSH2 0x1DBD DUP3 PUSH2 0x1AA1 JUMP JUMPDEST PUSH2 0x1DCA PUSH1 0x40 MLOAD SWAP2 DUP3 PUSH2 0x17F6 JUMP JUMPDEST DUP3 DUP2 MSTORE DUP1 SWAP3 PUSH2 0x1DDB PUSH1 0x1F NOT SWAP2 PUSH2 0x1AA1 JUMP JUMPDEST ADD SWAP1 PUSH1 0x20 CALLDATASIZE SWAP2 ADD CALLDATACOPY JUMP JUMPDEST DUP1 MLOAD DUP3 LT ISZERO PUSH2 0x83B JUMPI PUSH1 0x20 SWAP2 PUSH1 0x5 SHL ADD ADD SWAP1 JUMP JUMPDEST SWAP1 DUP2 SLOAD PUSH2 0x1E05 DUP2 PUSH2 0x1AA1 JUMP JUMPDEST SWAP3 PUSH2 0x1E13 PUSH1 0x40 MLOAD SWAP5 DUP6 PUSH2 0x17F6 JUMP JUMPDEST DUP2 DUP5 MSTORE PUSH1 0x20 DUP5 ADD SWAP1 PUSH1 0x0 MSTORE PUSH1 0x20 PUSH1 0x0 KECCAK256 PUSH1 0x0 SWAP2 JUMPDEST DUP4 DUP4 LT PUSH2 0x1E34 JUMPI POP POP POP POP JUMP JUMPDEST PUSH1 0x1 PUSH1 0x20 DUP2 SWAP3 PUSH2 0x1E43 DUP6 PUSH2 0x1BF5 JUMP JUMPDEST DUP2 MSTORE ADD SWAP3 ADD SWAP3 ADD SWAP2 SWAP1 PUSH2 0x1E27 JUMP JUMPDEST SWAP2 SWAP1 SWAP2 DUP3 MLOAD PUSH1 0x1 PUSH1 0x1 PUSH1 0x40 SHL SUB DUP2 GT PUSH2 0x31A JUMPI PUSH2 0x1E6E DUP3 SLOAD PUSH2 0x1BBB JUMP JUMPDEST PUSH1 0x1F DUP2 GT PUSH2 0x1F14 JUMPI JUMPDEST POP PUSH1 0x20 PUSH1 0x1F DUP3 GT PUSH1 0x1 EQ PUSH2 0x1EB2 JUMPI DUP2 SWAP3 SWAP4 SWAP5 PUSH1 0x0 SWAP3 PUSH2 0x1EA7 JUMPI JUMPDEST POP POP DUP2 PUSH1 0x1 SHL SWAP2 PUSH1 0x0 NOT SWAP1 PUSH1 0x3 SHL SHR NOT AND OR SWAP1 SSTORE JUMP JUMPDEST ADD MLOAD SWAP1 POP CODESIZE DUP1 PUSH2 0x1E91 JUMP JUMPDEST PUSH1 0x1F NOT DUP3 AND SWAP1 DUP4 PUSH1 0x0 MSTORE DUP1 PUSH1 0x0 KECCAK256 SWAP2 PUSH1 0x0 JUMPDEST DUP2 DUP2 LT PUSH2 0x1EFC JUMPI POP SWAP6 DUP4 PUSH1 0x1 SWAP6 SWAP7 SWAP8 LT PUSH2 0x1EE3 JUMPI JUMPDEST POP POP POP DUP2 SHL ADD SWAP1 SSTORE JUMP JUMPDEST ADD MLOAD PUSH1 0x0 NOT PUSH1 0xF8 DUP5 PUSH1 0x3 SHL AND SHR NOT AND SWAP1 SSTORE CODESIZE DUP1 DUP1 PUSH2 0x1ED9 JUMP JUMPDEST SWAP2 SWAP3 PUSH1 0x20 PUSH1 0x1 DUP2 SWAP3 DUP7 DUP12 ADD MLOAD DUP2 SSTORE ADD SWAP5 ADD SWAP3 ADD PUSH2 0x1EC4 JUMP JUMPDEST DUP3 PUSH1 0x0 MSTORE PUSH1 0x20 PUSH1 0x0 KECCAK256 PUSH1 0x1F DUP4 ADD PUSH1 0x5 SHR DUP2 ADD SWAP2 PUSH1 0x20 DUP5 LT PUSH2 0x1F52 JUMPI JUMPDEST PUSH1 0x1F ADD PUSH1 0x5 SHR ADD SWAP1 JUMPDEST DUP2 DUP2 LT PUSH2 0x1F46 JUMPI POP PUSH2 0x1E77 JUMP JUMPDEST PUSH1 0x0 DUP2 SSTORE PUSH1 0x1 ADD PUSH2 0x1F39 JUMP JUMPDEST SWAP1 SWAP2 POP DUP2 SWAP1 PUSH2 0x1F30 JUMP JUMPDEST PUSH2 0x1F74 SWAP1 PUSH1 0x20 PUSH1 0x40 MLOAD SWAP3 DUP3 DUP5 DUP1 SWAP5 MLOAD SWAP4 DUP5 SWAP3 ADD PUSH2 0x186D JUMP JUMPDEST DUP2 ADD SUB SWAP1 KECCAK256 SWAP1 JUMP JUMPDEST DUP1 SLOAD DUP3 LT ISZERO PUSH2 0x83B JUMPI PUSH1 0x0 MSTORE PUSH1 0x3 PUSH1 0x20 PUSH1 0x0 KECCAK256 SWAP2 MUL ADD SWAP1 PUSH1 0x0 SWAP1 JUMP JUMPDEST ISZERO PUSH2 0x1F9F JUMPI JUMP JUMPDEST PUSH1 0x40 MLOAD PUSH3 0x461BCD PUSH1 0xE5 SHL DUP2 MSTORE PUSH1 0x20 PUSH1 0x4 DUP3 ADD MSTORE PUSH1 0x16 PUSH1 0x24 DUP3 ADD MSTORE PUSH22 0x496E76616C696420646F63746F722061646472657373 PUSH1 0x50 SHL PUSH1 0x44 DUP3 ADD MSTORE PUSH1 0x64 SWAP1 REVERT JUMPDEST PUSH1 0x0 SLOAD PUSH1 0x1 PUSH1 0x1 PUSH1 0xA0 SHL SUB AND CALLER SUB PUSH2 0x1FF1 JUMPI JUMP JUMPDEST PUSH4 0x118CDAA7 PUSH1 0xE0 SHL PUSH1 0x0 MSTORE CALLER PUSH1 0x4 MSTORE PUSH1 0x24 PUSH1 0x0 REVERT INVALID LOG2 PUSH5 0x6970667358 0x22 SLT KECCAK256 SWAP5 0xE2 0xE4 CALLVALUE CHAINID SIGNEXTEND MULMOD 0xCA 0xED LOG4 0xDA SWAP15 0xEC 0xC9 0xC DUP14 0xBA SWAP13 PUSH23 0x448FF51E403A5420D17A1C207A64736F6C634300081C00 CALLER "},"methodIdentifiers":{"addRecommendation(string,string,string[],string[],string[])":"b73dffb1","checkAccessExpiry(string,address)":"aec36904","getAccessHistory(string)":"8117eada","getRecommendations(string)":"2e0d7cdd","getRecordsByOwner(address)":"552d7105","getRecordsSharedWithMe(address)":"6910dd2a","grantAccess(string,address,uint256)":"e5492e2b","owner()":"8da5cb5b","renounceOwnership()":"715018a6","revokeAccess(string,address)":"dfe0b5fe","transferOwnership(address)":"f2fde38b","uploadRecord(string,string[],string,uint8,string,string,string,string,string,string)":"6c2b8226"}}}}}