{"contracts/ProductMarketplace.sol":{"Marketplace":{"abi":[{"anonymous":false,"inputs":[{"indexed":false,"internalType":"uint256","name":"id","type":"uint256"},{"indexed":false,"internalType":"address","name":"buyer","type":"address"}],"name":"ProductPurchased","type":"event"},{"anonymous":false,"inputs":[{"indexed":false,"internalType":"uint256","name":"id","type":"uint256"},{"indexed":false,"internalType":"string","name":"brand","type":"string"},{"indexed":false,"internalType":"string","name":"name","type":"string"},{"indexed":false,"internalType":"string","name":"imageCID","type":"string"},{"indexed":false,"internalType":"uint256","name":"currentPrice","type":"uint256"},{"indexed":false,"internalType":"uint256","name":"oldPrice","type":"uint256"},{"indexed":false,"internalType":"uint256","name":"rating","type":"uint256"}],"name":"ProductUpdated","type":"event"},{"anonymous":false,"inputs":[{"indexed":false,"internalType":"uint256","name":"id","type":"uint256"},{"indexed":false,"internalType":"address","name":"owner","type":"address"},{"indexed":false,"internalType":"string","name":"brand","type":"string"},{"indexed":false,"internalType":"string","name":"name","type":"string"},{"indexed":false,"internalType":"string","name":"imageCID","type":"string"},{"indexed":false,"internalType":"uint256","name":"currentPrice","type":"uint256"},{"indexed":false,"internalType":"uint256","name":"oldPrice","type":"uint256"},{"indexed":false,"internalType":"uint256","name":"rating","type":"uint256"},{"indexed":false,"internalType":"uint256","name":"daysOnSale","type":"uint256"},{"indexed":false,"internalType":"bool","name":"isSold","type":"bool"},{"indexed":false,"internalType":"bool","name":"isOnSale","type":"bool"}],"name":"ProductUploaded","type":"event"},{"inputs":[{"internalType":"uint256","name":"_id","type":"uint256"}],"name":"buyProduct","outputs":[],"stateMutability":"payable","type":"function"},{"inputs":[{"internalType":"uint256","name":"_id","type":"uint256"}],"name":"getProduct","outputs":[{"internalType":"uint256","name":"","type":"uint256"},{"internalType":"address","name":"","type":"address"},{"internalType":"string","name":"","type":"string"},{"internalType":"string","name":"","type":"string"},{"internalType":"string","name":"","type":"string"},{"internalType":"uint256","name":"","type":"uint256"},{"internalType":"uint256","name":"","type":"uint256"},{"internalType":"uint256","name":"","type":"uint256"},{"internalType":"uint256","name":"","type":"uint256"},{"internalType":"uint256","name":"","type":"uint256"},{"internalType":"bool","name":"","type":"bool"},{"internalType":"bool","name":"","type":"bool"}],"stateMutability":"view","type":"function"},{"inputs":[],"name":"productCount","outputs":[{"internalType":"uint256","name":"","type":"uint256"}],"stateMutability":"view","type":"function"},{"inputs":[{"internalType":"uint256","name":"","type":"uint256"}],"name":"products","outputs":[{"internalType":"uint256","name":"id","type":"uint256"},{"internalType":"address payable","name":"owner","type":"address"},{"internalType":"string","name":"brand","type":"string"},{"internalType":"string","name":"name","type":"string"},{"internalType":"string","name":"imageCID","type":"string"},{"internalType":"uint256","name":"currentPrice","type":"uint256"},{"internalType":"uint256","name":"oldPrice","type":"uint256"},{"internalType":"uint256","name":"rating","type":"uint256"},{"internalType":"uint256","name":"daysOnSale","type":"uint256"},{"internalType":"uint256","name":"createdAt","type":"uint256"},{"internalType":"bool","name":"isSold","type":"bool"},{"internalType":"bool","name":"isOnSale","type":"bool"}],"stateMutability":"view","type":"function"},{"inputs":[{"internalType":"uint256","name":"_id","type":"uint256"},{"internalType":"string","name":"_brand","type":"string"},{"internalType":"string","name":"_name","type":"string"},{"internalType":"string","name":"_imageCID","type":"string"},{"internalType":"uint256","name":"_currentPrice","type":"uint256"},{"internalType":"uint256","name":"_oldPrice","type":"uint256"},{"internalType":"uint256","name":"_rating","type":"uint256"}],"name":"updateProductInfo","outputs":[],"stateMutability":"nonpayable","type":"function"},{"inputs":[{"internalType":"string","name":"_name","type":"string"},{"internalType":"string","name":"_imageCID","type":"string"},{"internalType":"string","name":"_brand","type":"string"},{"internalType":"uint256","name":"_currentPrice","type":"uint256"},{"internalType":"uint256","name":"_oldPrice","type":"uint256"},{"internalType":"uint256","name":"_rating","type":"uint256"},{"internalType":"uint256","name":"daysOnSale","type":"uint256"},{"internalType":"bool","name":"_isOnSale","type":"bool"}],"name":"uploadProduct","outputs":[],"stateMutability":"nonpayable","type":"function"}],"evm":{"bytecode":{"linkReferences":{},"object":"6080806040523460195760008055611216908161001f8239f35b600080fdfe6080604052600436101561001257600080fd5b60003560e01c80630d3b52881461099e578063652ca81a1461045c5780637acc0b20146103605780638642269e146101e8578063b9db15b4146100815763e0f6ef871461005e57600080fd5b3461007c57600036600319011261007c576020600054604051908152f35b600080fd5b3461007c57602036600319011261007c5760043560005260016020526040600020604051906100af82610f87565b8054825260018101546001600160a01b031660208301908152906100d560028201611054565b60408401908152926100e960038301611054565b606082019081526100fc60048401611054565b928360808401526005810154938460a085015260068201548060c08601526007830154908160e08701526008840154928361010088015260098501549485610120890152600a01549560ff8716151596876101408a015260081c60ff16151597886101608201525199600160a01b600190039051169a519051906040519b8c9b8c5260208c015260408b0161018090526101808b0161019a916110f8565b8a810360608c01526101ab916110f8565b89810360808b01526101bc916110f8565b9660a089015260c088015260e08701526101008601526101208501526101408401526101608301520390f35b602036600319011261007c576004358060005260016020526040600020600a81019060ff82541661032457600581015434036102ec57600101546001600160a01b031633811461029c5760008080809381903415610292575b3491f11561028657805460ff19166001179055604080519182523360208301527f9ad4ecfaf27ea0cbeebee0ed92fe15c8a84975f1e3d45ccfc526d7751dcf98ff91a1005b6040513d6000823e3d90fd5b6108fc9150610241565b60405162461bcd60e51b815260206004820152602260248201527f4f776e65722063616e6e6f7420627579207468656972206f776e2070726f647560448201526118dd60f21b6064820152608490fd5b60405162461bcd60e51b815260206004820152601060248201526f125b98dbdc9c9958dd08185b5bdd5b9d60821b6044820152606490fd5b60405162461bcd60e51b8152602060048201526014602482015273141c9bd91d58dd08185b1c9958591e481cdbdb1960621b6044820152606490fd5b3461007c57602036600319011261007c57600435600052600160205260406000208054600160a01b6001900360018301541691600281016103a090611054565b6103ac60038301611054565b916103b960048201611054565b926005820154936006830154600784015491600885015493600986015495600a0154966040519a8b9a8b5260208b015260408a0161018090526101808a01610400916110f8565b89810360608b0152610411916110f8565b88810360808a0152610422916110f8565b9560a088015260c087015260e086015261010085015261012084015260ff8116151561014084015260081c60ff1615156101608301520390f35b3461007c5760e036600319011261007c576004356024356001600160401b03811161007c5761048f903690600401610fc4565b6044356001600160401b03811161007c576104ae903690600401610fc4565b916064356001600160401b03811161007c576104ce903690600401610fc4565b6084359060a43560c4359184600052600160205260406000209660018060a01b03600189015416330361094f5760ff600a8901541661090a57610512851515611139565b61051f6005851115611195565b6002880187516001600160401b0381116107865761053d825461101a565b601f81116108c2575b50806020601f821160011461085d57600091610852575b508160011b916000199060031b1c19161790555b6003880181516001600160401b0381116107865761058f825461101a565b601f811161080a575b50806020601f82116001146107a75760009161079c575b508160011b916000199060031b1c19161790555b600488019782516001600160401b038111610786576105e28a5461101a565b601f811161073e575b506020601f82116001146106ac57600761067e937f7772100278dd2390206c6173dc7efe28d55421218ac5609739bcc33532a56da89c8461068c9897958b956000916106a1575b508160011b916000199060031b1c19161790555b8960058201558760068201550155610670604051998a998a5260e060208b015260e08a01906110f8565b9088820360408a01526110f8565b9086820360608801526110f8565b92608085015260a084015260c08301520390a1005b905088015138610632565b601f198216908b600052806000209160005b8181106107265750937f7772100278dd2390206c6173dc7efe28d55421218ac5609739bcc33532a56da89c6001858b9560079561068c9b9a9861067e9a1061070d575b5050811b019055610646565b8a015160001960f88460031b161c191690553880610701565b9192602060018192868b0151815501940192016106be565b8a6000526020600020601f830160051c8101916020841061077c575b601f0160051c01905b81811061077057506105eb565b60008155600101610763565b909150819061075a565b634e487b7160e01b600052604160045260246000fd5b90508301518b6105af565b60008481528181209250601f198416905b8181106107f2575090836001949392106107d9575b5050811b0190556105c3565b85015160001960f88460031b161c191690558b806107cd565b9192602060018192868a0151815501940192016107b8565b826000526020600020601f830160051c81019160208410610848575b601f0160051c01905b81811061083c5750610598565b6000815560010161082f565b9091508190610826565b90508901518b61055d565b60008481528181209250601f198416905b8c8282106108aa5750509083600194939210610891575b5050811b019055610571565b8b015160001960f88460031b161c191690558b80610885565b6001849560209395849301518155019401920161086e565b826000526020600020601f830160051c81019160208410610900575b601f0160051c01905b8181106108f45750610546565b600081556001016108e7565b90915081906108de565b60405162461bcd60e51b815260206004820152601c60248201527f43616e6e6f7420757064617465206120736f6c642070726f64756374000000006044820152606490fd5b60405162461bcd60e51b815260206004820152602160248201527f4f6e6c79206f776e65722063616e20757064617465207468652070726f6475636044820152601d60fa1b6064820152608490fd5b3461007c5761010036600319011261007c576004356001600160401b03811161007c576109cf903690600401610fc4565b6024356001600160401b03811161007c576109ee903690600401610fc4565b906044356001600160401b03811161007c57610a0e903690600401610fc4565b9060e435801515810361007c57610a286064351515611139565b610a37600560a4351115611195565b600054936000198514610f715760018501600055600160405195610a5a87610f87565b818101875233602088015285604088015284606088015282608088015260643560a088015260843560c088015260a43560e088015260c435610100880152426101208801526000610140880152831515610160880152016000526001602052604060002094805186556001860160018060a01b036020830151166bffffffffffffffffffffffff60a01b8254161790556002860160408201518051906001600160401b038211610786578190610b10845461101a565b601f8111610f1e575b50602090601f8311600114610eb957600092610eae575b50508160011b916000199060031b1c19161790555b6003860160608201518051906001600160401b038211610786578190610b6b845461101a565b601f8111610e5b575b50602090601f8311600114610df657600092610deb575b50508160011b916000199060031b1c19161790555b60808101519586516001600160401b03811161078657610bc3600483015461101a565b601f8111610da0575b506020601f8211600114610d0657610cc49493928261016093600a937f9989c835b9762b3dbfcb791503105d37b1bc21081ad9a5b961b9bcf81cd7e1d19c600092610cfb575b50508160011b916000199060031b1c19161760048201555b60a0840151600582015560c0840151600682015560e08401516007820155610100840151600882015561012084015160098201550191610140810151151560ff801985541691161783550151151561ff0082549160081b169061ff001916179055610cb66000549461067e604051978897885233602089015261016060408901526101608801906110f8565b9084820360808601526110f8565b9060643560a084015260843560c084015260a43560e084015260c435610100840152600061012084015215156101408301520390a1005b015190508c80610c12565b60048301600052806000209860005b601f1984168110610d885750926001837f9989c835b9762b3dbfcb791503105d37b1bc21081ad9a5b961b9bcf81cd7e1d19b600a94610cc499989761016097601f19811610610d6f575b505050811b016004820155610c2a565b015160001960f88460031b161c191690558c8080610d5f565b828201518b556001909a019960209283019201610d15565b600483016000526020600020601f830160051c81019160208410610de1575b601f0160051c01905b818110610dd55750610bcc565b60008155600101610dc8565b9091508190610dbf565b015190508980610b8b565b60008581528281209350601f198516905b818110610e435750908460019594939210610e2a575b505050811b019055610ba0565b015160001960f88460031b161c19169055898080610e1d565b92936020600181928786015181550195019301610e07565b909150836000526020600020601f840160051c81019160208510610ea4575b90601f859493920160051c01905b818110610e955750610b74565b60008155849350600101610e88565b9091508190610e7a565b015190508980610b30565b60008581528281209350601f198516905b818110610f065750908460019594939210610eed575b505050811b019055610b45565b015160001960f88460031b161c19169055898080610ee0565b92936020600181928786015181550195019301610eca565b909150836000526020600020601f840160051c81019160208510610f67575b90601f859493920160051c01905b818110610f585750610b19565b60008155849350600101610f4b565b9091508190610f3d565b634e487b7160e01b600052601160045260246000fd5b61018081019081106001600160401b0382111761078657604052565b90601f801991011681019081106001600160401b0382111761078657604052565b81601f8201121561007c578035906001600160401b0382116107865760405192610ff8601f8401601f191660200185610fa3565b8284526020838301011161007c57816000926020809301838601378301015290565b90600182811c9216801561104a575b602083101461103457565b634e487b7160e01b600052602260045260246000fd5b91607f1691611029565b90604051918260008254926110688461101a565b80845293600181169081156110d6575060011461108f575b5061108d92500383610fa3565b565b90506000929192526020600020906000915b8183106110ba57505090602061108d9282010138611080565b60209193508060019154838589010152019101909184926110a1565b90506020925061108d94915060ff191682840152151560051b82010138611080565b919082519283825260005b848110611124575050826000602080949584010152601f8019910116010190565b80602080928401015182828601015201611103565b1561114057565b60405162461bcd60e51b815260206004820152602760248201527f43757272656e74207072696365206d7573742062652067726561746572207468604482015266616e207a65726f60c81b6064820152608490fd5b1561119c57565b606460405162461bcd60e51b815260206004820152602060248201527f526174696e672073686f756c64206265206265747765656e203020616e6420356044820152fdfea2646970667358221220cd530d06abf4b9d3d8fc68cab91d8adba6ddb0e090af71cddbc5bbd67d43908464736f6c634300081c0033","opcodes":"PUSH1 0x80 DUP1 PUSH1 0x40 MSTORE CALLVALUE PUSH1 0x19 JUMPI PUSH1 0x0 DUP1 SSTORE PUSH2 0x1216 SWAP1 DUP2 PUSH2 0x1F DUP3 CODECOPY RETURN JUMPDEST PUSH1 0x0 DUP1 REVERT INVALID PUSH1 0x80 PUSH1 0x40 MSTORE PUSH1 0x4 CALLDATASIZE LT ISZERO PUSH2 0x12 JUMPI PUSH1 0x0 DUP1 REVERT JUMPDEST PUSH1 0x0 CALLDATALOAD PUSH1 0xE0 SHR DUP1 PUSH4 0xD3B5288 EQ PUSH2 0x99E JUMPI DUP1 PUSH4 0x652CA81A EQ PUSH2 0x45C JUMPI DUP1 PUSH4 0x7ACC0B20 EQ PUSH2 0x360 JUMPI DUP1 PUSH4 0x8642269E EQ PUSH2 0x1E8 JUMPI DUP1 PUSH4 0xB9DB15B4 EQ PUSH2 0x81 JUMPI PUSH4 0xE0F6EF87 EQ PUSH2 0x5E JUMPI PUSH1 0x0 DUP1 REVERT JUMPDEST CALLVALUE PUSH2 0x7C JUMPI PUSH1 0x0 CALLDATASIZE PUSH1 0x3 NOT ADD SLT PUSH2 0x7C JUMPI PUSH1 0x20 PUSH1 0x0 SLOAD PUSH1 0x40 MLOAD SWAP1 DUP2 MSTORE RETURN JUMPDEST PUSH1 0x0 DUP1 REVERT JUMPDEST CALLVALUE PUSH2 0x7C JUMPI PUSH1 0x20 CALLDATASIZE PUSH1 0x3 NOT ADD SLT PUSH2 0x7C JUMPI PUSH1 0x4 CALLDATALOAD PUSH1 0x0 MSTORE PUSH1 0x1 PUSH1 0x20 MSTORE PUSH1 0x40 PUSH1 0x0 KECCAK256 PUSH1 0x40 MLOAD SWAP1 PUSH2 0xAF DUP3 PUSH2 0xF87 JUMP JUMPDEST DUP1 SLOAD DUP3 MSTORE PUSH1 0x1 DUP2 ADD SLOAD PUSH1 0x1 PUSH1 0x1 PUSH1 0xA0 SHL SUB AND PUSH1 0x20 DUP4 ADD SWAP1 DUP2 MSTORE SWAP1 PUSH2 0xD5 PUSH1 0x2 DUP3 ADD PUSH2 0x1054 JUMP JUMPDEST PUSH1 0x40 DUP5 ADD SWAP1 DUP2 MSTORE SWAP3 PUSH2 0xE9 PUSH1 0x3 DUP4 ADD PUSH2 0x1054 JUMP JUMPDEST PUSH1 0x60 DUP3 ADD SWAP1 DUP2 MSTORE PUSH2 0xFC PUSH1 0x4 DUP5 ADD PUSH2 0x1054 JUMP JUMPDEST SWAP3 DUP4 PUSH1 0x80 DUP5 ADD MSTORE PUSH1 0x5 DUP2 ADD SLOAD SWAP4 DUP5 PUSH1 0xA0 DUP6 ADD MSTORE PUSH1 0x6 DUP3 ADD SLOAD DUP1 PUSH1 0xC0 DUP7 ADD MSTORE PUSH1 0x7 DUP4 ADD SLOAD SWAP1 DUP2 PUSH1 0xE0 DUP8 ADD MSTORE PUSH1 0x8 DUP5 ADD SLOAD SWAP3 DUP4 PUSH2 0x100 DUP9 ADD MSTORE PUSH1 0x9 DUP6 ADD SLOAD SWAP5 DUP6 PUSH2 0x120 DUP10 ADD MSTORE PUSH1 0xA ADD SLOAD SWAP6 PUSH1 0xFF DUP8 AND ISZERO ISZERO SWAP7 DUP8 PUSH2 0x140 DUP11 ADD MSTORE PUSH1 0x8 SHR PUSH1 0xFF AND ISZERO ISZERO SWAP8 DUP9 PUSH2 0x160 DUP3 ADD MSTORE MLOAD SWAP10 PUSH1 0x1 PUSH1 0xA0 SHL PUSH1 0x1 SWAP1 SUB SWAP1 MLOAD AND SWAP11 MLOAD SWAP1 MLOAD SWAP1 PUSH1 0x40 MLOAD SWAP12 DUP13 SWAP12 DUP13 MSTORE PUSH1 0x20 DUP13 ADD MSTORE PUSH1 0x40 DUP12 ADD PUSH2 0x180 SWAP1 MSTORE PUSH2 0x180 DUP12 ADD PUSH2 0x19A SWAP2 PUSH2 0x10F8 JUMP JUMPDEST DUP11 DUP2 SUB PUSH1 0x60 DUP13 ADD MSTORE PUSH2 0x1AB SWAP2 PUSH2 0x10F8 JUMP JUMPDEST DUP10 DUP2 SUB PUSH1 0x80 DUP12 ADD MSTORE PUSH2 0x1BC SWAP2 PUSH2 0x10F8 JUMP JUMPDEST SWAP7 PUSH1 0xA0 DUP10 ADD MSTORE PUSH1 0xC0 DUP9 ADD MSTORE PUSH1 0xE0 DUP8 ADD MSTORE PUSH2 0x100 DUP7 ADD MSTORE PUSH2 0x120 DUP6 ADD MSTORE PUSH2 0x140 DUP5 ADD MSTORE PUSH2 0x160 DUP4 ADD MSTORE SUB SWAP1 RETURN JUMPDEST PUSH1 0x20 CALLDATASIZE PUSH1 0x3 NOT ADD SLT PUSH2 0x7C JUMPI PUSH1 0x4 CALLDATALOAD DUP1 PUSH1 0x0 MSTORE PUSH1 0x1 PUSH1 0x20 MSTORE PUSH1 0x40 PUSH1 0x0 KECCAK256 PUSH1 0xA DUP2 ADD SWAP1 PUSH1 0xFF DUP3 SLOAD AND PUSH2 0x324 JUMPI PUSH1 0x5 DUP2 ADD SLOAD CALLVALUE SUB PUSH2 0x2EC JUMPI PUSH1 0x1 ADD SLOAD PUSH1 0x1 PUSH1 0x1 PUSH1 0xA0 SHL SUB AND CALLER DUP2 EQ PUSH2 0x29C JUMPI PUSH1 0x0 DUP1 DUP1 DUP1 SWAP4 DUP2 SWAP1 CALLVALUE ISZERO PUSH2 0x292 JUMPI JUMPDEST CALLVALUE SWAP2 CALL ISZERO PUSH2 0x286 JUMPI DUP1 SLOAD PUSH1 0xFF NOT AND PUSH1 0x1 OR SWAP1 SSTORE PUSH1 0x40 DUP1 MLOAD SWAP2 DUP3 MSTORE CALLER PUSH1 0x20 DUP4 ADD MSTORE PUSH32 0x9AD4ECFAF27EA0CBEEBEE0ED92FE15C8A84975F1E3D45CCFC526D7751DCF98FF SWAP2 LOG1 STOP JUMPDEST PUSH1 0x40 MLOAD RETURNDATASIZE PUSH1 0x0 DUP3 RETURNDATACOPY RETURNDATASIZE SWAP1 REVERT JUMPDEST PUSH2 0x8FC SWAP2 POP PUSH2 0x241 JUMP JUMPDEST PUSH1 0x40 MLOAD PUSH3 0x461BCD PUSH1 0xE5 SHL DUP2 MSTORE PUSH1 0x20 PUSH1 0x4 DUP3 ADD MSTORE PUSH1 0x22 PUSH1 0x24 DUP3 ADD MSTORE PUSH32 0x4F776E65722063616E6E6F7420627579207468656972206F776E2070726F6475 PUSH1 0x44 DUP3 ADD MSTORE PUSH2 0x18DD PUSH1 0xF2 SHL PUSH1 0x64 DUP3 ADD MSTORE PUSH1 0x84 SWAP1 REVERT JUMPDEST PUSH1 0x40 MLOAD PUSH3 0x461BCD PUSH1 0xE5 SHL DUP2 MSTORE PUSH1 0x20 PUSH1 0x4 DUP3 ADD MSTORE PUSH1 0x10 PUSH1 0x24 DUP3 ADD MSTORE PUSH16 0x125B98DBDC9C9958DD08185B5BDD5B9D PUSH1 0x82 SHL PUSH1 0x44 DUP3 ADD MSTORE PUSH1 0x64 SWAP1 REVERT JUMPDEST PUSH1 0x40 MLOAD PUSH3 0x461BCD PUSH1 0xE5 SHL DUP2 MSTORE PUSH1 0x20 PUSH1 0x4 DUP3 ADD MSTORE PUSH1 0x14 PUSH1 0x24 DUP3 ADD MSTORE PUSH20 0x141C9BD91D58DD08185B1C9958591E481CDBDB19 PUSH1 0x62 SHL PUSH1 0x44 DUP3 ADD MSTORE PUSH1 0x64 SWAP1 REVERT JUMPDEST CALLVALUE PUSH2 0x7C JUMPI PUSH1 0x20 CALLDATASIZE PUSH1 0x3 NOT ADD SLT PUSH2 0x7C JUMPI PUSH1 0x4 CALLDATALOAD PUSH1 0x0 MSTORE PUSH1 0x1 PUSH1 0x20 MSTORE PUSH1 0x40 PUSH1 0x0 KECCAK256 DUP1 SLOAD PUSH1 0x1 PUSH1 0xA0 SHL PUSH1 0x1 SWAP1 SUB PUSH1 0x1 DUP4 ADD SLOAD AND SWAP2 PUSH1 0x2 DUP2 ADD PUSH2 0x3A0 SWAP1 PUSH2 0x1054 JUMP JUMPDEST PUSH2 0x3AC PUSH1 0x3 DUP4 ADD PUSH2 0x1054 JUMP JUMPDEST SWAP2 PUSH2 0x3B9 PUSH1 0x4 DUP3 ADD PUSH2 0x1054 JUMP JUMPDEST SWAP3 PUSH1 0x5 DUP3 ADD SLOAD SWAP4 PUSH1 0x6 DUP4 ADD SLOAD PUSH1 0x7 DUP5 ADD SLOAD SWAP2 PUSH1 0x8 DUP6 ADD SLOAD SWAP4 PUSH1 0x9 DUP7 ADD SLOAD SWAP6 PUSH1 0xA ADD SLOAD SWAP7 PUSH1 0x40 MLOAD SWAP11 DUP12 SWAP11 DUP12 MSTORE PUSH1 0x20 DUP12 ADD MSTORE PUSH1 0x40 DUP11 ADD PUSH2 0x180 SWAP1 MSTORE PUSH2 0x180 DUP11 ADD PUSH2 0x400 SWAP2 PUSH2 0x10F8 JUMP JUMPDEST DUP10 DUP2 SUB PUSH1 0x60 DUP12 ADD MSTORE PUSH2 0x411 SWAP2 PUSH2 0x10F8 JUMP JUMPDEST DUP9 DUP2 SUB PUSH1 0x80 DUP11 ADD MSTORE PUSH2 0x422 SWAP2 PUSH2 0x10F8 JUMP JUMPDEST SWAP6 PUSH1 0xA0 DUP9 ADD MSTORE PUSH1 0xC0 DUP8 ADD MSTORE PUSH1 0xE0 DUP7 ADD MSTORE PUSH2 0x100 DUP6 ADD MSTORE PUSH2 0x120 DUP5 ADD MSTORE PUSH1 0xFF DUP2 AND ISZERO ISZERO PUSH2 0x140 DUP5 ADD MSTORE PUSH1 0x8 SHR PUSH1 0xFF AND ISZERO ISZERO PUSH2 0x160 DUP4 ADD MSTORE SUB SWAP1 RETURN JUMPDEST CALLVALUE PUSH2 0x7C JUMPI PUSH1 0xE0 CALLDATASIZE PUSH1 0x3 NOT ADD SLT PUSH2 0x7C JUMPI PUSH1 0x4 CALLDATALOAD PUSH1 0x24 CALLDATALOAD PUSH1 0x1 PUSH1 0x1 PUSH1 0x40 SHL SUB DUP2 GT PUSH2 0x7C JUMPI PUSH2 0x48F SWAP1 CALLDATASIZE SWAP1 PUSH1 0x4 ADD PUSH2 0xFC4 JUMP JUMPDEST PUSH1 0x44 CALLDATALOAD PUSH1 0x1 PUSH1 0x1 PUSH1 0x40 SHL SUB DUP2 GT PUSH2 0x7C JUMPI PUSH2 0x4AE SWAP1 CALLDATASIZE SWAP1 PUSH1 0x4 ADD PUSH2 0xFC4 JUMP JUMPDEST SWAP2 PUSH1 0x64 CALLDATALOAD PUSH1 0x1 PUSH1 0x1 PUSH1 0x40 SHL SUB DUP2 GT PUSH2 0x7C JUMPI PUSH2 0x4CE SWAP1 CALLDATASIZE SWAP1 PUSH1 0x4 ADD PUSH2 0xFC4 JUMP JUMPDEST PUSH1 0x84 CALLDATALOAD SWAP1 PUSH1 0xA4 CALLDATALOAD PUSH1 0xC4 CALLDATALOAD SWAP2 DUP5 PUSH1 0x0 MSTORE PUSH1 0x1 PUSH1 0x20 MSTORE PUSH1 0x40 PUSH1 0x0 KECCAK256 SWAP7 PUSH1 0x1 DUP1 PUSH1 0xA0 SHL SUB PUSH1 0x1 DUP10 ADD SLOAD AND CALLER SUB PUSH2 0x94F JUMPI PUSH1 0xFF PUSH1 0xA DUP10 ADD SLOAD AND PUSH2 0x90A JUMPI PUSH2 0x512 DUP6 ISZERO ISZERO PUSH2 0x1139 JUMP JUMPDEST PUSH2 0x51F PUSH1 0x5 DUP6 GT ISZERO PUSH2 0x1195 JUMP JUMPDEST PUSH1 0x2 DUP9 ADD DUP8 MLOAD PUSH1 0x1 PUSH1 0x1 PUSH1 0x40 SHL SUB DUP2 GT PUSH2 0x786 JUMPI PUSH2 0x53D DUP3 SLOAD PUSH2 0x101A JUMP JUMPDEST PUSH1 0x1F DUP2 GT PUSH2 0x8C2 JUMPI JUMPDEST POP DUP1 PUSH1 0x20 PUSH1 0x1F DUP3 GT PUSH1 0x1 EQ PUSH2 0x85D JUMPI PUSH1 0x0 SWAP2 PUSH2 0x852 JUMPI JUMPDEST POP DUP2 PUSH1 0x1 SHL SWAP2 PUSH1 0x0 NOT SWAP1 PUSH1 0x3 SHL SHR NOT AND OR SWAP1 SSTORE JUMPDEST PUSH1 0x3 DUP9 ADD DUP2 MLOAD PUSH1 0x1 PUSH1 0x1 PUSH1 0x40 SHL SUB DUP2 GT PUSH2 0x786 JUMPI PUSH2 0x58F DUP3 SLOAD PUSH2 0x101A JUMP JUMPDEST PUSH1 0x1F DUP2 GT PUSH2 0x80A JUMPI JUMPDEST POP DUP1 PUSH1 0x20 PUSH1 0x1F DUP3 GT PUSH1 0x1 EQ PUSH2 0x7A7 JUMPI PUSH1 0x0 SWAP2 PUSH2 0x79C JUMPI JUMPDEST POP DUP2 PUSH1 0x1 SHL SWAP2 PUSH1 0x0 NOT SWAP1 PUSH1 0x3 SHL SHR NOT AND OR SWAP1 SSTORE JUMPDEST PUSH1 0x4 DUP9 ADD SWAP8 DUP3 MLOAD PUSH1 0x1 PUSH1 0x1 PUSH1 0x40 SHL SUB DUP2 GT PUSH2 0x786 JUMPI PUSH2 0x5E2 DUP11 SLOAD PUSH2 0x101A JUMP JUMPDEST PUSH1 0x1F DUP2 GT PUSH2 0x73E JUMPI JUMPDEST POP PUSH1 0x20 PUSH1 0x1F DUP3 GT PUSH1 0x1 EQ PUSH2 0x6AC JUMPI PUSH1 0x7 PUSH2 0x67E SWAP4 PUSH32 0x7772100278DD2390206C6173DC7EFE28D55421218AC5609739BCC33532A56DA8 SWAP13 DUP5 PUSH2 0x68C SWAP9 SWAP8 SWAP6 DUP12 SWAP6 PUSH1 0x0 SWAP2 PUSH2 0x6A1 JUMPI JUMPDEST POP DUP2 PUSH1 0x1 SHL SWAP2 PUSH1 0x0 NOT SWAP1 PUSH1 0x3 SHL SHR NOT AND OR SWAP1 SSTORE JUMPDEST DUP10 PUSH1 0x5 DUP3 ADD SSTORE DUP8 PUSH1 0x6 DUP3 ADD SSTORE ADD SSTORE PUSH2 0x670 PUSH1 0x40 MLOAD SWAP10 DUP11 SWAP10 DUP11 MSTORE PUSH1 0xE0 PUSH1 0x20 DUP12 ADD MSTORE PUSH1 0xE0 DUP11 ADD SWAP1 PUSH2 0x10F8 JUMP JUMPDEST SWAP1 DUP9 DUP3 SUB PUSH1 0x40 DUP11 ADD MSTORE PUSH2 0x10F8 JUMP JUMPDEST SWAP1 DUP7 DUP3 SUB PUSH1 0x60 DUP9 ADD MSTORE PUSH2 0x10F8 JUMP JUMPDEST SWAP3 PUSH1 0x80 DUP6 ADD MSTORE PUSH1 0xA0 DUP5 ADD MSTORE PUSH1 0xC0 DUP4 ADD MSTORE SUB SWAP1 LOG1 STOP JUMPDEST SWAP1 POP DUP9 ADD MLOAD CODESIZE PUSH2 0x632 JUMP JUMPDEST PUSH1 0x1F NOT DUP3 AND SWAP1 DUP12 PUSH1 0x0 MSTORE DUP1 PUSH1 0x0 KECCAK256 SWAP2 PUSH1 0x0 JUMPDEST DUP2 DUP2 LT PUSH2 0x726 JUMPI POP SWAP4 PUSH32 0x7772100278DD2390206C6173DC7EFE28D55421218AC5609739BCC33532A56DA8 SWAP13 PUSH1 0x1 DUP6 DUP12 SWAP6 PUSH1 0x7 SWAP6 PUSH2 0x68C SWAP12 SWAP11 SWAP9 PUSH2 0x67E SWAP11 LT PUSH2 0x70D JUMPI JUMPDEST POP POP DUP2 SHL ADD SWAP1 SSTORE PUSH2 0x646 JUMP JUMPDEST DUP11 ADD MLOAD PUSH1 0x0 NOT PUSH1 0xF8 DUP5 PUSH1 0x3 SHL AND SHR NOT AND SWAP1 SSTORE CODESIZE DUP1 PUSH2 0x701 JUMP JUMPDEST SWAP2 SWAP3 PUSH1 0x20 PUSH1 0x1 DUP2 SWAP3 DUP7 DUP12 ADD MLOAD DUP2 SSTORE ADD SWAP5 ADD SWAP3 ADD PUSH2 0x6BE JUMP JUMPDEST DUP11 PUSH1 0x0 MSTORE PUSH1 0x20 PUSH1 0x0 KECCAK256 PUSH1 0x1F DUP4 ADD PUSH1 0x5 SHR DUP2 ADD SWAP2 PUSH1 0x20 DUP5 LT PUSH2 0x77C JUMPI JUMPDEST PUSH1 0x1F ADD PUSH1 0x5 SHR ADD SWAP1 JUMPDEST DUP2 DUP2 LT PUSH2 0x770 JUMPI POP PUSH2 0x5EB JUMP JUMPDEST PUSH1 0x0 DUP2 SSTORE PUSH1 0x1 ADD PUSH2 0x763 JUMP JUMPDEST SWAP1 SWAP2 POP DUP2 SWAP1 PUSH2 0x75A JUMP JUMPDEST PUSH4 0x4E487B71 PUSH1 0xE0 SHL PUSH1 0x0 MSTORE PUSH1 0x41 PUSH1 0x4 MSTORE PUSH1 0x24 PUSH1 0x0 REVERT JUMPDEST SWAP1 POP DUP4 ADD MLOAD DUP12 PUSH2 0x5AF JUMP JUMPDEST PUSH1 0x0 DUP5 DUP2 MSTORE DUP2 DUP2 KECCAK256 SWAP3 POP PUSH1 0x1F NOT DUP5 AND SWAP1 JUMPDEST DUP2 DUP2 LT PUSH2 0x7F2 JUMPI POP SWAP1 DUP4 PUSH1 0x1 SWAP5 SWAP4 SWAP3 LT PUSH2 0x7D9 JUMPI JUMPDEST POP POP DUP2 SHL ADD SWAP1 SSTORE PUSH2 0x5C3 JUMP JUMPDEST DUP6 ADD MLOAD PUSH1 0x0 NOT PUSH1 0xF8 DUP5 PUSH1 0x3 SHL AND SHR NOT AND SWAP1 SSTORE DUP12 DUP1 PUSH2 0x7CD JUMP JUMPDEST SWAP2 SWAP3 PUSH1 0x20 PUSH1 0x1 DUP2 SWAP3 DUP7 DUP11 ADD MLOAD DUP2 SSTORE ADD SWAP5 ADD SWAP3 ADD PUSH2 0x7B8 JUMP JUMPDEST DUP3 PUSH1 0x0 MSTORE PUSH1 0x20 PUSH1 0x0 KECCAK256 PUSH1 0x1F DUP4 ADD PUSH1 0x5 SHR DUP2 ADD SWAP2 PUSH1 0x20 DUP5 LT PUSH2 0x848 JUMPI JUMPDEST PUSH1 0x1F ADD PUSH1 0x5 SHR ADD SWAP1 JUMPDEST DUP2 DUP2 LT PUSH2 0x83C JUMPI POP PUSH2 0x598 JUMP JUMPDEST PUSH1 0x0 DUP2 SSTORE PUSH1 0x1 ADD PUSH2 0x82F JUMP JUMPDEST SWAP1 SWAP2 POP DUP2 SWAP1 PUSH2 0x826 JUMP JUMPDEST SWAP1 POP DUP10 ADD MLOAD DUP12 PUSH2 0x55D JUMP JUMPDEST PUSH1 0x0 DUP5 DUP2 MSTORE DUP2 DUP2 KECCAK256 SWAP3 POP PUSH1 0x1F NOT DUP5 AND SWAP1 JUMPDEST DUP13 DUP3 DUP3 LT PUSH2 0x8AA JUMPI POP POP SWAP1 DUP4 PUSH1 0x1 SWAP5 SWAP4 SWAP3 LT PUSH2 0x891 JUMPI JUMPDEST POP POP DUP2 SHL ADD SWAP1 SSTORE PUSH2 0x571 JUMP JUMPDEST DUP12 ADD MLOAD PUSH1 0x0 NOT PUSH1 0xF8 DUP5 PUSH1 0x3 SHL AND SHR NOT AND SWAP1 SSTORE DUP12 DUP1 PUSH2 0x885 JUMP JUMPDEST PUSH1 0x1 DUP5 SWAP6 PUSH1 0x20 SWAP4 SWAP6 DUP5 SWAP4 ADD MLOAD DUP2 SSTORE ADD SWAP5 ADD SWAP3 ADD PUSH2 0x86E JUMP JUMPDEST DUP3 PUSH1 0x0 MSTORE PUSH1 0x20 PUSH1 0x0 KECCAK256 PUSH1 0x1F DUP4 ADD PUSH1 0x5 SHR DUP2 ADD SWAP2 PUSH1 0x20 DUP5 LT PUSH2 0x900 JUMPI JUMPDEST PUSH1 0x1F ADD PUSH1 0x5 SHR ADD SWAP1 JUMPDEST DUP2 DUP2 LT PUSH2 0x8F4 JUMPI POP PUSH2 0x546 JUMP JUMPDEST PUSH1 0x0 DUP2 SSTORE PUSH1 0x1 ADD PUSH2 0x8E7 JUMP JUMPDEST SWAP1 SWAP2 POP DUP2 SWAP1 PUSH2 0x8DE JUMP JUMPDEST PUSH1 0x40 MLOAD PUSH3 0x461BCD PUSH1 0xE5 SHL DUP2 MSTORE PUSH1 0x20 PUSH1 0x4 DUP3 ADD MSTORE PUSH1 0x1C PUSH1 0x24 DUP3 ADD MSTORE PUSH32 0x43616E6E6F7420757064617465206120736F6C642070726F6475637400000000 PUSH1 0x44 DUP3 ADD MSTORE PUSH1 0x64 SWAP1 REVERT JUMPDEST PUSH1 0x40 MLOAD PUSH3 0x461BCD PUSH1 0xE5 SHL DUP2 MSTORE PUSH1 0x20 PUSH1 0x4 DUP3 ADD MSTORE PUSH1 0x21 PUSH1 0x24 DUP3 ADD MSTORE PUSH32 0x4F6E6C79206F776E65722063616E20757064617465207468652070726F647563 PUSH1 0x44 DUP3 ADD MSTORE PUSH1 0x1D PUSH1 0xFA SHL PUSH1 0x64 DUP3 ADD MSTORE PUSH1 0x84 SWAP1 REVERT JUMPDEST CALLVALUE PUSH2 0x7C JUMPI PUSH2 0x100 CALLDATASIZE PUSH1 0x3 NOT ADD SLT PUSH2 0x7C JUMPI PUSH1 0x4 CALLDATALOAD PUSH1 0x1 PUSH1 0x1 PUSH1 0x40 SHL SUB DUP2 GT PUSH2 0x7C JUMPI PUSH2 0x9CF SWAP1 CALLDATASIZE SWAP1 PUSH1 0x4 ADD PUSH2 0xFC4 JUMP JUMPDEST PUSH1 0x24 CALLDATALOAD PUSH1 0x1 PUSH1 0x1 PUSH1 0x40 SHL SUB DUP2 GT PUSH2 0x7C JUMPI PUSH2 0x9EE SWAP1 CALLDATASIZE SWAP1 PUSH1 0x4 ADD PUSH2 0xFC4 JUMP JUMPDEST SWAP1 PUSH1 0x44 CALLDATALOAD PUSH1 0x1 PUSH1 0x1 PUSH1 0x40 SHL SUB DUP2 GT PUSH2 0x7C JUMPI PUSH2 0xA0E SWAP1 CALLDATASIZE SWAP1 PUSH1 0x4 ADD PUSH2 0xFC4 JUMP JUMPDEST SWAP1 PUSH1 0xE4 CALLDATALOAD DUP1 ISZERO ISZERO DUP2 SUB PUSH2 0x7C JUMPI PUSH2 0xA28 PUSH1 0x64 CALLDATALOAD ISZERO ISZERO PUSH2 0x1139 JUMP JUMPDEST PUSH2 0xA37 PUSH1 0x5 PUSH1 0xA4 CALLDATALOAD GT ISZERO PUSH2 0x1195 JUMP JUMPDEST PUSH1 0x0 SLOAD SWAP4 PUSH1 0x0 NOT DUP6 EQ PUSH2 0xF71 JUMPI PUSH1 0x1 DUP6 ADD PUSH1 0x0 SSTORE PUSH1 0x1 PUSH1 0x40 MLOAD SWAP6 PUSH2 0xA5A DUP8 PUSH2 0xF87 JUMP JUMPDEST DUP2 DUP2 ADD DUP8 MSTORE CALLER PUSH1 0x20 DUP9 ADD MSTORE DUP6 PUSH1 0x40 DUP9 ADD MSTORE DUP5 PUSH1 0x60 DUP9 ADD MSTORE DUP3 PUSH1 0x80 DUP9 ADD MSTORE PUSH1 0x64 CALLDATALOAD PUSH1 0xA0 DUP9 ADD MSTORE PUSH1 0x84 CALLDATALOAD PUSH1 0xC0 DUP9 ADD MSTORE PUSH1 0xA4 CALLDATALOAD PUSH1 0xE0 DUP9 ADD MSTORE PUSH1 0xC4 CALLDATALOAD PUSH2 0x100 DUP9 ADD MSTORE TIMESTAMP PUSH2 0x120 DUP9 ADD MSTORE PUSH1 0x0 PUSH2 0x140 DUP9 ADD MSTORE DUP4 ISZERO ISZERO PUSH2 0x160 DUP9 ADD MSTORE ADD PUSH1 0x0 MSTORE PUSH1 0x1 PUSH1 0x20 MSTORE PUSH1 0x40 PUSH1 0x0 KECCAK256 SWAP5 DUP1 MLOAD DUP7 SSTORE PUSH1 0x1 DUP7 ADD PUSH1 0x1 DUP1 PUSH1 0xA0 SHL SUB PUSH1 0x20 DUP4 ADD MLOAD AND PUSH12 0xFFFFFFFFFFFFFFFFFFFFFFFF PUSH1 0xA0 SHL DUP3 SLOAD AND OR SWAP1 SSTORE PUSH1 0x2 DUP7 ADD PUSH1 0x40 DUP3 ADD MLOAD DUP1 MLOAD SWAP1 PUSH1 0x1 PUSH1 0x1 PUSH1 0x40 SHL SUB DUP3 GT PUSH2 0x786 JUMPI DUP2 SWAP1 PUSH2 0xB10 DUP5 SLOAD PUSH2 0x101A JUMP JUMPDEST PUSH1 0x1F DUP2 GT PUSH2 0xF1E JUMPI JUMPDEST POP PUSH1 0x20 SWAP1 PUSH1 0x1F DUP4 GT PUSH1 0x1 EQ PUSH2 0xEB9 JUMPI PUSH1 0x0 SWAP3 PUSH2 0xEAE JUMPI JUMPDEST POP POP DUP2 PUSH1 0x1 SHL SWAP2 PUSH1 0x0 NOT SWAP1 PUSH1 0x3 SHL SHR NOT AND OR SWAP1 SSTORE JUMPDEST PUSH1 0x3 DUP7 ADD PUSH1 0x60 DUP3 ADD MLOAD DUP1 MLOAD SWAP1 PUSH1 0x1 PUSH1 0x1 PUSH1 0x40 SHL SUB DUP3 GT PUSH2 0x786 JUMPI DUP2 SWAP1 PUSH2 0xB6B DUP5 SLOAD PUSH2 0x101A JUMP JUMPDEST PUSH1 0x1F DUP2 GT PUSH2 0xE5B JUMPI JUMPDEST POP PUSH1 0x20 SWAP1 PUSH1 0x1F DUP4 GT PUSH1 0x1 EQ PUSH2 0xDF6 JUMPI PUSH1 0x0 SWAP3 PUSH2 0xDEB JUMPI JUMPDEST POP POP DUP2 PUSH1 0x1 SHL SWAP2 PUSH1 0x0 NOT SWAP1 PUSH1 0x3 SHL SHR NOT AND OR SWAP1 SSTORE JUMPDEST PUSH1 0x80 DUP2 ADD MLOAD SWAP6 DUP7 MLOAD PUSH1 0x1 PUSH1 0x1 PUSH1 0x40 SHL SUB DUP2 GT PUSH2 0x786 JUMPI PUSH2 0xBC3 PUSH1 0x4 DUP4 ADD SLOAD PUSH2 0x101A JUMP JUMPDEST PUSH1 0x1F DUP2 GT PUSH2 0xDA0 JUMPI JUMPDEST POP PUSH1 0x20 PUSH1 0x1F DUP3 GT PUSH1 0x1 EQ PUSH2 0xD06 JUMPI PUSH2 0xCC4 SWAP5 SWAP4 SWAP3 DUP3 PUSH2 0x160 SWAP4 PUSH1 0xA SWAP4 PUSH32 0x9989C835B9762B3DBFCB791503105D37B1BC21081AD9A5B961B9BCF81CD7E1D1 SWAP13 PUSH1 0x0 SWAP3 PUSH2 0xCFB JUMPI JUMPDEST POP POP DUP2 PUSH1 0x1 SHL SWAP2 PUSH1 0x0 NOT SWAP1 PUSH1 0x3 SHL SHR NOT AND OR PUSH1 0x4 DUP3 ADD SSTORE JUMPDEST PUSH1 0xA0 DUP5 ADD MLOAD PUSH1 0x5 DUP3 ADD SSTORE PUSH1 0xC0 DUP5 ADD MLOAD PUSH1 0x6 DUP3 ADD SSTORE PUSH1 0xE0 DUP5 ADD MLOAD PUSH1 0x7 DUP3 ADD SSTORE PUSH2 0x100 DUP5 ADD MLOAD PUSH1 0x8 DUP3 ADD SSTORE PUSH2 0x120 DUP5 ADD MLOAD PUSH1 0x9 DUP3 ADD SSTORE ADD SWAP2 PUSH2 0x140 DUP2 ADD MLOAD ISZERO ISZERO PUSH1 0xFF DUP1 NOT DUP6 SLOAD AND SWAP2 AND OR DUP4 SSTORE ADD MLOAD ISZERO ISZERO PUSH2 0xFF00 DUP3 SLOAD SWAP2 PUSH1 0x8 SHL AND SWAP1 PUSH2 0xFF00 NOT AND OR SWAP1 SSTORE PUSH2 0xCB6 PUSH1 0x0 SLOAD SWAP5 PUSH2 0x67E PUSH1 0x40 MLOAD SWAP8 DUP9 SWAP8 DUP9 MSTORE CALLER PUSH1 0x20 DUP10 ADD MSTORE PUSH2 0x160 PUSH1 0x40 DUP10 ADD MSTORE PUSH2 0x160 DUP9 ADD SWAP1 PUSH2 0x10F8 JUMP JUMPDEST SWAP1 DUP5 DUP3 SUB PUSH1 0x80 DUP7 ADD MSTORE PUSH2 0x10F8 JUMP JUMPDEST SWAP1 PUSH1 0x64 CALLDATALOAD PUSH1 0xA0 DUP5 ADD MSTORE PUSH1 0x84 CALLDATALOAD PUSH1 0xC0 DUP5 ADD MSTORE PUSH1 0xA4 CALLDATALOAD PUSH1 0xE0 DUP5 ADD MSTORE PUSH1 0xC4 CALLDATALOAD PUSH2 0x100 DUP5 ADD MSTORE PUSH1 0x0 PUSH2 0x120 DUP5 ADD MSTORE ISZERO ISZERO PUSH2 0x140 DUP4 ADD MSTORE SUB SWAP1 LOG1 STOP JUMPDEST ADD MLOAD SWAP1 POP DUP13 DUP1 PUSH2 0xC12 JUMP JUMPDEST PUSH1 0x4 DUP4 ADD PUSH1 0x0 MSTORE DUP1 PUSH1 0x0 KECCAK256 SWAP9 PUSH1 0x0 JUMPDEST PUSH1 0x1F NOT DUP5 AND DUP2 LT PUSH2 0xD88 JUMPI POP SWAP3 PUSH1 0x1 DUP4 PUSH32 0x9989C835B9762B3DBFCB791503105D37B1BC21081AD9A5B961B9BCF81CD7E1D1 SWAP12 PUSH1 0xA SWAP5 PUSH2 0xCC4 SWAP10 SWAP9 SWAP8 PUSH2 0x160 SWAP8 PUSH1 0x1F NOT DUP2 AND LT PUSH2 0xD6F JUMPI JUMPDEST POP POP POP DUP2 SHL ADD PUSH1 0x4 DUP3 ADD SSTORE PUSH2 0xC2A JUMP JUMPDEST ADD MLOAD PUSH1 0x0 NOT PUSH1 0xF8 DUP5 PUSH1 0x3 SHL AND SHR NOT AND SWAP1 SSTORE DUP13 DUP1 DUP1 PUSH2 0xD5F JUMP JUMPDEST DUP3 DUP3 ADD MLOAD DUP12 SSTORE PUSH1 0x1 SWAP1 SWAP11 ADD SWAP10 PUSH1 0x20 SWAP3 DUP4 ADD SWAP3 ADD PUSH2 0xD15 JUMP JUMPDEST PUSH1 0x4 DUP4 ADD PUSH1 0x0 MSTORE PUSH1 0x20 PUSH1 0x0 KECCAK256 PUSH1 0x1F DUP4 ADD PUSH1 0x5 SHR DUP2 ADD SWAP2 PUSH1 0x20 DUP5 LT PUSH2 0xDE1 JUMPI JUMPDEST PUSH1 0x1F ADD PUSH1 0x5 SHR ADD SWAP1 JUMPDEST DUP2 DUP2 LT PUSH2 0xDD5 JUMPI POP PUSH2 0xBCC JUMP JUMPDEST PUSH1 0x0 DUP2 SSTORE PUSH1 0x1 ADD PUSH2 0xDC8 JUMP JUMPDEST SWAP1 SWAP2 POP DUP2 SWAP1 PUSH2 0xDBF JUMP JUMPDEST ADD MLOAD SWAP1 POP DUP10 DUP1 PUSH2 0xB8B JUMP JUMPDEST PUSH1 0x0 DUP6 DUP2 MSTORE DUP3 DUP2 KECCAK256 SWAP4 POP PUSH1 0x1F NOT DUP6 AND SWAP1 JUMPDEST DUP2 DUP2 LT PUSH2 0xE43 JUMPI POP SWAP1 DUP5 PUSH1 0x1 SWAP6 SWAP5 SWAP4 SWAP3 LT PUSH2 0xE2A JUMPI JUMPDEST POP POP POP DUP2 SHL ADD SWAP1 SSTORE PUSH2 0xBA0 JUMP JUMPDEST ADD MLOAD PUSH1 0x0 NOT PUSH1 0xF8 DUP5 PUSH1 0x3 SHL AND SHR NOT AND SWAP1 SSTORE DUP10 DUP1 DUP1 PUSH2 0xE1D JUMP JUMPDEST SWAP3 SWAP4 PUSH1 0x20 PUSH1 0x1 DUP2 SWAP3 DUP8 DUP7 ADD MLOAD DUP2 SSTORE ADD SWAP6 ADD SWAP4 ADD PUSH2 0xE07 JUMP JUMPDEST SWAP1 SWAP2 POP DUP4 PUSH1 0x0 MSTORE PUSH1 0x20 PUSH1 0x0 KECCAK256 PUSH1 0x1F DUP5 ADD PUSH1 0x5 SHR DUP2 ADD SWAP2 PUSH1 0x20 DUP6 LT PUSH2 0xEA4 JUMPI JUMPDEST SWAP1 PUSH1 0x1F DUP6 SWAP5 SWAP4 SWAP3 ADD PUSH1 0x5 SHR ADD SWAP1 JUMPDEST DUP2 DUP2 LT PUSH2 0xE95 JUMPI POP PUSH2 0xB74 JUMP JUMPDEST PUSH1 0x0 DUP2 SSTORE DUP5 SWAP4 POP PUSH1 0x1 ADD PUSH2 0xE88 JUMP JUMPDEST SWAP1 SWAP2 POP DUP2 SWAP1 PUSH2 0xE7A JUMP JUMPDEST ADD MLOAD SWAP1 POP DUP10 DUP1 PUSH2 0xB30 JUMP JUMPDEST PUSH1 0x0 DUP6 DUP2 MSTORE DUP3 DUP2 KECCAK256 SWAP4 POP PUSH1 0x1F NOT DUP6 AND SWAP1 JUMPDEST DUP2 DUP2 LT PUSH2 0xF06 JUMPI POP SWAP1 DUP5 PUSH1 0x1 SWAP6 SWAP5 SWAP4 SWAP3 LT PUSH2 0xEED JUMPI JUMPDEST POP POP POP DUP2 SHL ADD SWAP1 SSTORE PUSH2 0xB45 JUMP JUMPDEST ADD MLOAD PUSH1 0x0 NOT PUSH1 0xF8 DUP5 PUSH1 0x3 SHL AND SHR NOT AND SWAP1 SSTORE DUP10 DUP1 DUP1 PUSH2 0xEE0 JUMP JUMPDEST SWAP3 SWAP4 PUSH1 0x20 PUSH1 0x1 DUP2 SWAP3 DUP8 DUP7 ADD MLOAD DUP2 SSTORE ADD SWAP6 ADD SWAP4 ADD PUSH2 0xECA JUMP JUMPDEST SWAP1 SWAP2 POP DUP4 PUSH1 0x0 MSTORE PUSH1 0x20 PUSH1 0x0 KECCAK256 PUSH1 0x1F DUP5 ADD PUSH1 0x5 SHR DUP2 ADD SWAP2 PUSH1 0x20 DUP6 LT PUSH2 0xF67 JUMPI JUMPDEST SWAP1 PUSH1 0x1F DUP6 SWAP5 SWAP4 SWAP3 ADD PUSH1 0x5 SHR ADD SWAP1 JUMPDEST DUP2 DUP2 LT PUSH2 0xF58 JUMPI POP PUSH2 0xB19 JUMP JUMPDEST PUSH1 0x0 DUP2 SSTORE DUP5 SWAP4 POP PUSH1 0x1 ADD PUSH2 0xF4B JUMP JUMPDEST SWAP1 SWAP2 POP DUP2 SWAP1 PUSH2 0xF3D JUMP JUMPDEST PUSH4 0x4E487B71 PUSH1 0xE0 SHL PUSH1 0x0 MSTORE PUSH1 0x11 PUSH1 0x4 MSTORE PUSH1 0x24 PUSH1 0x0 REVERT JUMPDEST PUSH2 0x180 DUP2 ADD SWAP1 DUP2 LT PUSH1 0x1 PUSH1 0x1 PUSH1 0x40 SHL SUB DUP3 GT OR PUSH2 0x786 JUMPI PUSH1 0x40 MSTORE JUMP JUMPDEST SWAP1 PUSH1 0x1F DUP1 NOT SWAP2 ADD AND DUP2 ADD SWAP1 DUP2 LT PUSH1 0x1 PUSH1 0x1 PUSH1 0x40 SHL SUB DUP3 GT OR PUSH2 0x786 JUMPI PUSH1 0x40 MSTORE JUMP JUMPDEST DUP2 PUSH1 0x1F DUP3 ADD SLT ISZERO PUSH2 0x7C JUMPI DUP1 CALLDATALOAD SWAP1 PUSH1 0x1 PUSH1 0x1 PUSH1 0x40 SHL SUB DUP3 GT PUSH2 0x786 JUMPI PUSH1 0x40 MLOAD SWAP3 PUSH2 0xFF8 PUSH1 0x1F DUP5 ADD PUSH1 0x1F NOT AND PUSH1 0x20 ADD DUP6 PUSH2 0xFA3 JUMP JUMPDEST DUP3 DUP5 MSTORE PUSH1 0x20 DUP4 DUP4 ADD ADD GT PUSH2 0x7C JUMPI DUP2 PUSH1 0x0 SWAP3 PUSH1 0x20 DUP1 SWAP4 ADD DUP4 DUP7 ADD CALLDATACOPY DUP4 ADD ADD MSTORE SWAP1 JUMP JUMPDEST SWAP1 PUSH1 0x1 DUP3 DUP2 SHR SWAP3 AND DUP1 ISZERO PUSH2 0x104A JUMPI JUMPDEST PUSH1 0x20 DUP4 LT EQ PUSH2 0x1034 JUMPI JUMP JUMPDEST PUSH4 0x4E487B71 PUSH1 0xE0 SHL PUSH1 0x0 MSTORE PUSH1 0x22 PUSH1 0x4 MSTORE PUSH1 0x24 PUSH1 0x0 REVERT JUMPDEST SWAP2 PUSH1 0x7F AND SWAP2 PUSH2 0x1029 JUMP JUMPDEST SWAP1 PUSH1 0x40 MLOAD SWAP2 DUP3 PUSH1 0x0 DUP3 SLOAD SWAP3 PUSH2 0x1068 DUP5 PUSH2 0x101A JUMP JUMPDEST DUP1 DUP5 MSTORE SWAP4 PUSH1 0x1 DUP2 AND SWAP1 DUP2 ISZERO PUSH2 0x10D6 JUMPI POP PUSH1 0x1 EQ PUSH2 0x108F JUMPI JUMPDEST POP PUSH2 0x108D SWAP3 POP SUB DUP4 PUSH2 0xFA3 JUMP JUMPDEST JUMP JUMPDEST SWAP1 POP PUSH1 0x0 SWAP3 SWAP2 SWAP3 MSTORE PUSH1 0x20 PUSH1 0x0 KECCAK256 SWAP1 PUSH1 0x0 SWAP2 JUMPDEST DUP2 DUP4 LT PUSH2 0x10BA JUMPI POP POP SWAP1 PUSH1 0x20 PUSH2 0x108D SWAP3 DUP3 ADD ADD CODESIZE PUSH2 0x1080 JUMP JUMPDEST PUSH1 0x20 SWAP2 SWAP4 POP DUP1 PUSH1 0x1 SWAP2 SLOAD DUP4 DUP6 DUP10 ADD ADD MSTORE ADD SWAP2 ADD SWAP1 SWAP2 DUP5 SWAP3 PUSH2 0x10A1 JUMP JUMPDEST SWAP1 POP PUSH1 0x20 SWAP3 POP PUSH2 0x108D SWAP5 SWAP2 POP PUSH1 0xFF NOT AND DUP3 DUP5 ADD MSTORE ISZERO ISZERO PUSH1 0x5 SHL DUP3 ADD ADD CODESIZE PUSH2 0x1080 JUMP JUMPDEST SWAP2 SWAP1 DUP3 MLOAD SWAP3 DUP4 DUP3 MSTORE PUSH1 0x0 JUMPDEST DUP5 DUP2 LT PUSH2 0x1124 JUMPI POP POP DUP3 PUSH1 0x0 PUSH1 0x20 DUP1 SWAP5 SWAP6 DUP5 ADD ADD MSTORE PUSH1 0x1F DUP1 NOT SWAP2 ADD AND ADD ADD SWAP1 JUMP JUMPDEST DUP1 PUSH1 0x20 DUP1 SWAP3 DUP5 ADD ADD MLOAD DUP3 DUP3 DUP7 ADD ADD MSTORE ADD PUSH2 0x1103 JUMP JUMPDEST ISZERO PUSH2 0x1140 JUMPI JUMP JUMPDEST PUSH1 0x40 MLOAD PUSH3 0x461BCD PUSH1 0xE5 SHL DUP2 MSTORE PUSH1 0x20 PUSH1 0x4 DUP3 ADD MSTORE PUSH1 0x27 PUSH1 0x24 DUP3 ADD MSTORE PUSH32 0x43757272656E74207072696365206D7573742062652067726561746572207468 PUSH1 0x44 DUP3 ADD MSTORE PUSH7 0x616E207A65726F PUSH1 0xC8 SHL PUSH1 0x64 DUP3 ADD MSTORE PUSH1 0x84 SWAP1 REVERT JUMPDEST ISZERO PUSH2 0x119C JUMPI JUMP JUMPDEST PUSH1 0x64 PUSH1 0x40 MLOAD PUSH3 0x461BCD PUSH1 0xE5 SHL DUP2 MSTORE PUSH1 0x20 PUSH1 0x4 DUP3 ADD MSTORE PUSH1 0x20 PUSH1 0x24 DUP3 ADD MSTORE PUSH32 0x526174696E672073686F756C64206265206265747765656E203020616E642035 PUSH1 0x44 DUP3 ADD MSTORE REVERT INVALID LOG2 PUSH5 0x6970667358 0x22 SLT KECCAK256 0xCD MSTORE8 0xD MOD 0xAB DELEGATECALL 0xB9 0xD3 0xD8 0xFC PUSH9 0xCAB91D8ADBA6DDB0E0 SWAP1 0xAF PUSH18 0xCDDBC5BBD67D43908464736F6C634300081C STOP CALLER "},"methodIdentifiers":{"buyProduct(uint256)":"8642269e","getProduct(uint256)":"b9db15b4","productCount()":"e0f6ef87","products(uint256)":"7acc0b20","updateProductInfo(uint256,string,string,string,uint256,uint256,uint256)":"652ca81a","uploadProduct(string,string,string,uint256,uint256,uint256,uint256,bool)":"0d3b5288"}}}}}