{
  "_format": "hh-sol-artifact-1",
  "contractName": "Marketplace",
  "sourceName": "contracts/ProductMarketplace.sol",
  "abi": [
    {
      "anonymous": false,
      "inputs": [
        {
          "indexed": false,
          "internalType": "uint256",
          "name": "id",
          "type": "uint256"
        },
        {
          "indexed": false,
          "internalType": "address",
          "name": "buyer",
          "type": "address"
        },
        {
          "indexed": false,
          "internalType": "uint256",
          "name": "remainingQuantity",
          "type": "uint256"
        }
      ],
      "name": "ProductPurchased",
      "type": "event"
    },
    {
      "anonymous": false,
      "inputs": [
        {
          "indexed": false,
          "internalType": "uint256",
          "name": "id",
          "type": "uint256"
        },
        {
          "indexed": false,
          "internalType": "string",
          "name": "brand",
          "type": "string"
        },
        {
          "indexed": false,
          "internalType": "string",
          "name": "name",
          "type": "string"
        },
        {
          "indexed": false,
          "internalType": "string",
          "name": "imageCID",
          "type": "string"
        },
        {
          "indexed": false,
          "internalType": "uint256",
          "name": "currentPrice",
          "type": "uint256"
        },
        {
          "indexed": false,
          "internalType": "uint256",
          "name": "oldPrice",
          "type": "uint256"
        },
        {
          "indexed": false,
          "internalType": "uint256",
          "name": "rating",
          "type": "uint256"
        },
        {
          "indexed": false,
          "internalType": "uint256",
          "name": "quantity",
          "type": "uint256"
        }
      ],
      "name": "ProductUpdated",
      "type": "event"
    },
    {
      "anonymous": false,
      "inputs": [
        {
          "indexed": false,
          "internalType": "uint256",
          "name": "id",
          "type": "uint256"
        },
        {
          "indexed": false,
          "internalType": "address",
          "name": "owner",
          "type": "address"
        },
        {
          "indexed": false,
          "internalType": "string",
          "name": "brand",
          "type": "string"
        },
        {
          "indexed": false,
          "internalType": "string",
          "name": "name",
          "type": "string"
        },
        {
          "indexed": false,
          "internalType": "string",
          "name": "imageCID",
          "type": "string"
        },
        {
          "indexed": false,
          "internalType": "uint256",
          "name": "currentPrice",
          "type": "uint256"
        },
        {
          "indexed": false,
          "internalType": "uint256",
          "name": "oldPrice",
          "type": "uint256"
        },
        {
          "indexed": false,
          "internalType": "uint256",
          "name": "rating",
          "type": "uint256"
        },
        {
          "indexed": false,
          "internalType": "uint256",
          "name": "daysOnSale",
          "type": "uint256"
        },
        {
          "indexed": false,
          "internalType": "bool",
          "name": "isSold",
          "type": "bool"
        },
        {
          "indexed": false,
          "internalType": "bool",
          "name": "isOnSale",
          "type": "bool"
        },
        {
          "indexed": false,
          "internalType": "uint256",
          "name": "quantity",
          "type": "uint256"
        }
      ],
      "name": "ProductUploaded",
      "type": "event"
    },
    {
      "inputs": [
        {
          "internalType": "uint256",
          "name": "_id",
          "type": "uint256"
        }
      ],
      "name": "buyProduct",
      "outputs": [],
      "stateMutability": "payable",
      "type": "function"
    },
    {
      "inputs": [
        {
          "internalType": "uint256",
          "name": "_id",
          "type": "uint256"
        }
      ],
      "name": "getProduct",
      "outputs": [
        {
          "internalType": "uint256",
          "name": "",
          "type": "uint256"
        },
        {
          "internalType": "address",
          "name": "",
          "type": "address"
        },
        {
          "internalType": "string",
          "name": "",
          "type": "string"
        },
        {
          "internalType": "string",
          "name": "",
          "type": "string"
        },
        {
          "internalType": "string",
          "name": "",
          "type": "string"
        },
        {
          "internalType": "uint256",
          "name": "",
          "type": "uint256"
        },
        {
          "internalType": "uint256",
          "name": "",
          "type": "uint256"
        },
        {
          "internalType": "uint256",
          "name": "",
          "type": "uint256"
        },
        {
          "internalType": "uint256",
          "name": "",
          "type": "uint256"
        },
        {
          "internalType": "uint256",
          "name": "",
          "type": "uint256"
        },
        {
          "internalType": "bool",
          "name": "",
          "type": "bool"
        },
        {
          "internalType": "bool",
          "name": "",
          "type": "bool"
        },
        {
          "internalType": "uint256",
          "name": "",
          "type": "uint256"
        }
      ],
      "stateMutability": "view",
      "type": "function"
    },
    {
      "inputs": [],
      "name": "productCount",
      "outputs": [
        {
          "internalType": "uint256",
          "name": "",
          "type": "uint256"
        }
      ],
      "stateMutability": "view",
      "type": "function"
    },
    {
      "inputs": [
        {
          "internalType": "uint256",
          "name": "",
          "type": "uint256"
        }
      ],
      "name": "products",
      "outputs": [
        {
          "internalType": "uint256",
          "name": "id",
          "type": "uint256"
        },
        {
          "internalType": "address payable",
          "name": "owner",
          "type": "address"
        },
        {
          "internalType": "string",
          "name": "brand",
          "type": "string"
        },
        {
          "internalType": "string",
          "name": "name",
          "type": "string"
        },
        {
          "internalType": "string",
          "name": "imageCID",
          "type": "string"
        },
        {
          "internalType": "uint256",
          "name": "currentPrice",
          "type": "uint256"
        },
        {
          "internalType": "uint256",
          "name": "oldPrice",
          "type": "uint256"
        },
        {
          "internalType": "uint256",
          "name": "rating",
          "type": "uint256"
        },
        {
          "internalType": "uint256",
          "name": "daysOnSale",
          "type": "uint256"
        },
        {
          "internalType": "uint256",
          "name": "createdAt",
          "type": "uint256"
        },
        {
          "internalType": "bool",
          "name": "isSold",
          "type": "bool"
        },
        {
          "internalType": "bool",
          "name": "isOnSale",
          "type": "bool"
        },
        {
          "internalType": "uint256",
          "name": "quantity",
          "type": "uint256"
        }
      ],
      "stateMutability": "view",
      "type": "function"
    },
    {
      "inputs": [
        {
          "internalType": "uint256",
          "name": "_id",
          "type": "uint256"
        },
        {
          "internalType": "string",
          "name": "_brand",
          "type": "string"
        },
        {
          "internalType": "string",
          "name": "_name",
          "type": "string"
        },
        {
          "internalType": "string",
          "name": "_imageCID",
          "type": "string"
        },
        {
          "internalType": "uint256",
          "name": "_currentPrice",
          "type": "uint256"
        },
        {
          "internalType": "uint256",
          "name": "_oldPrice",
          "type": "uint256"
        },
        {
          "internalType": "uint256",
          "name": "_rating",
          "type": "uint256"
        },
        {
          "internalType": "uint256",
          "name": "_quantity",
          "type": "uint256"
        }
      ],
      "name": "updateProductInfo",
      "outputs": [],
      "stateMutability": "nonpayable",
      "type": "function"
    },
    {
      "inputs": [
        {
          "internalType": "string",
          "name": "_name",
          "type": "string"
        },
        {
          "internalType": "string",
          "name": "_imageCID",
          "type": "string"
        },
        {
          "internalType": "string",
          "name": "_brand",
          "type": "string"
        },
        {
          "internalType": "uint256",
          "name": "_currentPrice",
          "type": "uint256"
        },
        {
          "internalType": "uint256",
          "name": "_oldPrice",
          "type": "uint256"
        },
        {
          "internalType": "uint256",
          "name": "_rating",
          "type": "uint256"
        },
        {
          "internalType": "uint256",
          "name": "daysOnSale",
          "type": "uint256"
        },
        {
          "internalType": "bool",
          "name": "_isOnSale",
          "type": "bool"
        },
        {
          "internalType": "uint256",
          "name": "_quantity",
          "type": "uint256"
        }
      ],
      "name": "uploadProduct",
      "outputs": [],
      "stateMutability": "nonpayable",
      "type": "function"
    }
  ],
  "bytecode": "0x6080806040523460195760008055611368908161001f8239f35b600080fdfe6080604052600436101561001257600080fd5b60003560e01c80637acc0b2014610fd1578063822febfb14610a635780638642269e14610875578063b9db15b4146106fb578063e0f6ef87146106dd5763f56fa78a1461005e57600080fd5b346106d8576101203660031901126106d8576004356001600160401b0381116106d85761008f903690600401611235565b6024356001600160401b0381116106d8576100ae903690600401611235565b906044356001600160401b0381116106d8576100ce903690600401611235565b9060e43580151581036106d8576100e8606435151561128b565b6100f7600560a43511156112e7565b61010435156106885760005460001981146106725760010193846000556040519461012186611113565b8086526020860190338252604087018681526060880190868252608089019285845260643560a08b015260843560c08b015260a43560e08b015260c4356101008b0152426101208b015260006101408b01528615156101608b0152610104356101808b0152600052600160205260406000209389518555600185019060018060a01b039051166bffffffffffffffffffffffff60a01b8254161790556002840190518051906001600160401b0382116104d65781906101e084546110d9565b601f811161061f575b50602090601f83116001146105ba576000926105af575b50508160011b916000199060031b1c19161790555b51805160038401916001600160401b0382116104d657819061023784546110d9565b601f811161055c575b50602090601f83116001146104f7576000926104ec575b50508160011b916000199060031b1c19161790555b519586516001600160401b0381116104d65761028b60048401546110d9565b601f811161048b575b506020601f82116001146103f1576103a594939282600b93610180937fe4b1c4bc60e762b06195df1bf220825e9958a2fff2c67cb3fae7507af26c97989c6000926103e6575b50508160011b916000199060031b1c19161760048501555b60a0810151600585015560c0810151600685015560e0810151600785015561010081015160088501556101208101516009850155600a8401610140820151151560ff80198354169116178155610160820151151561ff0082549160081b169061ff001916179055015191015561039760005494610389604051978897885233602089015261018060408901526101808801906111f4565b9086820360608801526111f4565b9084820360808601526111f4565b9060643560a084015260843560c084015260a43560e084015260c43561010084015260006101208401521515610140830152610104356101608301520390a1005b0151905038806102da565b60048401600052806000209860005b601f19841681106104735750926001837fe4b1c4bc60e762b06195df1bf220825e9958a2fff2c67cb3fae7507af26c97989b610180946103a5999897600b97601f1981161061045a575b505050811b0160048501556102f2565b015160001960f88460031b161c1916905538808061044a565b828201518b556001909a019960209283019201610400565b600484016000526020600020601f830160051c810191602084106104cc575b601f0160051c01905b8181106104c05750610294565b600081556001016104b3565b90915081906104aa565b634e487b7160e01b600052604160045260246000fd5b015190503880610257565b60008581528281209350601f198516905b818110610544575090846001959493921061052b575b505050811b01905561026c565b015160001960f88460031b161c1916905538808061051e565b92936020600181928786015181550195019301610508565b909150836000526020600020601f840160051c810191602085106105a5575b90601f859493920160051c01905b8181106105965750610240565b60008155849350600101610589565b909150819061057b565b015190503880610200565b60008581528281209350601f198516905b81811061060757509084600195949392106105ee575b505050811b019055610215565b015160001960f88460031b161c191690553880806105e1565b929360206001819287860151815501950193016105cb565b909150836000526020600020601f840160051c81019160208510610668575b90601f859493920160051c01905b81811061065957506101e9565b6000815584935060010161064c565b909150819061063e565b634e487b7160e01b600052601160045260246000fd5b60405162461bcd60e51b815260206004820152602260248201527f5175616e74697479206d7573742062652067726561746572207468616e207a65604482015261726f60f01b6064820152608490fd5b600080fd5b346106d85760003660031901126106d8576020600054604051908152f35b346106d85760203660031901126106d857600435600052600160205260406000206040519061072982611113565b8054825260018101546001600160a01b0316602083019081529061074f60028201611150565b604084019081529261076360038301611150565b606082019081529161077760048201611150565b928360808401526005820154938460a085015260068301548060c086015260078401548060e08701526008850154918261010088015260098601549384610120890152600a8701549560ff8716151596876101408b015260081c60ff16151597886101608b0152600b01549889610180820152519a600160a01b600190039051169b519051906040519c8d9c8d5260208d015260408c016101a090526101a08c01610821916111f4565b8b810360608d0152610832916111f4565b8a810360808c0152610843916111f4565b9760a08a015260c089015260e08801526101008701526101208601526101408501526101608401526101808301520390f35b60203660031901126106d8576004358060005260016020526040600020600a81019160ff835416610a2757600582015434036109ef57600b8201918254156109aa57600101546001600160a01b031633811461095a5760008080809381903415610950575b3491f1156109445781546000198101908111610672577fa530f889d7f1bd9a73028e48944ca013ab2c6624a31e3fa26f923f4bb719abd59381606094558115610933575b506040519182523360208301526040820152a1005b805460ff191660011790558461091e565b6040513d6000823e3d90fd5b6108fc91506108da565b60405162461bcd60e51b815260206004820152602260248201527f4f776e65722063616e6e6f7420627579207468656972206f776e2070726f647560448201526118dd60f21b6064820152608490fd5b60405162461bcd60e51b815260206004820152601760248201527f50726f64756374206973206f7574206f662073746f636b0000000000000000006044820152606490fd5b60405162461bcd60e51b815260206004820152601060248201526f125b98dbdc9c9958dd08185b5bdd5b9d60821b6044820152606490fd5b60405162461bcd60e51b8152602060048201526014602482015273141c9bd91d58dd08185b1c9958591e481cdbdb1960621b6044820152606490fd5b346106d8576101003660031901126106d8576004356024356001600160401b0381116106d857610a97903690600401611235565b6044356001600160401b0381116106d857610ab6903690600401611235565b916064356001600160401b0381116106d857610ad6903690600401611235565b6084359060a43560c4359060e43592856000526001602052604060002060018060a01b036001820154163303610f8257600a81019060ff825416610f3d57610b1f87151561128b565b610b2c60058611156112e7565b6002810189516001600160401b0381116104d657610b4a82546110d9565b601f8111610ef5575b50806020601f8211600114610e8f57600091610e84575b508160011b916000199060031b1c19161790555b600381018a516001600160401b0381116104d657610b9c82546110d9565b601f8111610e3c575b50806020601f8211600114610dd457600091610dc9575b508160011b916000199060031b1c19161790555b6004810183516001600160401b0381116104d657610bee82546110d9565b601f8111610d81575b506020601f8211600114610cee57600b610ca2947ffac9873ad58cc48e362590f6c52dac70ef6e257d1fdfaf36cf9c808d58b5723d9e9484610cb09998958d95600091610ce3575b508160011b916000199060031b1c19161790555b8b6005820155886006820155896007820155015587151580610cd8575b610cca575b50610c946040519a8b9a8b5261010060208c01526101008b01906111f4565b9089820360408b01526111f4565b9087820360608901526111f4565b93608086015260a085015260c084015260e08301520390a1005b805460ff191690558b610c75565b5060ff815416610c70565b905089015138610c3f565b601f1982169083600052806000209160005b818110610d695750947ffac9873ad58cc48e362590f6c52dac70ef6e257d1fdfaf36cf9c808d58b5723d9e946001858d95600b95610cb09c9b98610ca29b10610d50575b5050811b019055610c53565b8b015160001960f88460031b161c191690553880610d44565b9192602060018192868c015181550194019201610d00565b826000526020600020601f830160051c81019160208410610dbf575b601f0160051c01905b818110610db35750610bf7565b60008155600101610da6565b9091508190610d9d565b90508c01518d610bbc565b8d9250601f1982169084600052806000209160005b818110610e225750938360019510610e09575b505050811b019055610bd0565b015160001960f88460031b161c191690558d808e610dfc565b9482015183558f9460019093019260209283019201610de9565b826000526020600020601f830160051c81019160208410610e7a575b601f0160051c01905b818110610e6e5750610ba5565b60008155600101610e61565b9091508190610e58565b90508b01518d610b6a565b60008481528181209250601f198416908e5b828210610edc5750509083600194939210610ec3575b5050811b019055610b7e565b8d015160001960f88460031b161c191690558d80610eb7565b600184956020939584930151815501940192018e610ea1565b826000526020600020601f830160051c81019160208410610f33575b601f0160051c01905b818110610f275750610b53565b60008155600101610f1a565b9091508190610f11565b60405162461bcd60e51b815260206004820152601c60248201527f43616e6e6f7420757064617465206120736f6c642070726f64756374000000006044820152606490fd5b60405162461bcd60e51b815260206004820152602160248201527f4f6e6c79206f776e65722063616e20757064617465207468652070726f6475636044820152601d60fa1b6064820152608490fd5b346106d85760203660031901126106d857600435600052600160205260406000208054600160a01b60019003600183015416916002810161101190611150565b61101d60038301611150565b9161102a60048201611150565b926005820154936006830154600784015490600885015492600986015494600a87015496600b0154976040519b8c9b8c5260208c015260408b016101a090526101a08b01611077916111f4565b8a810360608c0152611088916111f4565b89810360808b0152611099916111f4565b9660a089015260c088015260e087015261010086015261012085015260ff8116151561014085015260081c60ff1615156101608401526101808301520390f35b90600182811c92168015611109575b60208310146110f357565b634e487b7160e01b600052602260045260246000fd5b91607f16916110e8565b6101a081019081106001600160401b038211176104d657604052565b90601f801991011681019081106001600160401b038211176104d657604052565b9060405191826000825492611164846110d9565b80845293600181169081156111d2575060011461118b575b506111899250038361112f565b565b90506000929192526020600020906000915b8183106111b6575050906020611189928201013861117c565b602091935080600191548385890101520191019091849261119d565b90506020925061118994915060ff191682840152151560051b8201013861117c565b919082519283825260005b848110611220575050826000602080949584010152601f8019910116010190565b806020809284010151828286010152016111ff565b81601f820112156106d8578035906001600160401b0382116104d65760405192611269601f8401601f19166020018561112f565b828452602083830101116106d857816000926020809301838601378301015290565b1561129257565b60405162461bcd60e51b815260206004820152602760248201527f43757272656e74207072696365206d7573742062652067726561746572207468604482015266616e207a65726f60c81b6064820152608490fd5b156112ee57565b606460405162461bcd60e51b815260206004820152602060248201527f526174696e672073686f756c64206265206265747765656e203020616e6420356044820152fdfea264697066735822122060f5ba7d678f83a15a1f06b73271f35404d834cbbae362c3f85e59c157683d3064736f6c634300081c0033",
  "linkReferences": {},
  "deployedLinkReferences": {}
}