{
  "_format": "hh-sol-artifact-1",
  "contractName": "Marketplace",
  "sourceName": "contracts/ProductMarketplace.sol",
  "abi": [
    {
      "anonymous": false,
      "inputs": [
        {
          "indexed": false,
          "internalType": "uint256",
          "name": "id",
          "type": "uint256"
        },
        {
          "indexed": false,
          "internalType": "address",
          "name": "buyer",
          "type": "address"
        }
      ],
      "name": "ProductPurchased",
      "type": "event"
    },
    {
      "anonymous": false,
      "inputs": [
        {
          "indexed": false,
          "internalType": "uint256",
          "name": "id",
          "type": "uint256"
        },
        {
          "indexed": false,
          "internalType": "string",
          "name": "brand",
          "type": "string"
        },
        {
          "indexed": false,
          "internalType": "string",
          "name": "name",
          "type": "string"
        },
        {
          "indexed": false,
          "internalType": "string",
          "name": "imageCID",
          "type": "string"
        },
        {
          "indexed": false,
          "internalType": "uint256",
          "name": "currentPrice",
          "type": "uint256"
        },
        {
          "indexed": false,
          "internalType": "uint256",
          "name": "oldPrice",
          "type": "uint256"
        },
        {
          "indexed": false,
          "internalType": "uint256",
          "name": "rating",
          "type": "uint256"
        }
      ],
      "name": "ProductUpdated",
      "type": "event"
    },
    {
      "anonymous": false,
      "inputs": [
        {
          "indexed": false,
          "internalType": "uint256",
          "name": "id",
          "type": "uint256"
        },
        {
          "indexed": false,
          "internalType": "address",
          "name": "owner",
          "type": "address"
        },
        {
          "indexed": false,
          "internalType": "string",
          "name": "brand",
          "type": "string"
        },
        {
          "indexed": false,
          "internalType": "string",
          "name": "name",
          "type": "string"
        },
        {
          "indexed": false,
          "internalType": "string",
          "name": "imageCID",
          "type": "string"
        },
        {
          "indexed": false,
          "internalType": "uint256",
          "name": "currentPrice",
          "type": "uint256"
        },
        {
          "indexed": false,
          "internalType": "uint256",
          "name": "oldPrice",
          "type": "uint256"
        },
        {
          "indexed": false,
          "internalType": "uint256",
          "name": "rating",
          "type": "uint256"
        },
        {
          "indexed": false,
          "internalType": "uint256",
          "name": "daysOnSale",
          "type": "uint256"
        },
        {
          "indexed": false,
          "internalType": "bool",
          "name": "isSold",
          "type": "bool"
        },
        {
          "indexed": false,
          "internalType": "bool",
          "name": "isOnSale",
          "type": "bool"
        }
      ],
      "name": "ProductUploaded",
      "type": "event"
    },
    {
      "inputs": [
        {
          "internalType": "uint256",
          "name": "_id",
          "type": "uint256"
        }
      ],
      "name": "buyProduct",
      "outputs": [],
      "stateMutability": "payable",
      "type": "function"
    },
    {
      "inputs": [
        {
          "internalType": "uint256",
          "name": "_id",
          "type": "uint256"
        }
      ],
      "name": "getProduct",
      "outputs": [
        {
          "internalType": "uint256",
          "name": "",
          "type": "uint256"
        },
        {
          "internalType": "address",
          "name": "",
          "type": "address"
        },
        {
          "internalType": "string",
          "name": "",
          "type": "string"
        },
        {
          "internalType": "string",
          "name": "",
          "type": "string"
        },
        {
          "internalType": "string",
          "name": "",
          "type": "string"
        },
        {
          "internalType": "uint256",
          "name": "",
          "type": "uint256"
        },
        {
          "internalType": "uint256",
          "name": "",
          "type": "uint256"
        },
        {
          "internalType": "uint256",
          "name": "",
          "type": "uint256"
        },
        {
          "internalType": "uint256",
          "name": "",
          "type": "uint256"
        },
        {
          "internalType": "uint256",
          "name": "",
          "type": "uint256"
        },
        {
          "internalType": "bool",
          "name": "",
          "type": "bool"
        },
        {
          "internalType": "bool",
          "name": "",
          "type": "bool"
        }
      ],
      "stateMutability": "view",
      "type": "function"
    },
    {
      "inputs": [],
      "name": "productCount",
      "outputs": [
        {
          "internalType": "uint256",
          "name": "",
          "type": "uint256"
        }
      ],
      "stateMutability": "view",
      "type": "function"
    },
    {
      "inputs": [
        {
          "internalType": "uint256",
          "name": "",
          "type": "uint256"
        }
      ],
      "name": "products",
      "outputs": [
        {
          "internalType": "uint256",
          "name": "id",
          "type": "uint256"
        },
        {
          "internalType": "address payable",
          "name": "owner",
          "type": "address"
        },
        {
          "internalType": "string",
          "name": "brand",
          "type": "string"
        },
        {
          "internalType": "string",
          "name": "name",
          "type": "string"
        },
        {
          "internalType": "string",
          "name": "imageCID",
          "type": "string"
        },
        {
          "internalType": "uint256",
          "name": "currentPrice",
          "type": "uint256"
        },
        {
          "internalType": "uint256",
          "name": "oldPrice",
          "type": "uint256"
        },
        {
          "internalType": "uint256",
          "name": "rating",
          "type": "uint256"
        },
        {
          "internalType": "uint256",
          "name": "daysOnSale",
          "type": "uint256"
        },
        {
          "internalType": "uint256",
          "name": "createdAt",
          "type": "uint256"
        },
        {
          "internalType": "bool",
          "name": "isSold",
          "type": "bool"
        },
        {
          "internalType": "bool",
          "name": "isOnSale",
          "type": "bool"
        }
      ],
      "stateMutability": "view",
      "type": "function"
    },
    {
      "inputs": [
        {
          "internalType": "uint256",
          "name": "_id",
          "type": "uint256"
        },
        {
          "internalType": "string",
          "name": "_brand",
          "type": "string"
        },
        {
          "internalType": "string",
          "name": "_name",
          "type": "string"
        },
        {
          "internalType": "string",
          "name": "_imageCID",
          "type": "string"
        },
        {
          "internalType": "uint256",
          "name": "_currentPrice",
          "type": "uint256"
        },
        {
          "internalType": "uint256",
          "name": "_oldPrice",
          "type": "uint256"
        },
        {
          "internalType": "uint256",
          "name": "_rating",
          "type": "uint256"
        }
      ],
      "name": "updateProductInfo",
      "outputs": [],
      "stateMutability": "nonpayable",
      "type": "function"
    },
    {
      "inputs": [
        {
          "internalType": "string",
          "name": "_name",
          "type": "string"
        },
        {
          "internalType": "string",
          "name": "_imageCID",
          "type": "string"
        },
        {
          "internalType": "string",
          "name": "_brand",
          "type": "string"
        },
        {
          "internalType": "uint256",
          "name": "_currentPrice",
          "type": "uint256"
        },
        {
          "internalType": "uint256",
          "name": "_oldPrice",
          "type": "uint256"
        },
        {
          "internalType": "uint256",
          "name": "_rating",
          "type": "uint256"
        },
        {
          "internalType": "uint256",
          "name": "daysOnSale",
          "type": "uint256"
        },
        {
          "internalType": "bool",
          "name": "_isOnSale",
          "type": "bool"
        }
      ],
      "name": "uploadProduct",
      "outputs": [],
      "stateMutability": "nonpayable",
      "type": "function"
    }
  ],
  "bytecode": "0x6080806040523460195760008055611216908161001f8239f35b600080fdfe6080604052600436101561001257600080fd5b60003560e01c80630d3b52881461099e578063652ca81a1461045c5780637acc0b20146103605780638642269e146101e8578063b9db15b4146100815763e0f6ef871461005e57600080fd5b3461007c57600036600319011261007c576020600054604051908152f35b600080fd5b3461007c57602036600319011261007c5760043560005260016020526040600020604051906100af82610f87565b8054825260018101546001600160a01b031660208301908152906100d560028201611054565b60408401908152926100e960038301611054565b606082019081526100fc60048401611054565b928360808401526005810154938460a085015260068201548060c08601526007830154908160e08701526008840154928361010088015260098501549485610120890152600a01549560ff8716151596876101408a015260081c60ff16151597886101608201525199600160a01b600190039051169a519051906040519b8c9b8c5260208c015260408b0161018090526101808b0161019a916110f8565b8a810360608c01526101ab916110f8565b89810360808b01526101bc916110f8565b9660a089015260c088015260e08701526101008601526101208501526101408401526101608301520390f35b602036600319011261007c576004358060005260016020526040600020600a81019060ff82541661032457600581015434036102ec57600101546001600160a01b031633811461029c5760008080809381903415610292575b3491f11561028657805460ff19166001179055604080519182523360208301527f9ad4ecfaf27ea0cbeebee0ed92fe15c8a84975f1e3d45ccfc526d7751dcf98ff91a1005b6040513d6000823e3d90fd5b6108fc9150610241565b60405162461bcd60e51b815260206004820152602260248201527f4f776e65722063616e6e6f7420627579207468656972206f776e2070726f647560448201526118dd60f21b6064820152608490fd5b60405162461bcd60e51b815260206004820152601060248201526f125b98dbdc9c9958dd08185b5bdd5b9d60821b6044820152606490fd5b60405162461bcd60e51b8152602060048201526014602482015273141c9bd91d58dd08185b1c9958591e481cdbdb1960621b6044820152606490fd5b3461007c57602036600319011261007c57600435600052600160205260406000208054600160a01b6001900360018301541691600281016103a090611054565b6103ac60038301611054565b916103b960048201611054565b926005820154936006830154600784015491600885015493600986015495600a0154966040519a8b9a8b5260208b015260408a0161018090526101808a01610400916110f8565b89810360608b0152610411916110f8565b88810360808a0152610422916110f8565b9560a088015260c087015260e086015261010085015261012084015260ff8116151561014084015260081c60ff1615156101608301520390f35b3461007c5760e036600319011261007c576004356024356001600160401b03811161007c5761048f903690600401610fc4565b6044356001600160401b03811161007c576104ae903690600401610fc4565b916064356001600160401b03811161007c576104ce903690600401610fc4565b6084359060a43560c4359184600052600160205260406000209660018060a01b03600189015416330361094f5760ff600a8901541661090a57610512851515611139565b61051f6005851115611195565b6002880187516001600160401b0381116107865761053d825461101a565b601f81116108c2575b50806020601f821160011461085d57600091610852575b508160011b916000199060031b1c19161790555b6003880181516001600160401b0381116107865761058f825461101a565b601f811161080a575b50806020601f82116001146107a75760009161079c575b508160011b916000199060031b1c19161790555b600488019782516001600160401b038111610786576105e28a5461101a565b601f811161073e575b506020601f82116001146106ac57600761067e937f7772100278dd2390206c6173dc7efe28d55421218ac5609739bcc33532a56da89c8461068c9897958b956000916106a1575b508160011b916000199060031b1c19161790555b8960058201558760068201550155610670604051998a998a5260e060208b015260e08a01906110f8565b9088820360408a01526110f8565b9086820360608801526110f8565b92608085015260a084015260c08301520390a1005b905088015138610632565b601f198216908b600052806000209160005b8181106107265750937f7772100278dd2390206c6173dc7efe28d55421218ac5609739bcc33532a56da89c6001858b9560079561068c9b9a9861067e9a1061070d575b5050811b019055610646565b8a015160001960f88460031b161c191690553880610701565b9192602060018192868b0151815501940192016106be565b8a6000526020600020601f830160051c8101916020841061077c575b601f0160051c01905b81811061077057506105eb565b60008155600101610763565b909150819061075a565b634e487b7160e01b600052604160045260246000fd5b90508301518b6105af565b60008481528181209250601f198416905b8181106107f2575090836001949392106107d9575b5050811b0190556105c3565b85015160001960f88460031b161c191690558b806107cd565b9192602060018192868a0151815501940192016107b8565b826000526020600020601f830160051c81019160208410610848575b601f0160051c01905b81811061083c5750610598565b6000815560010161082f565b9091508190610826565b90508901518b61055d565b60008481528181209250601f198416905b8c8282106108aa5750509083600194939210610891575b5050811b019055610571565b8b015160001960f88460031b161c191690558b80610885565b6001849560209395849301518155019401920161086e565b826000526020600020601f830160051c81019160208410610900575b601f0160051c01905b8181106108f45750610546565b600081556001016108e7565b90915081906108de565b60405162461bcd60e51b815260206004820152601c60248201527f43616e6e6f7420757064617465206120736f6c642070726f64756374000000006044820152606490fd5b60405162461bcd60e51b815260206004820152602160248201527f4f6e6c79206f776e65722063616e20757064617465207468652070726f6475636044820152601d60fa1b6064820152608490fd5b3461007c5761010036600319011261007c576004356001600160401b03811161007c576109cf903690600401610fc4565b6024356001600160401b03811161007c576109ee903690600401610fc4565b906044356001600160401b03811161007c57610a0e903690600401610fc4565b9060e435801515810361007c57610a286064351515611139565b610a37600560a4351115611195565b600054936000198514610f715760018501600055600160405195610a5a87610f87565b818101875233602088015285604088015284606088015282608088015260643560a088015260843560c088015260a43560e088015260c435610100880152426101208801526000610140880152831515610160880152016000526001602052604060002094805186556001860160018060a01b036020830151166bffffffffffffffffffffffff60a01b8254161790556002860160408201518051906001600160401b038211610786578190610b10845461101a565b601f8111610f1e575b50602090601f8311600114610eb957600092610eae575b50508160011b916000199060031b1c19161790555b6003860160608201518051906001600160401b038211610786578190610b6b845461101a565b601f8111610e5b575b50602090601f8311600114610df657600092610deb575b50508160011b916000199060031b1c19161790555b60808101519586516001600160401b03811161078657610bc3600483015461101a565b601f8111610da0575b506020601f8211600114610d0657610cc49493928261016093600a937f9989c835b9762b3dbfcb791503105d37b1bc21081ad9a5b961b9bcf81cd7e1d19c600092610cfb575b50508160011b916000199060031b1c19161760048201555b60a0840151600582015560c0840151600682015560e08401516007820155610100840151600882015561012084015160098201550191610140810151151560ff801985541691161783550151151561ff0082549160081b169061ff001916179055610cb66000549461067e604051978897885233602089015261016060408901526101608801906110f8565b9084820360808601526110f8565b9060643560a084015260843560c084015260a43560e084015260c435610100840152600061012084015215156101408301520390a1005b015190508c80610c12565b60048301600052806000209860005b601f1984168110610d885750926001837f9989c835b9762b3dbfcb791503105d37b1bc21081ad9a5b961b9bcf81cd7e1d19b600a94610cc499989761016097601f19811610610d6f575b505050811b016004820155610c2a565b015160001960f88460031b161c191690558c8080610d5f565b828201518b556001909a019960209283019201610d15565b600483016000526020600020601f830160051c81019160208410610de1575b601f0160051c01905b818110610dd55750610bcc565b60008155600101610dc8565b9091508190610dbf565b015190508980610b8b565b60008581528281209350601f198516905b818110610e435750908460019594939210610e2a575b505050811b019055610ba0565b015160001960f88460031b161c19169055898080610e1d565b92936020600181928786015181550195019301610e07565b909150836000526020600020601f840160051c81019160208510610ea4575b90601f859493920160051c01905b818110610e955750610b74565b60008155849350600101610e88565b9091508190610e7a565b015190508980610b30565b60008581528281209350601f198516905b818110610f065750908460019594939210610eed575b505050811b019055610b45565b015160001960f88460031b161c19169055898080610ee0565b92936020600181928786015181550195019301610eca565b909150836000526020600020601f840160051c81019160208510610f67575b90601f859493920160051c01905b818110610f585750610b19565b60008155849350600101610f4b565b9091508190610f3d565b634e487b7160e01b600052601160045260246000fd5b61018081019081106001600160401b0382111761078657604052565b90601f801991011681019081106001600160401b0382111761078657604052565b81601f8201121561007c578035906001600160401b0382116107865760405192610ff8601f8401601f191660200185610fa3565b8284526020838301011161007c57816000926020809301838601378301015290565b90600182811c9216801561104a575b602083101461103457565b634e487b7160e01b600052602260045260246000fd5b91607f1691611029565b90604051918260008254926110688461101a565b80845293600181169081156110d6575060011461108f575b5061108d92500383610fa3565b565b90506000929192526020600020906000915b8183106110ba57505090602061108d9282010138611080565b60209193508060019154838589010152019101909184926110a1565b90506020925061108d94915060ff191682840152151560051b82010138611080565b919082519283825260005b848110611124575050826000602080949584010152601f8019910116010190565b80602080928401015182828601015201611103565b1561114057565b60405162461bcd60e51b815260206004820152602760248201527f43757272656e74207072696365206d7573742062652067726561746572207468604482015266616e207a65726f60c81b6064820152608490fd5b1561119c57565b606460405162461bcd60e51b815260206004820152602060248201527f526174696e672073686f756c64206265206265747765656e203020616e6420356044820152fdfea2646970667358221220cd530d06abf4b9d3d8fc68cab91d8adba6ddb0e090af71cddbc5bbd67d43908464736f6c634300081c0033",
  "linkReferences": {},
  "deployedLinkReferences": {}
}