{
  "_format": "hh-sol-artifact-1",
  "contractName": "MedicalRecords",
  "sourceName": "contracts/MedicalRecords.sol",
  "abi": [
    {
      "inputs": [],
      "stateMutability": "nonpayable",
      "type": "constructor"
    },
    {
      "inputs": [
        {
          "internalType": "address",
          "name": "owner",
          "type": "address"
        }
      ],
      "name": "OwnableInvalidOwner",
      "type": "error"
    },
    {
      "inputs": [
        {
          "internalType": "address",
          "name": "account",
          "type": "address"
        }
      ],
      "name": "OwnableUnauthorizedAccount",
      "type": "error"
    },
    {
      "anonymous": false,
      "inputs": [
        {
          "indexed": true,
          "internalType": "string",
          "name": "recordId",
          "type": "string"
        },
        {
          "indexed": true,
          "internalType": "address",
          "name": "doctor",
          "type": "address"
        },
        {
          "indexed": false,
          "internalType": "uint256",
          "name": "expiry",
          "type": "uint256"
        }
      ],
      "name": "AccessGranted",
      "type": "event"
    },
    {
      "anonymous": false,
      "inputs": [
        {
          "indexed": true,
          "internalType": "string",
          "name": "recordId",
          "type": "string"
        },
        {
          "indexed": true,
          "internalType": "address",
          "name": "doctor",
          "type": "address"
        },
        {
          "indexed": false,
          "internalType": "uint256",
          "name": "revokedAt",
          "type": "uint256"
        }
      ],
      "name": "AccessRevoked",
      "type": "event"
    },
    {
      "anonymous": false,
      "inputs": [
        {
          "indexed": true,
          "internalType": "address",
          "name": "previousOwner",
          "type": "address"
        },
        {
          "indexed": true,
          "internalType": "address",
          "name": "newOwner",
          "type": "address"
        }
      ],
      "name": "OwnershipTransferred",
      "type": "event"
    },
    {
      "anonymous": false,
      "inputs": [
        {
          "indexed": true,
          "internalType": "string",
          "name": "recordId",
          "type": "string"
        },
        {
          "indexed": false,
          "internalType": "string[]",
          "name": "cids",
          "type": "string[]"
        },
        {
          "indexed": true,
          "internalType": "address",
          "name": "owner",
          "type": "address"
        },
        {
          "indexed": false,
          "internalType": "string",
          "name": "description",
          "type": "string"
        }
      ],
      "name": "RecordUploaded",
      "type": "event"
    },
    {
      "inputs": [
        {
          "internalType": "string",
          "name": "recordId",
          "type": "string"
        },
        {
          "internalType": "address",
          "name": "doctor",
          "type": "address"
        }
      ],
      "name": "checkAccessExpiry",
      "outputs": [
        {
          "internalType": "uint256",
          "name": "",
          "type": "uint256"
        }
      ],
      "stateMutability": "view",
      "type": "function"
    },
    {
      "inputs": [
        {
          "internalType": "string",
          "name": "recordId",
          "type": "string"
        }
      ],
      "name": "getRecord",
      "outputs": [
        {
          "internalType": "string[]",
          "name": "",
          "type": "string[]"
        },
        {
          "internalType": "address",
          "name": "",
          "type": "address"
        },
        {
          "internalType": "string",
          "name": "",
          "type": "string"
        }
      ],
      "stateMutability": "view",
      "type": "function"
    },
    {
      "inputs": [
        {
          "internalType": "string",
          "name": "recordId",
          "type": "string"
        },
        {
          "internalType": "address",
          "name": "doctor",
          "type": "address"
        },
        {
          "internalType": "uint256",
          "name": "duration",
          "type": "uint256"
        }
      ],
      "name": "grantAccess",
      "outputs": [],
      "stateMutability": "nonpayable",
      "type": "function"
    },
    {
      "inputs": [],
      "name": "owner",
      "outputs": [
        {
          "internalType": "address",
          "name": "",
          "type": "address"
        }
      ],
      "stateMutability": "view",
      "type": "function"
    },
    {
      "inputs": [],
      "name": "renounceOwnership",
      "outputs": [],
      "stateMutability": "nonpayable",
      "type": "function"
    },
    {
      "inputs": [
        {
          "internalType": "string",
          "name": "recordId",
          "type": "string"
        },
        {
          "internalType": "address",
          "name": "doctor",
          "type": "address"
        }
      ],
      "name": "revokeAccess",
      "outputs": [],
      "stateMutability": "nonpayable",
      "type": "function"
    },
    {
      "inputs": [
        {
          "internalType": "address",
          "name": "newOwner",
          "type": "address"
        }
      ],
      "name": "transferOwnership",
      "outputs": [],
      "stateMutability": "nonpayable",
      "type": "function"
    },
    {
      "inputs": [
        {
          "internalType": "string",
          "name": "recordId",
          "type": "string"
        },
        {
          "internalType": "string[]",
          "name": "_cids",
          "type": "string[]"
        },
        {
          "internalType": "string",
          "name": "_description",
          "type": "string"
        }
      ],
      "name": "uploadRecord",
      "outputs": [],
      "stateMutability": "nonpayable",
      "type": "function"
    }
  ],
  "bytecode": "0x608060405234801561001057600080fd5b5033600073ffffffffffffffffffffffffffffffffffffffff168173ffffffffffffffffffffffffffffffffffffffff16036100845760006040517f1e4fbdf700000000000000000000000000000000000000000000000000000000815260040161007b919061019e565b60405180910390fd5b6100938161009960201b60201c565b506101b9565b60008060009054906101000a900473ffffffffffffffffffffffffffffffffffffffff169050816000806101000a81548173ffffffffffffffffffffffffffffffffffffffff021916908373ffffffffffffffffffffffffffffffffffffffff1602179055508173ffffffffffffffffffffffffffffffffffffffff168173ffffffffffffffffffffffffffffffffffffffff167f8be0079c531659141344cd1fd0a4f28419497f9722a3daafe3b4186f6b6457e060405160405180910390a35050565b600073ffffffffffffffffffffffffffffffffffffffff82169050919050565b60006101888261015d565b9050919050565b6101988161017d565b82525050565b60006020820190506101b3600083018461018f565b92915050565b611f38806101c86000396000f3fe608060405234801561001057600080fd5b50600436106100885760003560e01c8063aec369041161005b578063aec3690414610103578063dfe0b5fe14610133578063e5492e2b1461014f578063f2fde38b1461016b57610088565b806311dd88451461008d578063546acd4b146100bf578063715018a6146100db5780638da5cb5b146100e5575b600080fd5b6100a760048036038101906100a291906110b8565b610187565b6040516100b6939291906112cd565b60405180910390f35b6100d960048036038101906100d491906113f8565b61042d565b005b6100e361066f565b005b6100ed610683565b6040516100fa919061149f565b60405180910390f35b61011d600480360381019061011891906114e6565b6106ac565b60405161012a919061155b565b60405180910390f35b61014d600480360381019061014891906114e6565b6107c4565b005b610169600480360381019061016491906115a2565b610a95565b005b61018560048036038101906101809190611611565b610d85565b005b606060006060600073ffffffffffffffffffffffffffffffffffffffff166001856040516101b5919061167a565b908152602001604051809103902060010160009054906101000a900473ffffffffffffffffffffffffffffffffffffffff1673ffffffffffffffffffffffffffffffffffffffff160361023d576040517f08c379a0000000000000000000000000000000000000000000000000000000008152600401610234906116dd565b60405180910390fd5b60018460405161024d919061167a565b908152602001604051809103902060000160018560405161026e919061167a565b908152602001604051809103902060010160009054906101000a900473ffffffffffffffffffffffffffffffffffffffff166001866040516102b0919061167a565b908152602001604051809103902060020182805480602002602001604051908101604052809291908181526020016000905b8282101561038e5783829060005260206000200180546103019061172c565b80601f016020809104026020016040519081016040528092919081815260200182805461032d9061172c565b801561037a5780601f1061034f5761010080835404028352916020019161037a565b820191906000526020600020905b81548152906001019060200180831161035d57829003601f168201915b5050505050815260200190600101906102e2565b5050505092508080546103a09061172c565b80601f01602080910402602001604051908101604052809291908181526020018280546103cc9061172c565b80156104195780601f106103ee57610100808354040283529160200191610419565b820191906000526020600020905b8154815290600101906020018083116103fc57829003601f168201915b505050505090509250925092509193909250565b6000835111610471576040517f08c379a0000000000000000000000000000000000000000000000000000000008152600401610468906117a9565b60405180910390fd5b600073ffffffffffffffffffffffffffffffffffffffff16600184604051610499919061167a565b908152602001604051809103902060010160009054906101000a900473ffffffffffffffffffffffffffffffffffffffff1673ffffffffffffffffffffffffffffffffffffffff1614610521576040517f08c379a000000000000000000000000000000000000000000000000000000000815260040161051890611815565b60405180910390fd5b6000600184604051610533919061167a565b90815260200160405180910390209050338160010160006101000a81548173ffffffffffffffffffffffffffffffffffffffff021916908373ffffffffffffffffffffffffffffffffffffffff1602179055508181600201908161059791906119e1565b5060005b835181101561060257816000018482815181106105bb576105ba611ab3565b5b60200260200101519080600181540180825580915050600190039060005260206000200160009091909190915090816105f491906119e1565b50808060010191505061059b565b503373ffffffffffffffffffffffffffffffffffffffff1684604051610628919061167a565b60405180910390207f68a475c7b0ce91ba56e7783e738d353c0a6758579a1c4e2fc6753ffa115489028585604051610661929190611ae2565b60405180910390a350505050565b610677610e0b565b6106816000610e92565b565b60008060009054906101000a900473ffffffffffffffffffffffffffffffffffffffff16905090565b60008073ffffffffffffffffffffffffffffffffffffffff166001846040516106d5919061167a565b908152602001604051809103902060010160009054906101000a900473ffffffffffffffffffffffffffffffffffffffff1673ffffffffffffffffffffffffffffffffffffffff160361075d576040517f08c379a000000000000000000000000000000000000000000000000000000000815260040161075490611b65565b60405180910390fd5b60018360405161076d919061167a565b908152602001604051809103902060030160008373ffffffffffffffffffffffffffffffffffffffff1673ffffffffffffffffffffffffffffffffffffffff16815260200190815260200160002054905092915050565b3373ffffffffffffffffffffffffffffffffffffffff166001836040516107eb919061167a565b908152602001604051809103902060010160009054906101000a900473ffffffffffffffffffffffffffffffffffffffff1673ffffffffffffffffffffffffffffffffffffffff1614610873576040517f08c379a000000000000000000000000000000000000000000000000000000000815260040161086a90611bd1565b60405180910390fd5b600073ffffffffffffffffffffffffffffffffffffffff168173ffffffffffffffffffffffffffffffffffffffff16036108e2576040517f08c379a00000000000000000000000000000000000000000000000000000000081526004016108d990611c3d565b60405180910390fd5b60006001836040516108f4919061167a565b908152602001604051809103902060030160008373ffffffffffffffffffffffffffffffffffffffff1673ffffffffffffffffffffffffffffffffffffffff16815260200190815260200160002054905060008111610988576040517f08c379a000000000000000000000000000000000000000000000000000000000815260040161097f90611ca9565b60405180910390fd5b8042106109ca576040517f08c379a00000000000000000000000000000000000000000000000000000000081526004016109c190611d15565b60405180910390fd5b6001836040516109da919061167a565b908152602001604051809103902060030160008373ffffffffffffffffffffffffffffffffffffffff1673ffffffffffffffffffffffffffffffffffffffff168152602001908152602001600020600090558173ffffffffffffffffffffffffffffffffffffffff1683604051610a51919061167a565b60405180910390207ff7eb47ecbc62e098414c8565b83461841e3ae69f64ad0da8609abefecaec86ad42604051610a88919061155b565b60405180910390a3505050565b3373ffffffffffffffffffffffffffffffffffffffff16600184604051610abc919061167a565b908152602001604051809103902060010160009054906101000a900473ffffffffffffffffffffffffffffffffffffffff1673ffffffffffffffffffffffffffffffffffffffff1614610b44576040517f08c379a0000000000000000000000000000000000000000000000000000000008152600401610b3b90611d81565b60405180910390fd5b600073ffffffffffffffffffffffffffffffffffffffff168273ffffffffffffffffffffffffffffffffffffffff1603610bb3576040517f08c379a0000000000000000000000000000000000000000000000000000000008152600401610baa90611c3d565b60405180910390fd5b60008111610bf6576040517f08c379a0000000000000000000000000000000000000000000000000000000008152600401610bed90611e13565b60405180910390fd5b6000600184604051610c08919061167a565b908152602001604051809103902060030160008473ffffffffffffffffffffffffffffffffffffffff1673ffffffffffffffffffffffffffffffffffffffff1681526020019081526020016000205490506000811480610c685750804210155b610ca7576040517f08c379a0000000000000000000000000000000000000000000000000000000008152600401610c9e90611e7f565b60405180910390fd5b60008242610cb59190611ece565b905080600186604051610cc8919061167a565b908152602001604051809103902060030160008673ffffffffffffffffffffffffffffffffffffffff1673ffffffffffffffffffffffffffffffffffffffff168152602001908152602001600020819055508373ffffffffffffffffffffffffffffffffffffffff1685604051610d3f919061167a565b60405180910390207fcd5010f0cf521705dc993ca35e5b2fd59371fb9516f4c5dab9cd77693bbf92b083604051610d76919061155b565b60405180910390a35050505050565b610d8d610e0b565b600073ffffffffffffffffffffffffffffffffffffffff168173ffffffffffffffffffffffffffffffffffffffff1603610dff5760006040517f1e4fbdf7000000000000000000000000000000000000000000000000000000008152600401610df6919061149f565b60405180910390fd5b610e0881610e92565b50565b610e13610f56565b73ffffffffffffffffffffffffffffffffffffffff16610e31610683565b73ffffffffffffffffffffffffffffffffffffffff1614610e9057610e54610f56565b6040517f118cdaa7000000000000000000000000000000000000000000000000000000008152600401610e87919061149f565b60405180910390fd5b565b60008060009054906101000a900473ffffffffffffffffffffffffffffffffffffffff169050816000806101000a81548173ffffffffffffffffffffffffffffffffffffffff021916908373ffffffffffffffffffffffffffffffffffffffff1602179055508173ffffffffffffffffffffffffffffffffffffffff168173ffffffffffffffffffffffffffffffffffffffff167f8be0079c531659141344cd1fd0a4f28419497f9722a3daafe3b4186f6b6457e060405160405180910390a35050565b600033905090565b6000604051905090565b600080fd5b600080fd5b600080fd5b600080fd5b6000601f19601f8301169050919050565b7f4e487b7100000000000000000000000000000000000000000000000000000000600052604160045260246000fd5b610fc582610f7c565b810181811067ffffffffffffffff82111715610fe457610fe3610f8d565b5b80604052505050565b6000610ff7610f5e565b90506110038282610fbc565b919050565b600067ffffffffffffffff82111561102357611022610f8d565b5b61102c82610f7c565b9050602081019050919050565b82818337600083830152505050565b600061105b61105684611008565b610fed565b90508281526020810184848401111561107757611076610f77565b5b611082848285611039565b509392505050565b600082601f83011261109f5761109e610f72565b5b81356110af848260208601611048565b91505092915050565b6000602082840312156110ce576110cd610f68565b5b600082013567ffffffffffffffff8111156110ec576110eb610f6d565b5b6110f88482850161108a565b91505092915050565b600081519050919050565b600082825260208201905092915050565b6000819050602082019050919050565b600081519050919050565b600082825260208201905092915050565b60005b8381101561116757808201518184015260208101905061114c565b60008484015250505050565b600061117e8261112d565b6111888185611138565b9350611198818560208601611149565b6111a181610f7c565b840191505092915050565b60006111b88383611173565b905092915050565b6000602082019050919050565b60006111d882611101565b6111e2818561110c565b9350836020820285016111f48561111d565b8060005b85811015611230578484038952815161121185826111ac565b945061121c836111c0565b925060208a019950506001810190506111f8565b50829750879550505050505092915050565b600073ffffffffffffffffffffffffffffffffffffffff82169050919050565b600061126d82611242565b9050919050565b61127d81611262565b82525050565b600082825260208201905092915050565b600061129f8261112d565b6112a98185611283565b93506112b9818560208601611149565b6112c281610f7c565b840191505092915050565b600060608201905081810360008301526112e781866111cd565b90506112f66020830185611274565b81810360408301526113088184611294565b9050949350505050565b600067ffffffffffffffff82111561132d5761132c610f8d565b5b602082029050602081019050919050565b600080fd5b600061135661135184611312565b610fed565b905080838252602082019050602084028301858111156113795761137861133e565b5b835b818110156113c057803567ffffffffffffffff81111561139e5761139d610f72565b5b8086016113ab898261108a565b8552602085019450505060208101905061137b565b5050509392505050565b600082601f8301126113df576113de610f72565b5b81356113ef848260208601611343565b91505092915050565b60008060006060848603121561141157611410610f68565b5b600084013567ffffffffffffffff81111561142f5761142e610f6d565b5b61143b8682870161108a565b935050602084013567ffffffffffffffff81111561145c5761145b610f6d565b5b611468868287016113ca565b925050604084013567ffffffffffffffff81111561148957611488610f6d565b5b6114958682870161108a565b9150509250925092565b60006020820190506114b46000830184611274565b92915050565b6114c381611262565b81146114ce57600080fd5b50565b6000813590506114e0816114ba565b92915050565b600080604083850312156114fd576114fc610f68565b5b600083013567ffffffffffffffff81111561151b5761151a610f6d565b5b6115278582860161108a565b9250506020611538858286016114d1565b9150509250929050565b6000819050919050565b61155581611542565b82525050565b6000602082019050611570600083018461154c565b92915050565b61157f81611542565b811461158a57600080fd5b50565b60008135905061159c81611576565b92915050565b6000806000606084860312156115bb576115ba610f68565b5b600084013567ffffffffffffffff8111156115d9576115d8610f6d565b5b6115e58682870161108a565b93505060206115f6868287016114d1565b92505060406116078682870161158d565b9150509250925092565b60006020828403121561162757611626610f68565b5b6000611635848285016114d1565b91505092915050565b600081905092915050565b60006116548261112d565b61165e818561163e565b935061166e818560208601611149565b80840191505092915050565b60006116868284611649565b915081905092915050565b7f5265636f7264206e6f7420666f756e6400000000000000000000000000000000600082015250565b60006116c7601083611283565b91506116d282611691565b602082019050919050565b600060208201905081810360008301526116f6816116ba565b9050919050565b7f4e487b7100000000000000000000000000000000000000000000000000000000600052602260045260246000fd5b6000600282049050600182168061174457607f821691505b602082108103611757576117566116fd565b5b50919050565b7f5265636f72642049442063616e6e6f7420626520656d70747900000000000000600082015250565b6000611793601983611283565b915061179e8261175d565b602082019050919050565b600060208201905081810360008301526117c281611786565b9050919050565b7f5265636f726420616c7265616479206578697374730000000000000000000000600082015250565b60006117ff601583611283565b915061180a826117c9565b602082019050919050565b6000602082019050818103600083015261182e816117f2565b9050919050565b60008190508160005260206000209050919050565b60006020601f8301049050919050565b600082821b905092915050565b6000600883026118977fffffffffffffffffffffffffffffffffffffffffffffffffffffffffffffffff8261185a565b6118a1868361185a565b95508019841693508086168417925050509392505050565b6000819050919050565b60006118de6118d96118d484611542565b6118b9565b611542565b9050919050565b6000819050919050565b6118f8836118c3565b61190c611904826118e5565b848454611867565b825550505050565b600090565b611921611914565b61192c8184846118ef565b505050565b5b8181101561195057611945600082611919565b600181019050611932565b5050565b601f8211156119955761196681611835565b61196f8461184a565b8101602085101561197e578190505b61199261198a8561184a565b830182611931565b50505b505050565b600082821c905092915050565b60006119b86000198460080261199a565b1980831691505092915050565b60006119d183836119a7565b9150826002028217905092915050565b6119ea8261112d565b67ffffffffffffffff811115611a0357611a02610f8d565b5b611a0d825461172c565b611a18828285611954565b600060209050601f831160018114611a4b5760008415611a39578287015190505b611a4385826119c5565b865550611aab565b601f198416611a5986611835565b60005b82811015611a8157848901518255600182019150602085019450602081019050611a5c565b86831015611a9e5784890151611a9a601f8916826119a7565b8355505b6001600288020188555050505b505050505050565b7f4e487b7100000000000000000000000000000000000000000000000000000000600052603260045260246000fd5b60006040820190508181036000830152611afc81856111cd565b90508181036020830152611b108184611294565b90509392505050565b7f5265636f726420646f6573206e6f742065786973740000000000000000000000600082015250565b6000611b4f601583611283565b9150611b5a82611b19565b602082019050919050565b60006020820190508181036000830152611b7e81611b42565b9050919050565b7f4f6e6c79206f776e65722063616e207265766f6b652061636365737300000000600082015250565b6000611bbb601c83611283565b9150611bc682611b85565b602082019050919050565b60006020820190508181036000830152611bea81611bae565b9050919050565b7f496e76616c696420646f63746f72206164647265737300000000000000000000600082015250565b6000611c27601683611283565b9150611c3282611bf1565b602082019050919050565b60006020820190508181036000830152611c5681611c1a565b9050919050565b7f4e6f20616363657373206772616e74656420746f207468697320646f63746f72600082015250565b6000611c93602083611283565b9150611c9e82611c5d565b602082019050919050565b60006020820190508181036000830152611cc281611c86565b9050919050565b7f41636365737320616c7265616479206578706972656400000000000000000000600082015250565b6000611cff601683611283565b9150611d0a82611cc9565b602082019050919050565b60006020820190508181036000830152611d2e81611cf2565b9050919050565b7f4f6e6c79206f776e65722063616e206772616e74206163636573730000000000600082015250565b6000611d6b601b83611283565b9150611d7682611d35565b602082019050919050565b60006020820190508181036000830152611d9a81611d5e565b9050919050565b7f4475726174696f6e206d7573742062652067726561746572207468616e207a6560008201527f726f000000000000000000000000000000000000000000000000000000000000602082015250565b6000611dfd602283611283565b9150611e0882611da1565b604082019050919050565b60006020820190508181036000830152611e2c81611df0565b9050919050565b7f446f63746f7220616c7265616479206861732061637469766520616363657373600082015250565b6000611e69602083611283565b9150611e7482611e33565b602082019050919050565b60006020820190508181036000830152611e9881611e5c565b9050919050565b7f4e487b7100000000000000000000000000000000000000000000000000000000600052601160045260246000fd5b6000611ed982611542565b9150611ee483611542565b9250828201905080821115611efc57611efb611e9f565b5b9291505056fea26469706673582212209213bd54b3704056ff53f2d93e607cbe00db4630158a199956c5e28ac37396cf64736f6c634300081c0033",
  "linkReferences": {},
  "deployedLinkReferences": {}
}