{
  "_format": "hh-sol-artifact-1",
  "contractName": "MedicalRecords",
  "sourceName": "contracts/MedicalRecords.sol",
  "abi": [
    {
      "inputs": [],
      "stateMutability": "nonpayable",
      "type": "constructor"
    },
    {
      "inputs": [
        {
          "internalType": "address",
          "name": "owner",
          "type": "address"
        }
      ],
      "name": "OwnableInvalidOwner",
      "type": "error"
    },
    {
      "inputs": [
        {
          "internalType": "address",
          "name": "account",
          "type": "address"
        }
      ],
      "name": "OwnableUnauthorizedAccount",
      "type": "error"
    },
    {
      "anonymous": false,
      "inputs": [
        {
          "indexed": true,
          "internalType": "string",
          "name": "recordId",
          "type": "string"
        },
        {
          "indexed": true,
          "internalType": "address",
          "name": "doctor",
          "type": "address"
        },
        {
          "indexed": false,
          "internalType": "uint256",
          "name": "expiry",
          "type": "uint256"
        }
      ],
      "name": "AccessGranted",
      "type": "event"
    },
    {
      "anonymous": false,
      "inputs": [
        {
          "indexed": true,
          "internalType": "string",
          "name": "recordId",
          "type": "string"
        },
        {
          "indexed": true,
          "internalType": "address",
          "name": "doctor",
          "type": "address"
        },
        {
          "indexed": false,
          "internalType": "uint256",
          "name": "revokedAt",
          "type": "uint256"
        }
      ],
      "name": "AccessRevoked",
      "type": "event"
    },
    {
      "anonymous": false,
      "inputs": [
        {
          "indexed": true,
          "internalType": "address",
          "name": "previousOwner",
          "type": "address"
        },
        {
          "indexed": true,
          "internalType": "address",
          "name": "newOwner",
          "type": "address"
        }
      ],
      "name": "OwnershipTransferred",
      "type": "event"
    },
    {
      "anonymous": false,
      "inputs": [
        {
          "indexed": true,
          "internalType": "string",
          "name": "recordId",
          "type": "string"
        },
        {
          "indexed": false,
          "internalType": "string[]",
          "name": "cids",
          "type": "string[]"
        },
        {
          "indexed": true,
          "internalType": "address",
          "name": "owner",
          "type": "address"
        },
        {
          "indexed": false,
          "internalType": "string",
          "name": "description",
          "type": "string"
        }
      ],
      "name": "RecordUploaded",
      "type": "event"
    },
    {
      "inputs": [
        {
          "internalType": "string",
          "name": "recordId",
          "type": "string"
        },
        {
          "internalType": "address",
          "name": "doctor",
          "type": "address"
        }
      ],
      "name": "checkAccessExpiry",
      "outputs": [
        {
          "internalType": "uint256",
          "name": "",
          "type": "uint256"
        }
      ],
      "stateMutability": "view",
      "type": "function"
    },
    {
      "inputs": [
        {
          "internalType": "string",
          "name": "recordId",
          "type": "string"
        }
      ],
      "name": "getRecord",
      "outputs": [
        {
          "internalType": "string[]",
          "name": "",
          "type": "string[]"
        },
        {
          "internalType": "address",
          "name": "",
          "type": "address"
        },
        {
          "internalType": "string",
          "name": "",
          "type": "string"
        }
      ],
      "stateMutability": "view",
      "type": "function"
    },
    {
      "inputs": [
        {
          "internalType": "address",
          "name": "_owner",
          "type": "address"
        }
      ],
      "name": "getRecordsByOwner",
      "outputs": [
        {
          "internalType": "string[]",
          "name": "recordIds",
          "type": "string[]"
        },
        {
          "internalType": "string[][]",
          "name": "allCids",
          "type": "string[][]"
        },
        {
          "internalType": "string[]",
          "name": "descriptions",
          "type": "string[]"
        }
      ],
      "stateMutability": "view",
      "type": "function"
    },
    {
      "inputs": [
        {
          "internalType": "string",
          "name": "recordId",
          "type": "string"
        },
        {
          "internalType": "address",
          "name": "doctor",
          "type": "address"
        },
        {
          "internalType": "uint256",
          "name": "duration",
          "type": "uint256"
        }
      ],
      "name": "grantAccess",
      "outputs": [],
      "stateMutability": "nonpayable",
      "type": "function"
    },
    {
      "inputs": [],
      "name": "owner",
      "outputs": [
        {
          "internalType": "address",
          "name": "",
          "type": "address"
        }
      ],
      "stateMutability": "view",
      "type": "function"
    },
    {
      "inputs": [],
      "name": "renounceOwnership",
      "outputs": [],
      "stateMutability": "nonpayable",
      "type": "function"
    },
    {
      "inputs": [
        {
          "internalType": "string",
          "name": "recordId",
          "type": "string"
        },
        {
          "internalType": "address",
          "name": "doctor",
          "type": "address"
        }
      ],
      "name": "revokeAccess",
      "outputs": [],
      "stateMutability": "nonpayable",
      "type": "function"
    },
    {
      "inputs": [
        {
          "internalType": "address",
          "name": "newOwner",
          "type": "address"
        }
      ],
      "name": "transferOwnership",
      "outputs": [],
      "stateMutability": "nonpayable",
      "type": "function"
    },
    {
      "inputs": [
        {
          "internalType": "string",
          "name": "recordId",
          "type": "string"
        },
        {
          "internalType": "string[]",
          "name": "_cids",
          "type": "string[]"
        },
        {
          "internalType": "string",
          "name": "_description",
          "type": "string"
        }
      ],
      "name": "uploadRecord",
      "outputs": [],
      "stateMutability": "nonpayable",
      "type": "function"
    }
  ],
  "bytecode": "0x608060405234801561001057600080fd5b5033600073ffffffffffffffffffffffffffffffffffffffff168173ffffffffffffffffffffffffffffffffffffffff16036100845760006040517f1e4fbdf700000000000000000000000000000000000000000000000000000000815260040161007b919061019e565b60405180910390fd5b6100938161009960201b60201c565b506101b9565b60008060009054906101000a900473ffffffffffffffffffffffffffffffffffffffff169050816000806101000a81548173ffffffffffffffffffffffffffffffffffffffff021916908373ffffffffffffffffffffffffffffffffffffffff1602179055508173ffffffffffffffffffffffffffffffffffffffff168173ffffffffffffffffffffffffffffffffffffffff167f8be0079c531659141344cd1fd0a4f28419497f9722a3daafe3b4186f6b6457e060405160405180910390a35050565b600073ffffffffffffffffffffffffffffffffffffffff82169050919050565b60006101888261015d565b9050919050565b6101988161017d565b82525050565b60006020820190506101b3600083018461018f565b92915050565b61270a806101c86000396000f3fe608060405234801561001057600080fd5b50600436106100935760003560e01c80638da5cb5b116100665780638da5cb5b14610122578063aec3690414610140578063dfe0b5fe14610170578063e5492e2b1461018c578063f2fde38b146101a857610093565b806311dd884514610098578063546acd4b146100ca578063552d7105146100e6578063715018a614610118575b600080fd5b6100b260048036038101906100ad9190611614565b6101c4565b6040516100c193929190611829565b60405180910390f35b6100e460048036038101906100df9190611954565b610436565b005b61010060048036038101906100fb9190611a27565b6106ad565b60405161010f93929190611b9c565b60405180910390f35b610120610bcb565b005b61012a610bdf565b6040516101379190611be8565b60405180910390f35b61015a60048036038101906101559190611c03565b610c08565b6040516101679190611c78565b60405180910390f35b61018a60048036038101906101859190611c03565b610d20565b005b6101a660048036038101906101a19190611cbf565b610ff1565b005b6101c260048036038101906101bd9190611a27565b6112e1565b005b606060006060600073ffffffffffffffffffffffffffffffffffffffff166001856040516101f29190611d6a565b908152602001604051809103902060010160009054906101000a900473ffffffffffffffffffffffffffffffffffffffff1673ffffffffffffffffffffffffffffffffffffffff160361027a576040517f08c379a000000000000000000000000000000000000000000000000000000000815260040161027190611dcd565b60405180910390fd5b600060018560405161028c9190611d6a565b90815260200160405180910390209050806000018160010160009054906101000a900473ffffffffffffffffffffffffffffffffffffffff168260020182805480602002602001604051908101604052809291908181526020016000905b8282101561039657838290600052602060002001805461030990611e1c565b80601f016020809104026020016040519081016040528092919081815260200182805461033590611e1c565b80156103825780601f1061035757610100808354040283529160200191610382565b820191906000526020600020905b81548152906001019060200180831161036557829003601f168201915b5050505050815260200190600101906102ea565b5050505092508080546103a890611e1c565b80601f01602080910402602001604051908101604052809291908181526020018280546103d490611e1c565b80156104215780601f106103f657610100808354040283529160200191610421565b820191906000526020600020905b81548152906001019060200180831161040457829003601f168201915b50505050509050935093509350509193909250565b600083511161047a576040517f08c379a000000000000000000000000000000000000000000000000000000000815260040161047190611e99565b60405180910390fd5b600073ffffffffffffffffffffffffffffffffffffffff166001846040516104a29190611d6a565b908152602001604051809103902060010160009054906101000a900473ffffffffffffffffffffffffffffffffffffffff1673ffffffffffffffffffffffffffffffffffffffff161461052a576040517f08c379a000000000000000000000000000000000000000000000000000000000815260040161052190611f05565b60405180910390fd5b600060018460405161053c9190611d6a565b90815260200160405180910390209050338160010160006101000a81548173ffffffffffffffffffffffffffffffffffffffff021916908373ffffffffffffffffffffffffffffffffffffffff160217905550818160020190816105a091906120d1565b5060005b835181101561060b57816000018482815181106105c4576105c36121a3565b5b60200260200101519080600181540180825580915050600190039060005260206000200160009091909190915090816105fd91906120d1565b5080806001019150506105a4565b5060028490806001815401808255809150506001900390600052602060002001600090919091909150908161064091906120d1565b503373ffffffffffffffffffffffffffffffffffffffff16846040516106669190611d6a565b60405180910390207f68a475c7b0ce91ba56e7783e738d353c0a6758579a1c4e2fc6753ffa11548902858560405161069f9291906121d2565b60405180910390a350505050565b60608060606000805b600280549050811015610770578573ffffffffffffffffffffffffffffffffffffffff166001600283815481106106f0576106ef6121a3565b5b90600052602060002001604051610707919061228c565b908152602001604051809103902060010160009054906101000a900473ffffffffffffffffffffffffffffffffffffffff1673ffffffffffffffffffffffffffffffffffffffff160361076357818061075f906122d2565b9250505b80806001019150506106b6565b508067ffffffffffffffff81111561078b5761078a6114e9565b5b6040519080825280602002602001820160405280156107be57816020015b60608152602001906001900390816107a95790505b5093508067ffffffffffffffff8111156107db576107da6114e9565b5b60405190808252806020026020018201604052801561080e57816020015b60608152602001906001900390816107f95790505b5092508067ffffffffffffffff81111561082b5761082a6114e9565b5b60405190808252806020026020018201604052801561085e57816020015b60608152602001906001900390816108495790505b5091506000805b600280549050811015610bc1578673ffffffffffffffffffffffffffffffffffffffff1660016002838154811061089f5761089e6121a3565b5b906000526020600020016040516108b6919061228c565b908152602001604051809103902060010160009054906101000a900473ffffffffffffffffffffffffffffffffffffffff1673ffffffffffffffffffffffffffffffffffffffff1603610bb45760028181548110610917576109166121a3565b5b90600052602060002001805461092c90611e1c565b80601f016020809104026020016040519081016040528092919081815260200182805461095890611e1c565b80156109a55780601f1061097a576101008083540402835291602001916109a5565b820191906000526020600020905b81548152906001019060200180831161098857829003601f168201915b50505050508683815181106109bd576109bc6121a3565b5b602002602001018190525060006001600283815481106109e0576109df6121a3565b5b906000526020600020016040516109f7919061228c565b9081526020016040518091039020905080600001805480602002602001604051908101604052809291908181526020016000905b82821015610ad7578382906000526020600020018054610a4a90611e1c565b80601f0160208091040260200160405190810160405280929190818152602001828054610a7690611e1c565b8015610ac35780601f10610a9857610100808354040283529160200191610ac3565b820191906000526020600020905b815481529060010190602001808311610aa657829003601f168201915b505050505081526020019060010190610a2b565b50505050868481518110610aee57610aed6121a3565b5b6020026020010181905250806002018054610b0890611e1c565b80601f0160208091040260200160405190810160405280929190818152602001828054610b3490611e1c565b8015610b815780601f10610b5657610100808354040283529160200191610b81565b820191906000526020600020905b815481529060010190602001808311610b6457829003601f168201915b5050505050858481518110610b9957610b986121a3565b5b60200260200101819052508280610baf906122d2565b935050505b8080600101915050610865565b5050509193909250565b610bd3611367565b610bdd60006113ee565b565b60008060009054906101000a900473ffffffffffffffffffffffffffffffffffffffff16905090565b60008073ffffffffffffffffffffffffffffffffffffffff16600184604051610c319190611d6a565b908152602001604051809103902060010160009054906101000a900473ffffffffffffffffffffffffffffffffffffffff1673ffffffffffffffffffffffffffffffffffffffff1603610cb9576040517f08c379a0000000000000000000000000000000000000000000000000000000008152600401610cb090612366565b60405180910390fd5b600183604051610cc99190611d6a565b908152602001604051809103902060030160008373ffffffffffffffffffffffffffffffffffffffff1673ffffffffffffffffffffffffffffffffffffffff16815260200190815260200160002054905092915050565b3373ffffffffffffffffffffffffffffffffffffffff16600183604051610d479190611d6a565b908152602001604051809103902060010160009054906101000a900473ffffffffffffffffffffffffffffffffffffffff1673ffffffffffffffffffffffffffffffffffffffff1614610dcf576040517f08c379a0000000000000000000000000000000000000000000000000000000008152600401610dc6906123d2565b60405180910390fd5b600073ffffffffffffffffffffffffffffffffffffffff168173ffffffffffffffffffffffffffffffffffffffff1603610e3e576040517f08c379a0000000000000000000000000000000000000000000000000000000008152600401610e359061243e565b60405180910390fd5b6000600183604051610e509190611d6a565b908152602001604051809103902060030160008373ffffffffffffffffffffffffffffffffffffffff1673ffffffffffffffffffffffffffffffffffffffff16815260200190815260200160002054905060008111610ee4576040517f08c379a0000000000000000000000000000000000000000000000000000000008152600401610edb906124aa565b60405180910390fd5b804210610f26576040517f08c379a0000000000000000000000000000000000000000000000000000000008152600401610f1d90612516565b60405180910390fd5b600183604051610f369190611d6a565b908152602001604051809103902060030160008373ffffffffffffffffffffffffffffffffffffffff1673ffffffffffffffffffffffffffffffffffffffff168152602001908152602001600020600090558173ffffffffffffffffffffffffffffffffffffffff1683604051610fad9190611d6a565b60405180910390207ff7eb47ecbc62e098414c8565b83461841e3ae69f64ad0da8609abefecaec86ad42604051610fe49190611c78565b60405180910390a3505050565b3373ffffffffffffffffffffffffffffffffffffffff166001846040516110189190611d6a565b908152602001604051809103902060010160009054906101000a900473ffffffffffffffffffffffffffffffffffffffff1673ffffffffffffffffffffffffffffffffffffffff16146110a0576040517f08c379a000000000000000000000000000000000000000000000000000000000815260040161109790612582565b60405180910390fd5b600073ffffffffffffffffffffffffffffffffffffffff168273ffffffffffffffffffffffffffffffffffffffff160361110f576040517f08c379a00000000000000000000000000000000000000000000000000000000081526004016111069061243e565b60405180910390fd5b60008111611152576040517f08c379a000000000000000000000000000000000000000000000000000000000815260040161114990612614565b60405180910390fd5b60006001846040516111649190611d6a565b908152602001604051809103902060030160008473ffffffffffffffffffffffffffffffffffffffff1673ffffffffffffffffffffffffffffffffffffffff16815260200190815260200160002054905060008114806111c45750804210155b611203576040517f08c379a00000000000000000000000000000000000000000000000000000000081526004016111fa90612680565b60405180910390fd5b6000824261121191906126a0565b9050806001866040516112249190611d6a565b908152602001604051809103902060030160008673ffffffffffffffffffffffffffffffffffffffff1673ffffffffffffffffffffffffffffffffffffffff168152602001908152602001600020819055508373ffffffffffffffffffffffffffffffffffffffff168560405161129b9190611d6a565b60405180910390207fcd5010f0cf521705dc993ca35e5b2fd59371fb9516f4c5dab9cd77693bbf92b0836040516112d29190611c78565b60405180910390a35050505050565b6112e9611367565b600073ffffffffffffffffffffffffffffffffffffffff168173ffffffffffffffffffffffffffffffffffffffff160361135b5760006040517f1e4fbdf70000000000000000000000000000000000000000000000000000000081526004016113529190611be8565b60405180910390fd5b611364816113ee565b50565b61136f6114b2565b73ffffffffffffffffffffffffffffffffffffffff1661138d610bdf565b73ffffffffffffffffffffffffffffffffffffffff16146113ec576113b06114b2565b6040517f118cdaa70000000000000000000000000000000000000000000000000000000081526004016113e39190611be8565b60405180910390fd5b565b60008060009054906101000a900473ffffffffffffffffffffffffffffffffffffffff169050816000806101000a81548173ffffffffffffffffffffffffffffffffffffffff021916908373ffffffffffffffffffffffffffffffffffffffff1602179055508173ffffffffffffffffffffffffffffffffffffffff168173ffffffffffffffffffffffffffffffffffffffff167f8be0079c531659141344cd1fd0a4f28419497f9722a3daafe3b4186f6b6457e060405160405180910390a35050565b600033905090565b6000604051905090565b600080fd5b600080fd5b600080fd5b600080fd5b6000601f19601f8301169050919050565b7f4e487b7100000000000000000000000000000000000000000000000000000000600052604160045260246000fd5b611521826114d8565b810181811067ffffffffffffffff821117156115405761153f6114e9565b5b80604052505050565b60006115536114ba565b905061155f8282611518565b919050565b600067ffffffffffffffff82111561157f5761157e6114e9565b5b611588826114d8565b9050602081019050919050565b82818337600083830152505050565b60006115b76115b284611564565b611549565b9050828152602081018484840111156115d3576115d26114d3565b5b6115de848285611595565b509392505050565b600082601f8301126115fb576115fa6114ce565b5b813561160b8482602086016115a4565b91505092915050565b60006020828403121561162a576116296114c4565b5b600082013567ffffffffffffffff811115611648576116476114c9565b5b611654848285016115e6565b91505092915050565b600081519050919050565b600082825260208201905092915050565b6000819050602082019050919050565b600081519050919050565b600082825260208201905092915050565b60005b838110156116c35780820151818401526020810190506116a8565b60008484015250505050565b60006116da82611689565b6116e48185611694565b93506116f48185602086016116a5565b6116fd816114d8565b840191505092915050565b600061171483836116cf565b905092915050565b6000602082019050919050565b60006117348261165d565b61173e8185611668565b93508360208202850161175085611679565b8060005b8581101561178c578484038952815161176d8582611708565b94506117788361171c565b925060208a01995050600181019050611754565b50829750879550505050505092915050565b600073ffffffffffffffffffffffffffffffffffffffff82169050919050565b60006117c98261179e565b9050919050565b6117d9816117be565b82525050565b600082825260208201905092915050565b60006117fb82611689565b61180581856117df565b93506118158185602086016116a5565b61181e816114d8565b840191505092915050565b600060608201905081810360008301526118438186611729565b905061185260208301856117d0565b818103604083015261186481846117f0565b9050949350505050565b600067ffffffffffffffff821115611889576118886114e9565b5b602082029050602081019050919050565b600080fd5b60006118b26118ad8461186e565b611549565b905080838252602082019050602084028301858111156118d5576118d461189a565b5b835b8181101561191c57803567ffffffffffffffff8111156118fa576118f96114ce565b5b80860161190789826115e6565b855260208501945050506020810190506118d7565b5050509392505050565b600082601f83011261193b5761193a6114ce565b5b813561194b84826020860161189f565b91505092915050565b60008060006060848603121561196d5761196c6114c4565b5b600084013567ffffffffffffffff81111561198b5761198a6114c9565b5b611997868287016115e6565b935050602084013567ffffffffffffffff8111156119b8576119b76114c9565b5b6119c486828701611926565b925050604084013567ffffffffffffffff8111156119e5576119e46114c9565b5b6119f1868287016115e6565b9150509250925092565b611a04816117be565b8114611a0f57600080fd5b50565b600081359050611a21816119fb565b92915050565b600060208284031215611a3d57611a3c6114c4565b5b6000611a4b84828501611a12565b91505092915050565b600081519050919050565b600082825260208201905092915050565b6000819050602082019050919050565b600082825260208201905092915050565b6000611a9c8261165d565b611aa68185611a80565b935083602082028501611ab885611679565b8060005b85811015611af45784840389528151611ad58582611708565b9450611ae08361171c565b925060208a01995050600181019050611abc565b50829750879550505050505092915050565b6000611b128383611a91565b905092915050565b6000602082019050919050565b6000611b3282611a54565b611b3c8185611a5f565b935083602082028501611b4e85611a70565b8060005b85811015611b8a5784840389528151611b6b8582611b06565b9450611b7683611b1a565b925060208a01995050600181019050611b52565b50829750879550505050505092915050565b60006060820190508181036000830152611bb68186611729565b90508181036020830152611bca8185611b27565b90508181036040830152611bde8184611729565b9050949350505050565b6000602082019050611bfd60008301846117d0565b92915050565b60008060408385031215611c1a57611c196114c4565b5b600083013567ffffffffffffffff811115611c3857611c376114c9565b5b611c44858286016115e6565b9250506020611c5585828601611a12565b9150509250929050565b6000819050919050565b611c7281611c5f565b82525050565b6000602082019050611c8d6000830184611c69565b92915050565b611c9c81611c5f565b8114611ca757600080fd5b50565b600081359050611cb981611c93565b92915050565b600080600060608486031215611cd857611cd76114c4565b5b600084013567ffffffffffffffff811115611cf657611cf56114c9565b5b611d02868287016115e6565b9350506020611d1386828701611a12565b9250506040611d2486828701611caa565b9150509250925092565b600081905092915050565b6000611d4482611689565b611d4e8185611d2e565b9350611d5e8185602086016116a5565b80840191505092915050565b6000611d768284611d39565b915081905092915050565b7f5265636f7264206e6f7420666f756e6400000000000000000000000000000000600082015250565b6000611db76010836117df565b9150611dc282611d81565b602082019050919050565b60006020820190508181036000830152611de681611daa565b9050919050565b7f4e487b7100000000000000000000000000000000000000000000000000000000600052602260045260246000fd5b60006002820490506001821680611e3457607f821691505b602082108103611e4757611e46611ded565b5b50919050565b7f5265636f72642049442063616e6e6f7420626520656d70747900000000000000600082015250565b6000611e836019836117df565b9150611e8e82611e4d565b602082019050919050565b60006020820190508181036000830152611eb281611e76565b9050919050565b7f5265636f726420616c7265616479206578697374730000000000000000000000600082015250565b6000611eef6015836117df565b9150611efa82611eb9565b602082019050919050565b60006020820190508181036000830152611f1e81611ee2565b9050919050565b60008190508160005260206000209050919050565b60006020601f8301049050919050565b600082821b905092915050565b600060088302611f877fffffffffffffffffffffffffffffffffffffffffffffffffffffffffffffffff82611f4a565b611f918683611f4a565b95508019841693508086168417925050509392505050565b6000819050919050565b6000611fce611fc9611fc484611c5f565b611fa9565b611c5f565b9050919050565b6000819050919050565b611fe883611fb3565b611ffc611ff482611fd5565b848454611f57565b825550505050565b600090565b612011612004565b61201c818484611fdf565b505050565b5b8181101561204057612035600082612009565b600181019050612022565b5050565b601f8211156120855761205681611f25565b61205f84611f3a565b8101602085101561206e578190505b61208261207a85611f3a565b830182612021565b50505b505050565b600082821c905092915050565b60006120a86000198460080261208a565b1980831691505092915050565b60006120c18383612097565b9150826002028217905092915050565b6120da82611689565b67ffffffffffffffff8111156120f3576120f26114e9565b5b6120fd8254611e1c565b612108828285612044565b600060209050601f83116001811461213b5760008415612129578287015190505b61213385826120b5565b86555061219b565b601f19841661214986611f25565b60005b828110156121715784890151825560018201915060208501945060208101905061214c565b8683101561218e578489015161218a601f891682612097565b8355505b6001600288020188555050505b505050505050565b7f4e487b7100000000000000000000000000000000000000000000000000000000600052603260045260246000fd5b600060408201905081810360008301526121ec8185611729565b9050818103602083015261220081846117f0565b90509392505050565b6000815461221681611e1c565b6122208186611d2e565b9450600182166000811461223b576001811461225057612283565b60ff1983168652811515820286019350612283565b61225985611f25565b60005b8381101561227b5781548189015260018201915060208101905061225c565b838801955050505b50505092915050565b60006122988284612209565b915081905092915050565b7f4e487b7100000000000000000000000000000000000000000000000000000000600052601160045260246000fd5b60006122dd82611c5f565b91507fffffffffffffffffffffffffffffffffffffffffffffffffffffffffffffffff820361230f5761230e6122a3565b5b600182019050919050565b7f5265636f726420646f6573206e6f742065786973740000000000000000000000600082015250565b60006123506015836117df565b915061235b8261231a565b602082019050919050565b6000602082019050818103600083015261237f81612343565b9050919050565b7f4f6e6c79206f776e65722063616e207265766f6b652061636365737300000000600082015250565b60006123bc601c836117df565b91506123c782612386565b602082019050919050565b600060208201905081810360008301526123eb816123af565b9050919050565b7f496e76616c696420646f63746f72206164647265737300000000000000000000600082015250565b60006124286016836117df565b9150612433826123f2565b602082019050919050565b600060208201905081810360008301526124578161241b565b9050919050565b7f4e6f20616363657373206772616e74656420746f207468697320646f63746f72600082015250565b60006124946020836117df565b915061249f8261245e565b602082019050919050565b600060208201905081810360008301526124c381612487565b9050919050565b7f41636365737320616c7265616479206578706972656400000000000000000000600082015250565b60006125006016836117df565b915061250b826124ca565b602082019050919050565b6000602082019050818103600083015261252f816124f3565b9050919050565b7f4f6e6c79206f776e65722063616e206772616e74206163636573730000000000600082015250565b600061256c601b836117df565b915061257782612536565b602082019050919050565b6000602082019050818103600083015261259b8161255f565b9050919050565b7f4475726174696f6e206d7573742062652067726561746572207468616e207a6560008201527f726f000000000000000000000000000000000000000000000000000000000000602082015250565b60006125fe6022836117df565b9150612609826125a2565b604082019050919050565b6000602082019050818103600083015261262d816125f1565b9050919050565b7f446f63746f7220616c7265616479206861732061637469766520616363657373600082015250565b600061266a6020836117df565b915061267582612634565b602082019050919050565b600060208201905081810360008301526126998161265d565b9050919050565b60006126ab82611c5f565b91506126b683611c5f565b92508282019050808211156126ce576126cd6122a3565b5b9291505056fea2646970667358221220af305550a59a7dab838f7aa98cb3b7f6d215f525da69d28009134caee059075164736f6c634300081c0033",
  "linkReferences": {},
  "deployedLinkReferences": {}
}