{
  "_format": "hh-sol-artifact-1",
  "contractName": "MedicalRecords",
  "sourceName": "contracts/MedicalRecords.sol",
  "abi": [
    {
      "inputs": [],
      "stateMutability": "nonpayable",
      "type": "constructor"
    },
    {
      "inputs": [
        {
          "internalType": "address",
          "name": "owner",
          "type": "address"
        }
      ],
      "name": "OwnableInvalidOwner",
      "type": "error"
    },
    {
      "inputs": [
        {
          "internalType": "address",
          "name": "account",
          "type": "address"
        }
      ],
      "name": "OwnableUnauthorizedAccount",
      "type": "error"
    },
    {
      "anonymous": false,
      "inputs": [
        {
          "indexed": true,
          "internalType": "string",
          "name": "recordId",
          "type": "string"
        },
        {
          "indexed": true,
          "internalType": "address",
          "name": "doctor",
          "type": "address"
        },
        {
          "indexed": false,
          "internalType": "uint256",
          "name": "expiry",
          "type": "uint256"
        }
      ],
      "name": "AccessGranted",
      "type": "event"
    },
    {
      "anonymous": false,
      "inputs": [
        {
          "indexed": true,
          "internalType": "string",
          "name": "recordId",
          "type": "string"
        },
        {
          "indexed": true,
          "internalType": "address",
          "name": "doctor",
          "type": "address"
        },
        {
          "indexed": false,
          "internalType": "uint256",
          "name": "revokedAt",
          "type": "uint256"
        }
      ],
      "name": "AccessRevoked",
      "type": "event"
    },
    {
      "anonymous": false,
      "inputs": [
        {
          "indexed": true,
          "internalType": "address",
          "name": "previousOwner",
          "type": "address"
        },
        {
          "indexed": true,
          "internalType": "address",
          "name": "newOwner",
          "type": "address"
        }
      ],
      "name": "OwnershipTransferred",
      "type": "event"
    },
    {
      "anonymous": false,
      "inputs": [
        {
          "indexed": true,
          "internalType": "string",
          "name": "recordId",
          "type": "string"
        },
        {
          "indexed": true,
          "internalType": "address",
          "name": "owner",
          "type": "address"
        }
      ],
      "name": "RecordUploaded",
      "type": "event"
    },
    {
      "inputs": [
        {
          "internalType": "string",
          "name": "recordId",
          "type": "string"
        },
        {
          "internalType": "address",
          "name": "doctor",
          "type": "address"
        }
      ],
      "name": "checkAccessExpiry",
      "outputs": [
        {
          "internalType": "uint256",
          "name": "",
          "type": "uint256"
        }
      ],
      "stateMutability": "view",
      "type": "function"
    },
    {
      "inputs": [
        {
          "internalType": "string",
          "name": "recordId",
          "type": "string"
        }
      ],
      "name": "getAccessHistory",
      "outputs": [
        {
          "components": [
            {
              "internalType": "address",
              "name": "doctor",
              "type": "address"
            },
            {
              "internalType": "uint256",
              "name": "sharedAt",
              "type": "uint256"
            },
            {
              "internalType": "uint256",
              "name": "expiresAt",
              "type": "uint256"
            }
          ],
          "internalType": "struct MedicalRecords.AccessLog[]",
          "name": "",
          "type": "tuple[]"
        }
      ],
      "stateMutability": "view",
      "type": "function"
    },
    {
      "inputs": [
        {
          "internalType": "address",
          "name": "_owner",
          "type": "address"
        }
      ],
      "name": "getRecordsByOwner",
      "outputs": [
        {
          "internalType": "string[]",
          "name": "ownerRecordIds",
          "type": "string[]"
        },
        {
          "internalType": "string[][]",
          "name": "cidsList",
          "type": "string[][]"
        },
        {
          "internalType": "string[]",
          "name": "names",
          "type": "string[]"
        },
        {
          "internalType": "uint8[]",
          "name": "ages",
          "type": "uint8[]"
        },
        {
          "internalType": "string[]",
          "name": "genders",
          "type": "string[]"
        },
        {
          "internalType": "string[]",
          "name": "bloodPressures",
          "type": "string[]"
        },
        {
          "internalType": "string[]",
          "name": "heartRates",
          "type": "string[]"
        },
        {
          "internalType": "string[]",
          "name": "temperatures",
          "type": "string[]"
        },
        {
          "internalType": "address[]",
          "name": "owners",
          "type": "address[]"
        }
      ],
      "stateMutability": "view",
      "type": "function"
    },
    {
      "inputs": [
        {
          "internalType": "address",
          "name": "doctor",
          "type": "address"
        }
      ],
      "name": "getRecordsSharedWithMe",
      "outputs": [
        {
          "internalType": "string[]",
          "name": "sharedRecordIds",
          "type": "string[]"
        },
        {
          "internalType": "string[][]",
          "name": "cidsList",
          "type": "string[][]"
        },
        {
          "internalType": "string[]",
          "name": "names",
          "type": "string[]"
        },
        {
          "internalType": "uint8[]",
          "name": "ages",
          "type": "uint8[]"
        },
        {
          "internalType": "string[]",
          "name": "genders",
          "type": "string[]"
        },
        {
          "internalType": "string[]",
          "name": "bloodPressures",
          "type": "string[]"
        },
        {
          "internalType": "string[]",
          "name": "heartRates",
          "type": "string[]"
        },
        {
          "internalType": "string[]",
          "name": "temperatures",
          "type": "string[]"
        },
        {
          "internalType": "address[]",
          "name": "owners",
          "type": "address[]"
        }
      ],
      "stateMutability": "view",
      "type": "function"
    },
    {
      "inputs": [
        {
          "internalType": "string",
          "name": "recordId",
          "type": "string"
        },
        {
          "internalType": "address",
          "name": "doctor",
          "type": "address"
        },
        {
          "internalType": "uint256",
          "name": "duration",
          "type": "uint256"
        }
      ],
      "name": "grantAccess",
      "outputs": [],
      "stateMutability": "nonpayable",
      "type": "function"
    },
    {
      "inputs": [],
      "name": "owner",
      "outputs": [
        {
          "internalType": "address",
          "name": "",
          "type": "address"
        }
      ],
      "stateMutability": "view",
      "type": "function"
    },
    {
      "inputs": [],
      "name": "renounceOwnership",
      "outputs": [],
      "stateMutability": "nonpayable",
      "type": "function"
    },
    {
      "inputs": [
        {
          "internalType": "string",
          "name": "recordId",
          "type": "string"
        },
        {
          "internalType": "address",
          "name": "doctor",
          "type": "address"
        }
      ],
      "name": "revokeAccess",
      "outputs": [],
      "stateMutability": "nonpayable",
      "type": "function"
    },
    {
      "inputs": [
        {
          "internalType": "address",
          "name": "newOwner",
          "type": "address"
        }
      ],
      "name": "transferOwnership",
      "outputs": [],
      "stateMutability": "nonpayable",
      "type": "function"
    },
    {
      "inputs": [
        {
          "internalType": "string",
          "name": "recordId",
          "type": "string"
        },
        {
          "internalType": "string[]",
          "name": "_cids",
          "type": "string[]"
        },
        {
          "internalType": "string",
          "name": "_name",
          "type": "string"
        },
        {
          "internalType": "uint8",
          "name": "_age",
          "type": "uint8"
        },
        {
          "internalType": "string",
          "name": "_gender",
          "type": "string"
        },
        {
          "internalType": "string",
          "name": "_bloodPressure",
          "type": "string"
        },
        {
          "internalType": "string",
          "name": "_heartRate",
          "type": "string"
        },
        {
          "internalType": "string",
          "name": "_temperature",
          "type": "string"
        }
      ],
      "name": "uploadRecord",
      "outputs": [],
      "stateMutability": "nonpayable",
      "type": "function"
    }
  ],
  "bytecode": "0x608080604052346075573315605f5760008054336001600160a01b0319821681178355916001600160a01b03909116907f8be0079c531659141344cd1fd0a4f28419497f9722a3daafe3b4186f6b6457e09080a3611837908161007b8239f35b631e4fbdf760e01b600052600060045260246000fd5b600080fdfe6080604052600436101561001257600080fd5b60003560e01c80630aad468f14610d8b578063552d710514610b255780636910dd2a146108e3578063715018a61461088a5780638117eada146106db5780638da5cb5b146106b2578063aec36904146105e9578063dfe0b5fe14610424578063e5492e2b146101185763f2fde38b1461008a57600080fd5b34610113576020366003190112610113576100a3611193565b6100ab6117d8565b6001600160a01b031680156100fd57600080546001600160a01b03198116831782556001600160a01b0316907f8be0079c531659141344cd1fd0a4f28419497f9722a3daafe3b4186f6b6457e09080a3005b631e4fbdf760e01b600052600060045260246000fd5b600080fd5b34610113576060366003190112610113576004356001600160401b03811161011357610148903690600401611126565b6024356001600160a01b03811691908290036101135760443590604051918151926007602084019461017b8184886111a9565b600190830190815282900360200190912001546001600160a01b031633036103df576101a8841515611793565b801561038f57600860405160208185516101c381838a6111a9565b8101600181520301902001846000526020526040600020548015908115610384575b50156103405742019182421161032a5761023a60206009926008604051838188516102118183886111a9565b8101600181520301902001876000528252856040600020556040518093819287519283916111a9565b81016001815203019020019060405191610253836110ea565b84835260208301914283526040840193858552825492600160401b84101561031457600184018082558410156102fe577fcd5010f0cf521705dc993ca35e5b2fd59371fb9516f4c5dab9cd77693bbf92b0956020956102f4956002936000526003886000209102019360018060a01b039060018060a01b03905116166bffffffffffffffffffffffff60a01b8554161784555160018401555191015561155e565b92604051908152a3005b634e487b7160e01b600052603260045260246000fd5b634e487b7160e01b600052604160045260246000fd5b634e487b7160e01b600052601160045260246000fd5b606460405162461bcd60e51b815260206004820152602060248201527f446f63746f7220616c72656164792068617320616374697665206163636573736044820152fd5b9050421015856101e5565b60405162461bcd60e51b815260206004820152602260248201527f4475726174696f6e206d7573742062652067726561746572207468616e207a65604482015261726f60f01b6064820152608490fd5b60405162461bcd60e51b815260206004820152601b60248201527f4f6e6c79206f776e65722063616e206772616e742061636365737300000000006044820152606490fd5b346101135761043236611391565b604051908251916007602085019361044b8184876111a9565b600190830190815282900360200190912001546001600160a01b031633036105a4576001600160a01b031691610482831515611793565b600860405160208184516104978183896111a9565b8101600181520301902001836000526020526040600020548015610560574210156105225760086104d860206104f6946040518093819287519283916111a9565b8101600181520301902001836000526020526000604081205561155e565b7ff7eb47ecbc62e098414c8565b83461841e3ae69f64ad0da8609abefecaec86ad6020604051428152a3005b60405162461bcd60e51b81526020600482015260166024820152751058d8d95cdcc8185b1c9958591e48195e1c1a5c995960521b6044820152606490fd5b606460405162461bcd60e51b815260206004820152602060248201527f4e6f20616363657373206772616e74656420746f207468697320646f63746f726044820152fd5b60405162461bcd60e51b815260206004820152601c60248201527f4f6e6c79206f776e65722063616e207265766f6b6520616363657373000000006044820152606490fd5b34610113576105f736611391565b90604051815190600760208401926106108184866111a9565b600190830190815282900360200190912001546001600160a01b03161561067557602061064b916008936040519384928392519283916111a9565b81016001815203019020019060018060a01b03166000526020526020604060002054604051908152f35b60405162461bcd60e51b8152602060048201526015602482015274149958dbdc9908191bd95cc81b9bdd08195e1a5cdd605a1b6044820152606490fd5b34610113576000366003190112610113576000546040516001600160a01b039091168152602090f35b34610113576020366003190112610113576004356001600160401b0381116101135761070b903690600401611126565b604051815190600760208401926107238184866111a9565b600190830190815282900360200190912001546001600160a01b0316330361084557602061075f916009936040519384928392519283916111a9565b81016001815203019020018054906107768261117c565b916107846040519384611105565b80835260208301809260005260206000206000915b8383106108075784866040519182916020830190602084525180915260408301919060005b8181106107cc575050500390f35b825180516001600160a01b031685526020818101518187015260409182015191860191909152869550606090940193909201916001016107be565b6003602060019260405161081a816110ea565b848060a01b038654168152848601548382015260028601546040820152815201920192019190610799565b60405162461bcd60e51b815260206004820152601b60248201527f4f6e6c79206f776e65722063616e207669657720686973746f727900000000006044820152606490fd5b34610113576000366003190112610113576108a36117d8565b600080546001600160a01b0319811682556001600160a01b03167f8be0079c531659141344cd1fd0a4f28419497f9722a3daafe3b4186f6b6457e08280a3005b34610113576020366003190112610113576108fc611193565b6002546001600160a01b0390911690600090815b818110610ac357506109218261161b565b9061092b8361161b565b926109358161161b565b61093e82611665565b6109478361161b565b6109508461161b565b9161095a8561161b565b9361096d6109678761161b565b96611665565b9660009a8b5b8281106109945750505061099097989950604051998a998a61123d565b0390f35b6109a66109a0826113e6565b5061157e565b6040600084815260088301602052204290541180610aac575b6109cd575b50600101610973565b8d8b839f8f908f94610a8c8f8f908f8f8f938f88610a7f9460019f610aa59f839996610a24610a9f9f8e879a610a4b89610a729b610a3e82600397610a3482809d610a659f610a1e610a24916113e6565b50611697565b610a2e83836113d2565b526113d2565b50610a248861173b565b50610a2460018601611697565b50610a5e8660ff600285015416926113d2565b5201611697565b50610a2460048b01611697565b50610a2460058801611697565b50610a2460068501611697565b506007878060a01b0391015416926113d2565b5261160c565b9c906109c4565b5060078101546001600160a01b03168314156109bf565b610acf6109a0826113e6565b84604060008281526008840160205220429054119182610b0d575b5050610af9575b600101610910565b91610b0560019161160c565b929050610af1565b600701546001600160a01b0316141590508486610aea565b3461011357602036600319011261011357610b3e611193565b600254906000906001600160a01b0316815b838110610d465750610b618261161b565b91610b6b8161161b565b93610b758261161b565b610b7e83611665565b610b878461161b565b90610b918561161b565b92610b9b8661161b565b94610bae610ba88861161b565b97611665565b97600090815b838110610bd3578c8c6109908d8d8d8d8d8d8d604051998a998a61123d565b81610bdd826113e6565b506001600160a01b0390600790610bf39061157e565b01541614610c04575b600101610bb4565b91610c0e836113e6565b50610c189061157e565b8c82610c23866113e6565b50610c2d90611697565b610c3782846113d2565b52610c41916113d2565b508d82610c4d8361173b565b610c5782846113d2565b52610c61916113d2565b50610c6e60018201611697565b610c7883886113d2565b52610c8382876113d2565b50600281015460ff16610c9683896113d2565b52610ca360038201611697565b610cad838a6113d2565b52610cb882896113d2565b50610cc560048201611697565b610ccf838b6113d2565b52610cda828a6113d2565b50610ce760058201611697565b610cf1838c6113d2565b52610cfc828b6113d2565b50610d0960068201611697565b610d13838d6113d2565b52610d1e828c6113d2565b50600701546001600160a01b0316610d36828d6113d2565b52610d409061160c565b91610bfc565b81610d50826113e6565b506001600160a01b0390600790610d669061157e565b01541614610d77575b600101610b50565b91610d8360019161160c565b929050610d6f565b3461011357610100366003190112610113576004356001600160401b03811161011357610dbc903690600401611126565b6024356001600160401b0381116101135736602382011215610113578060040135610de68161117c565b91610df46040519384611105565b8183526024602084019260051b820101903682116101135760248101925b8284106110bb5785856044356001600160401b03811161011357610e3a903690600401611126565b906064359260ff8416809403610113576084356001600160401b03811161011357610e69903690600401611126565b60a4356001600160401b03811161011357610e88903690600401611126565b60c4356001600160401b03811161011357610ea7903690600401611126565b9060e4356001600160401b03811161011357610ec7903690600401611126565b928451156110885760405185519060076020880192610ee78184866111a9565b600190830190815282900360200190912001546001600160a01b0316611052576020610f1e91604051809381928a519283916111a9565b6001908201908152030190206007810180546001600160a01b031916331790559760005b8751811015610fa157610f5581896113d2565b51908a54600160401b81101561031457806001610f7592018d558c611401565b610f8b57600192610f8591611453565b01610f42565b634e487b7160e01b600052600060045260246000fd5b50610ff29493610fe3600694610fda8c95610fec95610fc38e60018a01611453565b600288019060ff1982541617905560038701611453565b60048501611453565b60058301611453565b01611453565b600254600160401b8110156103145780600161101392016002556002611401565b610f8b578161102191611453565b61102b339161155e565b7f5613b0ea20e0c0c2c37e5dee1b46009ee8b652c2f475d4d1057ef06a6a5b8c0c600080a3005b60405162461bcd60e51b815260206004820152600e60248201526d416c72656164792065786973747360901b6044820152606490fd5b60405162461bcd60e51b815260206004820152600b60248201526a1251081c995c5d5a5c995960aa1b6044820152606490fd5b83356001600160401b038111610113576020916110df839260243691870101611126565b815201930192610e12565b606081019081106001600160401b0382111761031457604052565b90601f801991011681019081106001600160401b0382111761031457604052565b81601f82011215610113578035906001600160401b038211610314576040519261115a601f8401601f191660200185611105565b8284526020838301011161011357816000926020809301838601378301015290565b6001600160401b0381116103145760051b60200190565b600435906001600160a01b038216820361011357565b60005b8381106111bc5750506000910152565b81810151838201526020016111ac565b9080602083519182815201916020808360051b8301019401926000915b8383106111f857505050505090565b909192939460208080600193601f198682030187528951611224815180928185528580860191016111a9565b601f01601f1916010197019594919091019201906111e9565b97969594929190611258906101208a526101208a01906111cc565b9188830360208a0152815180845260208401936020808360051b8301019401946000915b8383106113625750505050611299925088820360408a01526111cc565b86810360608801526020808451928381520193019060005b818110611349575050506112f5926112d9836112e793896113039998960360808b01526111cc565b9087820360a08901526111cc565b9085820360c08701526111cc565b9083820360e08501526111cc565b906101008183039101526020808351928381520192019060005b81811061132a5750505090565b82516001600160a01b031684526020938401939092019160010161131d565b825160ff168552602094850194909201916001016112b1565b9091929394602080611380600193601f198682030187528a516111cc565b98019301930191959493929061127c565b604060031982011261011357600435906001600160401b038211610113576113bb91600401611126565b906024356001600160a01b03811681036101135790565b80518210156102fe5760209160051b010190565b6002548110156102fe57600260005260206000200190600090565b80548210156102fe5760005260206000200190600090565b90600182811c92168015611449575b602083101461143357565b634e487b7160e01b600052602260045260246000fd5b91607f1691611428565b91909182516001600160401b038111610314576114708254611419565b601f8111611516575b506020601f82116001146114b457819293946000926114a9575b50508160011b916000199060031b1c1916179055565b015190503880611493565b601f1982169083600052806000209160005b8181106114fe575095836001959697106114e5575b505050811b019055565b015160001960f88460031b161c191690553880806114db565b9192602060018192868b0151815501940192016114c6565b826000526020600020601f830160051c81019160208410611554575b601f0160051c01905b8181106115485750611479565b6000815560010161153b565b9091508190611532565b611576906020604051928284809451938492016111a9565b810103902090565b6040519081600082549261159184611419565b93600181169081156115f257506001146115b6575b5060209250600181520301902090565b9150506000528160206000206000905b8382106115da5750506020918101386115a6565b602091925080600191548487015201910183916115c6565b60ff191684525060209380151502830191503890506115a6565b600019811461032a5760010190565b906116258261117c565b6116326040519182611105565b82815260208193611645601f199161117c565b01910160005b82811061165757505050565b60608282015260200161164b565b9061166f8261117c565b61167c6040519182611105565b828152809261168d601f199161117c565b0190602036910137565b90604051918260008254926116ab84611419565b808452936001811690811561171957506001146116d2575b506116d092500383611105565b565b90506000929192526020600020906000915b8183106116fd5750509060206116d092820101386116c3565b60209193508060019154838589010152019101909184926116e4565b9050602092506116d094915060ff191682840152151560051b820101386116c3565b9081546117478161117c565b926117556040519485611105565b818452602084019060005260206000206000915b8383106117765750505050565b60016020819261178585611697565b815201920192019190611769565b1561179a57565b60405162461bcd60e51b8152602060048201526016602482015275496e76616c696420646f63746f72206164647265737360501b6044820152606490fd5b6000546001600160a01b031633036117ec57565b63118cdaa760e01b6000523360045260246000fdfea26469706673582212204e1740be31bd3adc3e99cf9ba37b18900dc578b206ca0736bed80adee8aa7db964736f6c634300081c0033",
  "linkReferences": {},
  "deployedLinkReferences": {}
}