{
  "_format": "hh-sol-artifact-1",
  "contractName": "MedicalRecords",
  "sourceName": "contracts/MedicalRecords.sol",
  "abi": [
    {
      "inputs": [],
      "stateMutability": "nonpayable",
      "type": "constructor"
    },
    {
      "inputs": [
        {
          "internalType": "address",
          "name": "owner",
          "type": "address"
        }
      ],
      "name": "OwnableInvalidOwner",
      "type": "error"
    },
    {
      "inputs": [
        {
          "internalType": "address",
          "name": "account",
          "type": "address"
        }
      ],
      "name": "OwnableUnauthorizedAccount",
      "type": "error"
    },
    {
      "anonymous": false,
      "inputs": [
        {
          "indexed": true,
          "internalType": "string",
          "name": "recordId",
          "type": "string"
        },
        {
          "indexed": true,
          "internalType": "address",
          "name": "doctor",
          "type": "address"
        },
        {
          "indexed": false,
          "internalType": "uint256",
          "name": "expiry",
          "type": "uint256"
        }
      ],
      "name": "AccessGranted",
      "type": "event"
    },
    {
      "anonymous": false,
      "inputs": [
        {
          "indexed": true,
          "internalType": "string",
          "name": "recordId",
          "type": "string"
        },
        {
          "indexed": true,
          "internalType": "address",
          "name": "doctor",
          "type": "address"
        },
        {
          "indexed": false,
          "internalType": "uint256",
          "name": "revokedAt",
          "type": "uint256"
        }
      ],
      "name": "AccessRevoked",
      "type": "event"
    },
    {
      "anonymous": false,
      "inputs": [
        {
          "indexed": true,
          "internalType": "address",
          "name": "previousOwner",
          "type": "address"
        },
        {
          "indexed": true,
          "internalType": "address",
          "name": "newOwner",
          "type": "address"
        }
      ],
      "name": "OwnershipTransferred",
      "type": "event"
    },
    {
      "anonymous": false,
      "inputs": [
        {
          "indexed": true,
          "internalType": "string",
          "name": "recordId",
          "type": "string"
        },
        {
          "indexed": true,
          "internalType": "address",
          "name": "owner",
          "type": "address"
        }
      ],
      "name": "RecordUploaded",
      "type": "event"
    },
    {
      "inputs": [
        {
          "internalType": "string",
          "name": "recordId",
          "type": "string"
        },
        {
          "internalType": "address",
          "name": "doctor",
          "type": "address"
        }
      ],
      "name": "checkAccessExpiry",
      "outputs": [
        {
          "internalType": "uint256",
          "name": "",
          "type": "uint256"
        }
      ],
      "stateMutability": "view",
      "type": "function"
    },
    {
      "inputs": [
        {
          "internalType": "address",
          "name": "_owner",
          "type": "address"
        }
      ],
      "name": "getRecordsByOwner",
      "outputs": [
        {
          "internalType": "string[]",
          "name": "ownerRecordIds",
          "type": "string[]"
        },
        {
          "internalType": "string[][]",
          "name": "cidsList",
          "type": "string[][]"
        },
        {
          "internalType": "string[]",
          "name": "names",
          "type": "string[]"
        },
        {
          "internalType": "uint8[]",
          "name": "ages",
          "type": "uint8[]"
        },
        {
          "internalType": "string[]",
          "name": "genders",
          "type": "string[]"
        },
        {
          "internalType": "string[]",
          "name": "bloodPressures",
          "type": "string[]"
        },
        {
          "internalType": "string[]",
          "name": "heartRates",
          "type": "string[]"
        },
        {
          "internalType": "string[]",
          "name": "temperatures",
          "type": "string[]"
        },
        {
          "internalType": "address[]",
          "name": "owners",
          "type": "address[]"
        }
      ],
      "stateMutability": "view",
      "type": "function"
    },
    {
      "inputs": [
        {
          "internalType": "address",
          "name": "doctor",
          "type": "address"
        }
      ],
      "name": "getRecordsSharedWithMe",
      "outputs": [
        {
          "internalType": "string[]",
          "name": "sharedRecordIds",
          "type": "string[]"
        },
        {
          "internalType": "string[][]",
          "name": "cidsList",
          "type": "string[][]"
        },
        {
          "internalType": "string[]",
          "name": "names",
          "type": "string[]"
        },
        {
          "internalType": "uint8[]",
          "name": "ages",
          "type": "uint8[]"
        },
        {
          "internalType": "string[]",
          "name": "genders",
          "type": "string[]"
        },
        {
          "internalType": "string[]",
          "name": "bloodPressures",
          "type": "string[]"
        },
        {
          "internalType": "string[]",
          "name": "heartRates",
          "type": "string[]"
        },
        {
          "internalType": "string[]",
          "name": "temperatures",
          "type": "string[]"
        },
        {
          "internalType": "address[]",
          "name": "owners",
          "type": "address[]"
        }
      ],
      "stateMutability": "view",
      "type": "function"
    },
    {
      "inputs": [
        {
          "internalType": "string",
          "name": "recordId",
          "type": "string"
        },
        {
          "internalType": "address",
          "name": "doctor",
          "type": "address"
        },
        {
          "internalType": "uint256",
          "name": "duration",
          "type": "uint256"
        }
      ],
      "name": "grantAccess",
      "outputs": [],
      "stateMutability": "nonpayable",
      "type": "function"
    },
    {
      "inputs": [],
      "name": "owner",
      "outputs": [
        {
          "internalType": "address",
          "name": "",
          "type": "address"
        }
      ],
      "stateMutability": "view",
      "type": "function"
    },
    {
      "inputs": [],
      "name": "renounceOwnership",
      "outputs": [],
      "stateMutability": "nonpayable",
      "type": "function"
    },
    {
      "inputs": [
        {
          "internalType": "string",
          "name": "recordId",
          "type": "string"
        },
        {
          "internalType": "address",
          "name": "doctor",
          "type": "address"
        }
      ],
      "name": "revokeAccess",
      "outputs": [],
      "stateMutability": "nonpayable",
      "type": "function"
    },
    {
      "inputs": [
        {
          "internalType": "address",
          "name": "newOwner",
          "type": "address"
        }
      ],
      "name": "transferOwnership",
      "outputs": [],
      "stateMutability": "nonpayable",
      "type": "function"
    },
    {
      "inputs": [
        {
          "internalType": "string",
          "name": "recordId",
          "type": "string"
        },
        {
          "internalType": "string[]",
          "name": "_cids",
          "type": "string[]"
        },
        {
          "internalType": "string",
          "name": "_name",
          "type": "string"
        },
        {
          "internalType": "uint8",
          "name": "_age",
          "type": "uint8"
        },
        {
          "internalType": "string",
          "name": "_gender",
          "type": "string"
        },
        {
          "internalType": "string",
          "name": "_bloodPressure",
          "type": "string"
        },
        {
          "internalType": "string",
          "name": "_heartRate",
          "type": "string"
        },
        {
          "internalType": "string",
          "name": "_temperature",
          "type": "string"
        }
      ],
      "name": "uploadRecord",
      "outputs": [],
      "stateMutability": "nonpayable",
      "type": "function"
    }
  ],
  "bytecode": "0x608080604052346075573315605f5760008054336001600160a01b0319821681178355916001600160a01b03909116907f8be0079c531659141344cd1fd0a4f28419497f9722a3daafe3b4186f6b6457e09080a36115c3908161007b8239f35b631e4fbdf760e01b600052600060045260246000fd5b600080fdfe6080604052600436101561001257600080fd5b60003560e01c80630aad468f14610b01578063552d71051461089b5780636910dd2a14610659578063715018a6146106005780638da5cb5b146105d7578063aec369041461050e578063dfe0b5fe14610349578063e5492e2b1461010d5763f2fde38b1461007f57600080fd5b3461010857602036600319011261010857610098610f09565b6100a0611564565b6001600160a01b031680156100f257600080546001600160a01b03198116831782556001600160a01b0316907f8be0079c531659141344cd1fd0a4f28419497f9722a3daafe3b4186f6b6457e09080a3005b631e4fbdf760e01b600052600060045260246000fd5b600080fd5b34610108576060366003190112610108576004356001600160401b0381116101085761013d903690600401610e9c565b6024356001600160a01b038116919082900361010857604435604051908251916007602085019361016f818487610f1f565b600190830190815282900360200190912001546001600160a01b031633036103045761019c84151561151f565b80156102b457600860405160208186516101b7818389610f1f565b81016001815203019020018460005260205260406000205480159081156102a9575b50156102655742019182421161024f576102456020916008610228847fcd5010f0cf521705dc993ca35e5b2fd59371fb9516f4c5dab9cd77693bbf92b096604051809381928751928391610f1f565b8101600181520301902001866000528352846040600020556112ea565b92604051908152a3005b634e487b7160e01b600052601160045260246000fd5b606460405162461bcd60e51b815260206004820152602060248201527f446f63746f7220616c72656164792068617320616374697665206163636573736044820152fd5b9050421015856101d9565b60405162461bcd60e51b815260206004820152602260248201527f4475726174696f6e206d7573742062652067726561746572207468616e207a65604482015261726f60f01b6064820152608490fd5b60405162461bcd60e51b815260206004820152601b60248201527f4f6e6c79206f776e65722063616e206772616e742061636365737300000000006044820152606490fd5b346101085761035736611107565b6040519082519160076020850193610370818487610f1f565b600190830190815282900360200190912001546001600160a01b031633036104c9576001600160a01b0316916103a783151561151f565b600860405160208184516103bc818389610f1f565b8101600181520301902001836000526020526040600020548015610485574210156104475760086103fd602061041b94604051809381928751928391610f1f565b810160018152030190200183600052602052600060408120556112ea565b7ff7eb47ecbc62e098414c8565b83461841e3ae69f64ad0da8609abefecaec86ad6020604051428152a3005b60405162461bcd60e51b81526020600482015260166024820152751058d8d95cdcc8185b1c9958591e48195e1c1a5c995960521b6044820152606490fd5b606460405162461bcd60e51b815260206004820152602060248201527f4e6f20616363657373206772616e74656420746f207468697320646f63746f726044820152fd5b60405162461bcd60e51b815260206004820152601c60248201527f4f6e6c79206f776e65722063616e207265766f6b6520616363657373000000006044820152606490fd5b346101085761051c36611107565b9060405181519060076020840192610535818486610f1f565b600190830190815282900360200190912001546001600160a01b03161561059a57602061057091600893604051938492839251928391610f1f565b81016001815203019020019060018060a01b03166000526020526020604060002054604051908152f35b60405162461bcd60e51b8152602060048201526015602482015274149958dbdc9908191bd95cc81b9bdd08195e1a5cdd605a1b6044820152606490fd5b34610108576000366003190112610108576000546040516001600160a01b039091168152602090f35b3461010857600036600319011261010857610619611564565b600080546001600160a01b0319811682556001600160a01b03167f8be0079c531659141344cd1fd0a4f28419497f9722a3daafe3b4186f6b6457e08280a3005b3461010857602036600319011261010857610672610f09565b6002546001600160a01b0390911690600090815b8181106108395750610697826113a7565b906106a1836113a7565b926106ab816113a7565b6106b4826113f1565b6106bd836113a7565b6106c6846113a7565b916106d0856113a7565b936106e36106dd876113a7565b966113f1565b9660009a8b5b82811061070a5750505061070697989950604051998a998a610fb3565b0390f35b61071c61071682611172565b5061130a565b6040600084815260088301602052204290541180610822575b610743575b506001016106e9565b8d8b839f8f908f946108028f8f908f8f8f938f886107f59460019f61081b9f83999661079a6108159f8e879a6107c1896107e89b6107b4826003976107aa82809d6107db9f61079461079a91611172565b50611423565b6107a48383611148565b52611148565b5061079a886114c7565b5061079a60018601611423565b506107d48660ff60028501541692611148565b5201611423565b5061079a60048b01611423565b5061079a60058801611423565b5061079a60068501611423565b506007878060a01b039101541692611148565b52611398565b9c9061073a565b5060078101546001600160a01b0316831415610735565b61084561071682611172565b84604060008281526008840160205220429054119182610883575b505061086f575b600101610686565b9161087b600191611398565b929050610867565b600701546001600160a01b0316141590508486610860565b34610108576020366003190112610108576108b4610f09565b600254906000906001600160a01b0316815b838110610abc57506108d7826113a7565b916108e1816113a7565b936108eb826113a7565b6108f4836113f1565b6108fd846113a7565b90610907856113a7565b92610911866113a7565b9461092461091e886113a7565b976113f1565b97600090815b838110610949578c8c6107068d8d8d8d8d8d8d604051998a998a610fb3565b8161095382611172565b506001600160a01b03906007906109699061130a565b0154161461097a575b60010161092a565b9161098483611172565b5061098e9061130a565b8c8261099986611172565b506109a390611423565b6109ad8284611148565b526109b791611148565b508d826109c3836114c7565b6109cd8284611148565b526109d791611148565b506109e460018201611423565b6109ee8388611148565b526109f98287611148565b50600281015460ff16610a0c8389611148565b52610a1960038201611423565b610a23838a611148565b52610a2e8289611148565b50610a3b60048201611423565b610a45838b611148565b52610a50828a611148565b50610a5d60058201611423565b610a67838c611148565b52610a72828b611148565b50610a7f60068201611423565b610a89838d611148565b52610a94828c611148565b50600701546001600160a01b0316610aac828d611148565b52610ab690611398565b91610972565b81610ac682611172565b506001600160a01b0390600790610adc9061130a565b01541614610aed575b6001016108c6565b91610af9600191611398565b929050610ae5565b3461010857610100366003190112610108576004356001600160401b03811161010857610b32903690600401610e9c565b6024356001600160401b0381116101085736602382011215610108578060040135610b5c81610ef2565b91610b6a6040519384610e7b565b8183526024602084019260051b820101903682116101085760248101925b828410610e4c5785856044356001600160401b03811161010857610bb0903690600401610e9c565b906064359260ff8416809403610108576084356001600160401b03811161010857610bdf903690600401610e9c565b60a4356001600160401b03811161010857610bfe903690600401610e9c565b60c4356001600160401b03811161010857610c1d903690600401610e9c565b9060e4356001600160401b03811161010857610c3d903690600401610e9c565b92845115610e195760405185519060076020880192610c5d818486610f1f565b600190830190815282900360200190912001546001600160a01b0316610de3576020610c9491604051809381928a51928391610f1f565b810160018152030190209760078901336bffffffffffffffffffffffff60a01b82541617905560005b8751811015610d3257610cd08189611148565b51908a54600160401b811015610d1c57806001610cf092018d558c61118d565b610d0657600192610d00916111df565b01610cbd565b634e487b7160e01b600052600060045260246000fd5b634e487b7160e01b600052604160045260246000fd5b50610d839493610d74600694610d6b8c95610d7d95610d548e60018a016111df565b600288019060ff19825416179055600387016111df565b600485016111df565b600583016111df565b016111df565b600254600160401b811015610d1c57806001610da49201600255600261118d565b610d065781610db2916111df565b610dbc33916112ea565b7f5613b0ea20e0c0c2c37e5dee1b46009ee8b652c2f475d4d1057ef06a6a5b8c0c600080a3005b60405162461bcd60e51b815260206004820152600e60248201526d416c72656164792065786973747360901b6044820152606490fd5b60405162461bcd60e51b815260206004820152600b60248201526a1251081c995c5d5a5c995960aa1b6044820152606490fd5b83356001600160401b03811161010857602091610e70839260243691870101610e9c565b815201930192610b88565b90601f801991011681019081106001600160401b03821117610d1c57604052565b81601f82011215610108578035906001600160401b038211610d1c5760405192610ed0601f8401601f191660200185610e7b565b8284526020838301011161010857816000926020809301838601378301015290565b6001600160401b038111610d1c5760051b60200190565b600435906001600160a01b038216820361010857565b60005b838110610f325750506000910152565b8181015183820152602001610f22565b9080602083519182815201916020808360051b8301019401926000915b838310610f6e57505050505090565b909192939460208080600193601f198682030187528951610f9a81518092818552858086019101610f1f565b601f01601f191601019701959491909101920190610f5f565b97969594929190610fce906101208a526101208a0190610f42565b9188830360208a0152815180845260208401936020808360051b8301019401946000915b8383106110d8575050505061100f925088820360408a0152610f42565b86810360608801526020808451928381520193019060005b8181106110bf5750505061106b9261104f8361105d93896110799998960360808b0152610f42565b9087820360a0890152610f42565b9085820360c0870152610f42565b9083820360e0850152610f42565b906101008183039101526020808351928381520192019060005b8181106110a05750505090565b82516001600160a01b0316845260209384019390920191600101611093565b825160ff16855260209485019490920191600101611027565b90919293946020806110f6600193601f198682030187528a51610f42565b980193019301919594939290610ff2565b604060031982011261010857600435906001600160401b0382116101085761113191600401610e9c565b906024356001600160a01b03811681036101085790565b805182101561115c5760209160051b010190565b634e487b7160e01b600052603260045260246000fd5b60025481101561115c57600260005260206000200190600090565b805482101561115c5760005260206000200190600090565b90600182811c921680156111d5575b60208310146111bf57565b634e487b7160e01b600052602260045260246000fd5b91607f16916111b4565b91909182516001600160401b038111610d1c576111fc82546111a5565b601f81116112a2575b506020601f82116001146112405781929394600092611235575b50508160011b916000199060031b1c1916179055565b01519050388061121f565b601f1982169083600052806000209160005b81811061128a57509583600195969710611271575b505050811b019055565b015160001960f88460031b161c19169055388080611267565b9192602060018192868b015181550194019201611252565b826000526020600020601f830160051c810191602084106112e0575b601f0160051c01905b8181106112d45750611205565b600081556001016112c7565b90915081906112be565b61130290602060405192828480945193849201610f1f565b810103902090565b6040519081600082549261131d846111a5565b936001811690811561137e5750600114611342575b5060209250600181520301902090565b9150506000528160206000206000905b838210611366575050602091810138611332565b60209192508060019154848701520191018391611352565b60ff19168452506020938015150283019150389050611332565b600019811461024f5760010190565b906113b182610ef2565b6113be6040519182610e7b565b828152602081936113d1601f1991610ef2565b01910160005b8281106113e357505050565b6060828201526020016113d7565b906113fb82610ef2565b6114086040519182610e7b565b8281528092611419601f1991610ef2565b0190602036910137565b9060405191826000825492611437846111a5565b80845293600181169081156114a5575060011461145e575b5061145c92500383610e7b565b565b90506000929192526020600020906000915b81831061148957505090602061145c928201013861144f565b6020919350806001915483858901015201910190918492611470565b90506020925061145c94915060ff191682840152151560051b8201013861144f565b9081546114d381610ef2565b926114e16040519485610e7b565b818452602084019060005260206000206000915b8383106115025750505050565b60016020819261151185611423565b8152019201920191906114f5565b1561152657565b60405162461bcd60e51b8152602060048201526016602482015275496e76616c696420646f63746f72206164647265737360501b6044820152606490fd5b6000546001600160a01b0316330361157857565b63118cdaa760e01b6000523360045260246000fdfea264697066735822122050a30f82c7b63bb499a49a051d800303c44ab05cd36906f3e4b284dbef8d7d3464736f6c634300081c0033",
  "linkReferences": {},
  "deployedLinkReferences": {}
}