{
  "_format": "hh-sol-artifact-1",
  "contractName": "MedicalRecords",
  "sourceName": "contracts/MedicalRecords.sol",
  "abi": [
    {
      "inputs": [],
      "stateMutability": "nonpayable",
      "type": "constructor"
    },
    {
      "inputs": [
        {
          "internalType": "address",
          "name": "owner",
          "type": "address"
        }
      ],
      "name": "OwnableInvalidOwner",
      "type": "error"
    },
    {
      "inputs": [
        {
          "internalType": "address",
          "name": "account",
          "type": "address"
        }
      ],
      "name": "OwnableUnauthorizedAccount",
      "type": "error"
    },
    {
      "anonymous": false,
      "inputs": [
        {
          "indexed": true,
          "internalType": "string",
          "name": "recordId",
          "type": "string"
        },
        {
          "indexed": true,
          "internalType": "address",
          "name": "doctor",
          "type": "address"
        },
        {
          "indexed": false,
          "internalType": "uint256",
          "name": "expiry",
          "type": "uint256"
        }
      ],
      "name": "AccessGranted",
      "type": "event"
    },
    {
      "anonymous": false,
      "inputs": [
        {
          "indexed": true,
          "internalType": "string",
          "name": "recordId",
          "type": "string"
        },
        {
          "indexed": true,
          "internalType": "address",
          "name": "doctor",
          "type": "address"
        },
        {
          "indexed": false,
          "internalType": "uint256",
          "name": "revokedAt",
          "type": "uint256"
        }
      ],
      "name": "AccessRevoked",
      "type": "event"
    },
    {
      "anonymous": false,
      "inputs": [
        {
          "indexed": true,
          "internalType": "address",
          "name": "previousOwner",
          "type": "address"
        },
        {
          "indexed": true,
          "internalType": "address",
          "name": "newOwner",
          "type": "address"
        }
      ],
      "name": "OwnershipTransferred",
      "type": "event"
    },
    {
      "anonymous": false,
      "inputs": [
        {
          "indexed": true,
          "internalType": "string",
          "name": "recordId",
          "type": "string"
        },
        {
          "indexed": true,
          "internalType": "address",
          "name": "doctor",
          "type": "address"
        },
        {
          "indexed": false,
          "internalType": "uint256",
          "name": "timestamp",
          "type": "uint256"
        }
      ],
      "name": "RecommendationAdded",
      "type": "event"
    },
    {
      "anonymous": false,
      "inputs": [
        {
          "indexed": true,
          "internalType": "string",
          "name": "recordId",
          "type": "string"
        },
        {
          "indexed": true,
          "internalType": "address",
          "name": "owner",
          "type": "address"
        }
      ],
      "name": "RecordUploaded",
      "type": "event"
    },
    {
      "inputs": [
        {
          "internalType": "string",
          "name": "recordId",
          "type": "string"
        },
        {
          "internalType": "string",
          "name": "diagnosis",
          "type": "string"
        },
        {
          "internalType": "string[]",
          "name": "medNames",
          "type": "string[]"
        },
        {
          "internalType": "string[]",
          "name": "medQuantities",
          "type": "string[]"
        },
        {
          "internalType": "string[]",
          "name": "medInstructions",
          "type": "string[]"
        }
      ],
      "name": "addRecommendation",
      "outputs": [],
      "stateMutability": "nonpayable",
      "type": "function"
    },
    {
      "inputs": [
        {
          "internalType": "string",
          "name": "recordId",
          "type": "string"
        },
        {
          "internalType": "address",
          "name": "doctor",
          "type": "address"
        }
      ],
      "name": "checkAccessExpiry",
      "outputs": [
        {
          "internalType": "uint256",
          "name": "",
          "type": "uint256"
        }
      ],
      "stateMutability": "view",
      "type": "function"
    },
    {
      "inputs": [
        {
          "internalType": "string",
          "name": "recordId",
          "type": "string"
        }
      ],
      "name": "getAccessHistory",
      "outputs": [
        {
          "components": [
            {
              "internalType": "address",
              "name": "doctor",
              "type": "address"
            },
            {
              "internalType": "uint256",
              "name": "sharedAt",
              "type": "uint256"
            },
            {
              "internalType": "uint256",
              "name": "expiresAt",
              "type": "uint256"
            }
          ],
          "internalType": "struct MedicalRecords.AccessLog[]",
          "name": "",
          "type": "tuple[]"
        }
      ],
      "stateMutability": "view",
      "type": "function"
    },
    {
      "inputs": [
        {
          "internalType": "string",
          "name": "recordId",
          "type": "string"
        }
      ],
      "name": "getRecommendations",
      "outputs": [
        {
          "components": [
            {
              "internalType": "address",
              "name": "doctor",
              "type": "address"
            },
            {
              "internalType": "uint256",
              "name": "timestamp",
              "type": "uint256"
            },
            {
              "internalType": "string",
              "name": "diagnosis",
              "type": "string"
            },
            {
              "components": [
                {
                  "internalType": "string",
                  "name": "name",
                  "type": "string"
                },
                {
                  "internalType": "string",
                  "name": "quantity",
                  "type": "string"
                },
                {
                  "internalType": "string",
                  "name": "instructions",
                  "type": "string"
                }
              ],
              "internalType": "struct MedicalRecords.Medicine[]",
              "name": "medicines",
              "type": "tuple[]"
            }
          ],
          "internalType": "struct MedicalRecords.Recommendation[]",
          "name": "",
          "type": "tuple[]"
        }
      ],
      "stateMutability": "view",
      "type": "function"
    },
    {
      "inputs": [
        {
          "internalType": "address",
          "name": "_owner",
          "type": "address"
        }
      ],
      "name": "getRecordsByOwner",
      "outputs": [
        {
          "internalType": "string[]",
          "name": "ownerRecordIds",
          "type": "string[]"
        },
        {
          "internalType": "string[][]",
          "name": "cidsList",
          "type": "string[][]"
        },
        {
          "internalType": "string[]",
          "name": "names",
          "type": "string[]"
        },
        {
          "internalType": "uint8[]",
          "name": "ages",
          "type": "uint8[]"
        },
        {
          "internalType": "string[]",
          "name": "genders",
          "type": "string[]"
        },
        {
          "internalType": "string[]",
          "name": "bloodPressures",
          "type": "string[]"
        },
        {
          "internalType": "string[]",
          "name": "heartRates",
          "type": "string[]"
        },
        {
          "internalType": "string[]",
          "name": "temperatures",
          "type": "string[]"
        },
        {
          "internalType": "string[]",
          "name": "diseaseGroup",
          "type": "string[]"
        },
        {
          "internalType": "string[]",
          "name": "description",
          "type": "string[]"
        },
        {
          "internalType": "address[]",
          "name": "owners",
          "type": "address[]"
        }
      ],
      "stateMutability": "view",
      "type": "function"
    },
    {
      "inputs": [
        {
          "internalType": "address",
          "name": "doctor",
          "type": "address"
        }
      ],
      "name": "getRecordsSharedWithMe",
      "outputs": [
        {
          "internalType": "string[]",
          "name": "sharedRecordIds",
          "type": "string[]"
        },
        {
          "internalType": "string[][]",
          "name": "cidsList",
          "type": "string[][]"
        },
        {
          "internalType": "string[]",
          "name": "names",
          "type": "string[]"
        },
        {
          "internalType": "uint8[]",
          "name": "ages",
          "type": "uint8[]"
        },
        {
          "internalType": "string[]",
          "name": "genders",
          "type": "string[]"
        },
        {
          "internalType": "string[]",
          "name": "bloodPressures",
          "type": "string[]"
        },
        {
          "internalType": "string[]",
          "name": "heartRates",
          "type": "string[]"
        },
        {
          "internalType": "string[]",
          "name": "temperatures",
          "type": "string[]"
        },
        {
          "internalType": "string[]",
          "name": "diseaseGroup",
          "type": "string[]"
        },
        {
          "internalType": "string[]",
          "name": "description",
          "type": "string[]"
        },
        {
          "internalType": "address[]",
          "name": "owners",
          "type": "address[]"
        }
      ],
      "stateMutability": "view",
      "type": "function"
    },
    {
      "inputs": [
        {
          "internalType": "string",
          "name": "recordId",
          "type": "string"
        },
        {
          "internalType": "address",
          "name": "doctor",
          "type": "address"
        },
        {
          "internalType": "uint256",
          "name": "duration",
          "type": "uint256"
        }
      ],
      "name": "grantAccess",
      "outputs": [],
      "stateMutability": "nonpayable",
      "type": "function"
    },
    {
      "inputs": [],
      "name": "owner",
      "outputs": [
        {
          "internalType": "address",
          "name": "",
          "type": "address"
        }
      ],
      "stateMutability": "view",
      "type": "function"
    },
    {
      "inputs": [],
      "name": "renounceOwnership",
      "outputs": [],
      "stateMutability": "nonpayable",
      "type": "function"
    },
    {
      "inputs": [
        {
          "internalType": "string",
          "name": "recordId",
          "type": "string"
        },
        {
          "internalType": "address",
          "name": "doctor",
          "type": "address"
        }
      ],
      "name": "revokeAccess",
      "outputs": [],
      "stateMutability": "nonpayable",
      "type": "function"
    },
    {
      "inputs": [
        {
          "internalType": "address",
          "name": "newOwner",
          "type": "address"
        }
      ],
      "name": "transferOwnership",
      "outputs": [],
      "stateMutability": "nonpayable",
      "type": "function"
    },
    {
      "inputs": [
        {
          "internalType": "string",
          "name": "recordId",
          "type": "string"
        },
        {
          "internalType": "string[]",
          "name": "_cids",
          "type": "string[]"
        },
        {
          "internalType": "string",
          "name": "_name",
          "type": "string"
        },
        {
          "internalType": "uint8",
          "name": "_age",
          "type": "uint8"
        },
        {
          "internalType": "string",
          "name": "_gender",
          "type": "string"
        },
        {
          "internalType": "string",
          "name": "_bloodPressure",
          "type": "string"
        },
        {
          "internalType": "string",
          "name": "_heartRate",
          "type": "string"
        },
        {
          "internalType": "string",
          "name": "_temperature",
          "type": "string"
        },
        {
          "internalType": "string",
          "name": "_diseaseGroup",
          "type": "string"
        },
        {
          "internalType": "string",
          "name": "_description",
          "type": "string"
        }
      ],
      "name": "uploadRecord",
      "outputs": [],
      "stateMutability": "nonpayable",
      "type": "function"
    }
  ],
  "bytecode": "0x608080604052346075573315605f5760008054336001600160a01b0319821681178355916001600160a01b03909116907f8be0079c531659141344cd1fd0a4f28419497f9722a3daafe3b4186f6b6457e09080a361203c908161007b8239f35b631e4fbdf760e01b600052600060045260246000fd5b600080fdfe6080604052600436101561001257600080fd5b60003560e01c80632e0d7cdd146114a8578063552d7105146111ac5780636910dd2a14610f055780636c2b822614610bcf578063715018a614610b765780638117eada146109c75780638da5cb5b1461099e578063aec369041461090f578063b73dffb1146105ef578063dfe0b5fe1461042a578063e5492e2b1461012e5763f2fde38b146100a057600080fd5b34610129576020366003190112610129576100b96118b5565b6100c1611fdd565b6001600160a01b0316801561011357600080546001600160a01b03198116831782556001600160a01b0316907f8be0079c531659141344cd1fd0a4f28419497f9722a3daafe3b4186f6b6457e09080a3005b631e4fbdf760e01b600052600060045260246000fd5b600080fd5b34610129576060366003190112610129576004356001600160401b0381116101295761015e903690600401611817565b6024356001600160a01b03811691908290036101295760443590604051918151926009602084019461019181848861186d565b600190830190815282900360200190912001546001600160a01b031633036103e5576101be841515611f98565b801561039557600a60405160208185516101d981838a61186d565b810160018152030190200184600052602052604060002054801590811561038a575b501561034657420191824211610330576102506020600b92600a6040518381885161022781838861186d565b81016001815203019020018760005282528560406000205560405180938192875192839161186d565b810160018152030190200160405191610268836117db565b848352602083019042825260408401928584528054600160401b81101561031a5761029891600182018155611f7c565b61030457935184546001600160a01b0319166001600160a01b0391909116178455905160018401559051600292909201919091557fcd5010f0cf521705dc993ca35e5b2fd59371fb9516f4c5dab9cd77693bbf92b0906020906102fa90611f5c565b92604051908152a3005b634e487b7160e01b600052600060045260246000fd5b634e487b7160e01b600052604160045260246000fd5b634e487b7160e01b600052601160045260246000fd5b606460405162461bcd60e51b815260206004820152602060248201527f446f63746f7220616c72656164792068617320616374697665206163636573736044820152fd5b9050421015856101fb565b60405162461bcd60e51b815260206004820152602260248201527f4475726174696f6e206d7573742062652067726561746572207468616e207a65604482015261726f60f01b6064820152608490fd5b60405162461bcd60e51b815260206004820152601b60248201527f4f6e6c79206f776e65722063616e206772616e742061636365737300000000006044820152606490fd5b346101295761043836611b36565b604051908251916009602085019361045181848761186d565b600190830190815282900360200190912001546001600160a01b031633036105aa576001600160a01b031691610488831515611f98565b600a604051602081845161049d81838961186d565b81016001815203019020018360005260205260406000205480156105665742101561052857600a6104de60206104fc9460405180938192875192839161186d565b81016001815203019020018360005260205260006040812055611f5c565b7ff7eb47ecbc62e098414c8565b83461841e3ae69f64ad0da8609abefecaec86ad6020604051428152a3005b60405162461bcd60e51b81526020600482015260166024820152751058d8d95cdcc8185b1c9958591e48195e1c1a5c995960521b6044820152606490fd5b606460405162461bcd60e51b815260206004820152602060248201527f4e6f20616363657373206772616e74656420746f207468697320646f63746f726044820152fd5b60405162461bcd60e51b815260206004820152601c60248201527f4f6e6c79206f776e65722063616e207265766f6b6520616363657373000000006044820152606490fd5b346101295760a0366003190112610129576004356001600160401b0381116101295761061f903690600401611817565b6024356001600160401b0381116101295761063e903690600401611817565b6044356001600160401b0381116101295761065d903690600401611ab8565b6064356001600160401b0381116101295761067c903690600401611ab8565b906084356001600160401b0381116101295761069c903690600401611ab8565b9060405160208187516106b28183858c0161186d565b60019082019081520301902060098101546001600160a01b03166106d7811515611b77565b336000818152600a840160205260409020549114908115610905575b501561089a57815184518114908161088f575b501561085157600c018054600160401b81101561031a576001810180835581101561083b5760009182526020909120600291821b0180546001600160a01b03191633178155426001820155959461075e918701611e51565b600360009501945b8151811015610803576107798183611de5565b51906107858186611de5565b51916107918286611de5565b5192604051916107a0836117db565b825260208201908152604082019384528854600160401b81101561031a578060016107ce92018b558a611f7c565b919091610304576001946107f56002926107ec6107fd965186611e51565b51878501611e51565b519101611e51565b01610766565b61080c85611f5c565b604051904282527fc80725979b17511ebf63e1f6dc8d5c05386ddcac1a1faa0d7301160188f772f360203393a3005b634e487b7160e01b600052603260045260246000fd5b60405162461bcd60e51b815260206004820152601660248201527509acac8d2c6d2dcca40c8c2e8c240dad2e6dac2e8c6d60531b6044820152606490fd5b905083511487610706565b60405162461bcd60e51b815260206004820152603a60248201527f4e6f7420617574686f72697a65643a204d757374206265204f776e6572206f7260448201527f20446f63746f72207769746820616374697665206163636573730000000000006064820152608490fd5b90504210876106f3565b34610129576020600a61097461092436611b36565b93906040519061096381519260098584019461094181848861186d565b6001908301908152829003860190912001546001600160a01b03161515611b77565b60405193849283925192839161186d565b81016001815203019020019060018060a01b03166000526020526020604060002054604051908152f35b34610129576000366003190112610129576000546040516001600160a01b039091168152602090f35b34610129576020366003190112610129576004356001600160401b038111610129576109f7903690600401611817565b60405181519060096020840192610a0f81848661186d565b600190830190815282900360200190912001546001600160a01b03163303610b31576020610a4b91600b9360405193849283925192839161186d565b8101600181520301902001805490610a6282611aa1565b91610a7060405193846117f6565b80835260208301809260005260206000206000915b838310610af35784866040519182916020830190602084525180915260408301919060005b818110610ab8575050500390f35b825180516001600160a01b03168552602081810151818701526040918201519186019190915286955060609094019390920191600101610aaa565b60036020600192604051610b06816117db565b848060a01b038654168152848601548382015260028601546040820152815201920192019190610a85565b60405162461bcd60e51b815260206004820152601b60248201527f4f6e6c79206f776e65722063616e207669657720686973746f727900000000006044820152606490fd5b3461012957600036600319011261012957610b8f611fdd565b600080546001600160a01b0319811682556001600160a01b03167f8be0079c531659141344cd1fd0a4f28419497f9722a3daafe3b4186f6b6457e08280a3005b3461012957610140366003190112610129576004356001600160401b03811161012957610c00903690600401611817565b6024356001600160401b03811161012957610c1f903690600401611ab8565b6044356001600160401b03811161012957610c3e903690600401611817565b906064359260ff8416809403610129576084356001600160401b03811161012957610c6d903690600401611817565b60a4356001600160401b03811161012957610c8c903690600401611817565b60c4356001600160401b03811161012957610cab903690600401611817565b60e4356001600160401b03811161012957610cca903690600401611817565b90610104356001600160401b03811161012957610ceb903690600401611817565b92610124356001600160401b03811161012957610d0c903690600401611817565b94865115610ed257604051875190600960208a0192610d2c81848661186d565b600190830190815282900360200190912001546001600160a01b0316610e9c576020610d6391604051809381928c5192839161186d565b6001908201908152030190206009810180546001600160a01b031916331790559960005b8951811015610dd057610d9a818b611de5565b51908c54600160401b81101561031a57808e6001610dba93018155611cb4565b61030457600192610dca91611e51565b01610d87565b50600894610e248c95610e1b610e3696610e128f97610e2d97610dfb610e3c9f9e9a60018e01611e51565b60028c019060ff1982541617905560038b01611e51565b60048901611e51565b60058701611e51565b60068501611e51565b60078301611e51565b01611e51565b600254600160401b81101561031a57806001610e5d92016002556002611cb4565b6103045781610e6b91611e51565b610e753391611f5c565b7f5613b0ea20e0c0c2c37e5dee1b46009ee8b652c2f475d4d1057ef06a6a5b8c0c600080a3005b60405162461bcd60e51b815260206004820152600e60248201526d416c72656164792065786973747360901b6044820152606490fd5b60405162461bcd60e51b815260206004820152600b60248201526a1251081c995c5d5a5c995960aa1b6044820152606490fd5b3461012957602036600319011261012957610f1e6118b5565b600254906000906001600160a01b0316815b83811061114a5750610f4182611d69565b90610f4b83611d69565b92610f5581611d69565b610f5e82611db3565b610f6783611d69565b610f7084611d69565b610f7985611d69565b91610f8386611d69565b93610f8d87611d69565b95610fa0610f9a89611d69565b98611db3565b98600090818e5b8110610fc757505050610fc3999a9b506040519b8c9b8c611924565b0390f35b8b828f8f8c8f928f928c8f928f928e918e916040610fed610fe78f611c99565b50611ccc565b9b6000908152600a8d01602052204290541180611133575b61101f575b5050505050505050505050506001018e610fa7565b976110e68d9f809c989960019f6111199f9d97839c6110826111139f8e6110d26111009f899f906110c56110f39f8c9f938d9a6110a58c8097946110d99f82809761108260059f8f90846110929161108261107c61109899611c99565b50611bf5565b61108c8383611de5565b52611de5565b50611df9565b5061108260018c01611bf5565b506110b88360ff60028b01541692611de5565b5261108260038801611bf5565b5061108260048501611bf5565b5001611bf5565b5061108260068b01611bf5565b5061108260078801611bf5565b5061108260088501611bf5565b506009878060a01b039101541692611de5565b52611d5a565b9290508b388f8f8c8f928f928c8f928f928e918e9161100a565b5060098b01546001600160a01b03168e1415611005565b611156610fe782611c99565b8260406000828152600a840160205220429054119182611194575b5050611180575b600101610f30565b9161118c600191611d5a565b929050611178565b600901546001600160a01b0316141590508286611171565b34610129576020366003190112610129576111c56118b5565b600254906000906001600160a01b0316815b83811061146357506111e882611d69565b916111f281611d69565b936111fc82611d69565b61120583611db3565b61120e84611d69565b61121785611d69565b9061122186611d69565b9261122b87611d69565b9461123588611d69565b968b6112496112438b611d69565b9a611db3565b9a8c60009283915b85831061127057610fc38f8f8f8f8f8f8f8f8f6040519b8c9b8c611924565b8c8f928f928c8f928f928c8f928f928c6112898d611c99565b506001600160a01b039060099061129f90611ccc565b015416146112bd575b50505050505050505050506001018e8e611251565b928b9d9b989694928c9b9a989694928c93846112d88d611c99565b506112e290611ccc565b9c6112ec90611c99565b506112f690611bf5565b6113008284611de5565b5261130a91611de5565b50836113158c611df9565b61131f8284611de5565b5261132991611de5565b508261133760018c01611bf5565b6113418284611de5565b5261134b91611de5565b50600289015460ff169161135e91611de5565b528861136c60038901611bf5565b6113768284611de5565b5261138091611de5565b508761138e60048801611bf5565b6113988284611de5565b526113a291611de5565b50866113b060058701611bf5565b6113ba8284611de5565b526113c491611de5565b50856113d260068601611bf5565b6113dc8284611de5565b526113e691611de5565b50846113f460078501611bf5565b6113fe8284611de5565b5261140891611de5565b508361141660088401611bf5565b6114208284611de5565b5261142a91611de5565b50600901546001600160a01b03169161144291611de5565b5261144c90611d5a565b918c8f8f8c8f928f928c8f928f928e918e916112a8565b8161146d82611c99565b506001600160a01b039060099061148390611ccc565b01541614611494575b6001016111d7565b916114a0600191611d5a565b92905061148c565b34610129576020366003190112610129576004356001600160401b0381116101295760206114dd6114f0923690600401611817565b816040519382858094519384920161186d565b60019082019081520301902060098101546001600160a01b0316611515811515611b77565b336000818152600a8401602052604090205491149081156117d1575b501561177d57600c0180549061154682611aa1565b9161155460405193846117f6565b808352602083019081926000526020600020916000905b82821061169457848660405191829160208301906020845251809152604083019060408160051b85010192916000905b8282106115aa57505050500390f35b919390929450603f19868203018252845160018060a01b0381511682526020810151602083015260606115ec6040830151608060408601526080850190611890565b910151916060818303910152815180825260208201906020808260051b85010194019260005b828110611634575050505050602080600192960192019201859493919261159b565b9091929394602080611687600193601f1987820301895289519060406116766116668451606085526060850190611890565b8685015184820388860152611890565b920151906040818403910152611890565b9701950193929101611612565b604051608081018181106001600160401b0382111761031a5760405284546001600160a01b03168152600185015460208201526116d360028601611bf5565b60408201526003850180546116e781611aa1565b916116f560405193846117f6565b81835260208301906000526020600020906000905b8382106117315750505050600192826020926060600495015281520194019101909261156b565b60036020600192604051611744816117db565b61174d87611bf5565b815261175a858801611bf5565b8382015261176a60028801611bf5565b604082015281520193019101909161170a565b60405162461bcd60e51b815260206004820152602660248201527f4e6f7420617574686f72697a656420746f2076696577207265636f6d6d656e646044820152656174696f6e7360d01b6064820152608490fd5b9050421082611531565b606081019081106001600160401b0382111761031a57604052565b90601f801991011681019081106001600160401b0382111761031a57604052565b81601f82011215610129578035906001600160401b03821161031a576040519261184b601f8401601f1916602001856117f6565b8284526020838301011161012957816000926020809301838601378301015290565b60005b8381106118805750506000910152565b8181015183820152602001611870565b906020916118a98151809281855285808601910161186d565b601f01601f1916010190565b600435906001600160a01b038216820361012957565b9080602083519182815201916020808360051b8301019401926000915b8383106118f757505050505090565b9091929394602080611915600193601f198682030187528951611890565b970193019301919392906118e8565b999897969594929190611941906101608c526101608c01906118cb565b918a830360208c0152815180845260208401936020808360051b8301019401946000915b838310611a72575050505061198292508a820360408c01526118cb565b88810360608a01526020808451928381520193019060005b818110611a5957505050611a139695936119d96119f5946119cb856119e7958d608081611a049d9a039101526118cb565b908b820360a08d01526118cb565b9089820360c08b01526118cb565b9087820360e08901526118cb565b908582036101008701526118cb565b908382036101208501526118cb565b906101408183039101526020808351928381520192019060005b818110611a3a5750505090565b82516001600160a01b0316845260209384019390920191600101611a2d565b825160ff1685526020948501949092019160010161199a565b9091929394602080611a90600193601f198682030187528a516118cb565b980193019301919594939290611965565b6001600160401b03811161031a5760051b60200190565b9080601f83011215610129578135611acf81611aa1565b92611add60405194856117f6565b81845260208085019260051b820101918383116101295760208201905b838210611b0957505050505090565b81356001600160401b03811161012957602091611b2b87848094880101611817565b815201910190611afa565b604060031982011261012957600435906001600160401b03821161012957611b6091600401611817565b906024356001600160a01b03811681036101295790565b15611b7e57565b60405162461bcd60e51b8152602060048201526015602482015274149958dbdc9908191bd95cc81b9bdd08195e1a5cdd605a1b6044820152606490fd5b90600182811c92168015611beb575b6020831014611bd557565b634e487b7160e01b600052602260045260246000fd5b91607f1691611bca565b9060405191826000825492611c0984611bbb565b8084529360018116908115611c775750600114611c30575b50611c2e925003836117f6565b565b90506000929192526020600020906000915b818310611c5b575050906020611c2e9282010138611c21565b6020919350806001915483858901015201910190918492611c42565b905060209250611c2e94915060ff191682840152151560051b82010138611c21565b60025481101561083b57600260005260206000200190600090565b805482101561083b5760005260206000200190600090565b60405190816000825492611cdf84611bbb565b9360018116908115611d405750600114611d04575b5060209250600181520301902090565b9150506000528160206000206000905b838210611d28575050602091810138611cf4565b60209192508060019154848701520191018391611d14565b60ff19168452506020938015150283019150389050611cf4565b60001981146103305760010190565b90611d7382611aa1565b611d8060405191826117f6565b82815260208193611d93601f1991611aa1565b01910160005b828110611da557505050565b606082820152602001611d99565b90611dbd82611aa1565b611dca60405191826117f6565b8281528092611ddb601f1991611aa1565b0190602036910137565b805182101561083b5760209160051b010190565b908154611e0581611aa1565b92611e1360405194856117f6565b818452602084019060005260206000206000915b838310611e345750505050565b600160208192611e4385611bf5565b815201920192019190611e27565b91909182516001600160401b03811161031a57611e6e8254611bbb565b601f8111611f14575b506020601f8211600114611eb25781929394600092611ea7575b50508160011b916000199060031b1c1916179055565b015190503880611e91565b601f1982169083600052806000209160005b818110611efc57509583600195969710611ee3575b505050811b019055565b015160001960f88460031b161c19169055388080611ed9565b9192602060018192868b015181550194019201611ec4565b826000526020600020601f830160051c81019160208410611f52575b601f0160051c01905b818110611f465750611e77565b60008155600101611f39565b9091508190611f30565b611f749060206040519282848094519384920161186d565b810103902090565b805482101561083b576000526003602060002091020190600090565b15611f9f57565b60405162461bcd60e51b8152602060048201526016602482015275496e76616c696420646f63746f72206164647265737360501b6044820152606490fd5b6000546001600160a01b03163303611ff157565b63118cdaa760e01b6000523360045260246000fdfea264697066735822122094e2e434460b09caeda4da9eecc90c8dba9c76448ff51e403a5420d17a1c207a64736f6c634300081c0033",
  "linkReferences": {},
  "deployedLinkReferences": {}
}