{
  "_format": "hh-sol-artifact-1",
  "contractName": "MedicalRecords",
  "sourceName": "contracts/MedicalRecords.sol",
  "abi": [
    {
      "inputs": [],
      "stateMutability": "nonpayable",
      "type": "constructor"
    },
    {
      "inputs": [
        {
          "internalType": "address",
          "name": "owner",
          "type": "address"
        }
      ],
      "name": "OwnableInvalidOwner",
      "type": "error"
    },
    {
      "inputs": [
        {
          "internalType": "address",
          "name": "account",
          "type": "address"
        }
      ],
      "name": "OwnableUnauthorizedAccount",
      "type": "error"
    },
    {
      "anonymous": false,
      "inputs": [
        {
          "indexed": true,
          "internalType": "string",
          "name": "recordId",
          "type": "string"
        },
        {
          "indexed": true,
          "internalType": "address",
          "name": "doctor",
          "type": "address"
        },
        {
          "indexed": false,
          "internalType": "uint256",
          "name": "expiry",
          "type": "uint256"
        }
      ],
      "name": "AccessGranted",
      "type": "event"
    },
    {
      "anonymous": false,
      "inputs": [
        {
          "indexed": true,
          "internalType": "string",
          "name": "recordId",
          "type": "string"
        },
        {
          "indexed": true,
          "internalType": "address",
          "name": "doctor",
          "type": "address"
        },
        {
          "indexed": false,
          "internalType": "uint256",
          "name": "revokedAt",
          "type": "uint256"
        }
      ],
      "name": "AccessRevoked",
      "type": "event"
    },
    {
      "anonymous": false,
      "inputs": [
        {
          "indexed": true,
          "internalType": "address",
          "name": "previousOwner",
          "type": "address"
        },
        {
          "indexed": true,
          "internalType": "address",
          "name": "newOwner",
          "type": "address"
        }
      ],
      "name": "OwnershipTransferred",
      "type": "event"
    },
    {
      "anonymous": false,
      "inputs": [
        {
          "indexed": true,
          "internalType": "string",
          "name": "recordId",
          "type": "string"
        },
        {
          "indexed": true,
          "internalType": "address",
          "name": "owner",
          "type": "address"
        }
      ],
      "name": "RecordUploaded",
      "type": "event"
    },
    {
      "inputs": [
        {
          "internalType": "string",
          "name": "recordId",
          "type": "string"
        },
        {
          "internalType": "address",
          "name": "doctor",
          "type": "address"
        }
      ],
      "name": "checkAccessExpiry",
      "outputs": [
        {
          "internalType": "uint256",
          "name": "",
          "type": "uint256"
        }
      ],
      "stateMutability": "view",
      "type": "function"
    },
    {
      "inputs": [
        {
          "internalType": "string",
          "name": "recordId",
          "type": "string"
        }
      ],
      "name": "getAccessHistory",
      "outputs": [
        {
          "components": [
            {
              "internalType": "address",
              "name": "doctor",
              "type": "address"
            },
            {
              "internalType": "uint256",
              "name": "sharedAt",
              "type": "uint256"
            },
            {
              "internalType": "uint256",
              "name": "expiresAt",
              "type": "uint256"
            }
          ],
          "internalType": "struct MedicalRecords.AccessLog[]",
          "name": "",
          "type": "tuple[]"
        }
      ],
      "stateMutability": "view",
      "type": "function"
    },
    {
      "inputs": [
        {
          "internalType": "address",
          "name": "_owner",
          "type": "address"
        }
      ],
      "name": "getRecordsByOwner",
      "outputs": [
        {
          "internalType": "string[]",
          "name": "ownerRecordIds",
          "type": "string[]"
        },
        {
          "internalType": "string[][]",
          "name": "cidsList",
          "type": "string[][]"
        },
        {
          "internalType": "string[]",
          "name": "names",
          "type": "string[]"
        },
        {
          "internalType": "uint8[]",
          "name": "ages",
          "type": "uint8[]"
        },
        {
          "internalType": "string[]",
          "name": "genders",
          "type": "string[]"
        },
        {
          "internalType": "string[]",
          "name": "bloodPressures",
          "type": "string[]"
        },
        {
          "internalType": "string[]",
          "name": "heartRates",
          "type": "string[]"
        },
        {
          "internalType": "string[]",
          "name": "temperatures",
          "type": "string[]"
        },
        {
          "internalType": "string[]",
          "name": "diseaseGroup",
          "type": "string[]"
        },
        {
          "internalType": "string[]",
          "name": "description",
          "type": "string[]"
        },
        {
          "internalType": "address[]",
          "name": "owners",
          "type": "address[]"
        }
      ],
      "stateMutability": "view",
      "type": "function"
    },
    {
      "inputs": [
        {
          "internalType": "address",
          "name": "doctor",
          "type": "address"
        }
      ],
      "name": "getRecordsSharedWithMe",
      "outputs": [
        {
          "internalType": "string[]",
          "name": "sharedRecordIds",
          "type": "string[]"
        },
        {
          "internalType": "string[][]",
          "name": "cidsList",
          "type": "string[][]"
        },
        {
          "internalType": "string[]",
          "name": "names",
          "type": "string[]"
        },
        {
          "internalType": "uint8[]",
          "name": "ages",
          "type": "uint8[]"
        },
        {
          "internalType": "string[]",
          "name": "genders",
          "type": "string[]"
        },
        {
          "internalType": "string[]",
          "name": "bloodPressures",
          "type": "string[]"
        },
        {
          "internalType": "string[]",
          "name": "heartRates",
          "type": "string[]"
        },
        {
          "internalType": "string[]",
          "name": "temperatures",
          "type": "string[]"
        },
        {
          "internalType": "string[]",
          "name": "diseaseGroup",
          "type": "string[]"
        },
        {
          "internalType": "string[]",
          "name": "description",
          "type": "string[]"
        },
        {
          "internalType": "address[]",
          "name": "owners",
          "type": "address[]"
        }
      ],
      "stateMutability": "view",
      "type": "function"
    },
    {
      "inputs": [
        {
          "internalType": "string",
          "name": "recordId",
          "type": "string"
        },
        {
          "internalType": "address",
          "name": "doctor",
          "type": "address"
        },
        {
          "internalType": "uint256",
          "name": "duration",
          "type": "uint256"
        }
      ],
      "name": "grantAccess",
      "outputs": [],
      "stateMutability": "nonpayable",
      "type": "function"
    },
    {
      "inputs": [],
      "name": "owner",
      "outputs": [
        {
          "internalType": "address",
          "name": "",
          "type": "address"
        }
      ],
      "stateMutability": "view",
      "type": "function"
    },
    {
      "inputs": [],
      "name": "renounceOwnership",
      "outputs": [],
      "stateMutability": "nonpayable",
      "type": "function"
    },
    {
      "inputs": [
        {
          "internalType": "string",
          "name": "recordId",
          "type": "string"
        },
        {
          "internalType": "address",
          "name": "doctor",
          "type": "address"
        }
      ],
      "name": "revokeAccess",
      "outputs": [],
      "stateMutability": "nonpayable",
      "type": "function"
    },
    {
      "inputs": [
        {
          "internalType": "address",
          "name": "newOwner",
          "type": "address"
        }
      ],
      "name": "transferOwnership",
      "outputs": [],
      "stateMutability": "nonpayable",
      "type": "function"
    },
    {
      "inputs": [
        {
          "internalType": "string",
          "name": "recordId",
          "type": "string"
        },
        {
          "internalType": "string[]",
          "name": "_cids",
          "type": "string[]"
        },
        {
          "internalType": "string",
          "name": "_name",
          "type": "string"
        },
        {
          "internalType": "uint8",
          "name": "_age",
          "type": "uint8"
        },
        {
          "internalType": "string",
          "name": "_gender",
          "type": "string"
        },
        {
          "internalType": "string",
          "name": "_bloodPressure",
          "type": "string"
        },
        {
          "internalType": "string",
          "name": "_heartRate",
          "type": "string"
        },
        {
          "internalType": "string",
          "name": "_temperature",
          "type": "string"
        },
        {
          "internalType": "string",
          "name": "_diseaseGroup",
          "type": "string"
        },
        {
          "internalType": "string",
          "name": "_description",
          "type": "string"
        }
      ],
      "name": "uploadRecord",
      "outputs": [],
      "stateMutability": "nonpayable",
      "type": "function"
    }
  ],
  "bytecode": "0x608080604052346075573315605f5760008054336001600160a01b0319821681178355916001600160a01b03909116907f8be0079c531659141344cd1fd0a4f28419497f9722a3daafe3b4186f6b6457e09080a3611a18908161007b8239f35b631e4fbdf760e01b600052600060045260246000fd5b600080fdfe6080604052600436101561001257600080fd5b60003560e01c8063552d710514610f455780636910dd2a14610c9e5780636c2b8226146108e3578063715018a61461088a5780638117eada146106db5780638da5cb5b146106b2578063aec36904146105e9578063dfe0b5fe14610424578063e5492e2b146101185763f2fde38b1461008a57600080fd5b34610113576020366003190112610113576100a3611241565b6100ab6119b9565b6001600160a01b031680156100fd57600080546001600160a01b03198116831782556001600160a01b0316907f8be0079c531659141344cd1fd0a4f28419497f9722a3daafe3b4186f6b6457e09080a3005b631e4fbdf760e01b600052600060045260246000fd5b600080fd5b34610113576060366003190112610113576004356001600160401b03811161011357610148903690600401611505565b6024356001600160a01b03811691908290036101135760443590604051918151926009602084019461017b818488611257565b600190830190815282900360200190912001546001600160a01b031633036103df576101a8841515611974565b801561038f57600a60405160208185516101c381838a611257565b8101600181520301902001846000526020526040600020548015908115610384575b50156103405742019182421161032a5761023a6020600b92600a60405183818851610211818388611257565b810160018152030190200187600052825285604060002055604051809381928751928391611257565b81016001815203019020019060405191610253836114c9565b84835260208301914283526040840193858552825492600160401b84101561031457600184018082558410156102fe577fcd5010f0cf521705dc993ca35e5b2fd59371fb9516f4c5dab9cd77693bbf92b0956020956102f4956002936000526003886000209102019360018060a01b039060018060a01b03905116166bffffffffffffffffffffffff60a01b85541617845551600184015551910155611954565b92604051908152a3005b634e487b7160e01b600052603260045260246000fd5b634e487b7160e01b600052604160045260246000fd5b634e487b7160e01b600052601160045260246000fd5b606460405162461bcd60e51b815260206004820152602060248201527f446f63746f7220616c72656164792068617320616374697665206163636573736044820152fd5b9050421015856101e5565b60405162461bcd60e51b815260206004820152602260248201527f4475726174696f6e206d7573742062652067726561746572207468616e207a65604482015261726f60f01b6064820152608490fd5b60405162461bcd60e51b815260206004820152601b60248201527f4f6e6c79206f776e65722063616e206772616e742061636365737300000000006044820152606490fd5b346101135761043236611572565b604051908251916009602085019361044b818487611257565b600190830190815282900360200190912001546001600160a01b031633036105a4576001600160a01b031691610482831515611974565b600a6040516020818451610497818389611257565b81016001815203019020018360005260205260406000205480156105605742101561052257600a6104d860206104f694604051809381928751928391611257565b81016001815203019020018360005260205260006040812055611954565b7ff7eb47ecbc62e098414c8565b83461841e3ae69f64ad0da8609abefecaec86ad6020604051428152a3005b60405162461bcd60e51b81526020600482015260166024820152751058d8d95cdcc8185b1c9958591e48195e1c1a5c995960521b6044820152606490fd5b606460405162461bcd60e51b815260206004820152602060248201527f4e6f20616363657373206772616e74656420746f207468697320646f63746f726044820152fd5b60405162461bcd60e51b815260206004820152601c60248201527f4f6e6c79206f776e65722063616e207265766f6b6520616363657373000000006044820152606490fd5b34610113576105f736611572565b9060405181519060096020840192610610818486611257565b600190830190815282900360200190912001546001600160a01b03161561067557602061064b91600a93604051938492839251928391611257565b81016001815203019020019060018060a01b03166000526020526020604060002054604051908152f35b60405162461bcd60e51b8152602060048201526015602482015274149958dbdc9908191bd95cc81b9bdd08195e1a5cdd605a1b6044820152606490fd5b34610113576000366003190112610113576000546040516001600160a01b039091168152602090f35b34610113576020366003190112610113576004356001600160401b0381116101135761070b903690600401611505565b60405181519060096020840192610723818486611257565b600190830190815282900360200190912001546001600160a01b0316330361084557602061075f91600b93604051938492839251928391611257565b81016001815203019020018054906107768261155b565b9161078460405193846114e4565b80835260208301809260005260206000206000915b8383106108075784866040519182916020830190602084525180915260408301919060005b8181106107cc575050500390f35b825180516001600160a01b031685526020818101518187015260409182015191860191909152869550606090940193909201916001016107be565b6003602060019260405161081a816114c9565b848060a01b038654168152848601548382015260028601546040820152815201920192019190610799565b60405162461bcd60e51b815260206004820152601b60248201527f4f6e6c79206f776e65722063616e207669657720686973746f727900000000006044820152606490fd5b34610113576000366003190112610113576108a36119b9565b600080546001600160a01b0319811682556001600160a01b03167f8be0079c531659141344cd1fd0a4f28419497f9722a3daafe3b4186f6b6457e08280a3005b3461011357610140366003190112610113576004356001600160401b03811161011357610914903690600401611505565b6024356001600160401b038111610113573660238201121561011357806004013561093e8161155b565b9161094c60405193846114e4565b8183526024602084019260051b820101903682116101135760248101925b828410610c6f5785856044356001600160401b03811161011357610992903690600401611505565b906064359260ff8416809403610113576084356001600160401b038111610113576109c1903690600401611505565b60a4356001600160401b038111610113576109e0903690600401611505565b60c4356001600160401b038111610113576109ff903690600401611505565b60e4356001600160401b03811161011357610a1e903690600401611505565b90610104356001600160401b03811161011357610a3f903690600401611505565b92610124356001600160401b03811161011357610a60903690600401611505565b94865115610c3c57604051875190600960208a0192610a80818486611257565b600190830190815282900360200190912001546001600160a01b0316610c06576020610ab791604051809381928c51928391611257565b6001908201908152030190206009810180546001600160a01b031916331790559960005b8951811015610b3a57610aee818b611739565b51908c54600160401b81101561031457808e6001610b0e930181556115ce565b610b2457600192610b1e91611849565b01610adb565b634e487b7160e01b600052600060045260246000fd5b50600894610b8e8c95610b85610ba096610b7c8f97610b9797610b65610ba69f9e9a60018e01611849565b60028c019060ff1982541617905560038b01611849565b60048901611849565b60058701611849565b60068501611849565b60078301611849565b01611849565b600254600160401b81101561031457806001610bc7920160025560026115ce565b610b245781610bd591611849565b610bdf3391611954565b7f5613b0ea20e0c0c2c37e5dee1b46009ee8b652c2f475d4d1057ef06a6a5b8c0c600080a3005b60405162461bcd60e51b815260206004820152600e60248201526d416c72656164792065786973747360901b6044820152606490fd5b60405162461bcd60e51b815260206004820152600b60248201526a1251081c995c5d5a5c995960aa1b6044820152606490fd5b83356001600160401b03811161011357602091610c93839260243691870101611505565b81520193019261096a565b3461011357602036600319011261011357610cb7611241565b600254906000906001600160a01b0316815b838110610ee35750610cda826116bd565b90610ce4836116bd565b92610cee816116bd565b610cf782611707565b610d00836116bd565b610d09846116bd565b610d12856116bd565b91610d1c866116bd565b93610d26876116bd565b95610d39610d33896116bd565b98611707565b98600090818e5b8110610d6057505050610d5c999a9b506040519b8c9b8c6112eb565b0390f35b8b828f8f8c8f928f928c8f928f928e918e916040610d86610d808f6115b3565b50611620565b9b6000908152600a8d01602052204290541180610ecc575b610db8575b5050505050505050505050506001018e610d40565b97610e7f8d9f809c989960019f610eb29f9d97839c610e1b610eac9f8e610e6b610e999f899f90610e5e610e8c9f8c9f938d9a610e3e8c809794610e729f828097610e1b60059f8f9084610e2b91610e1b610e15610e31996115b3565b5061174d565b610e258383611739565b52611739565b506117f1565b50610e1b60018c0161174d565b50610e518360ff60028b01541692611739565b52610e1b6003880161174d565b50610e1b6004850161174d565b500161174d565b50610e1b60068b0161174d565b50610e1b6007880161174d565b50610e1b6008850161174d565b506009878060a01b039101541692611739565b526116ae565b9290508b388f8f8c8f928f928c8f928f928e918e91610da3565b5060098b01546001600160a01b03168e1415610d9e565b610eef610d80826115b3565b8260406000828152600a840160205220429054119182610f2d575b5050610f19575b600101610cc9565b91610f256001916116ae565b929050610f11565b600901546001600160a01b0316141590508286610f0a565b3461011357602036600319011261011357610f5e611241565b600254906000906001600160a01b0316815b8381106111fc5750610f81826116bd565b91610f8b816116bd565b93610f95826116bd565b610f9e83611707565b610fa7846116bd565b610fb0856116bd565b90610fba866116bd565b92610fc4876116bd565b94610fce886116bd565b968b610fe2610fdc8b6116bd565b9a611707565b9a8c60009283915b85831061100957610d5c8f8f8f8f8f8f8f8f8f6040519b8c9b8c6112eb565b8c8f928f928c8f928f928c8f928f928c6110228d6115b3565b506001600160a01b039060099061103890611620565b01541614611056575b50505050505050505050506001018e8e610fea565b928b9d9b989694928c9b9a989694928c93846110718d6115b3565b5061107b90611620565b9c611085906115b3565b5061108f9061174d565b6110998284611739565b526110a391611739565b50836110ae8c6117f1565b6110b88284611739565b526110c291611739565b50826110d060018c0161174d565b6110da8284611739565b526110e491611739565b50600289015460ff16916110f791611739565b52886111056003890161174d565b61110f8284611739565b5261111991611739565b50876111276004880161174d565b6111318284611739565b5261113b91611739565b50866111496005870161174d565b6111538284611739565b5261115d91611739565b508561116b6006860161174d565b6111758284611739565b5261117f91611739565b508461118d6007850161174d565b6111978284611739565b526111a191611739565b50836111af6008840161174d565b6111b98284611739565b526111c391611739565b50600901546001600160a01b0316916111db91611739565b526111e5906116ae565b918c8f8f8c8f928f928c8f928f928e918e91611041565b81611206826115b3565b506001600160a01b039060099061121c90611620565b0154161461122d575b600101610f70565b916112396001916116ae565b929050611225565b600435906001600160a01b038216820361011357565b60005b83811061126a5750506000910152565b818101518382015260200161125a565b9080602083519182815201916020808360051b8301019401926000915b8383106112a657505050505090565b909192939460208080600193601f1986820301875289516112d281518092818552858086019101611257565b601f01601f191601019701959491909101920190611297565b999897969594929190611308906101608c526101608c019061127a565b918a830360208c0152815180845260208401936020808360051b8301019401946000915b838310611439575050505061134992508a820360408c015261127a565b88810360608a01526020808451928381520193019060005b818110611420575050506113da9695936113a06113bc94611392856113ae958d6080816113cb9d9a0391015261127a565b908b820360a08d015261127a565b9089820360c08b015261127a565b9087820360e089015261127a565b9085820361010087015261127a565b9083820361012085015261127a565b906101408183039101526020808351928381520192019060005b8181106114015750505090565b82516001600160a01b03168452602093840193909201916001016113f4565b825160ff16855260209485019490920191600101611361565b9091929394601f19828203018352865190815180825260208201906020808260051b85010194019260005b82811061148757505050505060208060019298019301930191959493929061132c565b909192939460208080600193601f1987820301895289516114b381518092818552858086019101611257565b601f01601f191601019701950193929101611464565b606081019081106001600160401b0382111761031457604052565b90601f801991011681019081106001600160401b0382111761031457604052565b81601f82011215610113578035906001600160401b0382116103145760405192611539601f8401601f1916602001856114e4565b8284526020838301011161011357816000926020809301838601378301015290565b6001600160401b0381116103145760051b60200190565b604060031982011261011357600435906001600160401b0382116101135761159c91600401611505565b906024356001600160a01b03811681036101135790565b6002548110156102fe57600260005260206000200190600090565b80548210156102fe5760005260206000200190600090565b90600182811c92168015611616575b602083101461160057565b634e487b7160e01b600052602260045260246000fd5b91607f16916115f5565b60405190816000825492611633846115e6565b93600181169081156116945750600114611658575b5060209250600181520301902090565b9150506000528160206000206000905b83821061167c575050602091810138611648565b60209192508060019154848701520191018391611668565b60ff19168452506020938015150283019150389050611648565b600019811461032a5760010190565b906116c78261155b565b6116d460405191826114e4565b828152602081936116e7601f199161155b565b01910160005b8281106116f957505050565b6060828201526020016116ed565b906117118261155b565b61171e60405191826114e4565b828152809261172f601f199161155b565b0190602036910137565b80518210156102fe5760209160051b010190565b9060405191826000825492611761846115e6565b80845293600181169081156117cf5750600114611788575b50611786925003836114e4565b565b90506000929192526020600020906000915b8183106117b35750509060206117869282010138611779565b602091935080600191548385890101520191019091849261179a565b90506020925061178694915060ff191682840152151560051b82010138611779565b9081546117fd8161155b565b9261180b60405194856114e4565b818452602084019060005260206000206000915b83831061182c5750505050565b60016020819261183b8561174d565b81520192019201919061181f565b91909182516001600160401b0381116103145761186682546115e6565b601f811161190c575b506020601f82116001146118aa578192939460009261189f575b50508160011b916000199060031b1c1916179055565b015190503880611889565b601f1982169083600052806000209160005b8181106118f4575095836001959697106118db575b505050811b019055565b015160001960f88460031b161c191690553880806118d1565b9192602060018192868b0151815501940192016118bc565b826000526020600020601f830160051c8101916020841061194a575b601f0160051c01905b81811061193e575061186f565b60008155600101611931565b9091508190611928565b61196c90602060405192828480945193849201611257565b810103902090565b1561197b57565b60405162461bcd60e51b8152602060048201526016602482015275496e76616c696420646f63746f72206164647265737360501b6044820152606490fd5b6000546001600160a01b031633036119cd57565b63118cdaa760e01b6000523360045260246000fdfea2646970667358221220a53618952420db59d11fb22f04171208b26d374fc4b839a41083d6407571d84d64736f6c634300081c0033",
  "linkReferences": {},
  "deployedLinkReferences": {}
}