{
  "_format": "hh-sol-artifact-1",
  "contractName": "MedicalRecords",
  "sourceName": "contracts/MedicalRecords.sol",
  "abi": [
    {
      "inputs": [],
      "stateMutability": "nonpayable",
      "type": "constructor"
    },
    {
      "inputs": [
        {
          "internalType": "address",
          "name": "owner",
          "type": "address"
        }
      ],
      "name": "OwnableInvalidOwner",
      "type": "error"
    },
    {
      "inputs": [
        {
          "internalType": "address",
          "name": "account",
          "type": "address"
        }
      ],
      "name": "OwnableUnauthorizedAccount",
      "type": "error"
    },
    {
      "anonymous": false,
      "inputs": [
        {
          "indexed": true,
          "internalType": "string",
          "name": "cid",
          "type": "string"
        },
        {
          "indexed": true,
          "internalType": "address",
          "name": "doctor",
          "type": "address"
        },
        {
          "indexed": false,
          "internalType": "uint256",
          "name": "expiry",
          "type": "uint256"
        }
      ],
      "name": "AccessGranted",
      "type": "event"
    },
    {
      "anonymous": false,
      "inputs": [
        {
          "indexed": true,
          "internalType": "string",
          "name": "cid",
          "type": "string"
        },
        {
          "indexed": true,
          "internalType": "address",
          "name": "doctor",
          "type": "address"
        }
      ],
      "name": "AccessRevoked",
      "type": "event"
    },
    {
      "anonymous": false,
      "inputs": [
        {
          "indexed": true,
          "internalType": "address",
          "name": "previousOwner",
          "type": "address"
        },
        {
          "indexed": true,
          "internalType": "address",
          "name": "newOwner",
          "type": "address"
        }
      ],
      "name": "OwnershipTransferred",
      "type": "event"
    },
    {
      "anonymous": false,
      "inputs": [
        {
          "indexed": true,
          "internalType": "string",
          "name": "cid",
          "type": "string"
        },
        {
          "indexed": true,
          "internalType": "address",
          "name": "owner",
          "type": "address"
        }
      ],
      "name": "RecordUploaded",
      "type": "event"
    },
    {
      "inputs": [
        {
          "internalType": "string",
          "name": "_cid",
          "type": "string"
        },
        {
          "internalType": "address",
          "name": "_doctor",
          "type": "address"
        },
        {
          "internalType": "uint256",
          "name": "_duration",
          "type": "uint256"
        }
      ],
      "name": "grantAccess",
      "outputs": [],
      "stateMutability": "nonpayable",
      "type": "function"
    },
    {
      "inputs": [
        {
          "internalType": "string",
          "name": "_cid",
          "type": "string"
        },
        {
          "internalType": "address",
          "name": "_user",
          "type": "address"
        }
      ],
      "name": "hasAccess",
      "outputs": [
        {
          "internalType": "bool",
          "name": "",
          "type": "bool"
        }
      ],
      "stateMutability": "view",
      "type": "function"
    },
    {
      "inputs": [],
      "name": "owner",
      "outputs": [
        {
          "internalType": "address",
          "name": "",
          "type": "address"
        }
      ],
      "stateMutability": "view",
      "type": "function"
    },
    {
      "inputs": [],
      "name": "renounceOwnership",
      "outputs": [],
      "stateMutability": "nonpayable",
      "type": "function"
    },
    {
      "inputs": [
        {
          "internalType": "string",
          "name": "_cid",
          "type": "string"
        },
        {
          "internalType": "address",
          "name": "_doctor",
          "type": "address"
        }
      ],
      "name": "revokeAccess",
      "outputs": [],
      "stateMutability": "nonpayable",
      "type": "function"
    },
    {
      "inputs": [
        {
          "internalType": "address",
          "name": "newOwner",
          "type": "address"
        }
      ],
      "name": "transferOwnership",
      "outputs": [],
      "stateMutability": "nonpayable",
      "type": "function"
    },
    {
      "inputs": [
        {
          "internalType": "string",
          "name": "_cid",
          "type": "string"
        }
      ],
      "name": "uploadRecord",
      "outputs": [],
      "stateMutability": "nonpayable",
      "type": "function"
    }
  ],
  "bytecode": "0x608060405234801561001057600080fd5b5033600073ffffffffffffffffffffffffffffffffffffffff168173ffffffffffffffffffffffffffffffffffffffff16036100845760006040517f1e4fbdf700000000000000000000000000000000000000000000000000000000815260040161007b919061019e565b60405180910390fd5b6100938161009960201b60201c565b506101b9565b60008060009054906101000a900473ffffffffffffffffffffffffffffffffffffffff169050816000806101000a81548173ffffffffffffffffffffffffffffffffffffffff021916908373ffffffffffffffffffffffffffffffffffffffff1602179055508173ffffffffffffffffffffffffffffffffffffffff168173ffffffffffffffffffffffffffffffffffffffff167f8be0079c531659141344cd1fd0a4f28419497f9722a3daafe3b4186f6b6457e060405160405180910390a35050565b600073ffffffffffffffffffffffffffffffffffffffff82169050919050565b60006101888261015d565b9050919050565b6101988161017d565b82525050565b60006020820190506101b3600083018461018f565b92915050565b6110ce806101c86000396000f3fe608060405234801561001057600080fd5b506004361061007d5760003560e01c80638da5cb5b1161005b5780638da5cb5b146100d8578063dfe0b5fe146100f6578063e5492e2b14610112578063f2fde38b1461012e5761007d565b806313bd20e214610082578063715018a6146100b25780637fb869bb146100bc575b600080fd5b61009c600480360381019061009791906109e5565b61014a565b6040516100a99190610a5c565b60405180910390f35b6100ba61022d565b005b6100d660048036038101906100d19190610a77565b610241565b005b6100e061032c565b6040516100ed9190610acf565b60405180910390f35b610110600480360381019061010b91906109e5565b610355565b005b61012c60048036038101906101279190610b20565b6104c3565b005b61014860048036038101906101439190610b8f565b610654565b005b60008173ffffffffffffffffffffffffffffffffffffffff166001846040516101739190610c2d565b908152602001604051809103902060010160009054906101000a900473ffffffffffffffffffffffffffffffffffffffff1673ffffffffffffffffffffffffffffffffffffffff16148061022557506001836040516101d29190610c2d565b908152602001604051809103902060020160008373ffffffffffffffffffffffffffffffffffffffff1673ffffffffffffffffffffffffffffffffffffffff168152602001908152602001600020544211155b905092915050565b6102356106da565b61023f6000610761565b565b806001826040516102529190610c2d565b9081526020016040518091039020600001908161026f9190610e50565b50336001826040516102819190610c2d565b908152602001604051809103902060010160006101000a81548173ffffffffffffffffffffffffffffffffffffffff021916908373ffffffffffffffffffffffffffffffffffffffff1602179055503373ffffffffffffffffffffffffffffffffffffffff16816040516102f59190610c2d565b60405180910390207f5613b0ea20e0c0c2c37e5dee1b46009ee8b652c2f475d4d1057ef06a6a5b8c0c60405160405180910390a350565b60008060009054906101000a900473ffffffffffffffffffffffffffffffffffffffff16905090565b3373ffffffffffffffffffffffffffffffffffffffff1660018360405161037c9190610c2d565b908152602001604051809103902060010160009054906101000a900473ffffffffffffffffffffffffffffffffffffffff1673ffffffffffffffffffffffffffffffffffffffff1614610404576040517f08c379a00000000000000000000000000000000000000000000000000000000081526004016103fb90610f7f565b60405180910390fd5b6001826040516104149190610c2d565b908152602001604051809103902060020160008273ffffffffffffffffffffffffffffffffffffffff1673ffffffffffffffffffffffffffffffffffffffff168152602001908152602001600020600090558073ffffffffffffffffffffffffffffffffffffffff168260405161048b9190610c2d565b60405180910390207fa4056635223780a71518e8c10b6fc0fd195775c8375c4841c124a959ae5c30ad60405160405180910390a35050565b3373ffffffffffffffffffffffffffffffffffffffff166001846040516104ea9190610c2d565b908152602001604051809103902060010160009054906101000a900473ffffffffffffffffffffffffffffffffffffffff1673ffffffffffffffffffffffffffffffffffffffff1614610572576040517f08c379a000000000000000000000000000000000000000000000000000000000815260040161056990610feb565b60405180910390fd5b804261057e919061103a565b60018460405161058e9190610c2d565b908152602001604051809103902060020160008473ffffffffffffffffffffffffffffffffffffffff1673ffffffffffffffffffffffffffffffffffffffff168152602001908152602001600020819055508173ffffffffffffffffffffffffffffffffffffffff16836040516106059190610c2d565b60405180910390207fcd5010f0cf521705dc993ca35e5b2fd59371fb9516f4c5dab9cd77693bbf92b0834261063a919061103a565b604051610647919061107d565b60405180910390a3505050565b61065c6106da565b600073ffffffffffffffffffffffffffffffffffffffff168173ffffffffffffffffffffffffffffffffffffffff16036106ce5760006040517f1e4fbdf70000000000000000000000000000000000000000000000000000000081526004016106c59190610acf565b60405180910390fd5b6106d781610761565b50565b6106e2610825565b73ffffffffffffffffffffffffffffffffffffffff1661070061032c565b73ffffffffffffffffffffffffffffffffffffffff161461075f57610723610825565b6040517f118cdaa70000000000000000000000000000000000000000000000000000000081526004016107569190610acf565b60405180910390fd5b565b60008060009054906101000a900473ffffffffffffffffffffffffffffffffffffffff169050816000806101000a81548173ffffffffffffffffffffffffffffffffffffffff021916908373ffffffffffffffffffffffffffffffffffffffff1602179055508173ffffffffffffffffffffffffffffffffffffffff168173ffffffffffffffffffffffffffffffffffffffff167f8be0079c531659141344cd1fd0a4f28419497f9722a3daafe3b4186f6b6457e060405160405180910390a35050565b600033905090565b6000604051905090565b600080fd5b600080fd5b600080fd5b600080fd5b6000601f19601f8301169050919050565b7f4e487b7100000000000000000000000000000000000000000000000000000000600052604160045260246000fd5b6108948261084b565b810181811067ffffffffffffffff821117156108b3576108b261085c565b5b80604052505050565b60006108c661082d565b90506108d2828261088b565b919050565b600067ffffffffffffffff8211156108f2576108f161085c565b5b6108fb8261084b565b9050602081019050919050565b82818337600083830152505050565b600061092a610925846108d7565b6108bc565b90508281526020810184848401111561094657610945610846565b5b610951848285610908565b509392505050565b600082601f83011261096e5761096d610841565b5b813561097e848260208601610917565b91505092915050565b600073ffffffffffffffffffffffffffffffffffffffff82169050919050565b60006109b282610987565b9050919050565b6109c2816109a7565b81146109cd57600080fd5b50565b6000813590506109df816109b9565b92915050565b600080604083850312156109fc576109fb610837565b5b600083013567ffffffffffffffff811115610a1a57610a1961083c565b5b610a2685828601610959565b9250506020610a37858286016109d0565b9150509250929050565b60008115159050919050565b610a5681610a41565b82525050565b6000602082019050610a716000830184610a4d565b92915050565b600060208284031215610a8d57610a8c610837565b5b600082013567ffffffffffffffff811115610aab57610aaa61083c565b5b610ab784828501610959565b91505092915050565b610ac9816109a7565b82525050565b6000602082019050610ae46000830184610ac0565b92915050565b6000819050919050565b610afd81610aea565b8114610b0857600080fd5b50565b600081359050610b1a81610af4565b92915050565b600080600060608486031215610b3957610b38610837565b5b600084013567ffffffffffffffff811115610b5757610b5661083c565b5b610b6386828701610959565b9350506020610b74868287016109d0565b9250506040610b8586828701610b0b565b9150509250925092565b600060208284031215610ba557610ba4610837565b5b6000610bb3848285016109d0565b91505092915050565b600081519050919050565b600081905092915050565b60005b83811015610bf0578082015181840152602081019050610bd5565b60008484015250505050565b6000610c0782610bbc565b610c118185610bc7565b9350610c21818560208601610bd2565b80840191505092915050565b6000610c398284610bfc565b915081905092915050565b7f4e487b7100000000000000000000000000000000000000000000000000000000600052602260045260246000fd5b60006002820490506001821680610c8b57607f821691505b602082108103610c9e57610c9d610c44565b5b50919050565b60008190508160005260206000209050919050565b60006020601f8301049050919050565b600082821b905092915050565b600060088302610d067fffffffffffffffffffffffffffffffffffffffffffffffffffffffffffffffff82610cc9565b610d108683610cc9565b95508019841693508086168417925050509392505050565b6000819050919050565b6000610d4d610d48610d4384610aea565b610d28565b610aea565b9050919050565b6000819050919050565b610d6783610d32565b610d7b610d7382610d54565b848454610cd6565b825550505050565b600090565b610d90610d83565b610d9b818484610d5e565b505050565b5b81811015610dbf57610db4600082610d88565b600181019050610da1565b5050565b601f821115610e0457610dd581610ca4565b610dde84610cb9565b81016020851015610ded578190505b610e01610df985610cb9565b830182610da0565b50505b505050565b600082821c905092915050565b6000610e2760001984600802610e09565b1980831691505092915050565b6000610e408383610e16565b9150826002028217905092915050565b610e5982610bbc565b67ffffffffffffffff811115610e7257610e7161085c565b5b610e7c8254610c73565b610e87828285610dc3565b600060209050601f831160018114610eba5760008415610ea8578287015190505b610eb28582610e34565b865550610f1a565b601f198416610ec886610ca4565b60005b82811015610ef057848901518255600182019150602085019450602081019050610ecb565b86831015610f0d5784890151610f09601f891682610e16565b8355505b6001600288020188555050505b505050505050565b600082825260208201905092915050565b7f4f6e6c79206f776e65722063616e207265766f6b652061636365737300000000600082015250565b6000610f69601c83610f22565b9150610f7482610f33565b602082019050919050565b60006020820190508181036000830152610f9881610f5c565b9050919050565b7f4f6e6c79206f776e65722063616e206772616e74206163636573730000000000600082015250565b6000610fd5601b83610f22565b9150610fe082610f9f565b602082019050919050565b6000602082019050818103600083015261100481610fc8565b9050919050565b7f4e487b7100000000000000000000000000000000000000000000000000000000600052601160045260246000fd5b600061104582610aea565b915061105083610aea565b92508282019050808211156110685761106761100b565b5b92915050565b61107781610aea565b82525050565b6000602082019050611092600083018461106e565b9291505056fea264697066735822122067e0c9004c0fe22626e593c8a349b801613351ca00d49223bdc4975296354f4064736f6c634300081c0033",
  "linkReferences": {},
  "deployedLinkReferences": {}
}